{
  "contractName": "FirstSale",
  "abi": [
    {
      "constant": true,
      "inputs": [],
      "name": "PRESALE_LEVEL_4",
      "outputs": [
        {
          "name": "",
          "type": "uint256"
        }
      ],
      "payable": false,
      "stateMutability": "view",
      "type": "function"
    },
    {
      "constant": true,
      "inputs": [],
      "name": "ICO_LEVEL_4",
      "outputs": [
        {
          "name": "",
          "type": "uint256"
        }
      ],
      "payable": false,
      "stateMutability": "view",
      "type": "function"
    },
    {
      "constant": true,
      "inputs": [],
      "name": "PRIVATESALE_LEVEL_1",
      "outputs": [
        {
          "name": "",
          "type": "uint256"
        }
      ],
      "payable": false,
      "stateMutability": "view",
      "type": "function"
    },
    {
      "constant": true,
      "inputs": [],
      "name": "PRIVATESALE_LEVEL_3",
      "outputs": [
        {
          "name": "",
          "type": "uint256"
        }
      ],
      "payable": false,
      "stateMutability": "view",
      "type": "function"
    },
    {
      "constant": true,
      "inputs": [],
      "name": "PRESALE_PERCENTAGE_4",
      "outputs": [
        {
          "name": "",
          "type": "uint256"
        }
      ],
      "payable": false,
      "stateMutability": "view",
      "type": "function"
    },
    {
      "constant": true,
      "inputs": [],
      "name": "PRIVATESALE_BASE_PRICE_IN_WEI",
      "outputs": [
        {
          "name": "",
          "type": "uint256"
        }
      ],
      "payable": false,
      "stateMutability": "view",
      "type": "function"
    },
    {
      "constant": true,
      "inputs": [],
      "name": "ledTokensAllocated",
      "outputs": [
        {
          "name": "",
          "type": "bool"
        }
      ],
      "payable": false,
      "stateMutability": "view",
      "type": "function"
    },
    {
      "constant": true,
      "inputs": [],
      "name": "started",
      "outputs": [
        {
          "name": "",
          "type": "bool"
        }
      ],
      "payable": false,
      "stateMutability": "view",
      "type": "function"
    },
    {
      "constant": true,
      "inputs": [],
      "name": "ICO_PERCENTAGE_3",
      "outputs": [
        {
          "name": "",
          "type": "uint256"
        }
      ],
      "payable": false,
      "stateMutability": "view",
      "type": "function"
    },
    {
      "constant": true,
      "inputs": [],
      "name": "surplusTokens",
      "outputs": [
        {
          "name": "",
          "type": "uint256"
        }
      ],
      "payable": false,
      "stateMutability": "view",
      "type": "function"
    },
    {
      "constant": true,
      "inputs": [],
      "name": "ledToken",
      "outputs": [
        {
          "name": "",
          "type": "address"
        }
      ],
      "payable": false,
      "stateMutability": "view",
      "type": "function"
    },
    {
      "constant": true,
      "inputs": [],
      "name": "endTime",
      "outputs": [
        {
          "name": "",
          "type": "uint256"
        }
      ],
      "payable": false,
      "stateMutability": "view",
      "type": "function"
    },
    {
      "constant": true,
      "inputs": [],
      "name": "cap",
      "outputs": [
        {
          "name": "",
          "type": "uint256"
        }
      ],
      "payable": false,
      "stateMutability": "view",
      "type": "function"
    },
    {
      "constant": false,
      "inputs": [],
      "name": "unpause",
      "outputs": [
        {
          "name": "",
          "type": "bool"
        }
      ],
      "payable": false,
      "stateMutability": "nonpayable",
      "type": "function"
    },
    {
      "constant": true,
      "inputs": [],
      "name": "PRESALE_LEVEL_5",
      "outputs": [
        {
          "name": "",
          "type": "uint256"
        }
      ],
      "payable": false,
      "stateMutability": "view",
      "type": "function"
    },
    {
      "constant": true,
      "inputs": [],
      "name": "totalWeiRaised",
      "outputs": [
        {
          "name": "",
          "type": "uint256"
        }
      ],
      "payable": false,
      "stateMutability": "view",
      "type": "function"
    },
    {
      "constant": true,
      "inputs": [],
      "name": "ICO_LEVEL_3",
      "outputs": [
        {
          "name": "",
          "type": "uint256"
        }
      ],
      "payable": false,
      "stateMutability": "view",
      "type": "function"
    },
    {
      "constant": true,
      "inputs": [],
      "name": "paused",
      "outputs": [
        {
          "name": "",
          "type": "bool"
        }
      ],
      "payable": false,
      "stateMutability": "view",
      "type": "function"
    },
    {
      "constant": true,
      "inputs": [],
      "name": "PRESALE_PERCENTAGE_2",
      "outputs": [
        {
          "name": "",
          "type": "uint256"
        }
      ],
      "payable": false,
      "stateMutability": "view",
      "type": "function"
    },
    {
      "constant": true,
      "inputs": [],
      "name": "PRESALE_PERCENTAGE_3",
      "outputs": [
        {
          "name": "",
          "type": "uint256"
        }
      ],
      "payable": false,
      "stateMutability": "view",
      "type": "function"
    },
    {
      "constant": true,
      "inputs": [],
      "name": "ICO_PERCENTAGE_2",
      "outputs": [
        {
          "name": "",
          "type": "uint256"
        }
      ],
      "payable": false,
      "stateMutability": "view",
      "type": "function"
    },
    {
      "constant": true,
      "inputs": [],
      "name": "tokensMinted",
      "outputs": [
        {
          "name": "",
          "type": "uint256"
        }
      ],
      "payable": false,
      "stateMutability": "view",
      "type": "function"
    },
    {
      "constant": true,
      "inputs": [],
      "name": "contributors",
      "outputs": [
        {
          "name": "",
          "type": "uint256"
        }
      ],
      "payable": false,
      "stateMutability": "view",
      "type": "function"
    },
    {
      "constant": true,
      "inputs": [],
      "name": "MAX_PURCHASE",
      "outputs": [
        {
          "name": "",
          "type": "uint256"
        }
      ],
      "payable": false,
      "stateMutability": "view",
      "type": "function"
    },
    {
      "constant": true,
      "inputs": [],
      "name": "PRESALE_LEVEL_2",
      "outputs": [
        {
          "name": "",
          "type": "uint256"
        }
      ],
      "payable": false,
      "stateMutability": "view",
      "type": "function"
    },
    {
      "constant": true,
      "inputs": [],
      "name": "PRESALE_LEVEL_3",
      "outputs": [
        {
          "name": "",
          "type": "uint256"
        }
      ],
      "payable": false,
      "stateMutability": "view",
      "type": "function"
    },
    {
      "constant": true,
      "inputs": [],
      "name": "startTime",
      "outputs": [
        {
          "name": "",
          "type": "uint256"
        }
      ],
      "payable": false,
      "stateMutability": "view",
      "type": "function"
    },
    {
      "constant": false,
      "inputs": [],
      "name": "pause",
      "outputs": [
        {
          "name": "",
          "type": "bool"
        }
      ],
      "payable": false,
      "stateMutability": "nonpayable",
      "type": "function"
    },
    {
      "constant": true,
      "inputs": [],
      "name": "weiCap",
      "outputs": [
        {
          "name": "",
          "type": "uint256"
        }
      ],
      "payable": false,
      "stateMutability": "view",
      "type": "function"
    },
    {
      "constant": true,
      "inputs": [],
      "name": "LEDTEAM_TOKENS",
      "outputs": [
        {
          "name": "",
          "type": "uint256"
        }
      ],
      "payable": false,
      "stateMutability": "view",
      "type": "function"
    },
    {
      "constant": true,
      "inputs": [],
      "name": "owner",
      "outputs": [
        {
          "name": "",
          "type": "address"
        }
      ],
      "payable": false,
      "stateMutability": "view",
      "type": "function"
    },
    {
      "constant": true,
      "inputs": [],
      "name": "PRESALE_PERCENTAGE_5",
      "outputs": [
        {
          "name": "",
          "type": "uint256"
        }
      ],
      "payable": false,
      "stateMutability": "view",
      "type": "function"
    },
    {
      "constant": true,
      "inputs": [],
      "name": "PRIVATESALE_PERCENTAGE_5",
      "outputs": [
        {
          "name": "",
          "type": "uint256"
        }
      ],
      "payable": false,
      "stateMutability": "view",
      "type": "function"
    },
    {
      "constant": true,
      "inputs": [],
      "name": "ICO_PERCENTAGE_5",
      "outputs": [
        {
          "name": "",
          "type": "uint256"
        }
      ],
      "payable": false,
      "stateMutability": "view",
      "type": "function"
    },
    {
      "constant": true,
      "inputs": [],
      "name": "ICO_TOKENCAP",
      "outputs": [
        {
          "name": "",
          "type": "uint256"
        }
      ],
      "payable": false,
      "stateMutability": "view",
      "type": "function"
    },
    {
      "constant": true,
      "inputs": [],
      "name": "PRESALE_BASE_PRICE_IN_WEI",
      "outputs": [
        {
          "name": "",
          "type": "uint256"
        }
      ],
      "payable": false,
      "stateMutability": "view",
      "type": "function"
    },
    {
      "constant": true,
      "inputs": [],
      "name": "PRIVATESALE_PERCENTAGE_1",
      "outputs": [
        {
          "name": "",
          "type": "uint256"
        }
      ],
      "payable": false,
      "stateMutability": "view",
      "type": "function"
    },
    {
      "constant": true,
      "inputs": [],
      "name": "FIRSTSALE_TOKENCAP",
      "outputs": [
        {
          "name": "",
          "type": "uint256"
        }
      ],
      "payable": false,
      "stateMutability": "view",
      "type": "function"
    },
    {
      "constant": true,
      "inputs": [],
      "name": "PRIVATESALE_PERCENTAGE_2",
      "outputs": [
        {
          "name": "",
          "type": "uint256"
        }
      ],
      "payable": false,
      "stateMutability": "view",
      "type": "function"
    },
    {
      "constant": true,
      "inputs": [],
      "name": "PRIVATESALE_LEVEL_2",
      "outputs": [
        {
          "name": "",
          "type": "uint256"
        }
      ],
      "payable": false,
      "stateMutability": "view",
      "type": "function"
    },
    {
      "constant": true,
      "inputs": [],
      "name": "LED_MULTISIG",
      "outputs": [
        {
          "name": "",
          "type": "address"
        }
      ],
      "payable": false,
      "stateMutability": "view",
      "type": "function"
    },
    {
      "constant": true,
      "inputs": [],
      "name": "PRESALE_PERCENTAGE_1",
      "outputs": [
        {
          "name": "",
          "type": "uint256"
        }
      ],
      "payable": false,
      "stateMutability": "view",
      "type": "function"
    },
    {
      "constant": true,
      "inputs": [],
      "name": "TOTAL_TOKENCAP",
      "outputs": [
        {
          "name": "",
          "type": "uint256"
        }
      ],
      "payable": false,
      "stateMutability": "view",
      "type": "function"
    },
    {
      "constant": true,
      "inputs": [],
      "name": "ledMultiSig",
      "outputs": [
        {
          "name": "",
          "type": "address"
        }
      ],
      "payable": false,
      "stateMutability": "view",
      "type": "function"
    },
    {
      "constant": true,
      "inputs": [],
      "name": "FIRSTSALE_BASE_PRICE_IN_WEI",
      "outputs": [
        {
          "name": "",
          "type": "uint256"
        }
      ],
      "payable": false,
      "stateMutability": "view",
      "type": "function"
    },
    {
      "constant": true,
      "inputs": [],
      "name": "ICO_LEVEL_5",
      "outputs": [
        {
          "name": "",
          "type": "uint256"
        }
      ],
      "payable": false,
      "stateMutability": "view",
      "type": "function"
    },
    {
      "constant": true,
      "inputs": [],
      "name": "finalized",
      "outputs": [
        {
          "name": "",
          "type": "bool"
        }
      ],
      "payable": false,
      "stateMutability": "view",
      "type": "function"
    },
    {
      "constant": true,
      "inputs": [],
      "name": "PRIVATESALE_LEVEL_4",
      "outputs": [
        {
          "name": "",
          "type": "uint256"
        }
      ],
      "payable": false,
      "stateMutability": "view",
      "type": "function"
    },
    {
      "constant": true,
      "inputs": [],
      "name": "decimalsMultiplier",
      "outputs": [
        {
          "name": "",
          "type": "uint256"
        }
      ],
      "payable": false,
      "stateMutability": "view",
      "type": "function"
    },
    {
      "constant": true,
      "inputs": [],
      "name": "ICO_LEVEL_1",
      "outputs": [
        {
          "name": "",
          "type": "uint256"
        }
      ],
      "payable": false,
      "stateMutability": "view",
      "type": "function"
    },
    {
      "constant": true,
      "inputs": [],
      "name": "ICO_BASE_PRICE_IN_WEI",
      "outputs": [
        {
          "name": "",
          "type": "uint256"
        }
      ],
      "payable": false,
      "stateMutability": "view",
      "type": "function"
    },
    {
      "constant": true,
      "inputs": [],
      "name": "ICO_PERCENTAGE_1",
      "outputs": [
        {
          "name": "",
          "type": "uint256"
        }
      ],
      "payable": false,
      "stateMutability": "view",
      "type": "function"
    },
    {
      "constant": true,
      "inputs": [],
      "name": "MIN_PURCHASE",
      "outputs": [
        {
          "name": "",
          "type": "uint256"
        }
      ],
      "payable": false,
      "stateMutability": "view",
      "type": "function"
    },
    {
      "constant": true,
      "inputs": [
        {
          "name": "",
          "type": "address"
        }
      ],
      "name": "whitelisted",
      "outputs": [
        {
          "name": "",
          "type": "bool"
        }
      ],
      "payable": false,
      "stateMutability": "view",
      "type": "function"
    },
    {
      "constant": true,
      "inputs": [],
      "name": "tokenCap",
      "outputs": [
        {
          "name": "",
          "type": "uint256"
        }
      ],
      "payable": false,
      "stateMutability": "view",
      "type": "function"
    },
    {
      "constant": true,
      "inputs": [],
      "name": "ICO_PERCENTAGE_4",
      "outputs": [
        {
          "name": "",
          "type": "uint256"
        }
      ],
      "payable": false,
      "stateMutability": "view",
      "type": "function"
    },
    {
      "constant": true,
      "inputs": [],
      "name": "ICO_LEVEL_2",
      "outputs": [
        {
          "name": "",
          "type": "uint256"
        }
      ],
      "payable": false,
      "stateMutability": "view",
      "type": "function"
    },
    {
      "constant": true,
      "inputs": [],
      "name": "PRESALE_TOKENCAP",
      "outputs": [
        {
          "name": "",
          "type": "uint256"
        }
      ],
      "payable": false,
      "stateMutability": "view",
      "type": "function"
    },
    {
      "constant": true,
      "inputs": [],
      "name": "PRIVATESALE_PERCENTAGE_3",
      "outputs": [
        {
          "name": "",
          "type": "uint256"
        }
      ],
      "payable": false,
      "stateMutability": "view",
      "type": "function"
    },
    {
      "constant": true,
      "inputs": [],
      "name": "PRESALE_LEVEL_1",
      "outputs": [
        {
          "name": "",
          "type": "uint256"
        }
      ],
      "payable": false,
      "stateMutability": "view",
      "type": "function"
    },
    {
      "constant": true,
      "inputs": [],
      "name": "PRIVATESALE_LEVEL_5",
      "outputs": [
        {
          "name": "",
          "type": "uint256"
        }
      ],
      "payable": false,
      "stateMutability": "view",
      "type": "function"
    },
    {
      "constant": true,
      "inputs": [],
      "name": "PRIVATESALE_PERCENTAGE_4",
      "outputs": [
        {
          "name": "",
          "type": "uint256"
        }
      ],
      "payable": false,
      "stateMutability": "view",
      "type": "function"
    },
    {
      "constant": true,
      "inputs": [],
      "name": "PRIVATESALE_TOKENCAP",
      "outputs": [
        {
          "name": "",
          "type": "uint256"
        }
      ],
      "payable": false,
      "stateMutability": "view",
      "type": "function"
    },
    {
      "constant": false,
      "inputs": [
        {
          "name": "newOwner",
          "type": "address"
        }
      ],
      "name": "transferOwnership",
      "outputs": [],
      "payable": false,
      "stateMutability": "nonpayable",
      "type": "function"
    },
    {
      "inputs": [
        {
          "name": "_tokenAddress",
          "type": "address"
        },
        {
          "name": "_startTime",
          "type": "uint256"
        },
        {
          "name": "_endTime",
          "type": "uint256"
        }
      ],
      "payable": false,
      "stateMutability": "nonpayable",
      "type": "constructor"
    },
    {
      "payable": true,
      "stateMutability": "payable",
      "type": "fallback"
    },
    {
      "anonymous": false,
      "inputs": [
        {
          "indexed": true,
          "name": "purchaser",
          "type": "address"
        },
        {
          "indexed": true,
          "name": "beneficiary",
          "type": "address"
        },
        {
          "indexed": false,
          "name": "value",
          "type": "uint256"
        },
        {
          "indexed": false,
          "name": "amount",
          "type": "uint256"
        }
      ],
      "name": "TokenPurchase",
      "type": "event"
    },
    {
      "anonymous": false,
      "inputs": [
        {
          "indexed": true,
          "name": "_cloneToken",
          "type": "address"
        }
      ],
      "name": "NewClonedToken",
      "type": "event"
    },
    {
      "anonymous": false,
      "inputs": [
        {
          "indexed": false,
          "name": "_from",
          "type": "address"
        },
        {
          "indexed": false,
          "name": "_to",
          "type": "address"
        },
        {
          "indexed": false,
          "name": "_amount",
          "type": "uint256"
        }
      ],
      "name": "OnTransfer",
      "type": "event"
    },
    {
      "anonymous": false,
      "inputs": [
        {
          "indexed": false,
          "name": "_owner",
          "type": "address"
        },
        {
          "indexed": false,
          "name": "_spender",
          "type": "address"
        },
        {
          "indexed": false,
          "name": "_amount",
          "type": "uint256"
        }
      ],
      "name": "OnApprove",
      "type": "event"
    },
    {
      "anonymous": false,
      "inputs": [
        {
          "indexed": false,
          "name": "_name",
          "type": "string"
        },
        {
          "indexed": false,
          "name": "_value",
          "type": "uint256"
        }
      ],
      "name": "LogInt",
      "type": "event"
    },
    {
      "anonymous": false,
      "inputs": [],
      "name": "Finalized",
      "type": "event"
    },
    {
      "anonymous": false,
      "inputs": [],
      "name": "Pause",
      "type": "event"
    },
    {
      "anonymous": false,
      "inputs": [],
      "name": "Unpause",
      "type": "event"
    },
    {
      "constant": false,
      "inputs": [
        {
          "name": "_beneficiary",
          "type": "address"
        }
      ],
      "name": "buyTokens",
      "outputs": [],
      "payable": true,
      "stateMutability": "payable",
      "type": "function"
    },
    {
      "constant": false,
      "inputs": [
        {
          "name": "_sender",
          "type": "address"
        }
      ],
      "name": "whitelist",
      "outputs": [],
      "payable": false,
      "stateMutability": "nonpayable",
      "type": "function"
    },
    {
      "constant": true,
      "inputs": [],
      "name": "totalSupply",
      "outputs": [
        {
          "name": "",
          "type": "uint256"
        }
      ],
      "payable": false,
      "stateMutability": "view",
      "type": "function"
    },
    {
      "constant": true,
      "inputs": [
        {
          "name": "_owner",
          "type": "address"
        }
      ],
      "name": "balanceOf",
      "outputs": [
        {
          "name": "",
          "type": "uint256"
        }
      ],
      "payable": false,
      "stateMutability": "view",
      "type": "function"
    },
    {
      "constant": false,
      "inputs": [
        {
          "name": "_newController",
          "type": "address"
        }
      ],
      "name": "changeController",
      "outputs": [],
      "payable": false,
      "stateMutability": "nonpayable",
      "type": "function"
    },
    {
      "constant": false,
      "inputs": [],
      "name": "enableMasterTransfers",
      "outputs": [],
      "payable": false,
      "stateMutability": "nonpayable",
      "type": "function"
    },
    {
      "constant": false,
      "inputs": [],
      "name": "lockMasterTransfers",
      "outputs": [],
      "payable": false,
      "stateMutability": "nonpayable",
      "type": "function"
    },
    {
      "constant": false,
      "inputs": [],
      "name": "forceStart",
      "outputs": [],
      "payable": false,
      "stateMutability": "nonpayable",
      "type": "function"
    },
    {
      "constant": false,
      "inputs": [],
      "name": "finalize",
      "outputs": [],
      "payable": false,
      "stateMutability": "nonpayable",
      "type": "function"
    },
    {
      "constant": true,
      "inputs": [],
      "name": "getInfo",
      "outputs": [
        {
          "name": "",
          "type": "uint256"
        },
        {
          "name": "",
          "type": "uint256"
        },
        {
          "name": "",
          "type": "string"
        },
        {
          "name": "",
          "type": "bool"
        },
        {
          "name": "",
          "type": "uint256"
        },
        {
          "name": "",
          "type": "uint256"
        },
        {
          "name": "",
          "type": "uint256"
        },
        {
          "name": "",
          "type": "bool"
        },
        {
          "name": "",
          "type": "uint256"
        },
        {
          "name": "",
          "type": "bool"
        }
      ],
      "payable": false,
      "stateMutability": "view",
      "type": "function"
    }
  ],
  "bytecode": "0x60806040526000805460a060020a60ff0219169055600c80546201000060b060020a03191675ade96deda9ec81af99f8472b882708d85dc165140000179055621e8480600d556a01a784379d99db42000000600e55681211edd876e19c8000600f556010805460ff1916905534801561007757600080fd5b5060405160608061179683398101604090815281516020830151919092015160008054600160a060020a03191633179055600160a060020a03831615156100bd57600080fd5b600082116100ca57600080fd5b8181116100d657600080fd5b60079190915560085560018054600160a060020a03909216600160a060020a0319928316179055600a805490911633179055670de0b6b3a7640000600655611673806101236000396000f3006080604052600436106103635763ffffffff7c010000000000000000000000000000000000000000000000000000000060003504166302c6f427811461036e57806304df48ef14610395578063118e09c8146103aa57806317a4a8a3146103bf57806317f6252f146103d457806318160ddd146103e95780631a11415e146103fe5780631c9b612e146104135780631f2698ab1461043c578063217477f61461045157806324fad66514610466578063260edaaa1461047b5780632aa6f98b146104905780632bb70e54146104c15780633197cbb6146104d6578063355274ea146104eb5780633cebb823146105005780633f4ba83a1461052157806345078531146105365780634bb278f31461054b57806353f4db011461056057806356dcd2fa1461036e5780635a9b0b89146105755780635c975abb1461064d5780635e48f58f1461045157806361ad487c1461066257806369b8f38d146106775780636de9f32b1461068c5780636e7e3b2b146106a157806370a08231146106b65780637146bd08146106d7578063733b679e146106ec5780637530b54d1461070157806378e97925146107165780638456cb591461072b57806384fe50291461074057806387c5d1be146107555780638da5cb5b1461076a57806394c0f3e21461077f5780639745272a14610794578063975c95da146103d4578063978d6cff146107a957806397e1d68d146107be5780639957b8da1461066257806399abd788146107d35780639b19251a146107e8578063a0f68eba146103d4578063a28a0ac214610809578063a69ade721461081e578063aa487f4914610677578063ac20e2a014610833578063adefd50114610848578063b0a0662a1461085d578063b1fc0792146106d7578063b3f05b9714610872578063b77dfb591461036e578063bb13245f14610887578063c4b71cec1461089c578063cb4de968146108b1578063ce72a696146108c6578063d439390c146108db578063d936547e146108f0578063dd54291b14610911578063e08155dd14610662578063e08d849714610926578063e73c032b1461093b578063e7a50a9d1461077f578063e9e55c7114610950578063ec8ac4d814610965578063edca1392146106d7578063ef7533cf14610979578063f0004ab41461098e578063f2fde38b146109a3578063ff85fba2146109c4575b61036c336109d9565b005b34801561037a57600080fd5b50610383610bd1565b60408051918252519081900360200190f35b3480156103a157600080fd5b50610383610bde565b3480156103b657600080fd5b50610383610beb565b3480156103cb57600080fd5b50610383610bf7565b3480156103e057600080fd5b50610383610c03565b3480156103f557600080fd5b50610383610c08565b34801561040a57600080fd5b50610383610c98565b34801561041f57600080fd5b50610428610ca3565b604080519115158252519081900360200190f35b34801561044857600080fd5b50610428610cb1565b34801561045d57600080fd5b50610383610cba565b34801561047257600080fd5b5061036c610cbf565b34801561048757600080fd5b50610383610d50565b34801561049c57600080fd5b506104a5610d56565b60408051600160a060020a039092168252519081900360200190f35b3480156104cd57600080fd5b5061036c610d65565b3480156104e257600080fd5b50610383610de1565b3480156104f757600080fd5b50610383610de7565b34801561050c57600080fd5b5061036c600160a060020a0360043516610ded565b34801561052d57600080fd5b50610428610e9a565b34801561054257600080fd5b50610383610f15565b34801561055757600080fd5b5061036c610f22565b34801561056c57600080fd5b506103836110c9565b34801561058157600080fd5b5061058a6110cf565b604051808b81526020018a81526020018060200189151515158152602001888152602001878152602001868152602001851515151581526020018481526020018315151515815260200182810382528a818151815260200191508051906020019080838360005b838110156106095781810151838201526020016105f1565b50505050905090810190601f1680156106365780820380516001836020036101000a031916815260200191505b509b50505050505050505050505060405180910390f35b34801561065957600080fd5b50610428611211565b34801561066e57600080fd5b50610383611221565b34801561068357600080fd5b50610383611226565b34801561069857600080fd5b5061038361122b565b3480156106ad57600080fd5b50610383611231565b3480156106c257600080fd5b50610383600160a060020a0360043516611237565b3480156106e357600080fd5b506103836112d4565b3480156106f857600080fd5b506103836112e1565b34801561070d57600080fd5b506103836112ed565b34801561072257600080fd5b506103836112f9565b34801561073757600080fd5b506104286112ff565b34801561074c57600080fd5b5061038361137f565b34801561076157600080fd5b50610383611385565b34801561077657600080fd5b506104a561138d565b34801561078b57600080fd5b5061038361139c565b3480156107a057600080fd5b506103836113a1565b3480156107b557600080fd5b506103836113a6565b3480156107ca57600080fd5b506103836113ae565b3480156107df57600080fd5b506103836113b9565b3480156107f457600080fd5b5061036c600160a060020a03600435166113c0565b34801561081557600080fd5b506103836113fb565b34801561082a57600080fd5b506104a5611407565b34801561083f57600080fd5b5061038361141f565b34801561085457600080fd5b506104a5611427565b34801561086957600080fd5b5061038361143c565b34801561087e57600080fd5b50610428611446565b34801561089357600080fd5b5061038361144f565b3480156108a857600080fd5b50610383611455565b3480156108bd57600080fd5b50610383611461565b3480156108d257600080fd5b5061038361146c565b3480156108e757600080fd5b50610383611471565b3480156108fc57600080fd5b50610428600160a060020a036004351661147d565b34801561091d57600080fd5b50610383611492565b34801561093257600080fd5b50610383611498565b34801561094757600080fd5b506103836114a4565b34801561095c57600080fd5b506103836114ac565b61036c600160a060020a03600435166109d9565b34801561098557600080fd5b506103836114b8565b34801561099a57600080fd5b506103836114bd565b3480156109af57600080fd5b5061036c600160a060020a03600435166114c5565b3480156109d057600080fd5b5061036c611517565b600080548190819060a060020a900460ff16156109f557600080fd5b600c5460ff1615610a0557600080fd5b600160a060020a0384161515610a1a57600080fd5b610a2261153d565b1515610a2d57600080fd5b3492506717213080c1a6aaaa8310158015610a5157506801ce97ca0f210555558311155b1515610a5c57600080fd5b6002546597951b10b1009250610a78908463ffffffff61158816565b600255600654610aa1908390610a9590869063ffffffff61159e16565b9063ffffffff6115c216565b600354909150610ab7908263ffffffff61158816565b6003819055600e5411610ac957600080fd5b600554610add90600163ffffffff61158816565b600555600154604080517f40c10f19000000000000000000000000000000000000000000000000000000008152600160a060020a03878116600483015260248201859052915191909216916340c10f199160448083019260209291908290030181600087803b158015610b4f57600080fd5b505af1158015610b63573d6000803e3d6000fd5b505050506040513d6020811015610b7957600080fd5b505060408051848152602081018390528151600160a060020a0387169233927f623b3804fa71d67900d064613da8f94b9617215ee90799290593e1745087ad18929081900390910190a3610bcb6115d9565b50505050565b6801158e460913d0000081565b68017213080c1a6aaaaa81565b673782dace9d90000081565b67bb59a27953c6000081565b601981565b600154604080517f18160ddd0000000000000000000000000000000000000000000000000000000081529051600092600160a060020a0316916318160ddd91600480830192602092919082900301818787803b158015610c6757600080fd5b505af1158015610c7b573d6000803e3d6000fd5b505050506040513d6020811015610c9157600080fd5b5051905090565b66012f2a36b9f88081565b600c54610100900460ff1681565b60105460ff1681565b600f81565b600054600160a060020a03163314610cd657600080fd5b60018054604080517faec318f1000000000000000000000000000000000000000000000000000000008152600481019390935251600160a060020a039091169163aec318f191602480830192600092919082900301818387803b158015610d3c57600080fd5b505af1158015610bcb573d6000803e3d6000fd5b60095481565b600154600160a060020a031681565b600054600160a060020a03163314610d7c57600080fd5b600154604080517faec318f10000000000000000000000000000000000000000000000000000000081526000600482018190529151600160a060020a039093169263aec318f19260248084019391929182900301818387803b158015610d3c57600080fd5b60085481565b600e5481565b600054600160a060020a03163314610e0457600080fd5b610e0d8161161a565b1515610e1857600080fd5b600154604080517f6d16fa41000000000000000000000000000000000000000000000000000000008152600160a060020a03848116600483015291519190921691636d16fa4191602480830192600092919082900301818387803b158015610e7f57600080fd5b505af1158015610e93573d6000803e3d6000fd5b5050505050565b60008054600160a060020a03163314610eb257600080fd5b60005460a060020a900460ff161515610eca57600080fd5b6000805474ff0000000000000000000000000000000000000000191681556040517f7805862f689e2f13df9f062ff482ad3ad112aca9e0847911ed832e158c525b339190a150600190565b68015af1d78b58c4000081565b600054600160a060020a03163314610f3957600080fd5b60005460a060020a900460ff161515610f5157600080fd5b600c5460ff1615610f6157600080fd5b600354600e54036009819055600154600c54604080517f40c10f19000000000000000000000000000000000000000000000000000000008152600160a060020a0362010000909304831660048201526024810194909452519116916340c10f199160448083019260209291908290030181600087803b158015610fe357600080fd5b505af1158015610ff7573d6000803e3d6000fd5b505050506040513d602081101561100d57600080fd5b5050600154600a54604080517f6d16fa41000000000000000000000000000000000000000000000000000000008152600160a060020a03928316600482015290519190921691636d16fa4191602480830192600092919082900301818387803b15801561107957600080fd5b505af115801561108d573d6000803e3d6000fd5b50506040517f6823b073d48d6e3a7d385eeb601452d680e74bb46afe3255a7d778f3a9b17681925060009150a1600c805460ff19166001179055565b60025481565b600080606060008060008060008060008060606000601292506040805190810160405280600381526020017f4c454400000000000000000000000000000000000000000000000000000000008152509150600160009054906101000a9004600160a060020a0316600160a060020a031663bef97c876040518163ffffffff167c0100000000000000000000000000000000000000000000000000000000028152600401602060405180830381600087803b15801561118c57600080fd5b505af11580156111a0573d6000803e3d6000fd5b505050506040513d60208110156111b657600080fd5b810190808051906020019092919050505090506305f5e100838383600554600254600d54601060009054906101000a900460ff16600854899c509c509c509c509c509c509c509c509c509c5050505090919293949596979899565b60005460a060020a900460ff1681565b601481565b600a81565b60035481565b60055481565b600154604080517f70a08231000000000000000000000000000000000000000000000000000000008152600160a060020a038481166004830152915160009392909216916370a082319160248082019260209290919082900301818787803b1580156112a257600080fd5b505af11580156112b6573d6000803e3d6000fd5b505050506040513d60208110156112cc57600080fd5b505192915050565b6801ce97ca0f2105555581565b678ac7230489e8000081565b67d02ab486cedc000081565b60075481565b60008054600160a060020a0316331461131757600080fd5b60005460a060020a900460ff161561132e57600080fd5b6000805474ff0000000000000000000000000000000000000000191660a060020a1781556040517f6985a02210a168e66602d3235cb6db0e70f92b3ba4d376a33c0f3d9434bff6259190a150600190565b600f5481565b6302160ec081565b600a54600160a060020a031681565b602381565b606481565b63015752a081565b6601c6bf5263400081565b621e848081565b600054600160a060020a031633146113d757600080fd5b600160a060020a03166000908152600b60205260409020805460ff19166001179055565b6773a5f283c841555581565b73ade96deda9ec81af99f8472b882708d85dc1651481565b6305f5e10081565b600c54620100009004600160a060020a031681565b6597951b10b10081565b600c5460ff1681565b60065481565b675c84c203069aaaaa81565b66025e546d73f10081565b600581565b6717213080c1a6aaaa81565b600b6020526000908152604090205460ff1681565b600d5481565b67b90984060d35555581565b63011e1a3081565b674563918244f4000081565b603281565b63014be0f081565b600054600160a060020a031633146114dc57600080fd5b600160a060020a03811615611514576000805473ffffffffffffffffffffffffffffffffffffffff1916600160a060020a0383161790555b50565b600054600160a060020a0316331461152e57600080fd5b6010805460ff19166001179055565b60008060008060004293506007548410158061155b575060105460ff165b92506008548411159150346000141590508080156115765750825b801561157f5750815b94505050505090565b60008282018381101561159757fe5b9392505050565b60008282028315806115ba57508284828115156115b757fe5b04145b151561159757fe5b60008082848115156115d057fe5b04949350505050565b600c54604051600160a060020a036201000090920491909116903480156108fc02916000818181858888f19350505050158015611514573d6000803e3d6000fd5b600080600160a060020a03831615156116365760009150611641565b823b90506000811191505b509190505600a165627a7a72305820b8ccd779aadd021d08a27d90a9ea20765813315f74b7b45cfba61235ba6973610029",
  "source": "pragma solidity ^0.4.24;\n\nimport \"./SafeMath.sol\";\nimport \"./Pausable.sol\";\nimport \"./LedTokenInterface.sol\";\nimport \"./TokenInfo.sol\";\n/**\n * @title FirstSale\n * FirstSale allows investors to make token purchases and assigns them tokens based\n\n * on a token per ETH rate. Funds collected are forwarded to a wallet as they arrive.\n */\ncontract FirstSale is Pausable, TokenInfo {\n\n    using SafeMath for uint256;\n\n    LedTokenInterface public ledToken;\n    uint256 public totalWeiRaised;\n    uint256 public tokensMinted;\n    uint256 public totalSupply;\n    uint256 public contributors;\n    uint256 public decimalsMultiplier;\n    uint256 public startTime;\n    uint256 public endTime;\n    uint256 public surplusTokens;\n\n    address public owner;\n\n    mapping(address => bool) public whitelisted;\n\n    bool public finalized;\n\n    bool public ledTokensAllocated;\n    address public ledMultiSig = LED_MULTISIG;\n\n    uint256 public tokenCap = FIRSTSALE_TOKENCAP;\n    uint256 public cap = tokenCap * (1 ether);\n    uint256 public weiCap = tokenCap * FIRSTSALE_BASE_PRICE_IN_WEI;\n\n    bool public started = false;\n\n    event TokenPurchase(address indexed purchaser, address indexed beneficiary, uint256 value, uint256 amount);\n    event NewClonedToken(address indexed _cloneToken);\n    event OnTransfer(address _from, address _to, uint _amount);\n    event OnApprove(address _owner, address _spender, uint _amount);\n    event LogInt(string _name, uint256 _value);\n    event Finalized();\n\n    constructor(address _tokenAddress, uint256 _startTime, uint256 _endTime) public {\n        require(_tokenAddress != 0x0);\n        require(_startTime > 0);\n        require(_endTime > _startTime);\n\n        startTime = _startTime;\n        endTime = _endTime;\n        ledToken = LedTokenInterface(_tokenAddress);\n        owner = msg.sender;\n\n        decimalsMultiplier = (1 ether);\n    }\n\n\n    /**\n     * High level token purchase function\n     */\n    function() public payable {\n        buyTokens(msg.sender);\n    }\n\n    /**\n     * Low level token purchase function\n     * @param _beneficiary will receive the tokens.\n     */\n    function buyTokens(address _beneficiary) public payable whenNotPaused whenNotFinalized {\n        require(_beneficiary != 0x0);\n        require(validPurchase());\n        // require(isWhitelisted(_beneficiary));\n\n        uint256 weiAmount = msg.value;\n        require(weiAmount >= MIN_PURCHASE && weiAmount <= MAX_PURCHASE);\n        uint256 priceInWei = FIRSTSALE_BASE_PRICE_IN_WEI;\n        totalWeiRaised = totalWeiRaised.add(weiAmount);\n\n        uint256 tokens = weiAmount.mul(decimalsMultiplier).div(priceInWei);\n        tokensMinted = tokensMinted.add(tokens);\n        require(tokensMinted < cap);\n\n        contributors = contributors.add(1);\n\n        ledToken.mint(_beneficiary, tokens);\n        emit TokenPurchase(msg.sender, _beneficiary, weiAmount, tokens);\n        forwardFunds();\n    }\n\n    function isWhitelisted(address _sender) internal constant returns (bool) {\n        return whitelisted[_sender];\n    }\n\n    function whitelist(address _sender) public onlyOwner {\n        whitelisted[_sender] = true;\n    }\n\n\n    /**\n    * Forwards funds to the tokensale wallet\n    */\n    function forwardFunds() internal {\n        ledMultiSig.transfer(msg.value);\n    }\n\n\n    /**\n    * Validates the purchase (period, minimum amount, within cap)\n    * @return {bool} valid\n    */\n    function validPurchase() internal constant returns (bool) {\n        uint256 current = now;\n        bool presaleStarted = (current >= startTime || started);\n        bool presaleNotEnded = current <= endTime;\n        bool nonZeroPurchase = msg.value != 0;\n        return nonZeroPurchase && presaleStarted && presaleNotEnded;\n    }\n\n    /**\n    * Returns the total Led token supply\n    * @return totalSupply {uint256} Led Token Total Supply\n    */\n    function totalSupply() public constant returns (uint256) {\n        return ledToken.totalSupply();\n    }\n\n    /**\n    * Returns token holder Led Token balance\n    * @param _owner {address} Token holder address\n    * @return balance {uint256} Corresponding token holder balance\n    */\n    function balanceOf(address _owner) public constant returns (uint256) {\n        return ledToken.balanceOf(_owner);\n    }\n\n    /**\n    * Change the Led Token controller\n    * @param _newController {address} New Led Token controller\n    */\n    function changeController(address _newController) public onlyOwner {\n        require(isContract(_newController));\n        ledToken.transferControl(_newController);\n    }\n\n    function enableMasterTransfers() public onlyOwner {\n        ledToken.enableMasterTransfers(true);\n    }\n\n    function lockMasterTransfers() public onlyOwner {\n        ledToken.enableMasterTransfers(false);\n    }\n\n    function forceStart() public onlyOwner {\n        started = true;\n    }\n\n    function finalize() public onlyOwner {\n        require(paused);\n        require(!finalized);\n        surplusTokens = cap - tokensMinted;\n        ledToken.mint(ledMultiSig, surplusTokens);\n        ledToken.transferControl(owner);\n\n        emit Finalized();\n\n        finalized = true;\n    }\n\n    function getInfo() public constant returns (uint256, uint256, string,\n        bool, uint256, uint256, uint256,\n        bool, uint256, bool){\n        uint256 decimals = 18;\n        string memory symbol = \"LED\";\n        bool transfersEnabled = ledToken.transfersEnabled();\n        return (\n        TOTAL_TOKENCAP, // Tokencap with the decimal point in place. should be 100.000.000\n        decimals, // Decimals\n        symbol,\n        transfersEnabled,\n        contributors,\n        totalWeiRaised,\n        tokenCap,\n        started,\n        endTime ,\n        transfersEnabled\n        );\n    }\n\n\n    function isContract(address _addr) constant internal returns (bool) {\n        uint size;\n        if (_addr == 0)\n            return false;\n        assembly {\n            size := extcodesize(_addr)\n        }\n        return size > 0;\n    }\n\n    modifier whenNotFinalized() {\n        require(!finalized);\n        _;\n    }\n\n}",
  "sourcePath": "/Users/jeromeraymond/tokensale_contracts/contracts/FirstSale.sol",
  "compiler": {
    "name": "solc",
    "version": "0.4.24+commit.e67f0147.Emscripten.clang"
  },
  "schemaVersion": "2.0.0",
  "updatedAt": "2018-06-14T13:47:14.174Z"
}