{
  "contractName": "LedPresaleToken",
  "abi": [
    {
      "constant": true,
      "inputs": [],
      "name": "mintingFinished",
      "outputs": [
        {
          "name": "",
          "type": "bool"
        }
      ],
      "payable": false,
      "stateMutability": "view",
      "type": "function"
    },
    {
      "constant": true,
      "inputs": [],
      "name": "name",
      "outputs": [
        {
          "name": "",
          "type": "string"
        }
      ],
      "payable": false,
      "stateMutability": "view",
      "type": "function"
    },
    {
      "constant": true,
      "inputs": [],
      "name": "totalSupply",
      "outputs": [
        {
          "name": "",
          "type": "uint256"
        }
      ],
      "payable": false,
      "stateMutability": "view",
      "type": "function"
    },
    {
      "constant": true,
      "inputs": [],
      "name": "decimals",
      "outputs": [
        {
          "name": "",
          "type": "uint8"
        }
      ],
      "payable": false,
      "stateMutability": "view",
      "type": "function"
    },
    {
      "constant": false,
      "inputs": [
        {
          "name": "newController",
          "type": "address"
        }
      ],
      "name": "transferControl",
      "outputs": [],
      "payable": false,
      "stateMutability": "nonpayable",
      "type": "function"
    },
    {
      "constant": true,
      "inputs": [],
      "name": "symbol",
      "outputs": [
        {
          "name": "",
          "type": "string"
        }
      ],
      "payable": false,
      "stateMutability": "view",
      "type": "function"
    },
    {
      "constant": true,
      "inputs": [],
      "name": "controller",
      "outputs": [
        {
          "name": "",
          "type": "address"
        }
      ],
      "payable": false,
      "stateMutability": "view",
      "type": "function"
    },
    {
      "inputs": [],
      "payable": false,
      "stateMutability": "nonpayable",
      "type": "constructor"
    },
    {
      "payable": true,
      "stateMutability": "payable",
      "type": "fallback"
    },
    {
      "anonymous": false,
      "inputs": [
        {
          "indexed": true,
          "name": "to",
          "type": "address"
        },
        {
          "indexed": false,
          "name": "amount",
          "type": "uint256"
        }
      ],
      "name": "Mint",
      "type": "event"
    },
    {
      "anonymous": false,
      "inputs": [],
      "name": "MintFinished",
      "type": "event"
    },
    {
      "anonymous": false,
      "inputs": [
        {
          "indexed": true,
          "name": "from",
          "type": "address"
        },
        {
          "indexed": true,
          "name": "to",
          "type": "address"
        },
        {
          "indexed": false,
          "name": "value",
          "type": "uint256"
        }
      ],
      "name": "Transfer",
      "type": "event"
    },
    {
      "anonymous": false,
      "inputs": [
        {
          "indexed": true,
          "name": "owner",
          "type": "address"
        },
        {
          "indexed": true,
          "name": "spender",
          "type": "address"
        },
        {
          "indexed": false,
          "name": "value",
          "type": "uint256"
        }
      ],
      "name": "Approval",
      "type": "event"
    },
    {
      "constant": true,
      "inputs": [
        {
          "name": "_owner",
          "type": "address"
        }
      ],
      "name": "balanceOf",
      "outputs": [
        {
          "name": "",
          "type": "uint256"
        }
      ],
      "payable": false,
      "stateMutability": "view",
      "type": "function"
    },
    {
      "constant": false,
      "inputs": [
        {
          "name": "_to",
          "type": "address"
        },
        {
          "name": "_value",
          "type": "uint256"
        }
      ],
      "name": "transfer",
      "outputs": [
        {
          "name": "",
          "type": "bool"
        }
      ],
      "payable": false,
      "stateMutability": "nonpayable",
      "type": "function"
    },
    {
      "constant": false,
      "inputs": [
        {
          "name": "_from",
          "type": "address"
        },
        {
          "name": "_to",
          "type": "address"
        },
        {
          "name": "_value",
          "type": "uint256"
        }
      ],
      "name": "transferFrom",
      "outputs": [
        {
          "name": "",
          "type": "bool"
        }
      ],
      "payable": false,
      "stateMutability": "nonpayable",
      "type": "function"
    },
    {
      "constant": false,
      "inputs": [
        {
          "name": "_spender",
          "type": "address"
        },
        {
          "name": "_value",
          "type": "uint256"
        }
      ],
      "name": "approve",
      "outputs": [
        {
          "name": "",
          "type": "bool"
        }
      ],
      "payable": false,
      "stateMutability": "nonpayable",
      "type": "function"
    },
    {
      "constant": true,
      "inputs": [
        {
          "name": "_owner",
          "type": "address"
        },
        {
          "name": "_spender",
          "type": "address"
        }
      ],
      "name": "allowance",
      "outputs": [
        {
          "name": "",
          "type": "uint256"
        }
      ],
      "payable": false,
      "stateMutability": "view",
      "type": "function"
    },
    {
      "constant": false,
      "inputs": [
        {
          "name": "_to",
          "type": "address"
        },
        {
          "name": "_amount",
          "type": "uint256"
        }
      ],
      "name": "mint",
      "outputs": [
        {
          "name": "",
          "type": "bool"
        }
      ],
      "payable": false,
      "stateMutability": "nonpayable",
      "type": "function"
    },
    {
      "constant": false,
      "inputs": [],
      "name": "finishMinting",
      "outputs": [
        {
          "name": "",
          "type": "bool"
        }
      ],
      "payable": false,
      "stateMutability": "nonpayable",
      "type": "function"
    }
  ],
  "bytecode": "0x60806040526005805460ff1916905534801561001a57600080fd5b5060018054600160a060020a03191633600160a060020a0316179055610814806100456000396000f3006080604052600436106100cf5763ffffffff7c010000000000000000000000000000000000000000000000000000000060003504166305d2035b81146100d457806306fdde03146100fd578063095ea7b31461018757806318160ddd146101ab57806323b872dd146101d2578063313ce567146101fc57806340c10f19146102275780636d16fa411461024b57806370a082311461026e5780637d64bcb41461028f57806395d89b41146102a4578063a9059cbb146102b9578063dd62ed3e146102dd578063f77c479114610304575b600080fd5b3480156100e057600080fd5b506100e9610335565b604080519115158252519081900360200190f35b34801561010957600080fd5b5061011261033e565b6040805160208082528351818301528351919283929083019185019080838360005b8381101561014c578181015183820152602001610134565b50505050905090810190601f1680156101795780820380516001836020036101000a031916815260200191505b509250505060405180910390f35b34801561019357600080fd5b506100e9600160a060020a0360043516602435610375565b3480156101b757600080fd5b506101c06103df565b60408051918252519081900360200190f35b3480156101de57600080fd5b506100e9600160a060020a03600435811690602435166044356103e5565b34801561020857600080fd5b506102116104f8565b6040805160ff9092168252519081900360200190f35b34801561023357600080fd5b506100e9600160a060020a03600435166024356104fd565b34801561025757600080fd5b5061026c600160a060020a03600435166105c5565b005b34801561027a57600080fd5b506101c0600160a060020a036004351661061b565b34801561029b57600080fd5b506100e9610636565b3480156102b057600080fd5b50610112610690565b3480156102c557600080fd5b506100e9600160a060020a03600435166024356106c7565b3480156102e957600080fd5b506101c0600160a060020a0360043581169060243516610786565b34801561031057600080fd5b506103196107b1565b60408051600160a060020a039092168252519081900360200190f35b60055460ff1681565b60408051808201909152601181527f4c65642050726573616c6520546f6b656e000000000000000000000000000000602082015281565b600160a060020a03338116600081815260046020908152604080832094871680845294825280832086905580518681529051929493927f8c5be1e5ebec7d5bd14f71427d1e84f3dd0314c0f7b2291e5b200ac8c7c3b925929181900390910190a350600192915050565b60025481565b600160a060020a03808416600090815260046020908152604080832033851684528252808320549386168352600390915281205490919061042c908463ffffffff6107c016565b600160a060020a038086166000908152600360205260408082209390935590871681522054610461908463ffffffff6107d616565b600160a060020a03861660009081526003602052604090205561048a818463ffffffff6107d616565b600160a060020a038087166000818152600460209081526040808320338616845282529182902094909455805187815290519288169391927fddf252ad1be2c89b69c2b068fc378daa952ba7f163c4a11628f55a4df523b3ef929181900390910190a3506001949350505050565b601281565b60015460009033600160a060020a0390811691161461051b57600080fd5b60055460ff161561052b57600080fd5b60025461053e908363ffffffff6107c016565b600255600160a060020a03831660009081526003602052604090205461056a908363ffffffff6107c016565b600160a060020a038416600081815260036020908152604091829020939093558051858152905191927f0f6798a560793a54c3bcfe86a93cde1e73087d944c0ea20544137d412139688592918290030190a250600192915050565b60015433600160a060020a039081169116146105e057600080fd5b600160a060020a03811615610618576001805473ffffffffffffffffffffffffffffffffffffffff1916600160a060020a0383161790555b50565b600160a060020a031660009081526003602052604090205490565b60015460009033600160a060020a0390811691161461065457600080fd5b6005805460ff191660011790556040517fae5184fba832cb2b1f702aca6117b8d265eaf03ad33eb133f19dde0f5920fa0890600090a150600190565b60408051808201909152600481527f4c45445000000000000000000000000000000000000000000000000000000000602082015281565b600160a060020a0333166000908152600360205260408120546106f0908363ffffffff6107d616565b600160a060020a033381166000908152600360205260408082209390935590851681522054610725908363ffffffff6107c016565b600160a060020a038085166000818152600360209081526040918290209490945580518681529051919333909316927fddf252ad1be2c89b69c2b068fc378daa952ba7f163c4a11628f55a4df523b3ef92918290030190a350600192915050565b600160a060020a03918216600090815260046020908152604080832093909416825291909152205490565b600154600160a060020a031681565b6000828201838110156107cf57fe5b9392505050565b6000828211156107e257fe5b509003905600a165627a7a72305820cd1e9c8ea9d6e85b6f47a7ab393ccca1bcc1bf9b192b20d5eda05683f7b7bbb60029",
  "source": "pragma solidity ^0.4.13;\n\nimport './SafeMath.sol';\nimport './ERC20.sol';\nimport './Controllable.sol';\n\n/**\n * @title LedPresaleToken (LEDP)\n * Standard Mintable ERC20 Token\n * https://github.com/ethereum/EIPs/issues/20\n * Based on code by FirstBlood:\n * https://github.com/Firstbloodio/token/blob/master/smart_contract/FirstBloodToken.sol\n */\n\ncontract LedPresaleToken is ERC20, Controllable {\n\n  using SafeMath for uint256;\n\n  uint256 public totalSupply;\n\n  mapping(address => uint) balances;\n  mapping (address => mapping (address => uint)) allowed;\n\n  string public constant name = \"Led Presale Token\";\n  string public constant symbol = \"LEDP\";\n  uint8 public constant decimals = 18;\n  bool public mintingFinished = false;\n\n  event Mint(address indexed to, uint256 amount);\n  event MintFinished();\n\n  function LedPresaleToken() {}\n\n  function() payable {\n    revert();\n  }\n\n  function balanceOf(address _owner) constant returns (uint256) {\n    return balances[_owner];\n  }\n\n  function transfer(address _to, uint _value) returns (bool) {\n\n    balances[msg.sender] = balances[msg.sender].sub(_value);\n    balances[_to] = balances[_to].add(_value);\n\n    Transfer(msg.sender, _to, _value);\n    return true;\n  }\n\n  function transferFrom(address _from, address _to, uint _value) returns (bool) {\n    var _allowance = allowed[_from][msg.sender];\n\n    balances[_to] = balances[_to].add(_value);\n    balances[_from] = balances[_from].sub(_value);\n    allowed[_from][msg.sender] = _allowance.sub(_value);\n\n    Transfer(_from, _to, _value);\n    return true;\n  }\n\n  function approve(address _spender, uint _value) returns (bool) {\n    allowed[msg.sender][_spender] = _value;\n    Approval(msg.sender, _spender, _value);\n    return true;\n  }\n\n  function allowance(address _owner, address _spender) constant returns (uint256) {\n    return allowed[_owner][_spender];\n  }\n\n\n  modifier canMint() {\n    require(!mintingFinished);\n    _;\n  }\n\n  function mint(address _to, uint256 _amount) onlyController canMint returns (bool) {\n    totalSupply = totalSupply.add(_amount);\n    balances[_to] = balances[_to].add(_amount);\n    Mint(_to, _amount);\n    return true;\n  }\n\n  function finishMinting() onlyController returns (bool) {\n    mintingFinished = true;\n    MintFinished();\n    return true;\n  }\n\n\n}",
  "sourcePath": "/Users/julesdesmit/Desktop/workspace/terawatt/tokensale_contracts/contracts/LedPresaleToken.sol",
  "compiler": {
    "name": "solc",
    "version": "0.4.23+commit.124ca40d.Emscripten.clang"
  },
  "schemaVersion": "2.0.0",
  "updatedAt": "2018-05-25T15:25:48.405Z"
}