{
  "contractName": "LedToken",
  "abi": [
    {
      "constant": true,
      "inputs": [],
      "name": "mintingFinished",
      "outputs": [
        {
          "name": "",
          "type": "bool"
        }
      ],
      "payable": false,
      "stateMutability": "view",
      "type": "function"
    },
    {
      "constant": true,
      "inputs": [],
      "name": "name",
      "outputs": [
        {
          "name": "",
          "type": "string"
        }
      ],
      "payable": false,
      "stateMutability": "view",
      "type": "function"
    },
    {
      "constant": true,
      "inputs": [],
      "name": "creationBlock",
      "outputs": [
        {
          "name": "",
          "type": "uint256"
        }
      ],
      "payable": false,
      "stateMutability": "view",
      "type": "function"
    },
    {
      "constant": true,
      "inputs": [],
      "name": "presaleBalancesLocked",
      "outputs": [
        {
          "name": "",
          "type": "bool"
        }
      ],
      "payable": false,
      "stateMutability": "view",
      "type": "function"
    },
    {
      "constant": true,
      "inputs": [],
      "name": "decimals",
      "outputs": [
        {
          "name": "",
          "type": "uint8"
        }
      ],
      "payable": false,
      "stateMutability": "view",
      "type": "function"
    },
    {
      "constant": true,
      "inputs": [],
      "name": "version",
      "outputs": [
        {
          "name": "",
          "type": "string"
        }
      ],
      "payable": false,
      "stateMutability": "view",
      "type": "function"
    },
    {
      "constant": false,
      "inputs": [
        {
          "name": "newController",
          "type": "address"
        }
      ],
      "name": "transferControl",
      "outputs": [],
      "payable": false,
      "stateMutability": "nonpayable",
      "type": "function"
    },
    {
      "constant": true,
      "inputs": [],
      "name": "parentToken",
      "outputs": [
        {
          "name": "",
          "type": "address"
        }
      ],
      "payable": false,
      "stateMutability": "view",
      "type": "function"
    },
    {
      "constant": true,
      "inputs": [],
      "name": "totalSupplyAtCheckpoint",
      "outputs": [
        {
          "name": "",
          "type": "uint256"
        }
      ],
      "payable": false,
      "stateMutability": "view",
      "type": "function"
    },
    {
      "constant": true,
      "inputs": [],
      "name": "symbol",
      "outputs": [
        {
          "name": "",
          "type": "string"
        }
      ],
      "payable": false,
      "stateMutability": "view",
      "type": "function"
    },
    {
      "constant": true,
      "inputs": [],
      "name": "masterTransfersEnabled",
      "outputs": [
        {
          "name": "",
          "type": "bool"
        }
      ],
      "payable": false,
      "stateMutability": "view",
      "type": "function"
    },
    {
      "constant": true,
      "inputs": [],
      "name": "transfersEnabled",
      "outputs": [
        {
          "name": "",
          "type": "bool"
        }
      ],
      "payable": false,
      "stateMutability": "view",
      "type": "function"
    },
    {
      "constant": true,
      "inputs": [],
      "name": "parentSnapShotBlock",
      "outputs": [
        {
          "name": "",
          "type": "uint256"
        }
      ],
      "payable": false,
      "stateMutability": "view",
      "type": "function"
    },
    {
      "constant": true,
      "inputs": [],
      "name": "tokenFactory",
      "outputs": [
        {
          "name": "",
          "type": "address"
        }
      ],
      "payable": false,
      "stateMutability": "view",
      "type": "function"
    },
    {
      "constant": true,
      "inputs": [],
      "name": "controller",
      "outputs": [
        {
          "name": "",
          "type": "address"
        }
      ],
      "payable": false,
      "stateMutability": "view",
      "type": "function"
    },
    {
      "constant": true,
      "inputs": [],
      "name": "masterWallet",
      "outputs": [
        {
          "name": "",
          "type": "address"
        }
      ],
      "payable": false,
      "stateMutability": "view",
      "type": "function"
    },
    {
      "inputs": [
        {
          "name": "_tokenFactory",
          "type": "address"
        },
        {
          "name": "_parentToken",
          "type": "address"
        },
        {
          "name": "_parentSnapShotBlock",
          "type": "uint256"
        },
        {
          "name": "_tokenName",
          "type": "string"
        },
        {
          "name": "_tokenSymbol",
          "type": "string"
        }
      ],
      "payable": false,
      "stateMutability": "nonpayable",
      "type": "constructor"
    },
    {
      "payable": true,
      "stateMutability": "payable",
      "type": "fallback"
    },
    {
      "anonymous": false,
      "inputs": [
        {
          "indexed": true,
          "name": "to",
          "type": "address"
        },
        {
          "indexed": false,
          "name": "amount",
          "type": "uint256"
        }
      ],
      "name": "Mint",
      "type": "event"
    },
    {
      "anonymous": false,
      "inputs": [],
      "name": "MintFinished",
      "type": "event"
    },
    {
      "anonymous": false,
      "inputs": [
        {
          "indexed": true,
          "name": "_token",
          "type": "address"
        },
        {
          "indexed": true,
          "name": "_owner",
          "type": "address"
        },
        {
          "indexed": false,
          "name": "_amount",
          "type": "uint256"
        }
      ],
      "name": "ClaimedTokens",
      "type": "event"
    },
    {
      "anonymous": false,
      "inputs": [
        {
          "indexed": true,
          "name": "cloneToken",
          "type": "address"
        }
      ],
      "name": "NewCloneToken",
      "type": "event"
    },
    {
      "anonymous": false,
      "inputs": [
        {
          "indexed": true,
          "name": "_owner",
          "type": "address"
        },
        {
          "indexed": true,
          "name": "_spender",
          "type": "address"
        },
        {
          "indexed": false,
          "name": "_amount",
          "type": "uint256"
        }
      ],
      "name": "Approval",
      "type": "event"
    },
    {
      "anonymous": false,
      "inputs": [
        {
          "indexed": true,
          "name": "from",
          "type": "address"
        },
        {
          "indexed": true,
          "name": "to",
          "type": "address"
        },
        {
          "indexed": false,
          "name": "value",
          "type": "uint256"
        }
      ],
      "name": "Transfer",
      "type": "event"
    },
    {
      "constant": true,
      "inputs": [],
      "name": "totalSupply",
      "outputs": [
        {
          "name": "",
          "type": "uint256"
        }
      ],
      "payable": false,
      "stateMutability": "view",
      "type": "function"
    },
    {
      "constant": true,
      "inputs": [
        {
          "name": "_blockNumber",
          "type": "uint256"
        }
      ],
      "name": "totalSupplyAt",
      "outputs": [
        {
          "name": "",
          "type": "uint256"
        }
      ],
      "payable": false,
      "stateMutability": "view",
      "type": "function"
    },
    {
      "constant": true,
      "inputs": [
        {
          "name": "_owner",
          "type": "address"
        }
      ],
      "name": "balanceOf",
      "outputs": [
        {
          "name": "balance",
          "type": "uint256"
        }
      ],
      "payable": false,
      "stateMutability": "view",
      "type": "function"
    },
    {
      "constant": true,
      "inputs": [
        {
          "name": "_owner",
          "type": "address"
        },
        {
          "name": "_blockNumber",
          "type": "uint256"
        }
      ],
      "name": "balanceOfAt",
      "outputs": [
        {
          "name": "",
          "type": "uint256"
        }
      ],
      "payable": false,
      "stateMutability": "view",
      "type": "function"
    },
    {
      "constant": false,
      "inputs": [
        {
          "name": "_to",
          "type": "address"
        },
        {
          "name": "_amount",
          "type": "uint256"
        }
      ],
      "name": "transfer",
      "outputs": [
        {
          "name": "success",
          "type": "bool"
        }
      ],
      "payable": false,
      "stateMutability": "nonpayable",
      "type": "function"
    },
    {
      "constant": false,
      "inputs": [
        {
          "name": "_from",
          "type": "address"
        },
        {
          "name": "_to",
          "type": "address"
        },
        {
          "name": "_amount",
          "type": "uint256"
        }
      ],
      "name": "transferFrom",
      "outputs": [
        {
          "name": "success",
          "type": "bool"
        }
      ],
      "payable": false,
      "stateMutability": "nonpayable",
      "type": "function"
    },
    {
      "constant": false,
      "inputs": [
        {
          "name": "_spender",
          "type": "address"
        },
        {
          "name": "_amount",
          "type": "uint256"
        }
      ],
      "name": "approve",
      "outputs": [
        {
          "name": "success",
          "type": "bool"
        }
      ],
      "payable": false,
      "stateMutability": "nonpayable",
      "type": "function"
    },
    {
      "constant": false,
      "inputs": [
        {
          "name": "_spender",
          "type": "address"
        },
        {
          "name": "_amount",
          "type": "uint256"
        },
        {
          "name": "_extraData",
          "type": "bytes"
        }
      ],
      "name": "approveAndCall",
      "outputs": [
        {
          "name": "success",
          "type": "bool"
        }
      ],
      "payable": false,
      "stateMutability": "nonpayable",
      "type": "function"
    },
    {
      "constant": true,
      "inputs": [
        {
          "name": "_owner",
          "type": "address"
        },
        {
          "name": "_spender",
          "type": "address"
        }
      ],
      "name": "allowance",
      "outputs": [
        {
          "name": "remaining",
          "type": "uint256"
        }
      ],
      "payable": false,
      "stateMutability": "view",
      "type": "function"
    },
    {
      "constant": false,
      "inputs": [
        {
          "name": "_owner",
          "type": "address"
        },
        {
          "name": "_amount",
          "type": "uint256"
        }
      ],
      "name": "mint",
      "outputs": [
        {
          "name": "",
          "type": "bool"
        }
      ],
      "payable": false,
      "stateMutability": "nonpayable",
      "type": "function"
    },
    {
      "constant": false,
      "inputs": [
        {
          "name": "_addresses",
          "type": "address[]"
        },
        {
          "name": "_balances",
          "type": "uint256[]"
        }
      ],
      "name": "importPresaleBalances",
      "outputs": [
        {
          "name": "",
          "type": "bool"
        }
      ],
      "payable": false,
      "stateMutability": "nonpayable",
      "type": "function"
    },
    {
      "constant": false,
      "inputs": [],
      "name": "lockPresaleBalances",
      "outputs": [
        {
          "name": "",
          "type": "bool"
        }
      ],
      "payable": false,
      "stateMutability": "nonpayable",
      "type": "function"
    },
    {
      "constant": false,
      "inputs": [],
      "name": "finishMinting",
      "outputs": [
        {
          "name": "",
          "type": "bool"
        }
      ],
      "payable": false,
      "stateMutability": "nonpayable",
      "type": "function"
    },
    {
      "constant": false,
      "inputs": [
        {
          "name": "_value",
          "type": "bool"
        }
      ],
      "name": "enableTransfers",
      "outputs": [],
      "payable": false,
      "stateMutability": "nonpayable",
      "type": "function"
    },
    {
      "constant": false,
      "inputs": [
        {
          "name": "_value",
          "type": "bool"
        }
      ],
      "name": "enableMasterTransfers",
      "outputs": [],
      "payable": false,
      "stateMutability": "nonpayable",
      "type": "function"
    },
    {
      "constant": false,
      "inputs": [
        {
          "name": "_snapshotBlock",
          "type": "uint256"
        },
        {
          "name": "_name",
          "type": "string"
        },
        {
          "name": "_symbol",
          "type": "string"
        }
      ],
      "name": "createCloneToken",
      "outputs": [
        {
          "name": "",
          "type": "address"
        }
      ],
      "payable": false,
      "stateMutability": "nonpayable",
      "type": "function"
    }
  ],
  "bytecode": "0x6080604052600980546201000060b060020a03191675d8271285c255ce31b9b25e46ac63619322af59340000179055600d805461ffff191690553480156200004657600080fd5b506040516200195b3803806200195b833981016040908152815160208084015192840151606085015160808601516000805433600160a060020a031991821617909155600280548216600160a060020a038089169190911790915560018054909216908816179055600783905590860180519496929490939190920191620000d591600391908501906200015a565b508051620000eb9060049060208401906200015a565b506006805460ff191660121790556009805461ffff19169055436008556040805180820190915260038082527f302e31000000000000000000000000000000000000000000000000000000000060209092019182526200014e916005916200015a565b505050505050620001ff565b828054600181600116156101000203166002900490600052602060002090601f016020900481019282601f106200019d57805160ff1916838001178555620001cd565b82800160010185558215620001cd579182015b82811115620001cd578251825591602001919060010190620001b0565b50620001db929150620001df565b5090565b620001fc91905b80821115620001db5760008155600101620001e6565b90565b61174c806200020f6000396000f30060806040526004361061017c5763ffffffff60e060020a60003504166305d2035b811461018157806306fdde03146101aa578063095ea7b314610234578063128f04e71461025857806317634514146102e657806318160ddd1461030d5780631a53cd901461032257806323b872dd14610337578063313ce5671461036157806340c10f191461038c5780634ee2cd7e146103b057806354fd4d50146103d45780635d0a7628146103e95780636d16fa41146103fe57806370a08231146104215780637d64bcb41461044257806380a540011461045757806387a9a8ef1461048857806395d89b411461049d578063981b24d0146104b25780639ed74a23146104ca578063a9059cbb14610566578063aec318f11461058a578063b127326e146105a4578063bef97c87146105b9578063c5bcc4f1146105ce578063cae9ca51146105e3578063dd62ed3e1461064c578063e77772fe14610673578063f41e60c514610688578063f77c4791146106a2578063fc0d0117146106b7575b600080fd5b34801561018d57600080fd5b506101966106cc565b604080519115158252519081900360200190f35b3480156101b657600080fd5b506101bf6106d5565b6040805160208082528351818301528351919283929083019185019080838360005b838110156101f95781810151838201526020016101e1565b50505050905090810190601f1680156102265780820380516001836020036101000a031916815260200191505b509250505060405180910390f35b34801561024057600080fd5b50610196600160a060020a0360043516602435610763565b34801561026457600080fd5b506040805160206004803580820135838102808601850190965280855261019695369593946024949385019291829185019084908082843750506040805187358901803560208181028481018201909552818452989b9a9989019892975090820195509350839250850190849080828437509497506108189650505050505050565b3480156102f257600080fd5b506102fb610964565b60408051918252519081900360200190f35b34801561031957600080fd5b506102fb61096a565b34801561032e57600080fd5b5061019661097b565b34801561034357600080fd5b50610196600160a060020a0360043581169060243516604435610989565b34801561036d57600080fd5b506103766109f6565b6040805160ff9092168252519081900360200190f35b34801561039857600080fd5b50610196600160a060020a03600435166024356109ff565b3480156103bc57600080fd5b506102fb600160a060020a0360043516602435610adb565b3480156103e057600080fd5b506101bf610c28565b3480156103f557600080fd5b50610196610c83565b34801561040a57600080fd5b5061041f600160a060020a0360043516610cb0565b005b34801561042d57600080fd5b506102fb600160a060020a0360043516610d02565b34801561044e57600080fd5b50610196610d16565b34801561046357600080fd5b5061046c610d6a565b60408051600160a060020a039092168252519081900360200190f35b34801561049457600080fd5b506102fb610d79565b3480156104a957600080fd5b506101bf610d7f565b3480156104be57600080fd5b506102fb600435610dda565b3480156104d657600080fd5b5060408051602060046024803582810135601f810185900485028601850190965285855261046c95833595369560449491939091019190819084018382808284375050604080516020601f89358b018035918201839004830284018301909452808352979a999881019791965091820194509250829150840183828082843750949750610ece9650505050505050565b34801561057257600080fd5b50610196600160a060020a036004351660243561110e565b34801561059657600080fd5b5061041f6004351515611122565b3480156105b057600080fd5b50610196611153565b3480156105c557600080fd5b50610196611161565b3480156105da57600080fd5b506102fb61116a565b3480156105ef57600080fd5b50604080516020600460443581810135601f8101849004840285018401909552848452610196948235600160a060020a03169460248035953695946064949201919081908401838280828437509497506111709650505050505050565b34801561065857600080fd5b506102fb600160a060020a0360043581169060243516611281565b34801561067f57600080fd5b5061046c6112ac565b34801561069457600080fd5b5061041f60043515156112bb565b3480156106ae57600080fd5b5061046c6112e5565b3480156106c357600080fd5b5061046c6112f4565b600d5460ff1681565b6003805460408051602060026001851615610100026000190190941693909304601f8101849004840282018401909252818152929183018282801561075b5780601f106107305761010080835404028352916020019161075b565b820191906000526020600020905b81548152906001019060200180831161073e57829003601f168201915b505050505081565b60095460009060ff16151561077757600080fd5b8115806107a55750336000908152600c60209081526040808320600160a060020a0387168452909152902054155b15156107b057600080fd5b336000818152600c60209081526040808320600160a060020a03881680855290835292819020869055805186815290519293927f8c5be1e5ebec7d5bd14f71427d1e84f3dd0314c0f7b2291e5b200ac8c7c3b925929181900390910190a35060015b92915050565b600080548190600160a060020a0316331461083257600080fd5b600d54610100900460ff161561084757600080fd5b5060005b835181101561095a57828181518110151561086257fe5b60209081029091010151600e8054909101905583516108d490600b9060009087908590811061088d57fe5b90602001906020020151600160a060020a0316600160a060020a0316815260200190815260200160002084838151811015156108c557fe5b90602001906020020151611309565b6108e1600a600e54611309565b83818151811015156108ef57fe5b90602001906020020151600160a060020a031660007fddf252ad1be2c89b69c2b068fc378daa952ba7f163c4a11628f55a4df523b3ef858481518110151561093357fe5b906020019060200201516040518082815260200191505060405180910390a360010161084b565b5060019392505050565b60085481565b600061097543610dda565b90505b90565b600d54610100900460ff1681565b600160a060020a0383166000908152600c602090815260408083203384529091528120548211156109b957600080fd5b600160a060020a0384166000908152600c602090815260408083203384529091529020805483900390556109ee8484846113ff565b949350505050565b60065460ff1681565b6000805481908190600160a060020a03163314610a1b57600080fd5b600d5460ff1615610a2b57600080fd5b610a3361096a565b9150610a3e85610d02565b9050838201821115610a4f57600080fd5b838101811115610a5e57600080fd5b610a6b600a858401611309565b600160a060020a0385166000908152600b60205260409020610a8f90828601611309565b604080518581529051600160a060020a038716916000917fddf252ad1be2c89b69c2b068fc378daa952ba7f163c4a11628f55a4df523b3ef9181900360200190a3506001949350505050565b600160a060020a0382166000908152600b60205260408120541580610b375750600160a060020a0383166000908152600b6020526040812080548492908110610b2057fe5b6000918252602090912001546001608060020a0316115b15610bff57600154600160a060020a031615610bf757600154600754600160a060020a0390911690634ee2cd7e908590610b72908690611564565b6040518363ffffffff1660e060020a0281526004018083600160a060020a0316600160a060020a0316815260200182815260200192505050602060405180830381600087803b158015610bc457600080fd5b505af1158015610bd8573d6000803e3d6000fd5b505050506040513d6020811015610bee57600080fd5b50519050610812565b506000610812565b600160a060020a0383166000908152600b60205260409020610c21908361157a565b9050610812565b6005805460408051602060026001851615610100026000190190941693909304601f8101849004840282018401909252818152929183018282801561075b5780601f106107305761010080835404028352916020019161075b565b60008054600160a060020a03163314610c9b57600080fd5b50600d805461ff001916610100179055600190565b600054600160a060020a03163314610cc757600080fd5b600160a060020a03811615610cff576000805473ffffffffffffffffffffffffffffffffffffffff1916600160a060020a0383161790555b50565b6000610d0e8243610adb565b90505b919050565b60008054600160a060020a03163314610d2e57600080fd5b600d805460ff191660011790556040517fae5184fba832cb2b1f702aca6117b8d265eaf03ad33eb133f19dde0f5920fa0890600090a150600190565b600154600160a060020a031681565b600e5481565b6004805460408051602060026001851615610100026000190190941693909304601f8101849004840282018401909252818152929183018282801561075b5780601f106107305761010080835404028352916020019161075b565b600a546000901580610e0f575081600a6000815481101515610df857fe5b6000918252602090912001546001608060020a0316115b15610ebc57600154600160a060020a031615610eb457600154600754600160a060020a039091169063981b24d090610e48908590611564565b6040518263ffffffff1660e060020a02815260040180828152602001915050602060405180830381600087803b158015610e8157600080fd5b505af1158015610e95573d6000803e3d6000fd5b505050506040513d6020811015610eab57600080fd5b50519050610d11565b506000610d11565b610ec7600a8361157a565b9050610d11565b600080841515610edc574394505b43851115610ee8574394505b6002546040517f59b58dba000000000000000000000000000000000000000000000000000000008152306004820181815260248301899052608060448401908152885160848501528851600160a060020a03909516946359b58dba948b938b938b9391929091606482019160a40190602087019080838360005b83811015610f7a578181015183820152602001610f62565b50505050905090810190601f168015610fa75780820380516001836020036101000a031916815260200191505b50838103825284518152845160209182019186019080838360005b83811015610fda578181015183820152602001610fc2565b50505050905090810190601f1680156110075780820380516001836020036101000a031916815260200191505b509650505050505050602060405180830381600087803b15801561102a57600080fd5b505af115801561103e573d6000803e3d6000fd5b505050506040513d602081101561105457600080fd5b5051604080517f6d16fa410000000000000000000000000000000000000000000000000000000081523360048201529051919250600160a060020a03831691636d16fa419160248082019260009290919082900301818387803b1580156110ba57600080fd5b505af11580156110ce573d6000803e3d6000fd5b5050604051600160a060020a03841692507ff30000f977bee4f7df8246f69a4ba66f2d5be05d1fdaa0f0044d24fc52748b009150600090a2949350505050565b600061111b3384846113ff565b9392505050565b600054600160a060020a0316331461113957600080fd5b600980549115156101000261ff0019909216919091179055565b600954610100900460ff1681565b60095460ff1681565b60075481565b600061117c8484610763565b506040517f8f4ffcb10000000000000000000000000000000000000000000000000000000081523360048201818152602483018690523060448401819052608060648501908152865160848601528651600160a060020a038a1695638f4ffcb195948a94938a939192909160a490910190602085019080838360005b838110156112105781810151838201526020016111f8565b50505050905090810190601f16801561123d5780820380516001836020036101000a031916815260200191505b5095505050505050600060405180830381600087803b15801561125f57600080fd5b505af1158015611273573d6000803e3d6000fd5b506001979650505050505050565b600160a060020a039182166000908152600c6020908152604080832093909416825291909152205490565b600254600160a060020a031681565b600054600160a060020a031633146112d257600080fd5b6009805460ff1916911515919091179055565b600054600160a060020a031681565b600954620100009004600160a060020a031681565b8154600090819015806113425750835443908590600019810190811061132b57fe5b6000918252602090912001546001608060020a0316105b156113b4578354849061135882600183016116d9565b8154811061136257fe5b600091825260209091200180546001608060020a03858116700100000000000000000000000000000000024382166fffffffffffffffffffffffffffffffff19909316929092171617815591506113f9565b8354849060001981019081106113c657fe5b600091825260209091200180546001608060020a0380861670010000000000000000000000000000000002911617815590505b50505050565b60095460009081908190620100009004600160a060020a031633146114345760095460ff16151561142f57600080fd5b61144a565b600954610100900460ff16151561144a57600080fd5b6000841161145757600080fd5b600754431161146557600080fd5b600160a060020a038516158015906114865750600160a060020a0385163014155b151561149157600080fd5b61149b8643610adb565b9150838210156114aa57600080fd5b600160a060020a0386166000908152600b602052604090206114ce90858403611309565b6114d88543610adb565b90508381018111156114e957600080fd5b600160a060020a0385166000908152600b6020526040902061150d90828601611309565b84600160a060020a031686600160a060020a03167fddf252ad1be2c89b69c2b068fc378daa952ba7f163c4a11628f55a4df523b3ef866040518082815260200191505060405180910390a350600195945050505050565b6000818310611573578161111b565b5090919050565b60008060008085805490506000141561159657600093506116d0565b8554869060001981019081106115a857fe5b6000918252602090912001546001608060020a03168510611605578554869060001981019081106115d557fe5b60009182526020909120015470010000000000000000000000000000000090046001608060020a031693506116d0565b85600081548110151561161457fe5b6000918252602090912001546001608060020a031685101561163957600093506116d0565b8554600093506000190191505b8282111561169657600260018385010104905084868281548110151561166857fe5b6000918252602090912001546001608060020a03161161168a57809250611691565b6001810391505b611646565b85838154811015156116a457fe5b60009182526020909120015470010000000000000000000000000000000090046001608060020a031693505b50505092915050565b8154818355818111156116fd576000838152602090206116fd918101908301611702565b505050565b61097891905b8082111561171c5760008155600101611708565b50905600a165627a7a723058203d3bb9571a6f7d98c1f29e936f0a525924906d9f95b2f6892b4e6255ea1db4a00029",
  "source": "pragma solidity ^0.4.24;\n\nimport \"./SafeMath.sol\";\nimport \"./Controllable.sol\";\nimport \"./ApproveAndCallReceiver.sol\";\nimport \"./ControllerInterface.sol\";\nimport \"./TokenFactoryInterface.sol\";\nimport \"./LedTokenInterface.sol\";\n\n\ncontract LedToken is Controllable {\n\n  using SafeMath for uint256;\n  LedTokenInterface public parentToken;\n  TokenFactoryInterface public tokenFactory;\n\n  string public name;\n  string public symbol;\n  string public version;\n  uint8 public decimals;\n\n  uint256 public parentSnapShotBlock;\n  uint256 public creationBlock;\n  bool public transfersEnabled;\n\n  bool public masterTransfersEnabled;\n  address public masterWallet = 0xD8271285C255Ce31b9b25E46ac63619322Af5934;\n\n\n  struct Checkpoint {\n    uint128 fromBlock;\n    uint128 value;\n  }\n\n  Checkpoint[] totalSupplyHistory;\n  mapping(address => Checkpoint[]) balances;\n  mapping (address => mapping (address => uint)) allowed;\n\n  bool public mintingFinished = false;\n  bool public presaleBalancesLocked = false;\n\n  uint256 public totalSupplyAtCheckpoint;\n\n  event Mint(address indexed to, uint256 amount);\n  event MintFinished();\n  event ClaimedTokens(address indexed _token, address indexed _owner, uint _amount);\n  event NewCloneToken(address indexed cloneToken);\n  event Approval(address indexed _owner, address indexed _spender, uint256 _amount);\n  event Transfer(address indexed from, address indexed to, uint256 value);\n\n\n\n\n  constructor(\n    address _tokenFactory,\n    address _parentToken,\n    uint256 _parentSnapShotBlock,\n    string _tokenName,\n    string _tokenSymbol\n    ) public {\n      tokenFactory = TokenFactoryInterface(_tokenFactory);\n      parentToken = LedTokenInterface(_parentToken);\n      parentSnapShotBlock = _parentSnapShotBlock;\n      name = _tokenName;\n      symbol = _tokenSymbol;\n      decimals = 18;\n      transfersEnabled = false;\n      masterTransfersEnabled = false;\n      creationBlock = block.number;\n      version = '0.1';\n  }\n\n  function() public payable {\n    revert();\n  }\n\n\n  /**\n  * Returns the total Led token supply at the current block\n  * @return total supply {uint256}\n  */\n  function totalSupply() public constant returns (uint256) {\n    return totalSupplyAt(block.number);\n  }\n\n  /**\n  * Returns the total Led token supply at the given block number\n  * @param _blockNumber {uint256}\n  * @return total supply {uint256}\n  */\n  function totalSupplyAt(uint256 _blockNumber) public constant returns(uint256) {\n    // These next few lines are used when the totalSupply of the token is\n    //  requested before a check point was ever created for this token, it\n    //  requires that the `parentToken.totalSupplyAt` be queried at the\n    //  genesis block for this token as that contains totalSupply of this\n    //  token at this block number.\n    if ((totalSupplyHistory.length == 0) || (totalSupplyHistory[0].fromBlock > _blockNumber)) {\n        if (address(parentToken) != 0x0) {\n            return parentToken.totalSupplyAt(min(_blockNumber, parentSnapShotBlock));\n        } else {\n            return 0;\n        }\n\n    // This will return the expected totalSupply during normal situations\n    } else {\n        return getValueAt(totalSupplyHistory, _blockNumber);\n    }\n  }\n\n  /**\n  * Returns the token holder balance at the current block\n  * @param _owner {address}\n  * @return balance {uint256}\n   */\n  function balanceOf(address _owner) public constant returns (uint256 balance) {\n    return balanceOfAt(_owner, block.number);\n  }\n\n  /**\n  * Returns the token holder balance the the given block number\n  * @param _owner {address}\n  * @param _blockNumber {uint256}\n  * @return balance {uint256}\n  */\n  function balanceOfAt(address _owner, uint256 _blockNumber) public constant returns (uint256) {\n    // These next few lines are used when the balance of the token is\n    //  requested before a check point was ever created for this token, it\n    //  requires that the `parentToken.balanceOfAt` be queried at the\n    //  genesis block for that token as this contains initial balance of\n    //  this token\n    if ((balances[_owner].length == 0) || (balances[_owner][0].fromBlock > _blockNumber)) {\n        if (address(parentToken) != 0x0) {\n            return parentToken.balanceOfAt(_owner, min(_blockNumber, parentSnapShotBlock));\n        } else {\n            // Has no parent\n            return 0;\n        }\n\n    // This will return the expected balance during normal situations\n    } else {\n        return getValueAt(balances[_owner], _blockNumber);\n    }\n  }\n\n  /**\n  * Standard ERC20 transfer tokens function\n  * @param _to {address}\n  * @param _amount {uint}\n  * @return success {bool}\n  */\n  function transfer(address _to, uint256 _amount) public returns (bool success) {\n    return doTransfer(msg.sender, _to, _amount);\n  }\n\n  /**\n  * Standard ERC20 transferFrom function\n  * @param _from {address}\n  * @param _to {address}\n  * @param _amount {uint256}\n  * @return success {bool}\n  */\n  function transferFrom(address _from, address _to, uint256 _amount) public returns (bool success) {\n    require(allowed[_from][msg.sender] >= _amount);\n    allowed[_from][msg.sender] -= _amount;\n    return doTransfer(_from, _to, _amount);\n  }\n\n  /**\n  * Standard ERC20 approve function\n  * @param _spender {address}\n  * @param _amount {uint256}\n  * @return success {bool}\n  */\n  function approve(address _spender, uint256 _amount) public returns (bool success) {\n    require(transfersEnabled);\n\n    //https://github.com/ethereum/EIPs/issues/20#issuecomment-263524729\n    require((_amount == 0) || (allowed[msg.sender][_spender] == 0));\n\n    allowed[msg.sender][_spender] = _amount;\n    emit Approval(msg.sender, _spender, _amount);\n    return true;\n  }\n\n  /**\n  * Standard ERC20 approve function\n  * @param _spender {address}\n  * @param _amount {uint256}\n  * @return success {bool}\n  */\n  function approveAndCall(address _spender, uint256 _amount, bytes _extraData) public returns (bool success) {\n    approve(_spender, _amount);\n\n    ApproveAndCallReceiver(_spender).receiveApproval(\n        msg.sender,\n        _amount,\n        this,\n        _extraData\n    );\n\n    return true;\n  }\n\n  /**\n  * Standard ERC20 allowance function\n  * @param _owner {address}\n  * @param _spender {address}\n  * @return remaining {uint256}\n   */\n  function allowance(address _owner, address _spender) public constant returns (uint256 remaining) {\n    return allowed[_owner][_spender];\n  }\n\n  /**\n  * Internal Transfer function - Updates the checkpoint ledger\n  * @param _from {address}\n  * @param _to {address}\n  * @param _amount {uint256}\n  * @return success {bool}\n  */\n  function doTransfer(address _from, address _to, uint256 _amount) internal returns(bool) {\n\n    if (msg.sender != masterWallet) {\n      require(transfersEnabled);\n    } else {\n      require(masterTransfersEnabled);\n    }\n\n    require(_amount > 0);\n    require(parentSnapShotBlock < block.number);\n    require((_to != 0) && (_to != address(this)));\n\n    // If the amount being transfered is more than the balance of the\n    // account the transfer returns false\n    uint256 previousBalanceFrom = balanceOfAt(_from, block.number);\n    require(previousBalanceFrom >= _amount);\n\n    // First update the balance array with the new value for the address\n    //  sending the tokens\n    updateValueAtNow(balances[_from], previousBalanceFrom - _amount);\n\n    // Then update the balance array with the new value for the address\n    //  receiving the tokens\n    uint256 previousBalanceTo = balanceOfAt(_to, block.number);\n    require(previousBalanceTo + _amount >= previousBalanceTo); // Check for overflow\n    updateValueAtNow(balances[_to], previousBalanceTo + _amount);\n\n    // An event to make the transfer easy to find on the blockchain\n    emit Transfer(_from, _to, _amount);\n    return true;\n  }\n\n\n  /**\n  * Token creation functions - can only be called by the tokensale controller during the tokensale period\n  * @param _owner {address}\n  * @param _amount {uint256}\n  * @return success {bool}\n  */\n  function mint(address _owner, uint256 _amount) public onlyController canMint returns (bool) {\n    uint256 curTotalSupply = totalSupply();\n    uint256 previousBalanceTo = balanceOf(_owner);\n\n    require(curTotalSupply + _amount >= curTotalSupply); // Check for overflow\n    require(previousBalanceTo + _amount >= previousBalanceTo); // Check for overflow\n\n    updateValueAtNow(totalSupplyHistory, curTotalSupply + _amount);\n    updateValueAtNow(balances[_owner], previousBalanceTo + _amount);\n    emit Transfer(0, _owner, _amount);\n    return true;\n  }\n\n  modifier canMint() {\n    require(!mintingFinished);\n    _;\n  }\n\n\n  /**\n   * Import presale balances before the start of the token sale. After importing\n   * balances, lockPresaleBalances() has to be called to prevent further modification\n   * of presale balances.\n   * @param _addresses {address[]} Array of presale addresses\n   * @param _balances {uint256[]} Array of balances corresponding to presale addresses.\n   * @return success {bool}\n   */\n  function importPresaleBalances(address[] _addresses, uint256[] _balances) public onlyController returns (bool) {\n    require(presaleBalancesLocked == false);\n\n    for (uint256 i = 0; i < _addresses.length; i++) {\n      totalSupplyAtCheckpoint += _balances[i];\n      updateValueAtNow(balances[_addresses[i]], _balances[i]);\n      updateValueAtNow(totalSupplyHistory, totalSupplyAtCheckpoint);\n      emit Transfer(0, _addresses[i], _balances[i]);\n    }\n    return true;\n  }\n\n  /**\n   * Lock presale balances after successful presale balance import\n   * @return A boolean that indicates if the operation was successful.\n   */\n  function lockPresaleBalances() public onlyController returns (bool) {\n    presaleBalancesLocked = true;\n    return true;\n  }\n\n  /**\n   * Lock the minting of Led Tokens - to be called after the presale\n   * @return {bool} success\n  */\n  function finishMinting() public onlyController returns (bool) {\n    mintingFinished = true;\n    emit MintFinished();\n    return true;\n  }\n\n  /**\n   * Enable or block transfers - to be called in case of emergency\n   * @param _value {bool}\n  */\n  function enableTransfers(bool _value) public onlyController {\n    transfersEnabled = _value;\n  }\n\n  /**\n   * Enable or block transfers - to be called in case of emergency\n   * @param _value {bool}\n  */\n  function enableMasterTransfers(bool _value) public onlyController {\n    masterTransfersEnabled = _value;\n  }\n\n  /**\n   * Internal balance method - gets a certain checkpoint value a a certain _block\n   * @param _checkpoints {Checkpoint[]} List of checkpoints - supply history or balance history\n   * @return value {uint256} Value of _checkpoints at _block\n  */\n  function getValueAt(Checkpoint[] storage _checkpoints, uint256 _block) constant internal returns (uint256) {\n\n      if (_checkpoints.length == 0)\n        return 0;\n      // Shortcut for the actual value\n      if (_block >= _checkpoints[_checkpoints.length-1].fromBlock)\n        return _checkpoints[_checkpoints.length-1].value;\n      if (_block < _checkpoints[0].fromBlock)\n        return 0;\n\n      // Binary search of the value in the array\n      uint256 min = 0;\n      uint256 max = _checkpoints.length-1;\n      while (max > min) {\n          uint256 mid = (max + min + 1) / 2;\n          if (_checkpoints[mid].fromBlock<=_block) {\n              min = mid;\n          } else {\n              max = mid-1;\n          }\n      }\n      return _checkpoints[min].value;\n  }\n\n\n  /**\n  * Internal update method - updates the checkpoint ledger at the current block\n  * @param _checkpoints {Checkpoint[]}  List of checkpoints - supply history or balance history\n  * @return value {uint256} Value to add to the checkpoints ledger\n   */\n  function updateValueAtNow(Checkpoint[] storage _checkpoints, uint256 _value) internal {\n      if ((_checkpoints.length == 0) || (_checkpoints[_checkpoints.length-1].fromBlock < block.number)) {\n              Checkpoint storage newCheckPoint = _checkpoints[_checkpoints.length++];\n              newCheckPoint.fromBlock = uint128(block.number);\n              newCheckPoint.value = uint128(_value);\n          } else {\n              Checkpoint storage oldCheckPoint = _checkpoints[_checkpoints.length-1];\n              oldCheckPoint.value = uint128(_value);\n          }\n  }\n\n\n  function min(uint256 a, uint256 b) internal pure returns (uint) {\n      return a < b ? a : b;\n  }\n\n  /**\n  * Clones Led Token at the given snapshot block\n  * @param _snapshotBlock {uint256}\n  * @param _name {string} - The cloned token name\n  * @param _symbol {string} - The cloned token symbol\n  * @return clonedTokenAddress {address}\n   */\n  function createCloneToken(uint256 _snapshotBlock, string _name, string _symbol) public returns(address) {\n\n      if (_snapshotBlock == 0) {\n        _snapshotBlock = block.number;\n      }\n\n      if (_snapshotBlock > block.number) {\n        _snapshotBlock = block.number;\n      }\n\n      LedToken cloneToken = tokenFactory.createCloneToken(\n          this,\n          _snapshotBlock,\n          _name,\n          _symbol\n        );\n\n\n      cloneToken.transferControl(msg.sender);\n\n      // An event to make the token easy to find on the blockchain\n      emit NewCloneToken(address(cloneToken));\n      return address(cloneToken);\n    }\n\n}",
  "sourcePath": "/Users/julesdesmit/Desktop/workspace/terawatt/tokensale_contracts/contracts/LedToken.sol",
  "compiler": {
    "name": "solc",
    "version": "0.4.24+commit.e67f0147.Emscripten.clang"
  },
  "schemaVersion": "2.0.0",
  "updatedAt": "2018-05-31T08:04:29.993Z"
}