{
  "contractName": "LedToken",
  "abi": [
    {
      "constant": true,
      "inputs": [],
      "name": "mintingFinished",
      "outputs": [
        {
          "name": "",
          "type": "bool"
        }
      ],
      "payable": false,
      "stateMutability": "view",
      "type": "function"
    },
    {
      "constant": true,
      "inputs": [],
      "name": "name",
      "outputs": [
        {
          "name": "",
          "type": "string"
        }
      ],
      "payable": false,
      "stateMutability": "view",
      "type": "function"
    },
    {
      "constant": true,
      "inputs": [],
      "name": "creationBlock",
      "outputs": [
        {
          "name": "",
          "type": "uint256"
        }
      ],
      "payable": false,
      "stateMutability": "view",
      "type": "function"
    },
    {
      "constant": true,
      "inputs": [],
      "name": "presaleBalancesLocked",
      "outputs": [
        {
          "name": "",
          "type": "bool"
        }
      ],
      "payable": false,
      "stateMutability": "view",
      "type": "function"
    },
    {
      "constant": true,
      "inputs": [],
      "name": "decimals",
      "outputs": [
        {
          "name": "",
          "type": "uint8"
        }
      ],
      "payable": false,
      "stateMutability": "view",
      "type": "function"
    },
    {
      "constant": true,
      "inputs": [],
      "name": "version",
      "outputs": [
        {
          "name": "",
          "type": "string"
        }
      ],
      "payable": false,
      "stateMutability": "view",
      "type": "function"
    },
    {
      "constant": false,
      "inputs": [
        {
          "name": "newController",
          "type": "address"
        }
      ],
      "name": "transferControl",
      "outputs": [],
      "payable": false,
      "stateMutability": "nonpayable",
      "type": "function"
    },
    {
      "constant": true,
      "inputs": [],
      "name": "TOTAL_PRESALE_TOKENS",
      "outputs": [
        {
          "name": "",
          "type": "uint256"
        }
      ],
      "payable": false,
      "stateMutability": "view",
      "type": "function"
    },
    {
      "constant": true,
      "inputs": [],
      "name": "parentToken",
      "outputs": [
        {
          "name": "",
          "type": "address"
        }
      ],
      "payable": false,
      "stateMutability": "view",
      "type": "function"
    },
    {
      "constant": true,
      "inputs": [],
      "name": "symbol",
      "outputs": [
        {
          "name": "",
          "type": "string"
        }
      ],
      "payable": false,
      "stateMutability": "view",
      "type": "function"
    },
    {
      "constant": true,
      "inputs": [],
      "name": "masterTransfersEnabled",
      "outputs": [
        {
          "name": "",
          "type": "bool"
        }
      ],
      "payable": false,
      "stateMutability": "view",
      "type": "function"
    },
    {
      "constant": true,
      "inputs": [],
      "name": "transfersEnabled",
      "outputs": [
        {
          "name": "",
          "type": "bool"
        }
      ],
      "payable": false,
      "stateMutability": "view",
      "type": "function"
    },
    {
      "constant": true,
      "inputs": [],
      "name": "parentSnapShotBlock",
      "outputs": [
        {
          "name": "",
          "type": "uint256"
        }
      ],
      "payable": false,
      "stateMutability": "view",
      "type": "function"
    },
    {
      "constant": true,
      "inputs": [],
      "name": "tokenFactory",
      "outputs": [
        {
          "name": "",
          "type": "address"
        }
      ],
      "payable": false,
      "stateMutability": "view",
      "type": "function"
    },
    {
      "constant": true,
      "inputs": [],
      "name": "controller",
      "outputs": [
        {
          "name": "",
          "type": "address"
        }
      ],
      "payable": false,
      "stateMutability": "view",
      "type": "function"
    },
    {
      "constant": true,
      "inputs": [],
      "name": "masterWallet",
      "outputs": [
        {
          "name": "",
          "type": "address"
        }
      ],
      "payable": false,
      "stateMutability": "view",
      "type": "function"
    },
    {
      "inputs": [
        {
          "name": "_tokenFactory",
          "type": "address"
        },
        {
          "name": "_parentToken",
          "type": "address"
        },
        {
          "name": "_parentSnapShotBlock",
          "type": "uint256"
        },
        {
          "name": "_tokenName",
          "type": "string"
        },
        {
          "name": "_tokenSymbol",
          "type": "string"
        }
      ],
      "payable": false,
      "stateMutability": "nonpayable",
      "type": "constructor"
    },
    {
      "payable": true,
      "stateMutability": "payable",
      "type": "fallback"
    },
    {
      "anonymous": false,
      "inputs": [
        {
          "indexed": true,
          "name": "to",
          "type": "address"
        },
        {
          "indexed": false,
          "name": "amount",
          "type": "uint256"
        }
      ],
      "name": "Mint",
      "type": "event"
    },
    {
      "anonymous": false,
      "inputs": [],
      "name": "MintFinished",
      "type": "event"
    },
    {
      "anonymous": false,
      "inputs": [
        {
          "indexed": true,
          "name": "_token",
          "type": "address"
        },
        {
          "indexed": true,
          "name": "_owner",
          "type": "address"
        },
        {
          "indexed": false,
          "name": "_amount",
          "type": "uint256"
        }
      ],
      "name": "ClaimedTokens",
      "type": "event"
    },
    {
      "anonymous": false,
      "inputs": [
        {
          "indexed": true,
          "name": "cloneToken",
          "type": "address"
        }
      ],
      "name": "NewCloneToken",
      "type": "event"
    },
    {
      "anonymous": false,
      "inputs": [
        {
          "indexed": true,
          "name": "_owner",
          "type": "address"
        },
        {
          "indexed": true,
          "name": "_spender",
          "type": "address"
        },
        {
          "indexed": false,
          "name": "_amount",
          "type": "uint256"
        }
      ],
      "name": "Approval",
      "type": "event"
    },
    {
      "anonymous": false,
      "inputs": [
        {
          "indexed": true,
          "name": "from",
          "type": "address"
        },
        {
          "indexed": true,
          "name": "to",
          "type": "address"
        },
        {
          "indexed": false,
          "name": "value",
          "type": "uint256"
        }
      ],
      "name": "Transfer",
      "type": "event"
    },
    {
      "constant": true,
      "inputs": [],
      "name": "totalSupply",
      "outputs": [
        {
          "name": "",
          "type": "uint256"
        }
      ],
      "payable": false,
      "stateMutability": "view",
      "type": "function"
    },
    {
      "constant": true,
      "inputs": [
        {
          "name": "_blockNumber",
          "type": "uint256"
        }
      ],
      "name": "totalSupplyAt",
      "outputs": [
        {
          "name": "",
          "type": "uint256"
        }
      ],
      "payable": false,
      "stateMutability": "view",
      "type": "function"
    },
    {
      "constant": true,
      "inputs": [
        {
          "name": "_owner",
          "type": "address"
        }
      ],
      "name": "balanceOf",
      "outputs": [
        {
          "name": "balance",
          "type": "uint256"
        }
      ],
      "payable": false,
      "stateMutability": "view",
      "type": "function"
    },
    {
      "constant": true,
      "inputs": [
        {
          "name": "_owner",
          "type": "address"
        },
        {
          "name": "_blockNumber",
          "type": "uint256"
        }
      ],
      "name": "balanceOfAt",
      "outputs": [
        {
          "name": "",
          "type": "uint256"
        }
      ],
      "payable": false,
      "stateMutability": "view",
      "type": "function"
    },
    {
      "constant": false,
      "inputs": [
        {
          "name": "_to",
          "type": "address"
        },
        {
          "name": "_amount",
          "type": "uint256"
        }
      ],
      "name": "transfer",
      "outputs": [
        {
          "name": "success",
          "type": "bool"
        }
      ],
      "payable": false,
      "stateMutability": "nonpayable",
      "type": "function"
    },
    {
      "constant": false,
      "inputs": [
        {
          "name": "_from",
          "type": "address"
        },
        {
          "name": "_to",
          "type": "address"
        },
        {
          "name": "_amount",
          "type": "uint256"
        }
      ],
      "name": "transferFrom",
      "outputs": [
        {
          "name": "success",
          "type": "bool"
        }
      ],
      "payable": false,
      "stateMutability": "nonpayable",
      "type": "function"
    },
    {
      "constant": false,
      "inputs": [
        {
          "name": "_spender",
          "type": "address"
        },
        {
          "name": "_amount",
          "type": "uint256"
        }
      ],
      "name": "approve",
      "outputs": [
        {
          "name": "success",
          "type": "bool"
        }
      ],
      "payable": false,
      "stateMutability": "nonpayable",
      "type": "function"
    },
    {
      "constant": false,
      "inputs": [
        {
          "name": "_spender",
          "type": "address"
        },
        {
          "name": "_amount",
          "type": "uint256"
        },
        {
          "name": "_extraData",
          "type": "bytes"
        }
      ],
      "name": "approveAndCall",
      "outputs": [
        {
          "name": "success",
          "type": "bool"
        }
      ],
      "payable": false,
      "stateMutability": "nonpayable",
      "type": "function"
    },
    {
      "constant": true,
      "inputs": [
        {
          "name": "_owner",
          "type": "address"
        },
        {
          "name": "_spender",
          "type": "address"
        }
      ],
      "name": "allowance",
      "outputs": [
        {
          "name": "remaining",
          "type": "uint256"
        }
      ],
      "payable": false,
      "stateMutability": "view",
      "type": "function"
    },
    {
      "constant": false,
      "inputs": [
        {
          "name": "_owner",
          "type": "address"
        },
        {
          "name": "_amount",
          "type": "uint256"
        }
      ],
      "name": "mint",
      "outputs": [
        {
          "name": "",
          "type": "bool"
        }
      ],
      "payable": false,
      "stateMutability": "nonpayable",
      "type": "function"
    },
    {
      "constant": false,
      "inputs": [
        {
          "name": "_addresses",
          "type": "address[]"
        },
        {
          "name": "_balances",
          "type": "uint256[]"
        }
      ],
      "name": "importPresaleBalances",
      "outputs": [
        {
          "name": "",
          "type": "bool"
        }
      ],
      "payable": false,
      "stateMutability": "nonpayable",
      "type": "function"
    },
    {
      "constant": false,
      "inputs": [],
      "name": "lockPresaleBalances",
      "outputs": [
        {
          "name": "",
          "type": "bool"
        }
      ],
      "payable": false,
      "stateMutability": "nonpayable",
      "type": "function"
    },
    {
      "constant": false,
      "inputs": [],
      "name": "finishMinting",
      "outputs": [
        {
          "name": "",
          "type": "bool"
        }
      ],
      "payable": false,
      "stateMutability": "nonpayable",
      "type": "function"
    },
    {
      "constant": false,
      "inputs": [
        {
          "name": "_value",
          "type": "bool"
        }
      ],
      "name": "enableTransfers",
      "outputs": [],
      "payable": false,
      "stateMutability": "nonpayable",
      "type": "function"
    },
    {
      "constant": false,
      "inputs": [
        {
          "name": "_value",
          "type": "bool"
        }
      ],
      "name": "enableMasterTransfers",
      "outputs": [],
      "payable": false,
      "stateMutability": "nonpayable",
      "type": "function"
    },
    {
      "constant": false,
      "inputs": [
        {
          "name": "_snapshotBlock",
          "type": "uint256"
        },
        {
          "name": "_name",
          "type": "string"
        },
        {
          "name": "_symbol",
          "type": "string"
        }
      ],
      "name": "createCloneToken",
      "outputs": [
        {
          "name": "",
          "type": "address"
        }
      ],
      "payable": false,
      "stateMutability": "nonpayable",
      "type": "function"
    }
  ],
  "bytecode": "0x608060405273d8271285c255ce31b9b25e46ac63619322af5934600960026101000a81548173ffffffffffffffffffffffffffffffffffffffff021916908373ffffffffffffffffffffffffffffffffffffffff1602179055506000600d60006101000a81548160ff0219169083151502179055506000600d60016101000a81548160ff0219169083151502179055503480156200009c57600080fd5b5060405162002bdd38038062002bdd8339810180604052810190808051906020019092919080519060200190929190805190602001909291908051820192919060200180518201929190505050336000806101000a81548173ffffffffffffffffffffffffffffffffffffffff021916908373ffffffffffffffffffffffffffffffffffffffff16021790555084600260006101000a81548173ffffffffffffffffffffffffffffffffffffffff021916908373ffffffffffffffffffffffffffffffffffffffff16021790555083600160006101000a81548173ffffffffffffffffffffffffffffffffffffffff021916908373ffffffffffffffffffffffffffffffffffffffff160217905550826007819055508160039080519060200190620001ca92919062000296565b508060049080519060200190620001e392919062000296565b506012600660006101000a81548160ff021916908360ff1602179055506000600960006101000a81548160ff0219169083151502179055506000600960016101000a81548160ff021916908315150217905550436008819055506040805190810160405280600381526020017f302e310000000000000000000000000000000000000000000000000000000000815250600590805190602001906200028a92919062000296565b50505050505062000345565b828054600181600116156101000203166002900490600052602060002090601f016020900481019282601f10620002d957805160ff19168380011785556200030a565b828001600101855582156200030a579182015b8281111562000309578251825591602001919060010190620002ec565b5b5090506200031991906200031d565b5090565b6200034291905b808211156200033e57600081600090555060010162000324565b5090565b90565b61288880620003556000396000f300608060405260043610610196576000357c0100000000000000000000000000000000000000000000000000000000900463ffffffff16806305d2035b1461019b57806306fdde03146101ca578063095ea7b31461025a578063128f04e7146102bf578063176345141461038057806318160ddd146103ab5780631a53cd90146103d657806323b872dd14610405578063313ce5671461048a57806340c10f19146104bb5780634ee2cd7e1461052057806354fd4d50146105815780635d0a7628146106115780636d16fa411461064057806370a0823114610683578063763fd2ab146106da5780637d64bcb41461070557806380a540011461073457806395d89b411461078b578063981b24d01461081b5780639ed74a231461085c578063a9059cbb14610955578063aec318f1146109ba578063b127326e146109e9578063bef97c8714610a18578063c5bcc4f114610a47578063cae9ca5114610a72578063dd62ed3e14610b1d578063e77772fe14610b94578063f41e60c514610beb578063f77c479114610c1a578063fc0d011714610c71575b600080fd5b3480156101a757600080fd5b506101b0610cc8565b604051808215151515815260200191505060405180910390f35b3480156101d657600080fd5b506101df610cdb565b6040518080602001828103825283818151815260200191508051906020019080838360005b8381101561021f578082015181840152602081019050610204565b50505050905090810190601f16801561024c5780820380516001836020036101000a031916815260200191505b509250505060405180910390f35b34801561026657600080fd5b506102a5600480360381019080803573ffffffffffffffffffffffffffffffffffffffff16906020019092919080359060200190929190505050610d79565b604051808215151515815260200191505060405180910390f35b3480156102cb57600080fd5b506103666004803603810190808035906020019082018035906020019080806020026020016040519081016040528093929190818152602001838360200280828437820191505050505050919291929080359060200190820180359060200190808060200260200160405190810160405280939291908181526020018383602002808284378201915050505050509192919290505050610f1c565b604051808215151515815260200191505060405180910390f35b34801561038c57600080fd5b506103956110cb565b6040518082815260200191505060405180910390f35b3480156103b757600080fd5b506103c06110d1565b6040518082815260200191505060405180910390f35b3480156103e257600080fd5b506103eb6110e1565b604051808215151515815260200191505060405180910390f35b34801561041157600080fd5b50610470600480360381019080803573ffffffffffffffffffffffffffffffffffffffff169060200190929190803573ffffffffffffffffffffffffffffffffffffffff169060200190929190803590602001909291905050506110f4565b604051808215151515815260200191505060405180910390f35b34801561049657600080fd5b5061049f61121f565b604051808260ff1660ff16815260200191505060405180910390f35b3480156104c757600080fd5b50610506600480360381019080803573ffffffffffffffffffffffffffffffffffffffff16906020019092919080359060200190929190505050611232565b604051808215151515815260200191505060405180910390f35b34801561052c57600080fd5b5061056b600480360381019080803573ffffffffffffffffffffffffffffffffffffffff16906020019092919080359060200190929190505050611398565b6040518082815260200191505060405180910390f35b34801561058d57600080fd5b50610596611624565b6040518080602001828103825283818151815260200191508051906020019080838360005b838110156105d65780820151818401526020810190506105bb565b50505050905090810190601f1680156106035780820380516001836020036101000a031916815260200191505b509250505060405180910390f35b34801561061d57600080fd5b506106266116c2565b604051808215151515815260200191505060405180910390f35b34801561064c57600080fd5b50610681600480360381019080803573ffffffffffffffffffffffffffffffffffffffff169060200190929190505050611741565b005b34801561068f57600080fd5b506106c4600480360381019080803573ffffffffffffffffffffffffffffffffffffffff169060200190929190505050611816565b6040518082815260200191505060405180910390f35b3480156106e657600080fd5b506106ef611829565b6040518082815260200191505060405180910390f35b34801561071157600080fd5b5061071a611837565b604051808215151515815260200191505060405180910390f35b34801561074057600080fd5b506107496118e2565b604051808273ffffffffffffffffffffffffffffffffffffffff1673ffffffffffffffffffffffffffffffffffffffff16815260200191505060405180910390f35b34801561079757600080fd5b506107a0611908565b6040518080602001828103825283818151815260200191508051906020019080838360005b838110156107e05780820151818401526020810190506107c5565b50505050905090810190601f16801561080d5780820380516001836020036101000a031916815260200191505b509250505060405180910390f35b34801561082757600080fd5b50610846600480360381019080803590602001909291905050506119a6565b6040518082815260200191505060405180910390f35b34801561086857600080fd5b5061091360048036038101908080359060200190929190803590602001908201803590602001908080601f0160208091040260200160405190810160405280939291908181526020018383808284378201915050505050509192919290803590602001908201803590602001908080601f0160208091040260200160405190810160405280939291908181526020018383808284378201915050505050509192919290505050611b46565b604051808273ffffffffffffffffffffffffffffffffffffffff1673ffffffffffffffffffffffffffffffffffffffff16815260200191505060405180910390f35b34801561096157600080fd5b506109a0600480360381019080803573ffffffffffffffffffffffffffffffffffffffff16906020019092919080359060200190929190505050611e3f565b604051808215151515815260200191505060405180910390f35b3480156109c657600080fd5b506109e7600480360381019080803515159060200190929190505050611e54565b005b3480156109f557600080fd5b506109fe611ecc565b604051808215151515815260200191505060405180910390f35b348015610a2457600080fd5b50610a2d611edf565b604051808215151515815260200191505060405180910390f35b348015610a5357600080fd5b50610a5c611ef2565b6040518082815260200191505060405180910390f35b348015610a7e57600080fd5b50610b03600480360381019080803573ffffffffffffffffffffffffffffffffffffffff16906020019092919080359060200190929190803590602001908201803590602001908080601f0160208091040260200160405190810160405280939291908181526020018383808284378201915050505050509192919290505050611ef8565b604051808215151515815260200191505060405180910390f35b348015610b2957600080fd5b50610b7e600480360381019080803573ffffffffffffffffffffffffffffffffffffffff169060200190929190803573ffffffffffffffffffffffffffffffffffffffff16906020019092919050505061206c565b6040518082815260200191505060405180910390f35b348015610ba057600080fd5b50610ba96120f3565b604051808273ffffffffffffffffffffffffffffffffffffffff1673ffffffffffffffffffffffffffffffffffffffff16815260200191505060405180910390f35b348015610bf757600080fd5b50610c18600480360381019080803515159060200190929190505050612119565b005b348015610c2657600080fd5b50610c2f612191565b604051808273ffffffffffffffffffffffffffffffffffffffff1673ffffffffffffffffffffffffffffffffffffffff16815260200191505060405180910390f35b348015610c7d57600080fd5b50610c866121b6565b604051808273ffffffffffffffffffffffffffffffffffffffff1673ffffffffffffffffffffffffffffffffffffffff16815260200191505060405180910390f35b600d60009054906101000a900460ff1681565b60038054600181600116156101000203166002900480601f016020809104026020016040519081016040528092919081815260200182805460018160011615610100020316600290048015610d715780601f10610d4657610100808354040283529160200191610d71565b820191906000526020600020905b815481529060010190602001808311610d5457829003601f168201915b505050505081565b6000600960009054906101000a900460ff161515610d9657600080fd5b6000821480610e2157506000600c60003373ffffffffffffffffffffffffffffffffffffffff1673ffffffffffffffffffffffffffffffffffffffff16815260200190815260200160002060008573ffffffffffffffffffffffffffffffffffffffff1673ffffffffffffffffffffffffffffffffffffffff16815260200190815260200160002054145b1515610e2c57600080fd5b81600c60003373ffffffffffffffffffffffffffffffffffffffff1673ffffffffffffffffffffffffffffffffffffffff16815260200190815260200160002060008573ffffffffffffffffffffffffffffffffffffffff1673ffffffffffffffffffffffffffffffffffffffff168152602001908152602001600020819055508273ffffffffffffffffffffffffffffffffffffffff163373ffffffffffffffffffffffffffffffffffffffff167f8c5be1e5ebec7d5bd14f71427d1e84f3dd0314c0f7b2291e5b200ac8c7c3b925846040518082815260200191505060405180910390a36001905092915050565b6000806000809054906101000a900473ffffffffffffffffffffffffffffffffffffffff1673ffffffffffffffffffffffffffffffffffffffff163373ffffffffffffffffffffffffffffffffffffffff16141515610f7a57600080fd5b60001515600d60019054906101000a900460ff161515141515610f9c57600080fd5b600090505b83518110156110ab57611020600b60008684815181101515610fbf57fe5b9060200190602002015173ffffffffffffffffffffffffffffffffffffffff1673ffffffffffffffffffffffffffffffffffffffff168152602001908152602001600020848381518110151561101157fe5b906020019060200201516121dc565b838181518110151561102e57fe5b9060200190602002015173ffffffffffffffffffffffffffffffffffffffff1660007fddf252ad1be2c89b69c2b068fc378daa952ba7f163c4a11628f55a4df523b3ef858481518110151561107f57fe5b906020019060200201516040518082815260200191505060405180910390a38080600101915050610fa1565b6110c0600a6917cc7ef452b6825387606121dc565b600191505092915050565b60085481565b60006110dc436119a6565b905090565b600d60019054906101000a900460ff1681565b600081600c60008673ffffffffffffffffffffffffffffffffffffffff1673ffffffffffffffffffffffffffffffffffffffff16815260200190815260200160002060003373ffffffffffffffffffffffffffffffffffffffff1673ffffffffffffffffffffffffffffffffffffffff168152602001908152602001600020541015151561118157600080fd5b81600c60008673ffffffffffffffffffffffffffffffffffffffff1673ffffffffffffffffffffffffffffffffffffffff16815260200190815260200160002060003373ffffffffffffffffffffffffffffffffffffffff1673ffffffffffffffffffffffffffffffffffffffff16815260200190815260200160002060008282540392505081905550611216848484612350565b90509392505050565b600660009054906101000a900460ff1681565b60008060008060009054906101000a900473ffffffffffffffffffffffffffffffffffffffff1673ffffffffffffffffffffffffffffffffffffffff163373ffffffffffffffffffffffffffffffffffffffff1614151561129257600080fd5b600d60009054906101000a900460ff161515156112ae57600080fd5b6112b66110d1565b91506112c185611816565b905081848301101515156112d457600080fd5b80848201101515156112e557600080fd5b6112f2600a8584016121dc565b61133c600b60008773ffffffffffffffffffffffffffffffffffffffff1673ffffffffffffffffffffffffffffffffffffffff1681526020019081526020016000208583016121dc565b8473ffffffffffffffffffffffffffffffffffffffff1660007fddf252ad1be2c89b69c2b068fc378daa952ba7f163c4a11628f55a4df523b3ef866040518082815260200191505060405180910390a360019250505092915050565b600080600b60008573ffffffffffffffffffffffffffffffffffffffff1673ffffffffffffffffffffffffffffffffffffffff168152602001908152602001600020805490501480611471575081600b60008573ffffffffffffffffffffffffffffffffffffffff1673ffffffffffffffffffffffffffffffffffffffff168152602001908152602001600020600081548110151561143357fe5b9060005260206000200160000160009054906101000a90046fffffffffffffffffffffffffffffffff166fffffffffffffffffffffffffffffffff16115b156115d3576000600160009054906101000a900473ffffffffffffffffffffffffffffffffffffffff1673ffffffffffffffffffffffffffffffffffffffff161415156115ca57600160009054906101000a900473ffffffffffffffffffffffffffffffffffffffff1673ffffffffffffffffffffffffffffffffffffffff16634ee2cd7e84611503856007546125a3565b6040518363ffffffff167c0100000000000000000000000000000000000000000000000000000000028152600401808373ffffffffffffffffffffffffffffffffffffffff1673ffffffffffffffffffffffffffffffffffffffff16815260200182815260200192505050602060405180830381600087803b15801561158857600080fd5b505af115801561159c573d6000803e3d6000fd5b505050506040513d60208110156115b257600080fd5b8101908080519060200190929190505050905061161e565b6000905061161e565b61161b600b60008573ffffffffffffffffffffffffffffffffffffffff1673ffffffffffffffffffffffffffffffffffffffff168152602001908152602001600020836125bc565b90505b92915050565b60058054600181600116156101000203166002900480601f0160208091040260200160405190810160405280929190818152602001828054600181600116156101000203166002900480156116ba5780601f1061168f576101008083540402835291602001916116ba565b820191906000526020600020905b81548152906001019060200180831161169d57829003601f168201915b505050505081565b60008060009054906101000a900473ffffffffffffffffffffffffffffffffffffffff1673ffffffffffffffffffffffffffffffffffffffff163373ffffffffffffffffffffffffffffffffffffffff1614151561171f57600080fd5b6001600d60016101000a81548160ff0219169083151502179055506001905090565b6000809054906101000a900473ffffffffffffffffffffffffffffffffffffffff1673ffffffffffffffffffffffffffffffffffffffff163373ffffffffffffffffffffffffffffffffffffffff1614151561179c57600080fd5b600073ffffffffffffffffffffffffffffffffffffffff168173ffffffffffffffffffffffffffffffffffffffff1614151561181357806000806101000a81548173ffffffffffffffffffffffffffffffffffffffff021916908373ffffffffffffffffffffffffffffffffffffffff1602179055505b50565b60006118228243611398565b9050919050565b6917cc7ef452b68253876081565b60008060009054906101000a900473ffffffffffffffffffffffffffffffffffffffff1673ffffffffffffffffffffffffffffffffffffffff163373ffffffffffffffffffffffffffffffffffffffff1614151561189457600080fd5b6001600d60006101000a81548160ff0219169083151502179055507fae5184fba832cb2b1f702aca6117b8d265eaf03ad33eb133f19dde0f5920fa0860405160405180910390a16001905090565b600160009054906101000a900473ffffffffffffffffffffffffffffffffffffffff1681565b60048054600181600116156101000203166002900480601f01602080910402602001604051908101604052809291908181526020018280546001816001161561010002031660029004801561199e5780601f106119735761010080835404028352916020019161199e565b820191906000526020600020905b81548152906001019060200180831161198157829003601f168201915b505050505081565b600080600a805490501480611a05575081600a60008154811015156119c757fe5b9060005260206000200160000160009054906101000a90046fffffffffffffffffffffffffffffffff166fffffffffffffffffffffffffffffffff16115b15611b33576000600160009054906101000a900473ffffffffffffffffffffffffffffffffffffffff1673ffffffffffffffffffffffffffffffffffffffff16141515611b2a57600160009054906101000a900473ffffffffffffffffffffffffffffffffffffffff1673ffffffffffffffffffffffffffffffffffffffff1663981b24d0611a96846007546125a3565b6040518263ffffffff167c010000000000000000000000000000000000000000000000000000000002815260040180828152602001915050602060405180830381600087803b158015611ae857600080fd5b505af1158015611afc573d6000803e3d6000fd5b505050506040513d6020811015611b1257600080fd5b81019080805190602001909291905050509050611b41565b60009050611b41565b611b3e600a836125bc565b90505b919050565b6000806000851415611b56574394505b43851115611b62574394505b600260009054906101000a900473ffffffffffffffffffffffffffffffffffffffff1673ffffffffffffffffffffffffffffffffffffffff166359b58dba308787876040518563ffffffff167c0100000000000000000000000000000000000000000000000000000000028152600401808573ffffffffffffffffffffffffffffffffffffffff1673ffffffffffffffffffffffffffffffffffffffff1681526020018481526020018060200180602001838103835285818151815260200191508051906020019080838360005b83811015611c4b578082015181840152602081019050611c30565b50505050905090810190601f168015611c785780820380516001836020036101000a031916815260200191505b50838103825284818151815260200191508051906020019080838360005b83811015611cb1578082015181840152602081019050611c96565b50505050905090810190601f168015611cde5780820380516001836020036101000a031916815260200191505b509650505050505050602060405180830381600087803b158015611d0157600080fd5b505af1158015611d15573d6000803e3d6000fd5b505050506040513d6020811015611d2b57600080fd5b810190808051906020019092919050505090508073ffffffffffffffffffffffffffffffffffffffff16636d16fa41336040518263ffffffff167c0100000000000000000000000000000000000000000000000000000000028152600401808273ffffffffffffffffffffffffffffffffffffffff1673ffffffffffffffffffffffffffffffffffffffff168152602001915050600060405180830381600087803b158015611dd957600080fd5b505af1158015611ded573d6000803e3d6000fd5b505050508073ffffffffffffffffffffffffffffffffffffffff167ff30000f977bee4f7df8246f69a4ba66f2d5be05d1fdaa0f0044d24fc52748b0060405160405180910390a2809150509392505050565b6000611e4c338484612350565b905092915050565b6000809054906101000a900473ffffffffffffffffffffffffffffffffffffffff1673ffffffffffffffffffffffffffffffffffffffff163373ffffffffffffffffffffffffffffffffffffffff16141515611eaf57600080fd5b80600960016101000a81548160ff02191690831515021790555050565b600960019054906101000a900460ff1681565b600960009054906101000a900460ff1681565b60075481565b6000611f048484610d79565b508373ffffffffffffffffffffffffffffffffffffffff16638f4ffcb1338530866040518563ffffffff167c0100000000000000000000000000000000000000000000000000000000028152600401808573ffffffffffffffffffffffffffffffffffffffff1673ffffffffffffffffffffffffffffffffffffffff1681526020018481526020018373ffffffffffffffffffffffffffffffffffffffff1673ffffffffffffffffffffffffffffffffffffffff16815260200180602001828103825283818151815260200191508051906020019080838360005b83811015611ffa578082015181840152602081019050611fdf565b50505050905090810190601f1680156120275780820380516001836020036101000a031916815260200191505b5095505050505050600060405180830381600087803b15801561204957600080fd5b505af115801561205d573d6000803e3d6000fd5b50505050600190509392505050565b6000600c60008473ffffffffffffffffffffffffffffffffffffffff1673ffffffffffffffffffffffffffffffffffffffff16815260200190815260200160002060008373ffffffffffffffffffffffffffffffffffffffff1673ffffffffffffffffffffffffffffffffffffffff16815260200190815260200160002054905092915050565b600260009054906101000a900473ffffffffffffffffffffffffffffffffffffffff1681565b6000809054906101000a900473ffffffffffffffffffffffffffffffffffffffff1673ffffffffffffffffffffffffffffffffffffffff163373ffffffffffffffffffffffffffffffffffffffff1614151561217457600080fd5b80600960006101000a81548160ff02191690831515021790555050565b6000809054906101000a900473ffffffffffffffffffffffffffffffffffffffff1681565b600960029054906101000a900473ffffffffffffffffffffffffffffffffffffffff1681565b60008060008480549050148061224157504384600186805490500381548110151561220357fe5b9060005260206000200160000160009054906101000a90046fffffffffffffffffffffffffffffffff166fffffffffffffffffffffffffffffffff16105b156122ed578384805480919060010161225a91906127cb565b81548110151561226657fe5b906000526020600020019150438260000160006101000a8154816fffffffffffffffffffffffffffffffff02191690836fffffffffffffffffffffffffffffffff160217905550828260000160106101000a8154816fffffffffffffffffffffffffffffffff02191690836fffffffffffffffffffffffffffffffff16021790555061234a565b83600185805490500381548110151561230257fe5b906000526020600020019050828160000160106101000a8154816fffffffffffffffffffffffffffffffff02191690836fffffffffffffffffffffffffffffffff1602179055505b50505050565b6000806000600960029054906101000a900473ffffffffffffffffffffffffffffffffffffffff1673ffffffffffffffffffffffffffffffffffffffff163373ffffffffffffffffffffffffffffffffffffffff161415156123cc57600960009054906101000a900460ff1615156123c757600080fd5b6123e8565b600960019054906101000a900460ff1615156123e757600080fd5b5b6000841115156123f757600080fd5b4360075410151561240757600080fd5b60008573ffffffffffffffffffffffffffffffffffffffff161415801561245a57503073ffffffffffffffffffffffffffffffffffffffff168573ffffffffffffffffffffffffffffffffffffffff1614155b151561246557600080fd5b61246f8643611398565b915083821015151561248057600080fd5b6124ca600b60008873ffffffffffffffffffffffffffffffffffffffff1673ffffffffffffffffffffffffffffffffffffffff1681526020019081526020016000208584036121dc565b6124d48543611398565b905080848201101515156124e757600080fd5b612531600b60008773ffffffffffffffffffffffffffffffffffffffff1673ffffffffffffffffffffffffffffffffffffffff1681526020019081526020016000208583016121dc565b8473ffffffffffffffffffffffffffffffffffffffff168673ffffffffffffffffffffffffffffffffffffffff167fddf252ad1be2c89b69c2b068fc378daa952ba7f163c4a11628f55a4df523b3ef866040518082815260200191505060405180910390a36001925050509392505050565b60008183106125b257816125b4565b825b905092915050565b6000806000806000868054905014156125d857600093506127c2565b8560018780549050038154811015156125ed57fe5b9060005260206000200160000160009054906101000a90046fffffffffffffffffffffffffffffffff166fffffffffffffffffffffffffffffffff16851015156126895785600187805490500381548110151561264657fe5b9060005260206000200160000160109054906101000a90046fffffffffffffffffffffffffffffffff166fffffffffffffffffffffffffffffffff1693506127c2565b85600081548110151561269857fe5b9060005260206000200160000160009054906101000a90046fffffffffffffffffffffffffffffffff166fffffffffffffffffffffffffffffffff168510156126e457600093506127c2565b60009250600186805490500391505b8282111561277557600260018484010181151561270c57fe5b04905084868281548110151561271e57fe5b9060005260206000200160000160009054906101000a90046fffffffffffffffffffffffffffffffff166fffffffffffffffffffffffffffffffff1611151561276957809250612770565b6001810391505b6126f3565b858381548110151561278357fe5b9060005260206000200160000160109054906101000a90046fffffffffffffffffffffffffffffffff166fffffffffffffffffffffffffffffffff1693505b50505092915050565b8154818355818111156127f2578183600052602060002091820191016127f191906127f7565b5b505050565b61285991905b8082111561285557600080820160006101000a8154906fffffffffffffffffffffffffffffffff02191690556000820160106101000a8154906fffffffffffffffffffffffffffffffff0219169055506001016127fd565b5090565b905600a165627a7a723058203a4b52bf6f63adbe10e77f488fad3859793b0fd18dc97ed9e82443451ec3c89b0029",
  "source": "pragma solidity ^0.4.13;\n\nimport './SafeMath.sol';\nimport './Controllable.sol';\nimport './ApproveAndCallReceiver.sol';\nimport './ControllerInterface.sol';\nimport './TokenFactoryInterface.sol';\nimport './LedTokenInterface.sol';\n\n\ncontract LedToken is Controllable {\n\n  using SafeMath for uint256;\n  LedTokenInterface public parentToken;\n  TokenFactoryInterface public tokenFactory;\n\n  string public name;\n  string public symbol;\n  string public version;\n  uint8 public decimals;\n\n  uint256 public parentSnapShotBlock;\n  uint256 public creationBlock;\n  bool public transfersEnabled;\n\n  bool public masterTransfersEnabled;\n  address public masterWallet = 0xD8271285C255Ce31b9b25E46ac63619322Af5934;\n\n\n  struct Checkpoint {\n    uint128 fromBlock;\n    uint128 value;\n  }\n\n  Checkpoint[] totalSupplyHistory;\n  mapping(address => Checkpoint[]) balances;\n  mapping (address => mapping (address => uint)) allowed;\n\n  bool public mintingFinished = false;\n  bool public presaleBalancesLocked = false;\n\n  uint256 public constant TOTAL_PRESALE_TOKENS = 112386712924725508802400;\n\n  event Mint(address indexed to, uint256 amount);\n  event MintFinished();\n  event ClaimedTokens(address indexed _token, address indexed _owner, uint _amount);\n  event NewCloneToken(address indexed cloneToken);\n  event Approval(address indexed _owner, address indexed _spender, uint256 _amount);\n  event Transfer(address indexed from, address indexed to, uint256 value);\n\n\n\n\n  function LedToken(\n    address _tokenFactory,\n    address _parentToken,\n    uint256 _parentSnapShotBlock,\n    string _tokenName,\n    string _tokenSymbol\n    ) public {\n      tokenFactory = TokenFactoryInterface(_tokenFactory);\n      parentToken = LedTokenInterface(_parentToken);\n      parentSnapShotBlock = _parentSnapShotBlock;\n      name = _tokenName;\n      symbol = _tokenSymbol;\n      decimals = 18;\n      transfersEnabled = false;\n      masterTransfersEnabled = false;\n      creationBlock = block.number;\n      version = '0.1';\n  }\n\n  function() public payable {\n    revert();\n  }\n\n\n  /**\n  * Returns the total Led token supply at the current block\n  * @return total supply {uint256}\n  */\n  function totalSupply() public constant returns (uint256) {\n    return totalSupplyAt(block.number);\n  }\n\n  /**\n  * Returns the total Led token supply at the given block number\n  * @param _blockNumber {uint256}\n  * @return total supply {uint256}\n  */\n  function totalSupplyAt(uint256 _blockNumber) public constant returns(uint256) {\n    // These next few lines are used when the totalSupply of the token is\n    //  requested before a check point was ever created for this token, it\n    //  requires that the `parentToken.totalSupplyAt` be queried at the\n    //  genesis block for this token as that contains totalSupply of this\n    //  token at this block number.\n    if ((totalSupplyHistory.length == 0) || (totalSupplyHistory[0].fromBlock > _blockNumber)) {\n        if (address(parentToken) != 0) {\n            return parentToken.totalSupplyAt(min(_blockNumber, parentSnapShotBlock));\n        } else {\n            return 0;\n        }\n\n    // This will return the expected totalSupply during normal situations\n    } else {\n        return getValueAt(totalSupplyHistory, _blockNumber);\n    }\n  }\n\n  /**\n  * Returns the token holder balance at the current block\n  * @param _owner {address}\n  * @return balance {uint256}\n   */\n  function balanceOf(address _owner) public constant returns (uint256 balance) {\n    return balanceOfAt(_owner, block.number);\n  }\n\n  /**\n  * Returns the token holder balance the the given block number\n  * @param _owner {address}\n  * @param _blockNumber {uint256}\n  * @return balance {uint256}\n  */\n  function balanceOfAt(address _owner, uint256 _blockNumber) public constant returns (uint256) {\n    // These next few lines are used when the balance of the token is\n    //  requested before a check point was ever created for this token, it\n    //  requires that the `parentToken.balanceOfAt` be queried at the\n    //  genesis block for that token as this contains initial balance of\n    //  this token\n    if ((balances[_owner].length == 0) || (balances[_owner][0].fromBlock > _blockNumber)) {\n        if (address(parentToken) != 0) {\n            return parentToken.balanceOfAt(_owner, min(_blockNumber, parentSnapShotBlock));\n        } else {\n            // Has no parent\n            return 0;\n        }\n\n    // This will return the expected balance during normal situations\n    } else {\n        return getValueAt(balances[_owner], _blockNumber);\n    }\n  }\n\n  /**\n  * Standard ERC20 transfer tokens function\n  * @param _to {address}\n  * @param _amount {uint}\n  * @return success {bool}\n  */\n  function transfer(address _to, uint256 _amount) public returns (bool success) {\n    return doTransfer(msg.sender, _to, _amount);\n  }\n\n  /**\n  * Standard ERC20 transferFrom function\n  * @param _from {address}\n  * @param _to {address}\n  * @param _amount {uint256}\n  * @return success {bool}\n  */\n  function transferFrom(address _from, address _to, uint256 _amount) public returns (bool success) {\n    require(allowed[_from][msg.sender] >= _amount);\n    allowed[_from][msg.sender] -= _amount;\n    return doTransfer(_from, _to, _amount);\n  }\n\n  /**\n  * Standard ERC20 approve function\n  * @param _spender {address}\n  * @param _amount {uint256}\n  * @return success {bool}\n  */\n  function approve(address _spender, uint256 _amount) public returns (bool success) {\n    require(transfersEnabled);\n\n    //https://github.com/ethereum/EIPs/issues/20#issuecomment-263524729\n    require((_amount == 0) || (allowed[msg.sender][_spender] == 0));\n\n    allowed[msg.sender][_spender] = _amount;\n    Approval(msg.sender, _spender, _amount);\n    return true;\n  }\n\n  /**\n  * Standard ERC20 approve function\n  * @param _spender {address}\n  * @param _amount {uint256}\n  * @return success {bool}\n  */\n  function approveAndCall(address _spender, uint256 _amount, bytes _extraData) public returns (bool success) {\n    approve(_spender, _amount);\n\n    ApproveAndCallReceiver(_spender).receiveApproval(\n        msg.sender,\n        _amount,\n        this,\n        _extraData\n    );\n\n    return true;\n  }\n\n  /**\n  * Standard ERC20 allowance function\n  * @param _owner {address}\n  * @param _spender {address}\n  * @return remaining {uint256}\n   */\n  function allowance(address _owner, address _spender) public constant returns (uint256 remaining) {\n    return allowed[_owner][_spender];\n  }\n\n  /**\n  * Internal Transfer function - Updates the checkpoint ledger\n  * @param _from {address}\n  * @param _to {address}\n  * @param _amount {uint256}\n  * @return success {bool}\n  */\n  function doTransfer(address _from, address _to, uint256 _amount) internal returns(bool) {\n\n    if (msg.sender != masterWallet) {\n      require(transfersEnabled);\n    } else {\n      require(masterTransfersEnabled);\n    }\n\n    require(_amount > 0);\n    require(parentSnapShotBlock < block.number);\n    require((_to != 0) && (_to != address(this)));\n\n    // If the amount being transfered is more than the balance of the\n    // account the transfer returns false\n    uint256 previousBalanceFrom = balanceOfAt(_from, block.number);\n    require(previousBalanceFrom >= _amount);\n\n    // First update the balance array with the new value for the address\n    //  sending the tokens\n    updateValueAtNow(balances[_from], previousBalanceFrom - _amount);\n\n    // Then update the balance array with the new value for the address\n    //  receiving the tokens\n    uint256 previousBalanceTo = balanceOfAt(_to, block.number);\n    require(previousBalanceTo + _amount >= previousBalanceTo); // Check for overflow\n    updateValueAtNow(balances[_to], previousBalanceTo + _amount);\n\n    // An event to make the transfer easy to find on the blockchain\n    Transfer(_from, _to, _amount);\n    return true;\n  }\n\n\n  /**\n  * Token creation functions - can only be called by the tokensale controller during the tokensale period\n  * @param _owner {address}\n  * @param _amount {uint256}\n  * @return success {bool}\n  */\n  function mint(address _owner, uint256 _amount) public onlyController canMint returns (bool) {\n    uint256 curTotalSupply = totalSupply();\n    uint256 previousBalanceTo = balanceOf(_owner);\n\n    require(curTotalSupply + _amount >= curTotalSupply); // Check for overflow\n    require(previousBalanceTo + _amount >= previousBalanceTo); // Check for overflow\n\n    updateValueAtNow(totalSupplyHistory, curTotalSupply + _amount);\n    updateValueAtNow(balances[_owner], previousBalanceTo + _amount);\n    Transfer(0, _owner, _amount);\n    return true;\n  }\n\n  modifier canMint() {\n    require(!mintingFinished);\n    _;\n  }\n\n\n  /**\n   * Import presale balances before the start of the token sale. After importing\n   * balances, lockPresaleBalances() has to be called to prevent further modification\n   * of presale balances.\n   * @param _addresses {address[]} Array of presale addresses\n   * @param _balances {uint256[]} Array of balances corresponding to presale addresses.\n   * @return success {bool}\n   */\n  function importPresaleBalances(address[] _addresses, uint256[] _balances) public onlyController returns (bool) {\n    require(presaleBalancesLocked == false);\n\n    for (uint256 i = 0; i < _addresses.length; i++) {\n      updateValueAtNow(balances[_addresses[i]], _balances[i]);\n      Transfer(0, _addresses[i], _balances[i]);\n    }\n\n    updateValueAtNow(totalSupplyHistory, TOTAL_PRESALE_TOKENS);\n    return true;\n  }\n\n  /**\n   * Lock presale balances after successful presale balance import\n   * @return A boolean that indicates if the operation was successful.\n   */\n  function lockPresaleBalances() public onlyController returns (bool) {\n    presaleBalancesLocked = true;\n    return true;\n  }\n\n  /**\n   * Lock the minting of Led Tokens - to be called after the presale\n   * @return {bool} success\n  */\n  function finishMinting() public onlyController returns (bool) {\n    mintingFinished = true;\n    MintFinished();\n    return true;\n  }\n\n  /**\n   * Enable or block transfers - to be called in case of emergency\n   * @param _value {bool}\n  */\n  function enableTransfers(bool _value) public onlyController {\n    transfersEnabled = _value;\n  }\n\n  /**\n   * Enable or block transfers - to be called in case of emergency\n   * @param _value {bool}\n  */\n  function enableMasterTransfers(bool _value) public onlyController {\n    masterTransfersEnabled = _value;\n  }\n\n  /**\n   * Internal balance method - gets a certain checkpoint value a a certain _block\n   * @param _checkpoints {Checkpoint[]} List of checkpoints - supply history or balance history\n   * @return value {uint256} Value of _checkpoints at _block\n  */\n  function getValueAt(Checkpoint[] storage _checkpoints, uint256 _block) constant internal returns (uint256) {\n\n      if (_checkpoints.length == 0)\n        return 0;\n      // Shortcut for the actual value\n      if (_block >= _checkpoints[_checkpoints.length-1].fromBlock)\n        return _checkpoints[_checkpoints.length-1].value;\n      if (_block < _checkpoints[0].fromBlock)\n        return 0;\n\n      // Binary search of the value in the array\n      uint256 min = 0;\n      uint256 max = _checkpoints.length-1;\n      while (max > min) {\n          uint256 mid = (max + min + 1) / 2;\n          if (_checkpoints[mid].fromBlock<=_block) {\n              min = mid;\n          } else {\n              max = mid-1;\n          }\n      }\n      return _checkpoints[min].value;\n  }\n\n\n  /**\n  * Internal update method - updates the checkpoint ledger at the current block\n  * @param _checkpoints {Checkpoint[]}  List of checkpoints - supply history or balance history\n  * @return value {uint256} Value to add to the checkpoints ledger\n   */\n  function updateValueAtNow(Checkpoint[] storage _checkpoints, uint256 _value) internal {\n      if ((_checkpoints.length == 0) || (_checkpoints[_checkpoints.length-1].fromBlock < block.number)) {\n              Checkpoint storage newCheckPoint = _checkpoints[_checkpoints.length++];\n              newCheckPoint.fromBlock = uint128(block.number);\n              newCheckPoint.value = uint128(_value);\n          } else {\n              Checkpoint storage oldCheckPoint = _checkpoints[_checkpoints.length-1];\n              oldCheckPoint.value = uint128(_value);\n          }\n  }\n\n\n  function min(uint256 a, uint256 b) internal constant returns (uint) {\n      return a < b ? a : b;\n  }\n\n  /**\n  * Clones Led Token at the given snapshot block\n  * @param _snapshotBlock {uint256}\n  * @param _name {string} - The cloned token name\n  * @param _symbol {string} - The cloned token symbol\n  * @return clonedTokenAddress {address}\n   */\n  function createCloneToken(uint256 _snapshotBlock, string _name, string _symbol) public returns(address) {\n\n      if (_snapshotBlock == 0) {\n        _snapshotBlock = block.number;\n      }\n\n      if (_snapshotBlock > block.number) {\n        _snapshotBlock = block.number;\n      }\n\n      LedToken cloneToken = tokenFactory.createCloneToken(\n          this,\n          _snapshotBlock,\n          _name,\n          _symbol\n        );\n\n\n      cloneToken.transferControl(msg.sender);\n\n      // An event to make the token easy to find on the blockchain\n      NewCloneToken(address(cloneToken));\n      return address(cloneToken);\n    }\n\n}",
  "sourcePath": "/Users/jeromeraymond/ProofTokenSale/contracts/LedToken.sol",
  "compiler": {
    "name": "solc",
    "version": "0.4.23+commit.124ca40d.Emscripten.clang"
  },
  "schemaVersion": "2.0.0",
  "updatedAt": "2018-05-09T05:32:59.007Z"
}