{
  "contractName": "LedToken",
  "abi": [
    {
      "constant": true,
      "inputs": [],
      "name": "mintingFinished",
      "outputs": [
        {
          "name": "",
          "type": "bool"
        }
      ],
      "payable": false,
      "stateMutability": "view",
      "type": "function"
    },
    {
      "constant": true,
      "inputs": [],
      "name": "name",
      "outputs": [
        {
          "name": "",
          "type": "string"
        }
      ],
      "payable": false,
      "stateMutability": "view",
      "type": "function"
    },
    {
      "constant": true,
      "inputs": [],
      "name": "creationBlock",
      "outputs": [
        {
          "name": "",
          "type": "uint256"
        }
      ],
      "payable": false,
      "stateMutability": "view",
      "type": "function"
    },
    {
      "constant": true,
      "inputs": [],
      "name": "presaleBalancesLocked",
      "outputs": [
        {
          "name": "",
          "type": "bool"
        }
      ],
      "payable": false,
      "stateMutability": "view",
      "type": "function"
    },
    {
      "constant": true,
      "inputs": [],
      "name": "decimals",
      "outputs": [
        {
          "name": "",
          "type": "uint8"
        }
      ],
      "payable": false,
      "stateMutability": "view",
      "type": "function"
    },
    {
      "constant": true,
      "inputs": [],
      "name": "version",
      "outputs": [
        {
          "name": "",
          "type": "string"
        }
      ],
      "payable": false,
      "stateMutability": "view",
      "type": "function"
    },
    {
      "constant": false,
      "inputs": [
        {
          "name": "newController",
          "type": "address"
        }
      ],
      "name": "transferControl",
      "outputs": [],
      "payable": false,
      "stateMutability": "nonpayable",
      "type": "function"
    },
    {
      "constant": true,
      "inputs": [],
      "name": "parentToken",
      "outputs": [
        {
          "name": "",
          "type": "address"
        }
      ],
      "payable": false,
      "stateMutability": "view",
      "type": "function"
    },
    {
      "constant": true,
      "inputs": [],
      "name": "totalSupplyAtCheckpoint",
      "outputs": [
        {
          "name": "",
          "type": "uint256"
        }
      ],
      "payable": false,
      "stateMutability": "view",
      "type": "function"
    },
    {
      "constant": true,
      "inputs": [],
      "name": "symbol",
      "outputs": [
        {
          "name": "",
          "type": "string"
        }
      ],
      "payable": false,
      "stateMutability": "view",
      "type": "function"
    },
    {
      "constant": true,
      "inputs": [],
      "name": "masterTransfersEnabled",
      "outputs": [
        {
          "name": "",
          "type": "bool"
        }
      ],
      "payable": false,
      "stateMutability": "view",
      "type": "function"
    },
    {
      "constant": true,
      "inputs": [],
      "name": "transfersEnabled",
      "outputs": [
        {
          "name": "",
          "type": "bool"
        }
      ],
      "payable": false,
      "stateMutability": "view",
      "type": "function"
    },
    {
      "constant": true,
      "inputs": [],
      "name": "parentSnapShotBlock",
      "outputs": [
        {
          "name": "",
          "type": "uint256"
        }
      ],
      "payable": false,
      "stateMutability": "view",
      "type": "function"
    },
    {
      "constant": true,
      "inputs": [],
      "name": "tokenFactory",
      "outputs": [
        {
          "name": "",
          "type": "address"
        }
      ],
      "payable": false,
      "stateMutability": "view",
      "type": "function"
    },
    {
      "constant": true,
      "inputs": [],
      "name": "controller",
      "outputs": [
        {
          "name": "",
          "type": "address"
        }
      ],
      "payable": false,
      "stateMutability": "view",
      "type": "function"
    },
    {
      "constant": true,
      "inputs": [],
      "name": "masterWallet",
      "outputs": [
        {
          "name": "",
          "type": "address"
        }
      ],
      "payable": false,
      "stateMutability": "view",
      "type": "function"
    },
    {
      "inputs": [
        {
          "name": "_tokenFactory",
          "type": "address"
        },
        {
          "name": "_parentToken",
          "type": "address"
        },
        {
          "name": "_parentSnapShotBlock",
          "type": "uint256"
        },
        {
          "name": "_tokenName",
          "type": "string"
        },
        {
          "name": "_tokenSymbol",
          "type": "string"
        }
      ],
      "payable": false,
      "stateMutability": "nonpayable",
      "type": "constructor"
    },
    {
      "payable": true,
      "stateMutability": "payable",
      "type": "fallback"
    },
    {
      "anonymous": false,
      "inputs": [
        {
          "indexed": true,
          "name": "to",
          "type": "address"
        },
        {
          "indexed": false,
          "name": "amount",
          "type": "uint256"
        }
      ],
      "name": "Mint",
      "type": "event"
    },
    {
      "anonymous": false,
      "inputs": [],
      "name": "MintFinished",
      "type": "event"
    },
    {
      "anonymous": false,
      "inputs": [
        {
          "indexed": true,
          "name": "_token",
          "type": "address"
        },
        {
          "indexed": true,
          "name": "_owner",
          "type": "address"
        },
        {
          "indexed": false,
          "name": "_amount",
          "type": "uint256"
        }
      ],
      "name": "ClaimedTokens",
      "type": "event"
    },
    {
      "anonymous": false,
      "inputs": [
        {
          "indexed": true,
          "name": "cloneToken",
          "type": "address"
        }
      ],
      "name": "NewCloneToken",
      "type": "event"
    },
    {
      "anonymous": false,
      "inputs": [
        {
          "indexed": true,
          "name": "_owner",
          "type": "address"
        },
        {
          "indexed": true,
          "name": "_spender",
          "type": "address"
        },
        {
          "indexed": false,
          "name": "_amount",
          "type": "uint256"
        }
      ],
      "name": "Approval",
      "type": "event"
    },
    {
      "anonymous": false,
      "inputs": [
        {
          "indexed": true,
          "name": "from",
          "type": "address"
        },
        {
          "indexed": true,
          "name": "to",
          "type": "address"
        },
        {
          "indexed": false,
          "name": "value",
          "type": "uint256"
        }
      ],
      "name": "Transfer",
      "type": "event"
    },
    {
      "constant": true,
      "inputs": [],
      "name": "totalSupply",
      "outputs": [
        {
          "name": "",
          "type": "uint256"
        }
      ],
      "payable": false,
      "stateMutability": "view",
      "type": "function"
    },
    {
      "constant": true,
      "inputs": [
        {
          "name": "_blockNumber",
          "type": "uint256"
        }
      ],
      "name": "totalSupplyAt",
      "outputs": [
        {
          "name": "",
          "type": "uint256"
        }
      ],
      "payable": false,
      "stateMutability": "view",
      "type": "function"
    },
    {
      "constant": true,
      "inputs": [
        {
          "name": "_owner",
          "type": "address"
        }
      ],
      "name": "balanceOf",
      "outputs": [
        {
          "name": "balance",
          "type": "uint256"
        }
      ],
      "payable": false,
      "stateMutability": "view",
      "type": "function"
    },
    {
      "constant": true,
      "inputs": [
        {
          "name": "_owner",
          "type": "address"
        },
        {
          "name": "_blockNumber",
          "type": "uint256"
        }
      ],
      "name": "balanceOfAt",
      "outputs": [
        {
          "name": "",
          "type": "uint256"
        }
      ],
      "payable": false,
      "stateMutability": "view",
      "type": "function"
    },
    {
      "constant": false,
      "inputs": [
        {
          "name": "_to",
          "type": "address"
        },
        {
          "name": "_amount",
          "type": "uint256"
        }
      ],
      "name": "transfer",
      "outputs": [
        {
          "name": "success",
          "type": "bool"
        }
      ],
      "payable": false,
      "stateMutability": "nonpayable",
      "type": "function"
    },
    {
      "constant": false,
      "inputs": [
        {
          "name": "_from",
          "type": "address"
        },
        {
          "name": "_to",
          "type": "address"
        },
        {
          "name": "_amount",
          "type": "uint256"
        }
      ],
      "name": "transferFrom",
      "outputs": [
        {
          "name": "success",
          "type": "bool"
        }
      ],
      "payable": false,
      "stateMutability": "nonpayable",
      "type": "function"
    },
    {
      "constant": false,
      "inputs": [
        {
          "name": "_spender",
          "type": "address"
        },
        {
          "name": "_amount",
          "type": "uint256"
        }
      ],
      "name": "approve",
      "outputs": [
        {
          "name": "success",
          "type": "bool"
        }
      ],
      "payable": false,
      "stateMutability": "nonpayable",
      "type": "function"
    },
    {
      "constant": false,
      "inputs": [
        {
          "name": "_spender",
          "type": "address"
        },
        {
          "name": "_amount",
          "type": "uint256"
        },
        {
          "name": "_extraData",
          "type": "bytes"
        }
      ],
      "name": "approveAndCall",
      "outputs": [
        {
          "name": "success",
          "type": "bool"
        }
      ],
      "payable": false,
      "stateMutability": "nonpayable",
      "type": "function"
    },
    {
      "constant": true,
      "inputs": [
        {
          "name": "_owner",
          "type": "address"
        },
        {
          "name": "_spender",
          "type": "address"
        }
      ],
      "name": "allowance",
      "outputs": [
        {
          "name": "remaining",
          "type": "uint256"
        }
      ],
      "payable": false,
      "stateMutability": "view",
      "type": "function"
    },
    {
      "constant": false,
      "inputs": [
        {
          "name": "_owner",
          "type": "address"
        },
        {
          "name": "_amount",
          "type": "uint256"
        }
      ],
      "name": "mint",
      "outputs": [
        {
          "name": "",
          "type": "bool"
        }
      ],
      "payable": false,
      "stateMutability": "nonpayable",
      "type": "function"
    },
    {
      "constant": false,
      "inputs": [
        {
          "name": "_addresses",
          "type": "address[]"
        },
        {
          "name": "_balances",
          "type": "uint256[]"
        }
      ],
      "name": "importPresaleBalances",
      "outputs": [
        {
          "name": "",
          "type": "bool"
        }
      ],
      "payable": false,
      "stateMutability": "nonpayable",
      "type": "function"
    },
    {
      "constant": false,
      "inputs": [],
      "name": "lockPresaleBalances",
      "outputs": [
        {
          "name": "",
          "type": "bool"
        }
      ],
      "payable": false,
      "stateMutability": "nonpayable",
      "type": "function"
    },
    {
      "constant": false,
      "inputs": [],
      "name": "finishMinting",
      "outputs": [
        {
          "name": "",
          "type": "bool"
        }
      ],
      "payable": false,
      "stateMutability": "nonpayable",
      "type": "function"
    },
    {
      "constant": false,
      "inputs": [
        {
          "name": "_value",
          "type": "bool"
        }
      ],
      "name": "enableTransfers",
      "outputs": [],
      "payable": false,
      "stateMutability": "nonpayable",
      "type": "function"
    },
    {
      "constant": false,
      "inputs": [
        {
          "name": "_value",
          "type": "bool"
        }
      ],
      "name": "enableMasterTransfers",
      "outputs": [],
      "payable": false,
      "stateMutability": "nonpayable",
      "type": "function"
    },
    {
      "constant": false,
      "inputs": [
        {
          "name": "_snapshotBlock",
          "type": "uint256"
        },
        {
          "name": "_name",
          "type": "string"
        },
        {
          "name": "_symbol",
          "type": "string"
        }
      ],
      "name": "createCloneToken",
      "outputs": [
        {
          "name": "",
          "type": "address"
        }
      ],
      "payable": false,
      "stateMutability": "nonpayable",
      "type": "function"
    }
  ],
  "bytecode": "0x6080604052600980546201000060b060020a03191675d8271285c255ce31b9b25e46ac63619322af59340000179055600d805461ffff191690553480156200004657600080fd5b506040516200199c3803806200199c8339810160409081528151602080840151928401516060850151608086015160008054600160a060020a03338116600160a060020a031992831617909255600280548389169083161790556001805492891692909116919091179055600783905590860180519496929490939190920191620000d891600391908501906200015d565b508051620000ee9060049060208401906200015d565b506006805460ff191660121790556009805461ffff19169055436008556040805180820190915260038082527f302e310000000000000000000000000000000000000000000000000000000000602090920191825262000151916005916200015d565b50505050505062000202565b828054600181600116156101000203166002900490600052602060002090601f016020900481019282601f10620001a057805160ff1916838001178555620001d0565b82800160010185558215620001d0579182015b82811115620001d0578251825591602001919060010190620001b3565b50620001de929150620001e2565b5090565b620001ff91905b80821115620001de5760008155600101620001e9565b90565b61178a80620002126000396000f30060806040526004361061017c5763ffffffff60e060020a60003504166305d2035b811461018157806306fdde03146101aa578063095ea7b314610234578063128f04e71461025857806317634514146102e657806318160ddd1461030d5780631a53cd901461032257806323b872dd14610337578063313ce5671461036157806340c10f191461038c5780634ee2cd7e146103b057806354fd4d50146103d45780635d0a7628146103e95780636d16fa41146103fe57806370a08231146104215780637d64bcb41461044257806380a540011461045757806387a9a8ef1461048857806395d89b411461049d578063981b24d0146104b25780639ed74a23146104ca578063a9059cbb14610566578063aec318f11461058a578063b127326e146105a4578063bef97c87146105b9578063c5bcc4f1146105ce578063cae9ca51146105e3578063dd62ed3e1461064c578063e77772fe14610673578063f41e60c514610688578063f77c4791146106a2578063fc0d0117146106b7575b600080fd5b34801561018d57600080fd5b506101966106cc565b604080519115158252519081900360200190f35b3480156101b657600080fd5b506101bf6106d5565b6040805160208082528351818301528351919283929083019185019080838360005b838110156101f95781810151838201526020016101e1565b50505050905090810190601f1680156102265780820380516001836020036101000a031916815260200191505b509250505060405180910390f35b34801561024057600080fd5b50610196600160a060020a0360043516602435610763565b34801561026457600080fd5b506040805160206004803580820135838102808601850190965280855261019695369593946024949385019291829185019084908082843750506040805187358901803560208181028481018201909552818452989b9a9989019892975090820195509350839250850190849080828437509497506108199650505050505050565b3480156102f257600080fd5b506102fb610969565b60408051918252519081900360200190f35b34801561031957600080fd5b506102fb61096f565b34801561032e57600080fd5b50610196610980565b34801561034357600080fd5b50610196600160a060020a036004358116906024351660443561098e565b34801561036d57600080fd5b50610376610a03565b6040805160ff9092168252519081900360200190f35b34801561039857600080fd5b50610196600160a060020a0360043516602435610a0c565b3480156103bc57600080fd5b506102fb600160a060020a0360043516602435610aec565b3480156103e057600080fd5b506101bf610c39565b3480156103f557600080fd5b50610196610c94565b34801561040a57600080fd5b5061041f600160a060020a0360043516610cc5565b005b34801561042d57600080fd5b506102fb600160a060020a0360043516610d1b565b34801561044e57600080fd5b50610196610d2f565b34801561046357600080fd5b5061046c610d87565b60408051600160a060020a039092168252519081900360200190f35b34801561049457600080fd5b506102fb610d96565b3480156104a957600080fd5b506101bf610d9c565b3480156104be57600080fd5b506102fb600435610df7565b3480156104d657600080fd5b5060408051602060046024803582810135601f810185900485028601850190965285855261046c95833595369560449491939091019190819084018382808284375050604080516020601f89358b018035918201839004830284018301909452808352979a999881019791965091820194509250829150840183828082843750949750610eeb9650505050505050565b34801561057257600080fd5b50610196600160a060020a0360043516602435611132565b34801561059657600080fd5b5061041f6004351515611146565b3480156105b057600080fd5b5061019661117b565b3480156105c557600080fd5b50610196611189565b3480156105da57600080fd5b506102fb611192565b3480156105ef57600080fd5b50604080516020600460443581810135601f8101849004840285018401909552848452610196948235600160a060020a03169460248035953695946064949201919081908401838280828437509497506111989650505050505050565b34801561065857600080fd5b506102fb600160a060020a03600435811690602435166112ae565b34801561067f57600080fd5b5061046c6112d9565b34801561069457600080fd5b5061041f60043515156112e8565b3480156106ae57600080fd5b5061046c611316565b3480156106c357600080fd5b5061046c611325565b600d5460ff1681565b6003805460408051602060026001851615610100026000190190941693909304601f8101849004840282018401909252818152929183018282801561075b5780601f106107305761010080835404028352916020019161075b565b820191906000526020600020905b81548152906001019060200180831161073e57829003601f168201915b505050505081565b60095460009060ff16151561077757600080fd5b8115806107a75750600160a060020a033381166000908152600c6020908152604080832093871683529290522054155b15156107b257600080fd5b600160a060020a033381166000818152600c6020908152604080832094881680845294825291829020869055815186815291517f8c5be1e5ebec7d5bd14f71427d1e84f3dd0314c0f7b2291e5b200ac8c7c3b9259281900390910190a35060015b92915050565b60008054819033600160a060020a0390811691161461083757600080fd5b600d54610100900460ff161561084c57600080fd5b5060005b835181101561095f57828181518110151561086757fe5b60209081029091010151600e8054909101905583516108d990600b9060009087908590811061089257fe5b90602001906020020151600160a060020a0316600160a060020a0316815260200190815260200160002084838151811015156108ca57fe5b9060200190602002015161133a565b6108e6600a600e5461133a565b83818151811015156108f457fe5b90602001906020020151600160a060020a031660007fddf252ad1be2c89b69c2b068fc378daa952ba7f163c4a11628f55a4df523b3ef858481518110151561093857fe5b906020019060200201516040518082815260200191505060405180910390a3600101610850565b5060019392505050565b60085481565b600061097a43610df7565b90505b90565b600d54610100900460ff1681565b600160a060020a038084166000908152600c60209081526040808320339094168352929052908120548211156109c357600080fd5b600160a060020a038085166000908152600c6020908152604080832033909416835292905220805483900390556109fb848484611430565b949350505050565b60065460ff1681565b600080548190819033600160a060020a03908116911614610a2c57600080fd5b600d5460ff1615610a3c57600080fd5b610a4461096f565b9150610a4f85610d1b565b9050838201821115610a6057600080fd5b838101811115610a6f57600080fd5b610a7c600a85840161133a565b600160a060020a0385166000908152600b60205260409020610aa09082860161133a565b604080518581529051600160a060020a038716916000917fddf252ad1be2c89b69c2b068fc378daa952ba7f163c4a11628f55a4df523b3ef9181900360200190a3506001949350505050565b600160a060020a0382166000908152600b60205260408120541580610b485750600160a060020a0383166000908152600b6020526040812080548492908110610b3157fe5b6000918252602090912001546001608060020a0316115b15610c1057600154600160a060020a031615610c0857600154600754600160a060020a0390911690634ee2cd7e908590610b839086906115a2565b6040518363ffffffff1660e060020a0281526004018083600160a060020a0316600160a060020a0316815260200182815260200192505050602060405180830381600087803b158015610bd557600080fd5b505af1158015610be9573d6000803e3d6000fd5b505050506040513d6020811015610bff57600080fd5b50519050610813565b506000610813565b600160a060020a0383166000908152600b60205260409020610c3290836115b8565b9050610813565b6005805460408051602060026001851615610100026000190190941693909304601f8101849004840282018401909252818152929183018282801561075b5780601f106107305761010080835404028352916020019161075b565b6000805433600160a060020a03908116911614610cb057600080fd5b50600d805461ff001916610100179055600190565b60005433600160a060020a03908116911614610ce057600080fd5b600160a060020a03811615610d18576000805473ffffffffffffffffffffffffffffffffffffffff1916600160a060020a0383161790555b50565b6000610d278243610aec565b90505b919050565b6000805433600160a060020a03908116911614610d4b57600080fd5b600d805460ff191660011790556040517fae5184fba832cb2b1f702aca6117b8d265eaf03ad33eb133f19dde0f5920fa0890600090a150600190565b600154600160a060020a031681565b600e5481565b6004805460408051602060026001851615610100026000190190941693909304601f8101849004840282018401909252818152929183018282801561075b5780601f106107305761010080835404028352916020019161075b565b600a546000901580610e2c575081600a6000815481101515610e1557fe5b6000918252602090912001546001608060020a0316115b15610ed957600154600160a060020a031615610ed157600154600754600160a060020a039091169063981b24d090610e659085906115a2565b6040518263ffffffff1660e060020a02815260040180828152602001915050602060405180830381600087803b158015610e9e57600080fd5b505af1158015610eb2573d6000803e3d6000fd5b505050506040513d6020811015610ec857600080fd5b50519050610d2a565b506000610d2a565b610ee4600a836115b8565b9050610d2a565b600080841515610ef9574394505b43851115610f05574394505b6002546040517f59b58dba00000000000000000000000000000000000000000000000000000000815230600160a060020a0381811660048401908152602484018a905260806044850190815289516084860152895192909516946359b58dba948b938b938b9390929091606482019160a40190602087019080838360005b83811015610f9b578181015183820152602001610f83565b50505050905090810190601f168015610fc85780820380516001836020036101000a031916815260200191505b50838103825284518152845160209182019186019080838360005b83811015610ffb578181015183820152602001610fe3565b50505050905090810190601f1680156110285780820380516001836020036101000a031916815260200191505b509650505050505050602060405180830381600087803b15801561104b57600080fd5b505af115801561105f573d6000803e3d6000fd5b505050506040513d602081101561107557600080fd5b5051604080517f6d16fa41000000000000000000000000000000000000000000000000000000008152600160a060020a033381166004830152915192935090831691636d16fa419160248082019260009290919082900301818387803b1580156110de57600080fd5b505af11580156110f2573d6000803e3d6000fd5b5050604051600160a060020a03841692507ff30000f977bee4f7df8246f69a4ba66f2d5be05d1fdaa0f0044d24fc52748b009150600090a2949350505050565b600061113f338484611430565b9392505050565b60005433600160a060020a0390811691161461116157600080fd5b600980549115156101000261ff0019909216919091179055565b600954610100900460ff1681565b60095460ff1681565b60075481565b60006111a48484610763565b5083600160a060020a0316638f4ffcb1338530866040518563ffffffff1660e060020a0281526004018085600160a060020a0316600160a060020a0316815260200184815260200183600160a060020a0316600160a060020a0316815260200180602001828103825283818151815260200191508051906020019080838360005b8381101561123d578181015183820152602001611225565b50505050905090810190601f16801561126a5780820380516001836020036101000a031916815260200191505b5095505050505050600060405180830381600087803b15801561128c57600080fd5b505af11580156112a0573d6000803e3d6000fd5b506001979650505050505050565b600160a060020a039182166000908152600c6020908152604080832093909416825291909152205490565b600254600160a060020a031681565b60005433600160a060020a0390811691161461130357600080fd5b6009805460ff1916911515919091179055565b600054600160a060020a031681565b600954620100009004600160a060020a031681565b8154600090819015806113735750835443908590600019810190811061135c57fe5b6000918252602090912001546001608060020a0316105b156113e557835484906113898260018301611717565b8154811061139357fe5b600091825260209091200180546001608060020a03858116700100000000000000000000000000000000024382166fffffffffffffffffffffffffffffffff199093169290921716178155915061142a565b8354849060001981019081106113f757fe5b600091825260209091200180546001608060020a0380861670010000000000000000000000000000000002911617815590505b50505050565b6009546000908190819033600160a060020a039081166201000090920416146114695760095460ff16151561146457600080fd5b61147f565b600954610100900460ff16151561147f57600080fd5b6000841161148c57600080fd5b600754431161149a57600080fd5b600160a060020a038516158015906114c4575030600160a060020a031685600160a060020a031614155b15156114cf57600080fd5b6114d98643610aec565b9150838210156114e857600080fd5b600160a060020a0386166000908152600b6020526040902061150c9085840361133a565b6115168543610aec565b905083810181111561152757600080fd5b600160a060020a0385166000908152600b6020526040902061154b9082860161133a565b84600160a060020a031686600160a060020a03167fddf252ad1be2c89b69c2b068fc378daa952ba7f163c4a11628f55a4df523b3ef866040518082815260200191505060405180910390a350600195945050505050565b60008183106115b1578161113f565b5090919050565b6000806000808580549050600014156115d4576000935061170e565b8554869060001981019081106115e657fe5b6000918252602090912001546001608060020a031685106116435785548690600019810190811061161357fe5b60009182526020909120015470010000000000000000000000000000000090046001608060020a0316935061170e565b85600081548110151561165257fe5b6000918252602090912001546001608060020a0316851015611677576000935061170e565b8554600093506000190191505b828211156116d45760026001838501010490508486828154811015156116a657fe5b6000918252602090912001546001608060020a0316116116c8578092506116cf565b6001810391505b611684565b85838154811015156116e257fe5b60009182526020909120015470010000000000000000000000000000000090046001608060020a031693505b50505092915050565b81548183558181111561173b5760008381526020902061173b918101908301611740565b505050565b61097d91905b8082111561175a5760008155600101611746565b50905600a165627a7a72305820e4d0d7085ac758d6ee293ad9d8921dbac255f40a4f7c68e0551a1753596e50830029",
  "source": "pragma solidity ^0.4.13;\n\nimport './SafeMath.sol';\nimport './Controllable.sol';\nimport './ApproveAndCallReceiver.sol';\nimport './ControllerInterface.sol';\nimport './TokenFactoryInterface.sol';\nimport './LedTokenInterface.sol';\n\n\ncontract LedToken is Controllable {\n\n  using SafeMath for uint256;\n  LedTokenInterface public parentToken;\n  TokenFactoryInterface public tokenFactory;\n\n  string public name;\n  string public symbol;\n  string public version;\n  uint8 public decimals;\n\n  uint256 public parentSnapShotBlock;\n  uint256 public creationBlock;\n  bool public transfersEnabled;\n\n  bool public masterTransfersEnabled;\n  address public masterWallet = 0xD8271285C255Ce31b9b25E46ac63619322Af5934;\n\n\n  struct Checkpoint {\n    uint128 fromBlock;\n    uint128 value;\n  }\n\n  Checkpoint[] totalSupplyHistory;\n  mapping(address => Checkpoint[]) balances;\n  mapping (address => mapping (address => uint)) allowed;\n\n  bool public mintingFinished = false;\n  bool public presaleBalancesLocked = false;\n\n  uint256 public totalSupplyAtCheckpoint;\n\n  event Mint(address indexed to, uint256 amount);\n  event MintFinished();\n  event ClaimedTokens(address indexed _token, address indexed _owner, uint _amount);\n  event NewCloneToken(address indexed cloneToken);\n  event Approval(address indexed _owner, address indexed _spender, uint256 _amount);\n  event Transfer(address indexed from, address indexed to, uint256 value);\n\n\n\n\n  function LedToken(\n    address _tokenFactory,\n    address _parentToken,\n    uint256 _parentSnapShotBlock,\n    string _tokenName,\n    string _tokenSymbol\n    ) public {\n      tokenFactory = TokenFactoryInterface(_tokenFactory);\n      parentToken = LedTokenInterface(_parentToken);\n      parentSnapShotBlock = _parentSnapShotBlock;\n      name = _tokenName;\n      symbol = _tokenSymbol;\n      decimals = 18;\n      transfersEnabled = false;\n      masterTransfersEnabled = false;\n      creationBlock = block.number;\n      version = '0.1';\n  }\n\n  function() public payable {\n    revert();\n  }\n\n\n  /**\n  * Returns the total Led token supply at the current block\n  * @return total supply {uint256}\n  */\n  function totalSupply() public constant returns (uint256) {\n    return totalSupplyAt(block.number);\n  }\n\n  /**\n  * Returns the total Led token supply at the given block number\n  * @param _blockNumber {uint256}\n  * @return total supply {uint256}\n  */\n  function totalSupplyAt(uint256 _blockNumber) public constant returns(uint256) {\n    // These next few lines are used when the totalSupply of the token is\n    //  requested before a check point was ever created for this token, it\n    //  requires that the `parentToken.totalSupplyAt` be queried at the\n    //  genesis block for this token as that contains totalSupply of this\n    //  token at this block number.\n    if ((totalSupplyHistory.length == 0) || (totalSupplyHistory[0].fromBlock > _blockNumber)) {\n        if (address(parentToken) != 0x0) {\n            return parentToken.totalSupplyAt(min(_blockNumber, parentSnapShotBlock));\n        } else {\n            return 0;\n        }\n\n    // This will return the expected totalSupply during normal situations\n    } else {\n        return getValueAt(totalSupplyHistory, _blockNumber);\n    }\n  }\n\n  /**\n  * Returns the token holder balance at the current block\n  * @param _owner {address}\n  * @return balance {uint256}\n   */\n  function balanceOf(address _owner) public constant returns (uint256 balance) {\n    return balanceOfAt(_owner, block.number);\n  }\n\n  /**\n  * Returns the token holder balance the the given block number\n  * @param _owner {address}\n  * @param _blockNumber {uint256}\n  * @return balance {uint256}\n  */\n  function balanceOfAt(address _owner, uint256 _blockNumber) public constant returns (uint256) {\n    // These next few lines are used when the balance of the token is\n    //  requested before a check point was ever created for this token, it\n    //  requires that the `parentToken.balanceOfAt` be queried at the\n    //  genesis block for that token as this contains initial balance of\n    //  this token\n    if ((balances[_owner].length == 0) || (balances[_owner][0].fromBlock > _blockNumber)) {\n        if (address(parentToken) != 0x0) {\n            return parentToken.balanceOfAt(_owner, min(_blockNumber, parentSnapShotBlock));\n        } else {\n            // Has no parent\n            return 0;\n        }\n\n    // This will return the expected balance during normal situations\n    } else {\n        return getValueAt(balances[_owner], _blockNumber);\n    }\n  }\n\n  /**\n  * Standard ERC20 transfer tokens function\n  * @param _to {address}\n  * @param _amount {uint}\n  * @return success {bool}\n  */\n  function transfer(address _to, uint256 _amount) public returns (bool success) {\n    return doTransfer(msg.sender, _to, _amount);\n  }\n\n  /**\n  * Standard ERC20 transferFrom function\n  * @param _from {address}\n  * @param _to {address}\n  * @param _amount {uint256}\n  * @return success {bool}\n  */\n  function transferFrom(address _from, address _to, uint256 _amount) public returns (bool success) {\n    require(allowed[_from][msg.sender] >= _amount);\n    allowed[_from][msg.sender] -= _amount;\n    return doTransfer(_from, _to, _amount);\n  }\n\n  /**\n  * Standard ERC20 approve function\n  * @param _spender {address}\n  * @param _amount {uint256}\n  * @return success {bool}\n  */\n  function approve(address _spender, uint256 _amount) public returns (bool success) {\n    require(transfersEnabled);\n\n    //https://github.com/ethereum/EIPs/issues/20#issuecomment-263524729\n    require((_amount == 0) || (allowed[msg.sender][_spender] == 0));\n\n    allowed[msg.sender][_spender] = _amount;\n    Approval(msg.sender, _spender, _amount);\n    return true;\n  }\n\n  /**\n  * Standard ERC20 approve function\n  * @param _spender {address}\n  * @param _amount {uint256}\n  * @return success {bool}\n  */\n  function approveAndCall(address _spender, uint256 _amount, bytes _extraData) public returns (bool success) {\n    approve(_spender, _amount);\n\n    ApproveAndCallReceiver(_spender).receiveApproval(\n        msg.sender,\n        _amount,\n        this,\n        _extraData\n    );\n\n    return true;\n  }\n\n  /**\n  * Standard ERC20 allowance function\n  * @param _owner {address}\n  * @param _spender {address}\n  * @return remaining {uint256}\n   */\n  function allowance(address _owner, address _spender) public constant returns (uint256 remaining) {\n    return allowed[_owner][_spender];\n  }\n\n  /**\n  * Internal Transfer function - Updates the checkpoint ledger\n  * @param _from {address}\n  * @param _to {address}\n  * @param _amount {uint256}\n  * @return success {bool}\n  */\n  function doTransfer(address _from, address _to, uint256 _amount) internal returns(bool) {\n\n    if (msg.sender != masterWallet) {\n      require(transfersEnabled);\n    } else {\n      require(masterTransfersEnabled);\n    }\n\n    require(_amount > 0);\n    require(parentSnapShotBlock < block.number);\n    require((_to != 0) && (_to != address(this)));\n\n    // If the amount being transfered is more than the balance of the\n    // account the transfer returns false\n    uint256 previousBalanceFrom = balanceOfAt(_from, block.number);\n    require(previousBalanceFrom >= _amount);\n\n    // First update the balance array with the new value for the address\n    //  sending the tokens\n    updateValueAtNow(balances[_from], previousBalanceFrom - _amount);\n\n    // Then update the balance array with the new value for the address\n    //  receiving the tokens\n    uint256 previousBalanceTo = balanceOfAt(_to, block.number);\n    require(previousBalanceTo + _amount >= previousBalanceTo); // Check for overflow\n    updateValueAtNow(balances[_to], previousBalanceTo + _amount);\n\n    // An event to make the transfer easy to find on the blockchain\n    Transfer(_from, _to, _amount);\n    return true;\n  }\n\n\n  /**\n  * Token creation functions - can only be called by the tokensale controller during the tokensale period\n  * @param _owner {address}\n  * @param _amount {uint256}\n  * @return success {bool}\n  */\n  function mint(address _owner, uint256 _amount) public onlyController canMint returns (bool) {\n    uint256 curTotalSupply = totalSupply();\n    uint256 previousBalanceTo = balanceOf(_owner);\n\n    require(curTotalSupply + _amount >= curTotalSupply); // Check for overflow\n    require(previousBalanceTo + _amount >= previousBalanceTo); // Check for overflow\n\n    updateValueAtNow(totalSupplyHistory, curTotalSupply + _amount);\n    updateValueAtNow(balances[_owner], previousBalanceTo + _amount);\n    Transfer(0, _owner, _amount);\n    return true;\n  }\n\n  modifier canMint() {\n    require(!mintingFinished);\n    _;\n  }\n\n\n  /**\n   * Import presale balances before the start of the token sale. After importing\n   * balances, lockPresaleBalances() has to be called to prevent further modification\n   * of presale balances.\n   * @param _addresses {address[]} Array of presale addresses\n   * @param _balances {uint256[]} Array of balances corresponding to presale addresses.\n   * @return success {bool}\n   */\n  function importPresaleBalances(address[] _addresses, uint256[] _balances) public onlyController returns (bool) {\n    require(presaleBalancesLocked == false);\n\n    for (uint256 i = 0; i < _addresses.length; i++) {\n      totalSupplyAtCheckpoint += _balances[i];\n      updateValueAtNow(balances[_addresses[i]], _balances[i]);\n      updateValueAtNow(totalSupplyHistory, totalSupplyAtCheckpoint);\n      Transfer(0, _addresses[i], _balances[i]);\n    }\n    return true;\n  }\n\n  /**\n   * Lock presale balances after successful presale balance import\n   * @return A boolean that indicates if the operation was successful.\n   */\n  function lockPresaleBalances() public onlyController returns (bool) {\n    presaleBalancesLocked = true;\n    return true;\n  }\n\n  /**\n   * Lock the minting of Led Tokens - to be called after the presale\n   * @return {bool} success\n  */\n  function finishMinting() public onlyController returns (bool) {\n    mintingFinished = true;\n    MintFinished();\n    return true;\n  }\n\n  /**\n   * Enable or block transfers - to be called in case of emergency\n   * @param _value {bool}\n  */\n  function enableTransfers(bool _value) public onlyController {\n    transfersEnabled = _value;\n  }\n\n  /**\n   * Enable or block transfers - to be called in case of emergency\n   * @param _value {bool}\n  */\n  function enableMasterTransfers(bool _value) public onlyController {\n    masterTransfersEnabled = _value;\n  }\n\n  /**\n   * Internal balance method - gets a certain checkpoint value a a certain _block\n   * @param _checkpoints {Checkpoint[]} List of checkpoints - supply history or balance history\n   * @return value {uint256} Value of _checkpoints at _block\n  */\n  function getValueAt(Checkpoint[] storage _checkpoints, uint256 _block) constant internal returns (uint256) {\n\n      if (_checkpoints.length == 0)\n        return 0;\n      // Shortcut for the actual value\n      if (_block >= _checkpoints[_checkpoints.length-1].fromBlock)\n        return _checkpoints[_checkpoints.length-1].value;\n      if (_block < _checkpoints[0].fromBlock)\n        return 0;\n\n      // Binary search of the value in the array\n      uint256 min = 0;\n      uint256 max = _checkpoints.length-1;\n      while (max > min) {\n          uint256 mid = (max + min + 1) / 2;\n          if (_checkpoints[mid].fromBlock<=_block) {\n              min = mid;\n          } else {\n              max = mid-1;\n          }\n      }\n      return _checkpoints[min].value;\n  }\n\n\n  /**\n  * Internal update method - updates the checkpoint ledger at the current block\n  * @param _checkpoints {Checkpoint[]}  List of checkpoints - supply history or balance history\n  * @return value {uint256} Value to add to the checkpoints ledger\n   */\n  function updateValueAtNow(Checkpoint[] storage _checkpoints, uint256 _value) internal {\n      if ((_checkpoints.length == 0) || (_checkpoints[_checkpoints.length-1].fromBlock < block.number)) {\n              Checkpoint storage newCheckPoint = _checkpoints[_checkpoints.length++];\n              newCheckPoint.fromBlock = uint128(block.number);\n              newCheckPoint.value = uint128(_value);\n          } else {\n              Checkpoint storage oldCheckPoint = _checkpoints[_checkpoints.length-1];\n              oldCheckPoint.value = uint128(_value);\n          }\n  }\n\n\n  function min(uint256 a, uint256 b) internal constant returns (uint) {\n      return a < b ? a : b;\n  }\n\n  /**\n  * Clones Led Token at the given snapshot block\n  * @param _snapshotBlock {uint256}\n  * @param _name {string} - The cloned token name\n  * @param _symbol {string} - The cloned token symbol\n  * @return clonedTokenAddress {address}\n   */\n  function createCloneToken(uint256 _snapshotBlock, string _name, string _symbol) public returns(address) {\n\n      if (_snapshotBlock == 0) {\n        _snapshotBlock = block.number;\n      }\n\n      if (_snapshotBlock > block.number) {\n        _snapshotBlock = block.number;\n      }\n\n      LedToken cloneToken = tokenFactory.createCloneToken(\n          this,\n          _snapshotBlock,\n          _name,\n          _symbol\n        );\n\n\n      cloneToken.transferControl(msg.sender);\n\n      // An event to make the token easy to find on the blockchain\n      NewCloneToken(address(cloneToken));\n      return address(cloneToken);\n    }\n\n}",
  "sourcePath": "/Users/julesdesmit/Desktop/workspace/terawatt/tokensale_contracts/contracts/LedToken.sol",
  "compiler": {
    "name": "solc",
    "version": "0.4.23+commit.124ca40d.Emscripten.clang"
  },
  "schemaVersion": "2.0.0",
  "updatedAt": "2018-05-27T17:15:36.604Z"
}