{
  "contractName": "Pausable",
  "abi": [
    {
      "constant": true,
      "inputs": [],
      "name": "paused",
      "outputs": [
        {
          "name": "",
          "type": "bool"
        }
      ],
      "payable": false,
      "stateMutability": "view",
      "type": "function"
    },
    {
      "constant": true,
      "inputs": [],
      "name": "owner",
      "outputs": [
        {
          "name": "",
          "type": "address"
        }
      ],
      "payable": false,
      "stateMutability": "view",
      "type": "function"
    },
    {
      "constant": false,
      "inputs": [
        {
          "name": "newOwner",
          "type": "address"
        }
      ],
      "name": "transferOwnership",
      "outputs": [],
      "payable": false,
      "stateMutability": "nonpayable",
      "type": "function"
    },
    {
      "inputs": [],
      "payable": false,
      "stateMutability": "nonpayable",
      "type": "constructor"
    },
    {
      "anonymous": false,
      "inputs": [],
      "name": "Pause",
      "type": "event"
    },
    {
      "anonymous": false,
      "inputs": [],
      "name": "Unpause",
      "type": "event"
    },
    {
      "constant": false,
      "inputs": [],
      "name": "pause",
      "outputs": [
        {
          "name": "",
          "type": "bool"
        }
      ],
      "payable": false,
      "stateMutability": "nonpayable",
      "type": "function"
    },
    {
      "constant": false,
      "inputs": [],
      "name": "unpause",
      "outputs": [
        {
          "name": "",
          "type": "bool"
        }
      ],
      "payable": false,
      "stateMutability": "nonpayable",
      "type": "function"
    }
  ],
  "bytecode": "0x60806040526000805460a060020a60ff021916905534801561002057600080fd5b5060008054600160a060020a031916331790556102f4806100426000396000f30060806040526004361061006c5763ffffffff7c01000000000000000000000000000000000000000000000000000000006000350416633f4ba83a81146100715780635c975abb1461009a5780638456cb59146100af5780638da5cb5b146100c4578063f2fde38b146100f5575b600080fd5b34801561007d57600080fd5b50610086610118565b604080519115158252519081900360200190f35b3480156100a657600080fd5b506100866101a4565b3480156100bb57600080fd5b506100866101c5565b3480156100d057600080fd5b506100d9610267565b60408051600160a060020a039092168252519081900360200190f35b34801561010157600080fd5b50610116600160a060020a0360043516610276565b005b60008054600160a060020a0316331461013057600080fd5b60005474010000000000000000000000000000000000000000900460ff16151561015957600080fd5b6000805474ff0000000000000000000000000000000000000000191681556040517f7805862f689e2f13df9f062ff482ad3ad112aca9e0847911ed832e158c525b339190a150600190565b60005474010000000000000000000000000000000000000000900460ff1681565b60008054600160a060020a031633146101dd57600080fd5b60005474010000000000000000000000000000000000000000900460ff161561020557600080fd5b6000805474ff00000000000000000000000000000000000000001916740100000000000000000000000000000000000000001781556040517f6985a02210a168e66602d3235cb6db0e70f92b3ba4d376a33c0f3d9434bff6259190a150600190565b600054600160a060020a031681565b600054600160a060020a0316331461028d57600080fd5b600160a060020a038116156102c5576000805473ffffffffffffffffffffffffffffffffffffffff1916600160a060020a0383161790555b505600a165627a7a7230582024660efdfaa3bda857025c9bc948217edfadc8e3d0823776eb07fa5426d3cfb70029",
  "source": "pragma solidity ^0.4.24;\n\n\nimport \"./Ownable.sol\";\n\n\n/**\n * @title Pausable\n * @dev Base contract which allows children to implement an emergency stop mechanism.\n */\ncontract Pausable is Ownable {\n  event Pause();\n  event Unpause();\n\n  bool public paused = false;\n\n  constructor() public {}\n\n  /**\n   * @dev modifier to allow actions only when the contract IS paused\n   */\n  modifier whenNotPaused() {\n    require(!paused);\n    _;\n  }\n\n  /**\n   * @dev modifier to allow actions only when the contract IS NOT paused\n   */\n  modifier whenPaused {\n    require(paused);\n    _;\n  }\n\n  /**\n   * @dev called by the owner to pause, triggers stopped state\n   */\n  function pause() public onlyOwner whenNotPaused returns (bool) {\n    paused = true;\n    emit Pause();\n    return true;\n  }\n\n  /**\n   * @dev called by the owner to unpause, returns to normal state\n   */\n  function unpause() public onlyOwner whenPaused returns (bool) {\n    paused = false;\n    emit Unpause();\n    return true;\n  }\n}",
  "sourcePath": "/Users/julesdesmit/Desktop/workspace/terawatt/tokensale_contracts/contracts/Pausable.sol",
  "compiler": {
    "name": "solc",
    "version": "0.4.24+commit.e67f0147.Emscripten.clang"
  },
  "schemaVersion": "2.0.0",
  "updatedAt": "2018-05-31T08:04:29.998Z"
}