{
  "contractName": "PrivateSale",
  "abi": [
    {
      "constant": true,
      "inputs": [],
      "name": "PRESALE_LEVEL_4",
      "outputs": [
        {
          "name": "",
          "type": "uint256"
        }
      ],
      "payable": false,
      "stateMutability": "view",
      "type": "function"
    },
    {
      "constant": true,
      "inputs": [],
      "name": "ICO_LEVEL_4",
      "outputs": [
        {
          "name": "",
          "type": "uint256"
        }
      ],
      "payable": false,
      "stateMutability": "view",
      "type": "function"
    },
    {
      "constant": true,
      "inputs": [],
      "name": "PRIVATESALE_LEVEL_1",
      "outputs": [
        {
          "name": "",
          "type": "uint256"
        }
      ],
      "payable": false,
      "stateMutability": "view",
      "type": "function"
    },
    {
      "constant": true,
      "inputs": [],
      "name": "PRIVATESALE_LEVEL_3",
      "outputs": [
        {
          "name": "",
          "type": "uint256"
        }
      ],
      "payable": false,
      "stateMutability": "view",
      "type": "function"
    },
    {
      "constant": true,
      "inputs": [],
      "name": "PRESALE_PERCENTAGE_4",
      "outputs": [
        {
          "name": "",
          "type": "uint256"
        }
      ],
      "payable": false,
      "stateMutability": "view",
      "type": "function"
    },
    {
      "constant": true,
      "inputs": [],
      "name": "PRIVATESALE_BASE_PRICE_IN_WEI",
      "outputs": [
        {
          "name": "",
          "type": "uint256"
        }
      ],
      "payable": false,
      "stateMutability": "view",
      "type": "function"
    },
    {
      "constant": true,
      "inputs": [],
      "name": "ledTokensAllocated",
      "outputs": [
        {
          "name": "",
          "type": "bool"
        }
      ],
      "payable": false,
      "stateMutability": "view",
      "type": "function"
    },
    {
      "constant": true,
      "inputs": [],
      "name": "started",
      "outputs": [
        {
          "name": "",
          "type": "bool"
        }
      ],
      "payable": false,
      "stateMutability": "view",
      "type": "function"
    },
    {
      "constant": true,
      "inputs": [],
      "name": "ICO_PERCENTAGE_3",
      "outputs": [
        {
          "name": "",
          "type": "uint256"
        }
      ],
      "payable": false,
      "stateMutability": "view",
      "type": "function"
    },
    {
      "constant": true,
      "inputs": [],
      "name": "surplusTokens",
      "outputs": [
        {
          "name": "",
          "type": "uint256"
        }
      ],
      "payable": false,
      "stateMutability": "view",
      "type": "function"
    },
    {
      "constant": true,
      "inputs": [],
      "name": "ledToken",
      "outputs": [
        {
          "name": "",
          "type": "address"
        }
      ],
      "payable": false,
      "stateMutability": "view",
      "type": "function"
    },
    {
      "constant": true,
      "inputs": [],
      "name": "endTime",
      "outputs": [
        {
          "name": "",
          "type": "uint256"
        }
      ],
      "payable": false,
      "stateMutability": "view",
      "type": "function"
    },
    {
      "constant": true,
      "inputs": [],
      "name": "cap",
      "outputs": [
        {
          "name": "",
          "type": "uint256"
        }
      ],
      "payable": false,
      "stateMutability": "view",
      "type": "function"
    },
    {
      "constant": false,
      "inputs": [],
      "name": "unpause",
      "outputs": [
        {
          "name": "",
          "type": "bool"
        }
      ],
      "payable": false,
      "stateMutability": "nonpayable",
      "type": "function"
    },
    {
      "constant": true,
      "inputs": [],
      "name": "PRESALE_LEVEL_5",
      "outputs": [
        {
          "name": "",
          "type": "uint256"
        }
      ],
      "payable": false,
      "stateMutability": "view",
      "type": "function"
    },
    {
      "constant": true,
      "inputs": [],
      "name": "totalWeiRaised",
      "outputs": [
        {
          "name": "",
          "type": "uint256"
        }
      ],
      "payable": false,
      "stateMutability": "view",
      "type": "function"
    },
    {
      "constant": true,
      "inputs": [],
      "name": "ICO_LEVEL_3",
      "outputs": [
        {
          "name": "",
          "type": "uint256"
        }
      ],
      "payable": false,
      "stateMutability": "view",
      "type": "function"
    },
    {
      "constant": true,
      "inputs": [],
      "name": "paused",
      "outputs": [
        {
          "name": "",
          "type": "bool"
        }
      ],
      "payable": false,
      "stateMutability": "view",
      "type": "function"
    },
    {
      "constant": true,
      "inputs": [],
      "name": "PRESALE_PERCENTAGE_2",
      "outputs": [
        {
          "name": "",
          "type": "uint256"
        }
      ],
      "payable": false,
      "stateMutability": "view",
      "type": "function"
    },
    {
      "constant": true,
      "inputs": [],
      "name": "PRESALE_PERCENTAGE_3",
      "outputs": [
        {
          "name": "",
          "type": "uint256"
        }
      ],
      "payable": false,
      "stateMutability": "view",
      "type": "function"
    },
    {
      "constant": true,
      "inputs": [],
      "name": "ICO_PERCENTAGE_2",
      "outputs": [
        {
          "name": "",
          "type": "uint256"
        }
      ],
      "payable": false,
      "stateMutability": "view",
      "type": "function"
    },
    {
      "constant": true,
      "inputs": [],
      "name": "tokensMinted",
      "outputs": [
        {
          "name": "",
          "type": "uint256"
        }
      ],
      "payable": false,
      "stateMutability": "view",
      "type": "function"
    },
    {
      "constant": true,
      "inputs": [],
      "name": "contributors",
      "outputs": [
        {
          "name": "",
          "type": "uint256"
        }
      ],
      "payable": false,
      "stateMutability": "view",
      "type": "function"
    },
    {
      "constant": true,
      "inputs": [],
      "name": "MAX_PURCHASE",
      "outputs": [
        {
          "name": "",
          "type": "uint256"
        }
      ],
      "payable": false,
      "stateMutability": "view",
      "type": "function"
    },
    {
      "constant": true,
      "inputs": [],
      "name": "PRESALE_LEVEL_2",
      "outputs": [
        {
          "name": "",
          "type": "uint256"
        }
      ],
      "payable": false,
      "stateMutability": "view",
      "type": "function"
    },
    {
      "constant": true,
      "inputs": [],
      "name": "PRESALE_LEVEL_3",
      "outputs": [
        {
          "name": "",
          "type": "uint256"
        }
      ],
      "payable": false,
      "stateMutability": "view",
      "type": "function"
    },
    {
      "constant": true,
      "inputs": [],
      "name": "startTime",
      "outputs": [
        {
          "name": "",
          "type": "uint256"
        }
      ],
      "payable": false,
      "stateMutability": "view",
      "type": "function"
    },
    {
      "constant": false,
      "inputs": [],
      "name": "pause",
      "outputs": [
        {
          "name": "",
          "type": "bool"
        }
      ],
      "payable": false,
      "stateMutability": "nonpayable",
      "type": "function"
    },
    {
      "constant": true,
      "inputs": [],
      "name": "weiCap",
      "outputs": [
        {
          "name": "",
          "type": "uint256"
        }
      ],
      "payable": false,
      "stateMutability": "view",
      "type": "function"
    },
    {
      "constant": true,
      "inputs": [],
      "name": "LEDTEAM_TOKENS",
      "outputs": [
        {
          "name": "",
          "type": "uint256"
        }
      ],
      "payable": false,
      "stateMutability": "view",
      "type": "function"
    },
    {
      "constant": true,
      "inputs": [],
      "name": "owner",
      "outputs": [
        {
          "name": "",
          "type": "address"
        }
      ],
      "payable": false,
      "stateMutability": "view",
      "type": "function"
    },
    {
      "constant": true,
      "inputs": [],
      "name": "PRESALE_PERCENTAGE_5",
      "outputs": [
        {
          "name": "",
          "type": "uint256"
        }
      ],
      "payable": false,
      "stateMutability": "view",
      "type": "function"
    },
    {
      "constant": true,
      "inputs": [],
      "name": "PRIVATESALE_PERCENTAGE_5",
      "outputs": [
        {
          "name": "",
          "type": "uint256"
        }
      ],
      "payable": false,
      "stateMutability": "view",
      "type": "function"
    },
    {
      "constant": true,
      "inputs": [],
      "name": "ICO_PERCENTAGE_5",
      "outputs": [
        {
          "name": "",
          "type": "uint256"
        }
      ],
      "payable": false,
      "stateMutability": "view",
      "type": "function"
    },
    {
      "constant": true,
      "inputs": [],
      "name": "ICO_TOKENCAP",
      "outputs": [
        {
          "name": "",
          "type": "uint256"
        }
      ],
      "payable": false,
      "stateMutability": "view",
      "type": "function"
    },
    {
      "constant": true,
      "inputs": [],
      "name": "PRESALE_BASE_PRICE_IN_WEI",
      "outputs": [
        {
          "name": "",
          "type": "uint256"
        }
      ],
      "payable": false,
      "stateMutability": "view",
      "type": "function"
    },
    {
      "constant": true,
      "inputs": [],
      "name": "PRIVATESALE_PERCENTAGE_1",
      "outputs": [
        {
          "name": "",
          "type": "uint256"
        }
      ],
      "payable": false,
      "stateMutability": "view",
      "type": "function"
    },
    {
      "constant": true,
      "inputs": [],
      "name": "FIRSTSALE_TOKENCAP",
      "outputs": [
        {
          "name": "",
          "type": "uint256"
        }
      ],
      "payable": false,
      "stateMutability": "view",
      "type": "function"
    },
    {
      "constant": true,
      "inputs": [],
      "name": "PRIVATESALE_PERCENTAGE_2",
      "outputs": [
        {
          "name": "",
          "type": "uint256"
        }
      ],
      "payable": false,
      "stateMutability": "view",
      "type": "function"
    },
    {
      "constant": true,
      "inputs": [],
      "name": "PRIVATESALE_LEVEL_2",
      "outputs": [
        {
          "name": "",
          "type": "uint256"
        }
      ],
      "payable": false,
      "stateMutability": "view",
      "type": "function"
    },
    {
      "constant": true,
      "inputs": [],
      "name": "LED_MULTISIG",
      "outputs": [
        {
          "name": "",
          "type": "address"
        }
      ],
      "payable": false,
      "stateMutability": "view",
      "type": "function"
    },
    {
      "constant": true,
      "inputs": [],
      "name": "PRESALE_PERCENTAGE_1",
      "outputs": [
        {
          "name": "",
          "type": "uint256"
        }
      ],
      "payable": false,
      "stateMutability": "view",
      "type": "function"
    },
    {
      "constant": true,
      "inputs": [],
      "name": "TOTAL_TOKENCAP",
      "outputs": [
        {
          "name": "",
          "type": "uint256"
        }
      ],
      "payable": false,
      "stateMutability": "view",
      "type": "function"
    },
    {
      "constant": true,
      "inputs": [],
      "name": "ledMultiSig",
      "outputs": [
        {
          "name": "",
          "type": "address"
        }
      ],
      "payable": false,
      "stateMutability": "view",
      "type": "function"
    },
    {
      "constant": true,
      "inputs": [],
      "name": "FIRSTSALE_BASE_PRICE_IN_WEI",
      "outputs": [
        {
          "name": "",
          "type": "uint256"
        }
      ],
      "payable": false,
      "stateMutability": "view",
      "type": "function"
    },
    {
      "constant": true,
      "inputs": [],
      "name": "ICO_LEVEL_5",
      "outputs": [
        {
          "name": "",
          "type": "uint256"
        }
      ],
      "payable": false,
      "stateMutability": "view",
      "type": "function"
    },
    {
      "constant": true,
      "inputs": [],
      "name": "finalized",
      "outputs": [
        {
          "name": "",
          "type": "bool"
        }
      ],
      "payable": false,
      "stateMutability": "view",
      "type": "function"
    },
    {
      "constant": true,
      "inputs": [],
      "name": "PRIVATESALE_LEVEL_4",
      "outputs": [
        {
          "name": "",
          "type": "uint256"
        }
      ],
      "payable": false,
      "stateMutability": "view",
      "type": "function"
    },
    {
      "constant": true,
      "inputs": [],
      "name": "decimalsMultiplier",
      "outputs": [
        {
          "name": "",
          "type": "uint256"
        }
      ],
      "payable": false,
      "stateMutability": "view",
      "type": "function"
    },
    {
      "constant": true,
      "inputs": [],
      "name": "ICO_LEVEL_1",
      "outputs": [
        {
          "name": "",
          "type": "uint256"
        }
      ],
      "payable": false,
      "stateMutability": "view",
      "type": "function"
    },
    {
      "constant": true,
      "inputs": [],
      "name": "ICO_BASE_PRICE_IN_WEI",
      "outputs": [
        {
          "name": "",
          "type": "uint256"
        }
      ],
      "payable": false,
      "stateMutability": "view",
      "type": "function"
    },
    {
      "constant": true,
      "inputs": [],
      "name": "ICO_PERCENTAGE_1",
      "outputs": [
        {
          "name": "",
          "type": "uint256"
        }
      ],
      "payable": false,
      "stateMutability": "view",
      "type": "function"
    },
    {
      "constant": true,
      "inputs": [],
      "name": "MIN_PURCHASE",
      "outputs": [
        {
          "name": "",
          "type": "uint256"
        }
      ],
      "payable": false,
      "stateMutability": "view",
      "type": "function"
    },
    {
      "constant": true,
      "inputs": [
        {
          "name": "",
          "type": "address"
        }
      ],
      "name": "whitelisted",
      "outputs": [
        {
          "name": "",
          "type": "bool"
        }
      ],
      "payable": false,
      "stateMutability": "view",
      "type": "function"
    },
    {
      "constant": true,
      "inputs": [],
      "name": "tokenCap",
      "outputs": [
        {
          "name": "",
          "type": "uint256"
        }
      ],
      "payable": false,
      "stateMutability": "view",
      "type": "function"
    },
    {
      "constant": true,
      "inputs": [],
      "name": "ICO_PERCENTAGE_4",
      "outputs": [
        {
          "name": "",
          "type": "uint256"
        }
      ],
      "payable": false,
      "stateMutability": "view",
      "type": "function"
    },
    {
      "constant": true,
      "inputs": [],
      "name": "ICO_LEVEL_2",
      "outputs": [
        {
          "name": "",
          "type": "uint256"
        }
      ],
      "payable": false,
      "stateMutability": "view",
      "type": "function"
    },
    {
      "constant": true,
      "inputs": [],
      "name": "PRESALE_TOKENCAP",
      "outputs": [
        {
          "name": "",
          "type": "uint256"
        }
      ],
      "payable": false,
      "stateMutability": "view",
      "type": "function"
    },
    {
      "constant": true,
      "inputs": [],
      "name": "PRIVATESALE_PERCENTAGE_3",
      "outputs": [
        {
          "name": "",
          "type": "uint256"
        }
      ],
      "payable": false,
      "stateMutability": "view",
      "type": "function"
    },
    {
      "constant": true,
      "inputs": [],
      "name": "PRESALE_LEVEL_1",
      "outputs": [
        {
          "name": "",
          "type": "uint256"
        }
      ],
      "payable": false,
      "stateMutability": "view",
      "type": "function"
    },
    {
      "constant": true,
      "inputs": [],
      "name": "PRIVATESALE_LEVEL_5",
      "outputs": [
        {
          "name": "",
          "type": "uint256"
        }
      ],
      "payable": false,
      "stateMutability": "view",
      "type": "function"
    },
    {
      "constant": true,
      "inputs": [],
      "name": "PRIVATESALE_PERCENTAGE_4",
      "outputs": [
        {
          "name": "",
          "type": "uint256"
        }
      ],
      "payable": false,
      "stateMutability": "view",
      "type": "function"
    },
    {
      "constant": true,
      "inputs": [],
      "name": "PRIVATESALE_TOKENCAP",
      "outputs": [
        {
          "name": "",
          "type": "uint256"
        }
      ],
      "payable": false,
      "stateMutability": "view",
      "type": "function"
    },
    {
      "constant": false,
      "inputs": [
        {
          "name": "newOwner",
          "type": "address"
        }
      ],
      "name": "transferOwnership",
      "outputs": [],
      "payable": false,
      "stateMutability": "nonpayable",
      "type": "function"
    },
    {
      "inputs": [
        {
          "name": "_tokenAddress",
          "type": "address"
        },
        {
          "name": "_startTime",
          "type": "uint256"
        },
        {
          "name": "_endTime",
          "type": "uint256"
        }
      ],
      "payable": false,
      "stateMutability": "nonpayable",
      "type": "constructor"
    },
    {
      "payable": true,
      "stateMutability": "payable",
      "type": "fallback"
    },
    {
      "anonymous": false,
      "inputs": [
        {
          "indexed": true,
          "name": "purchaser",
          "type": "address"
        },
        {
          "indexed": true,
          "name": "beneficiary",
          "type": "address"
        },
        {
          "indexed": false,
          "name": "value",
          "type": "uint256"
        },
        {
          "indexed": false,
          "name": "amount",
          "type": "uint256"
        }
      ],
      "name": "TokenPurchase",
      "type": "event"
    },
    {
      "anonymous": false,
      "inputs": [
        {
          "indexed": true,
          "name": "_cloneToken",
          "type": "address"
        }
      ],
      "name": "NewClonedToken",
      "type": "event"
    },
    {
      "anonymous": false,
      "inputs": [
        {
          "indexed": false,
          "name": "_from",
          "type": "address"
        },
        {
          "indexed": false,
          "name": "_to",
          "type": "address"
        },
        {
          "indexed": false,
          "name": "_amount",
          "type": "uint256"
        }
      ],
      "name": "OnTransfer",
      "type": "event"
    },
    {
      "anonymous": false,
      "inputs": [
        {
          "indexed": false,
          "name": "_owner",
          "type": "address"
        },
        {
          "indexed": false,
          "name": "_spender",
          "type": "address"
        },
        {
          "indexed": false,
          "name": "_amount",
          "type": "uint256"
        }
      ],
      "name": "OnApprove",
      "type": "event"
    },
    {
      "anonymous": false,
      "inputs": [
        {
          "indexed": false,
          "name": "_name",
          "type": "string"
        },
        {
          "indexed": false,
          "name": "_value",
          "type": "uint256"
        }
      ],
      "name": "LogInt",
      "type": "event"
    },
    {
      "anonymous": false,
      "inputs": [],
      "name": "Finalized",
      "type": "event"
    },
    {
      "anonymous": false,
      "inputs": [],
      "name": "Pause",
      "type": "event"
    },
    {
      "anonymous": false,
      "inputs": [],
      "name": "Unpause",
      "type": "event"
    },
    {
      "constant": false,
      "inputs": [
        {
          "name": "_beneficiary",
          "type": "address"
        }
      ],
      "name": "buyTokens",
      "outputs": [],
      "payable": true,
      "stateMutability": "payable",
      "type": "function"
    },
    {
      "constant": true,
      "inputs": [
        {
          "name": "_wei",
          "type": "uint256"
        }
      ],
      "name": "determineBonus",
      "outputs": [
        {
          "name": "",
          "type": "uint256"
        }
      ],
      "payable": false,
      "stateMutability": "view",
      "type": "function"
    },
    {
      "constant": false,
      "inputs": [
        {
          "name": "_sender",
          "type": "address"
        }
      ],
      "name": "whitelist",
      "outputs": [],
      "payable": false,
      "stateMutability": "nonpayable",
      "type": "function"
    },
    {
      "constant": true,
      "inputs": [],
      "name": "totalSupply",
      "outputs": [
        {
          "name": "",
          "type": "uint256"
        }
      ],
      "payable": false,
      "stateMutability": "view",
      "type": "function"
    },
    {
      "constant": true,
      "inputs": [
        {
          "name": "_owner",
          "type": "address"
        }
      ],
      "name": "balanceOf",
      "outputs": [
        {
          "name": "",
          "type": "uint256"
        }
      ],
      "payable": false,
      "stateMutability": "view",
      "type": "function"
    },
    {
      "constant": false,
      "inputs": [
        {
          "name": "_newController",
          "type": "address"
        }
      ],
      "name": "changeController",
      "outputs": [],
      "payable": false,
      "stateMutability": "nonpayable",
      "type": "function"
    },
    {
      "constant": false,
      "inputs": [],
      "name": "enableMasterTransfers",
      "outputs": [],
      "payable": false,
      "stateMutability": "nonpayable",
      "type": "function"
    },
    {
      "constant": false,
      "inputs": [],
      "name": "lockMasterTransfers",
      "outputs": [],
      "payable": false,
      "stateMutability": "nonpayable",
      "type": "function"
    },
    {
      "constant": false,
      "inputs": [],
      "name": "forceStart",
      "outputs": [],
      "payable": false,
      "stateMutability": "nonpayable",
      "type": "function"
    },
    {
      "constant": false,
      "inputs": [],
      "name": "finalize",
      "outputs": [],
      "payable": false,
      "stateMutability": "nonpayable",
      "type": "function"
    },
    {
      "constant": true,
      "inputs": [],
      "name": "getInfo",
      "outputs": [
        {
          "name": "",
          "type": "uint256"
        },
        {
          "name": "",
          "type": "uint256"
        },
        {
          "name": "",
          "type": "string"
        },
        {
          "name": "",
          "type": "bool"
        },
        {
          "name": "",
          "type": "uint256"
        },
        {
          "name": "",
          "type": "uint256"
        },
        {
          "name": "",
          "type": "uint256"
        },
        {
          "name": "",
          "type": "bool"
        },
        {
          "name": "",
          "type": "uint256"
        },
        {
          "name": "",
          "type": "uint256"
        }
      ],
      "payable": false,
      "stateMutability": "view",
      "type": "function"
    },
    {
      "constant": true,
      "inputs": [],
      "name": "getInfoLevels",
      "outputs": [
        {
          "name": "",
          "type": "uint256"
        },
        {
          "name": "",
          "type": "uint256"
        },
        {
          "name": "",
          "type": "uint256"
        },
        {
          "name": "",
          "type": "uint256"
        },
        {
          "name": "",
          "type": "uint256"
        },
        {
          "name": "",
          "type": "uint256"
        },
        {
          "name": "",
          "type": "uint256"
        },
        {
          "name": "",
          "type": "uint256"
        },
        {
          "name": "",
          "type": "uint256"
        },
        {
          "name": "",
          "type": "uint256"
        }
      ],
      "payable": false,
      "stateMutability": "view",
      "type": "function"
    }
  ],
  "bytecode": "0x60806040526000805460a060020a60ff0219169055600c80546201000060b060020a031916759c0e9941a4c554f6e1aa1930268a7c992e3c8602000017905563014be0f0600d556a11fdbddcd1e9306dc00000600e5569018905f5e9ea5548f800600f556010805460ff1916905534801561007957600080fd5b5060405160608061196683398101604090815281516020830151919092015160008054600160a060020a03191633600160a060020a0390811691909117909155831615156100c657600080fd5b600082116100d357600080fd5b8181116100df57600080fd5b60079190915560085560018054600160a060020a0319908116600160a060020a0393841617909155600a805490911633909216919091179055670de0b6b3a7640000600655611833806101336000396000f3006080604052600436106103795763ffffffff7c010000000000000000000000000000000000000000000000000000000060003504166302c6f427811461038457806304df48ef146103ab578063118e09c8146103c057806317a4a8a3146103d557806317f6252f146103ea57806318160ddd146103ff5780631a11415e146104145780631c9b612e146104295780631f2698ab14610452578063217477f61461046757806324fad6651461047c578063260edaaa146104915780632aa6f98b146104a65780632bb70e54146104d75780633197cbb6146104ec578063355274ea146105015780633cebb823146105165780633f4ba83a14610537578063450785311461054c5780634bb278f31461056157806353f4db011461057657806356dcd2fa146103845780635a9b0b891461058b5780635c975abb1461065f5780635e48f58f1461046757806361ad487c1461067457806369b8f38d146106895780636d8d151b1461069e5780636de9f32b146106b65780636e7e3b2b146106cb57806370a08231146106e05780637146bd0814610701578063733b679e146107165780637530b54d1461072b57806378e97925146107405780638456cb591461075557806384fe50291461076a57806387c5d1be1461077f5780638da5cb5b1461079457806394c0f3e2146107a95780639745272a146107be578063975c95da146103ea578063978d6cff146107d357806397e1d68d146107e85780639957b8da1461067457806399abd788146107fd5780639b19251a14610812578063a0f68eba146103ea578063a28a0ac214610833578063a69ade7214610848578063aa487f4914610689578063ac20e2a01461085d578063adefd50114610872578063b0a0662a14610887578063b1fc079214610701578063b3f05b971461089c578063b5fe79db146108b1578063b77dfb5914610384578063bb13245f14610916578063c4b71cec1461092b578063cb4de96814610940578063ce72a69614610955578063d439390c1461096a578063d936547e1461097f578063dd54291b146109a0578063e08155dd14610674578063e08d8497146109b5578063e73c032b146109ca578063e7a50a9d146107a9578063e9e55c71146109df578063ec8ac4d8146109f4578063edca139214610701578063ef7533cf14610a08578063f0004ab414610a1d578063f2fde38b14610a32578063ff85fba214610a53575b61038233610a68565b005b34801561039057600080fd5b50610399610c9b565b60408051918252519081900360200190f35b3480156103b757600080fd5b50610399610ca8565b3480156103cc57600080fd5b50610399610cb5565b3480156103e157600080fd5b50610399610cc1565b3480156103f657600080fd5b50610399610ccd565b34801561040b57600080fd5b50610399610cd2565b34801561042057600080fd5b50610399610d62565b34801561043557600080fd5b5061043e610d6d565b604080519115158252519081900360200190f35b34801561045e57600080fd5b5061043e610d7b565b34801561047357600080fd5b50610399610d84565b34801561048857600080fd5b50610382610d89565b34801561049d57600080fd5b50610399610e24565b3480156104b257600080fd5b506104bb610e2a565b60408051600160a060020a039092168252519081900360200190f35b3480156104e357600080fd5b50610382610e39565b3480156104f857600080fd5b50610399610eb9565b34801561050d57600080fd5b50610399610ebf565b34801561052257600080fd5b50610382600160a060020a0360043516610ec5565b34801561054357600080fd5b5061043e610f76565b34801561055857600080fd5b50610399610ff5565b34801561056d57600080fd5b50610382611002565b34801561058257600080fd5b506103996111ad565b34801561059757600080fd5b506105a06111b3565b604051808b81526020018a815260200180602001891515151581526020018881526020018781526020018681526020018515151515815260200184815260200183815260200182810382528a818151815260200191508051906020019080838360005b8381101561061b578181015183820152602001610603565b50505050905090810190601f1680156106485780820380516001836020036101000a031916815260200191505b509b50505050505050505050505060405180910390f35b34801561066b57600080fd5b5061043e6112f7565b34801561068057600080fd5b50610399611307565b34801561069557600080fd5b5061039961130c565b3480156106aa57600080fd5b50610399600435611311565b3480156106c257600080fd5b50610399611396565b3480156106d757600080fd5b5061039961139c565b3480156106ec57600080fd5b50610399600160a060020a03600435166113a2565b34801561070d57600080fd5b5061039961143f565b34801561072257600080fd5b5061039961144c565b34801561073757600080fd5b50610399611458565b34801561074c57600080fd5b50610399611464565b34801561076157600080fd5b5061043e61146a565b34801561077657600080fd5b506103996114ee565b34801561078b57600080fd5b506103996114f4565b3480156107a057600080fd5b506104bb6114fc565b3480156107b557600080fd5b5061039961150b565b3480156107ca57600080fd5b50610399611510565b3480156107df57600080fd5b50610399611515565b3480156107f457600080fd5b5061039961151d565b34801561080957600080fd5b50610399611528565b34801561081e57600080fd5b50610382600160a060020a036004351661152f565b34801561083f57600080fd5b5061039961156e565b34801561085457600080fd5b506104bb61157a565b34801561086957600080fd5b50610399611592565b34801561087e57600080fd5b506104bb61159a565b34801561089357600080fd5b506103996115af565b3480156108a857600080fd5b5061043e6115b9565b3480156108bd57600080fd5b506108c66115c2565b604080519a8b5260208b0199909952898901979097526060890195909552608088019390935260a087019190915260c086015260e085015261010084015261012083015251908190036101400190f35b34801561092257600080fd5b50610399611607565b34801561093757600080fd5b5061039961160d565b34801561094c57600080fd5b50610399611619565b34801561096157600080fd5b50610399611624565b34801561097657600080fd5b50610399611629565b34801561098b57600080fd5b5061043e600160a060020a0360043516611635565b3480156109ac57600080fd5b5061039961164a565b3480156109c157600080fd5b50610399611650565b3480156109d657600080fd5b5061039961165c565b3480156109eb57600080fd5b50610399611664565b610382600160a060020a0360043516610a68565b348015610a1457600080fd5b50610399611670565b348015610a2957600080fd5b50610399611675565b348015610a3e57600080fd5b50610382600160a060020a036004351661167d565b348015610a5f57600080fd5b506103826116d3565b60008060008060008060008060149054906101000a900460ff16151515610a8e57600080fd5b600c5460ff1615610a9e57600080fd5b600160a060020a0388161515610ab357600080fd5b610abb6116fd565b1515610ac657600080fd5b60025434975066012f2a36b9f8809650610ae6908863ffffffff61174816565b600255610af287611311565b9450610b1986610b0d6006548a61175e90919063ffffffff16565b9063ffffffff61178216565b92506000851115610b4e57610b3583606463ffffffff61178216565b9150610b47828663ffffffff61175e16565b9350610b53565b600093505b610b63838563ffffffff61174816565b600354909150610b79908263ffffffff61174816565b6003819055600e5411610b8b57600080fd5b600554610b9f90600163ffffffff61174816565b600555600154604080517f40c10f19000000000000000000000000000000000000000000000000000000008152600160a060020a038b8116600483015260248201859052915191909216916340c10f199160448083019260209291908290030181600087803b158015610c1157600080fd5b505af1158015610c25573d6000803e3d6000fd5b505050506040513d6020811015610c3b57600080fd5b505060408051888152602081018390528151600160a060020a03808c169333909116927f623b3804fa71d67900d064613da8f94b9617215ee90799290593e1745087ad18929081900390910190a3610c91611799565b5050505050505050565b6801158e460913d0000081565b68017213080c1a6aaaaa81565b673782dace9d90000081565b67bb59a27953c6000081565b601981565b600154604080517f18160ddd0000000000000000000000000000000000000000000000000000000081529051600092600160a060020a0316916318160ddd91600480830192602092919082900301818787803b158015610d3157600080fd5b505af1158015610d45573d6000803e3d6000fd5b505050506040513d6020811015610d5b57600080fd5b5051905090565b66012f2a36b9f88081565b600c54610100900460ff1681565b60105460ff1681565b600f81565b60005433600160a060020a03908116911614610da457600080fd5b60018054604080517faec318f1000000000000000000000000000000000000000000000000000000008152600481019390935251600160a060020a039091169163aec318f191602480830192600092919082900301818387803b158015610e0a57600080fd5b505af1158015610e1e573d6000803e3d6000fd5b50505050565b60095481565b600154600160a060020a031681565b60005433600160a060020a03908116911614610e5457600080fd5b600154604080517faec318f10000000000000000000000000000000000000000000000000000000081526000600482018190529151600160a060020a039093169263aec318f19260248084019391929182900301818387803b158015610e0a57600080fd5b60085481565b600e5481565b60005433600160a060020a03908116911614610ee057600080fd5b610ee9816117da565b1515610ef457600080fd5b600154604080517f6d16fa41000000000000000000000000000000000000000000000000000000008152600160a060020a03848116600483015291519190921691636d16fa4191602480830192600092919082900301818387803b158015610f5b57600080fd5b505af1158015610f6f573d6000803e3d6000fd5b5050505050565b6000805433600160a060020a03908116911614610f9257600080fd5b60005460a060020a900460ff161515610faa57600080fd5b6000805474ff0000000000000000000000000000000000000000191681556040517f7805862f689e2f13df9f062ff482ad3ad112aca9e0847911ed832e158c525b339190a150600190565b68015af1d78b58c4000081565b60005433600160a060020a0390811691161461101d57600080fd5b60005460a060020a900460ff16151561103557600080fd5b600c5460ff161561104557600080fd5b600354600e54036009819055600154600c54604080517f40c10f19000000000000000000000000000000000000000000000000000000008152600160a060020a0362010000909304831660048201526024810194909452519116916340c10f199160448083019260209291908290030181600087803b1580156110c757600080fd5b505af11580156110db573d6000803e3d6000fd5b505050506040513d60208110156110f157600080fd5b5050600154600a54604080517f6d16fa41000000000000000000000000000000000000000000000000000000008152600160a060020a03928316600482015290519190921691636d16fa4191602480830192600092919082900301818387803b15801561115d57600080fd5b505af1158015611171573d6000803e3d6000fd5b50506040517f6823b073d48d6e3a7d385eeb601452d680e74bb46afe3255a7d778f3a9b17681925060009150a1600c805460ff19166001179055565b60025481565b600080606060008060008060008060008060606000601292506040805190810160405280600381526020017f4c454400000000000000000000000000000000000000000000000000000000008152509150600160009054906101000a9004600160a060020a0316600160a060020a031663bef97c876040518163ffffffff167c0100000000000000000000000000000000000000000000000000000000028152600401602060405180830381600087803b15801561127057600080fd5b505af1158015611284573d6000803e3d6000fd5b505050506040513d602081101561129a57600080fd5b810190808051906020019092919050505090506305f5e100838383600554600254600d54601060009054906101000a900460ff166007546008549c509c509c509c509c509c509c509c509c509c5050505090919293949596979899565b60005460a060020a900460ff1681565b601481565b600a81565b6000673782dace9d90000082111561138d576773a5f283c84155558211156113855767bb59a27953c6000082111561137d576801158e460913d00000821115611375576801ce97ca0f2105555582111561136d57506064611391565b506032611391565b506023611391565b506019611391565b506014611391565b5060005b919050565b60035481565b60055481565b600154604080517f70a08231000000000000000000000000000000000000000000000000000000008152600160a060020a038481166004830152915160009392909216916370a082319160248082019260209290919082900301818787803b15801561140d57600080fd5b505af1158015611421573d6000803e3d6000fd5b505050506040513d602081101561143757600080fd5b505192915050565b6801ce97ca0f2105555581565b678ac7230489e8000081565b67d02ab486cedc000081565b60075481565b6000805433600160a060020a0390811691161461148657600080fd5b60005460a060020a900460ff161561149d57600080fd5b6000805474ff0000000000000000000000000000000000000000191660a060020a1781556040517f6985a02210a168e66602d3235cb6db0e70f92b3ba4d376a33c0f3d9434bff6259190a150600190565b600f5481565b6302160ec081565b600a54600160a060020a031681565b602381565b606481565b63015752a081565b6601c6bf5263400081565b621e848081565b60005433600160a060020a0390811691161461154a57600080fd5b600160a060020a03166000908152600b60205260409020805460ff19166001179055565b6773a5f283c841555581565b739c0e9941a4c554f6e1aa1930268a7c992e3c860281565b6305f5e10081565b600c54620100009004600160a060020a031681565b6597951b10b10081565b600c5460ff1681565b674563918244f40000678ac7230489e8000067d02ab486cedc00006801158e460913d0000068015af1d78b58c40000600a600f60146019602390919293949596979899565b60065481565b675c84c203069aaaaa81565b66025e546d73f10081565b600581565b6717213080c1a6aaaa81565b600b6020526000908152604090205460ff1681565b600d5481565b67b90984060d35555581565b63011e1a3081565b674563918244f4000081565b603281565b63014be0f081565b60005433600160a060020a0390811691161461169857600080fd5b600160a060020a038116156116d0576000805473ffffffffffffffffffffffffffffffffffffffff1916600160a060020a0383161790555b50565b60005433600160a060020a039081169116146116ee57600080fd5b6010805460ff19166001179055565b60008060008060004293506007548410158061171b575060105460ff165b92506008548411159150346000141590508080156117365750825b801561173f5750815b94505050505090565b60008282018381101561175757fe5b9392505050565b600082820283158061177a575082848281151561177757fe5b04145b151561175757fe5b600080828481151561179057fe5b04949350505050565b600c54604051600160a060020a036201000090920491909116903480156108fc02916000818181858888f193505050501580156116d0573d6000803e3d6000fd5b600080600160a060020a03831615156117f65760009150611801565b823b90506000811191505b509190505600a165627a7a7230582027a25add623eda0f8c85d08389af9c91bd3c4748e19a70e0e41be3787977359f0029",
  "source": "pragma solidity ^0.4.13;\n\nimport \"./SafeMath.sol\";\nimport \"./Pausable.sol\";\nimport \"./LedTokenInterface.sol\";\nimport \"./TokenInfo.sol\";\n/**\n * @title PrivateSale\n * PrivateSale allows investors to make token purchases and assigns them tokens based\n\n * on a token per ETH rate. Funds collected are forwarded to a wallet as they arrive.\n */\ncontract PrivateSale is Pausable, TokenInfo {\n\n  using SafeMath for uint256;\n\n  LedTokenInterface public ledToken;\n  uint256 public totalWeiRaised;\n  uint256 public tokensMinted;\n  uint256 public totalSupply;\n  uint256 public contributors;\n  uint256 public decimalsMultiplier;\n  uint256 public startTime;\n  uint256 public endTime;\n  uint256 public surplusTokens;\n\n  address public owner;\n\n  mapping (address => bool) public whitelisted;\n\n  bool public finalized;\n\n  bool public ledTokensAllocated;\n  address public ledMultiSig = LED_MULTISIG;\n\n  uint256 public tokenCap = PRIVATESALE_TOKENCAP;\n  uint256 public cap = tokenCap * (1 ether);\n  uint256 public weiCap = tokenCap * PRIVATESALE_BASE_PRICE_IN_WEI;\n\n  bool public started = false;\n\n  event TokenPurchase(address indexed purchaser, address indexed beneficiary, uint256 value, uint256 amount);\n  event NewClonedToken(address indexed _cloneToken);\n  event OnTransfer(address _from, address _to, uint _amount);\n  event OnApprove(address _owner, address _spender, uint _amount);\n  event LogInt(string _name, uint256 _value);\n  event Finalized();\n\n  function PrivateSale(address _tokenAddress, uint256 _startTime, uint256 _endTime) public {\n    require(_tokenAddress != 0x0);\n    require(_startTime > 0);\n    require(_endTime > _startTime);\n\n    startTime = _startTime;\n    endTime = _endTime;\n    ledToken = LedTokenInterface(_tokenAddress);\n    owner = msg.sender;\n\n    decimalsMultiplier = (1 ether);\n  }\n\n\n  /**\n   * High level token purchase function\n   */\n  function() public payable {\n    buyTokens(msg.sender);\n  }\n\n  /**\n   * Low level token purchase function\n   * @param _beneficiary will receive the tokens.\n   */\n  function buyTokens(address _beneficiary) public payable whenNotPaused whenNotFinalized {\n    require(_beneficiary != 0x0);\n    require(validPurchase());\n    // require(isWhitelisted(_beneficiary));\n\n    uint256 weiAmount = msg.value;\n    uint256 priceInWei = PRIVATESALE_BASE_PRICE_IN_WEI;\n    totalWeiRaised = totalWeiRaised.add(weiAmount);\n\n    uint256 bonusPercentage = determineBonus(weiAmount);\n    uint256 bonusTokens;\n\n    uint256 initialTokens = weiAmount.mul(decimalsMultiplier).div(priceInWei);\n    if(bonusPercentage>0){\n      uint256 initialDivided = initialTokens.div(100);\n      bonusTokens = initialDivided.mul(bonusPercentage);\n    } else {\n      bonusTokens = 0;\n    }\n    uint256 tokens = initialTokens.add(bonusTokens);\n    tokensMinted = tokensMinted.add(tokens);\n    require(tokensMinted < cap);\n\n    contributors = contributors.add(1);\n\n    ledToken.mint(_beneficiary, tokens);\n    TokenPurchase(msg.sender, _beneficiary, weiAmount, tokens);\n    forwardFunds();\n  }\n\n  function determineBonus(uint256 _wei) constant public returns (uint256) {\n    if(_wei > PRIVATESALE_LEVEL_1) {\n      if(_wei > PRIVATESALE_LEVEL_2) {\n        if(_wei > PRIVATESALE_LEVEL_3) {\n          if(_wei > PRIVATESALE_LEVEL_4) {\n            if(_wei > PRIVATESALE_LEVEL_5) {\n              return PRIVATESALE_PERCENTAGE_5;\n            } else {\n              return PRIVATESALE_PERCENTAGE_4;\n            }\n          } else {\n            return PRIVATESALE_PERCENTAGE_3;\n          }\n        } else {\n          return PRIVATESALE_PERCENTAGE_2;\n        }\n      } else {\n        return PRIVATESALE_PERCENTAGE_1;\n      }\n    } else {\n      return 0;\n    }\n  }\n\n  function isWhitelisted(address _sender) internal constant returns(bool) {\n    return whitelisted[_sender];\n  }\n\n  function whitelist(address _sender) public onlyOwner {\n    whitelisted[_sender] = true;\n  }\n\n\n  /**\n  * Forwards funds to the tokensale wallet\n  */\n  function forwardFunds() internal {\n    ledMultiSig.transfer(msg.value);\n  }\n\n\n  /**\n  * Validates the purchase (period, minimum amount, within cap)\n  * @return {bool} valid\n  */\n  function validPurchase() internal constant returns (bool) {\n    uint256 current = now;\n    bool presaleStarted = (current >= startTime || started);\n    bool presaleNotEnded = current <= endTime;\n    bool nonZeroPurchase = msg.value != 0;\n    return nonZeroPurchase && presaleStarted && presaleNotEnded;\n  }\n\n  /**\n  * Returns the total Led token supply\n  * @return totalSupply {uint256} Led Token Total Supply\n  */\n  function totalSupply() public constant returns (uint256) {\n    return ledToken.totalSupply();\n  }\n\n  /**\n  * Returns token holder Led Token balance\n  * @param _owner {address} Token holder address\n  * @return balance {uint256} Corresponding token holder balance\n  */\n  function balanceOf(address _owner) public constant returns (uint256) {\n    return ledToken.balanceOf(_owner);\n  }\n\n  /**\n  * Change the Led Token controller\n  * @param _newController {address} New Led Token controller\n  */\n  function changeController(address _newController) public onlyOwner {\n    require(isContract(_newController));\n    ledToken.transferControl(_newController);\n  }\n\n  function enableMasterTransfers() public onlyOwner {\n    ledToken.enableMasterTransfers(true);\n  }\n\n  function lockMasterTransfers() public onlyOwner {\n    ledToken.enableMasterTransfers(false);\n  }\n\n  function forceStart() public onlyOwner {\n    started = true;\n  }\n\n  function finalize() public onlyOwner {\n    require(paused);\n    require(!finalized);\n    surplusTokens = cap - tokensMinted;\n    ledToken.mint(ledMultiSig, surplusTokens);\n    ledToken.transferControl(owner);\n\n    Finalized();\n\n    finalized = true;\n  }\n\n  function getInfo() public constant returns(uint256, uint256, string, bool,  uint256, uint256, uint256, \n  bool, uint256, uint256){\n    uint256 decimals = 18;\n    string memory symbol = \"LED\";\n    bool transfersEnabled = ledToken.transfersEnabled();\n    return (\n      TOTAL_TOKENCAP, // Tokencap with the decimal point in place. should be 100.000.000\n      decimals, // Decimals\n      symbol,\n      transfersEnabled,\n      contributors,\n      totalWeiRaised,\n      tokenCap, // Tokencap for the private sale with the decimal point in place.\n      started,\n      startTime, // Start time and end time in Unix timestamp format with a length of 10 numbers.\n      endTime\n    );\n  }\n  \n  function getInfoLevels() public constant returns(uint256, uint256, uint256, uint256, uint256, uint256, \n  uint256, uint256, uint256, uint256){\n    return (\n      PRESALE_LEVEL_1, // Amount of ether needed per bonus level\n      PRESALE_LEVEL_2,\n      PRESALE_LEVEL_3,\n      PRESALE_LEVEL_4,\n      PRESALE_LEVEL_5,\n      PRESALE_PERCENTAGE_1, // Bonus percentage per bonus level\n      PRESALE_PERCENTAGE_2,\n      PRESALE_PERCENTAGE_3,\n      PRESALE_PERCENTAGE_4,\n      PRESALE_PERCENTAGE_5\n    );\n  }\n\n\n  function isContract(address _addr) constant internal returns(bool) {\n    uint size;\n    if (_addr == 0)\n      return false;\n    assembly {\n        size := extcodesize(_addr)\n    }\n    return size>0;\n  }\n\n  modifier whenNotFinalized() {\n    require(!finalized);\n    _;\n  }\n\n}",
  "sourcePath": "/Users/julesdesmit/Desktop/workspace/terawatt/tokensale_contracts/contracts/PrivateSale.sol",
  "compiler": {
    "name": "solc",
    "version": "0.4.23+commit.124ca40d.Emscripten.clang"
  },
  "schemaVersion": "2.0.0",
  "updatedAt": "2018-05-30T19:21:37.599Z"
}