{
  "contractName": "TokenSale",
  "abi": [
    {
      "constant": true,
      "inputs": [],
      "name": "allocatedTokens",
      "outputs": [
        {
          "name": "",
          "type": "uint256"
        }
      ],
      "payable": false,
      "stateMutability": "view",
      "type": "function"
    },
    {
      "constant": true,
      "inputs": [],
      "name": "PRESALE_LEVEL_4",
      "outputs": [
        {
          "name": "",
          "type": "uint256"
        }
      ],
      "payable": false,
      "stateMutability": "view",
      "type": "function"
    },
    {
      "constant": true,
      "inputs": [],
      "name": "ICO_LEVEL_4",
      "outputs": [
        {
          "name": "",
          "type": "uint256"
        }
      ],
      "payable": false,
      "stateMutability": "view",
      "type": "function"
    },
    {
      "constant": true,
      "inputs": [],
      "name": "PRIVATESALE_LEVEL_1",
      "outputs": [
        {
          "name": "",
          "type": "uint256"
        }
      ],
      "payable": false,
      "stateMutability": "view",
      "type": "function"
    },
    {
      "constant": true,
      "inputs": [],
      "name": "PRIVATESALE_LEVEL_3",
      "outputs": [
        {
          "name": "",
          "type": "uint256"
        }
      ],
      "payable": false,
      "stateMutability": "view",
      "type": "function"
    },
    {
      "constant": true,
      "inputs": [],
      "name": "PRESALE_PERCENTAGE_4",
      "outputs": [
        {
          "name": "",
          "type": "uint256"
        }
      ],
      "payable": false,
      "stateMutability": "view",
      "type": "function"
    },
    {
      "constant": true,
      "inputs": [],
      "name": "PRIVATESALE_BASE_PRICE_IN_WEI",
      "outputs": [
        {
          "name": "",
          "type": "uint256"
        }
      ],
      "payable": false,
      "stateMutability": "view",
      "type": "function"
    },
    {
      "constant": true,
      "inputs": [],
      "name": "ledTokensAllocated",
      "outputs": [
        {
          "name": "",
          "type": "bool"
        }
      ],
      "payable": false,
      "stateMutability": "view",
      "type": "function"
    },
    {
      "constant": true,
      "inputs": [],
      "name": "started",
      "outputs": [
        {
          "name": "",
          "type": "bool"
        }
      ],
      "payable": false,
      "stateMutability": "view",
      "type": "function"
    },
    {
      "constant": true,
      "inputs": [],
      "name": "ICO_PERCENTAGE_3",
      "outputs": [
        {
          "name": "",
          "type": "uint256"
        }
      ],
      "payable": false,
      "stateMutability": "view",
      "type": "function"
    },
    {
      "constant": true,
      "inputs": [],
      "name": "surplusTokens",
      "outputs": [
        {
          "name": "",
          "type": "uint256"
        }
      ],
      "payable": false,
      "stateMutability": "view",
      "type": "function"
    },
    {
      "constant": true,
      "inputs": [],
      "name": "ledToken",
      "outputs": [
        {
          "name": "",
          "type": "address"
        }
      ],
      "payable": false,
      "stateMutability": "view",
      "type": "function"
    },
    {
      "constant": true,
      "inputs": [],
      "name": "endTime",
      "outputs": [
        {
          "name": "",
          "type": "uint256"
        }
      ],
      "payable": false,
      "stateMutability": "view",
      "type": "function"
    },
    {
      "constant": true,
      "inputs": [],
      "name": "cap",
      "outputs": [
        {
          "name": "",
          "type": "uint256"
        }
      ],
      "payable": false,
      "stateMutability": "view",
      "type": "function"
    },
    {
      "constant": false,
      "inputs": [],
      "name": "unpause",
      "outputs": [
        {
          "name": "",
          "type": "bool"
        }
      ],
      "payable": false,
      "stateMutability": "nonpayable",
      "type": "function"
    },
    {
      "constant": true,
      "inputs": [],
      "name": "PRESALE_LEVEL_5",
      "outputs": [
        {
          "name": "",
          "type": "uint256"
        }
      ],
      "payable": false,
      "stateMutability": "view",
      "type": "function"
    },
    {
      "constant": true,
      "inputs": [],
      "name": "totalWeiRaised",
      "outputs": [
        {
          "name": "",
          "type": "uint256"
        }
      ],
      "payable": false,
      "stateMutability": "view",
      "type": "function"
    },
    {
      "constant": true,
      "inputs": [],
      "name": "ICO_LEVEL_3",
      "outputs": [
        {
          "name": "",
          "type": "uint256"
        }
      ],
      "payable": false,
      "stateMutability": "view",
      "type": "function"
    },
    {
      "constant": true,
      "inputs": [],
      "name": "paused",
      "outputs": [
        {
          "name": "",
          "type": "bool"
        }
      ],
      "payable": false,
      "stateMutability": "view",
      "type": "function"
    },
    {
      "constant": true,
      "inputs": [],
      "name": "PRESALE_PERCENTAGE_2",
      "outputs": [
        {
          "name": "",
          "type": "uint256"
        }
      ],
      "payable": false,
      "stateMutability": "view",
      "type": "function"
    },
    {
      "constant": true,
      "inputs": [],
      "name": "PRESALE_PERCENTAGE_3",
      "outputs": [
        {
          "name": "",
          "type": "uint256"
        }
      ],
      "payable": false,
      "stateMutability": "view",
      "type": "function"
    },
    {
      "constant": true,
      "inputs": [],
      "name": "ICO_PERCENTAGE_2",
      "outputs": [
        {
          "name": "",
          "type": "uint256"
        }
      ],
      "payable": false,
      "stateMutability": "view",
      "type": "function"
    },
    {
      "constant": true,
      "inputs": [],
      "name": "tokensMinted",
      "outputs": [
        {
          "name": "",
          "type": "uint256"
        }
      ],
      "payable": false,
      "stateMutability": "view",
      "type": "function"
    },
    {
      "constant": true,
      "inputs": [],
      "name": "contributors",
      "outputs": [
        {
          "name": "",
          "type": "uint256"
        }
      ],
      "payable": false,
      "stateMutability": "view",
      "type": "function"
    },
    {
      "constant": true,
      "inputs": [],
      "name": "PRESALE_LEVEL_2",
      "outputs": [
        {
          "name": "",
          "type": "uint256"
        }
      ],
      "payable": false,
      "stateMutability": "view",
      "type": "function"
    },
    {
      "constant": true,
      "inputs": [],
      "name": "PRESALE_LEVEL_3",
      "outputs": [
        {
          "name": "",
          "type": "uint256"
        }
      ],
      "payable": false,
      "stateMutability": "view",
      "type": "function"
    },
    {
      "constant": true,
      "inputs": [],
      "name": "startTime",
      "outputs": [
        {
          "name": "",
          "type": "uint256"
        }
      ],
      "payable": false,
      "stateMutability": "view",
      "type": "function"
    },
    {
      "constant": false,
      "inputs": [],
      "name": "pause",
      "outputs": [
        {
          "name": "",
          "type": "bool"
        }
      ],
      "payable": false,
      "stateMutability": "nonpayable",
      "type": "function"
    },
    {
      "constant": true,
      "inputs": [],
      "name": "weiCap",
      "outputs": [
        {
          "name": "",
          "type": "uint256"
        }
      ],
      "payable": false,
      "stateMutability": "view",
      "type": "function"
    },
    {
      "constant": true,
      "inputs": [],
      "name": "LEDTEAM_TOKENS",
      "outputs": [
        {
          "name": "",
          "type": "uint256"
        }
      ],
      "payable": false,
      "stateMutability": "view",
      "type": "function"
    },
    {
      "constant": true,
      "inputs": [],
      "name": "owner",
      "outputs": [
        {
          "name": "",
          "type": "address"
        }
      ],
      "payable": false,
      "stateMutability": "view",
      "type": "function"
    },
    {
      "constant": true,
      "inputs": [],
      "name": "PRESALE_PERCENTAGE_5",
      "outputs": [
        {
          "name": "",
          "type": "uint256"
        }
      ],
      "payable": false,
      "stateMutability": "view",
      "type": "function"
    },
    {
      "constant": true,
      "inputs": [],
      "name": "PRIVATESALE_PERCENTAGE_5",
      "outputs": [
        {
          "name": "",
          "type": "uint256"
        }
      ],
      "payable": false,
      "stateMutability": "view",
      "type": "function"
    },
    {
      "constant": true,
      "inputs": [],
      "name": "ICO_PERCENTAGE_5",
      "outputs": [
        {
          "name": "",
          "type": "uint256"
        }
      ],
      "payable": false,
      "stateMutability": "view",
      "type": "function"
    },
    {
      "constant": true,
      "inputs": [],
      "name": "ICO_TOKENCAP",
      "outputs": [
        {
          "name": "",
          "type": "uint256"
        }
      ],
      "payable": false,
      "stateMutability": "view",
      "type": "function"
    },
    {
      "constant": true,
      "inputs": [],
      "name": "PRESALE_BASE_PRICE_IN_WEI",
      "outputs": [
        {
          "name": "",
          "type": "uint256"
        }
      ],
      "payable": false,
      "stateMutability": "view",
      "type": "function"
    },
    {
      "constant": true,
      "inputs": [],
      "name": "PRIVATESALE_PERCENTAGE_1",
      "outputs": [
        {
          "name": "",
          "type": "uint256"
        }
      ],
      "payable": false,
      "stateMutability": "view",
      "type": "function"
    },
    {
      "constant": true,
      "inputs": [],
      "name": "FIRSTSALE_TOKENCAP",
      "outputs": [
        {
          "name": "",
          "type": "uint256"
        }
      ],
      "payable": false,
      "stateMutability": "view",
      "type": "function"
    },
    {
      "constant": true,
      "inputs": [],
      "name": "PRIVATESALE_PERCENTAGE_2",
      "outputs": [
        {
          "name": "",
          "type": "uint256"
        }
      ],
      "payable": false,
      "stateMutability": "view",
      "type": "function"
    },
    {
      "constant": true,
      "inputs": [],
      "name": "PRIVATESALE_LEVEL_2",
      "outputs": [
        {
          "name": "",
          "type": "uint256"
        }
      ],
      "payable": false,
      "stateMutability": "view",
      "type": "function"
    },
    {
      "constant": true,
      "inputs": [],
      "name": "LED_MULTISIG",
      "outputs": [
        {
          "name": "",
          "type": "address"
        }
      ],
      "payable": false,
      "stateMutability": "view",
      "type": "function"
    },
    {
      "constant": true,
      "inputs": [],
      "name": "PRESALE_PERCENTAGE_1",
      "outputs": [
        {
          "name": "",
          "type": "uint256"
        }
      ],
      "payable": false,
      "stateMutability": "view",
      "type": "function"
    },
    {
      "constant": true,
      "inputs": [],
      "name": "TOTAL_TOKENCAP",
      "outputs": [
        {
          "name": "",
          "type": "uint256"
        }
      ],
      "payable": false,
      "stateMutability": "view",
      "type": "function"
    },
    {
      "constant": true,
      "inputs": [],
      "name": "ledMultiSig",
      "outputs": [
        {
          "name": "",
          "type": "address"
        }
      ],
      "payable": false,
      "stateMutability": "view",
      "type": "function"
    },
    {
      "constant": true,
      "inputs": [],
      "name": "FIRSTSALE_BASE_PRICE_IN_WEI",
      "outputs": [
        {
          "name": "",
          "type": "uint256"
        }
      ],
      "payable": false,
      "stateMutability": "view",
      "type": "function"
    },
    {
      "constant": true,
      "inputs": [],
      "name": "ICO_LEVEL_5",
      "outputs": [
        {
          "name": "",
          "type": "uint256"
        }
      ],
      "payable": false,
      "stateMutability": "view",
      "type": "function"
    },
    {
      "constant": true,
      "inputs": [],
      "name": "finalized",
      "outputs": [
        {
          "name": "",
          "type": "bool"
        }
      ],
      "payable": false,
      "stateMutability": "view",
      "type": "function"
    },
    {
      "constant": true,
      "inputs": [],
      "name": "PRIVATESALE_LEVEL_4",
      "outputs": [
        {
          "name": "",
          "type": "uint256"
        }
      ],
      "payable": false,
      "stateMutability": "view",
      "type": "function"
    },
    {
      "constant": true,
      "inputs": [],
      "name": "decimalsMultiplier",
      "outputs": [
        {
          "name": "",
          "type": "uint256"
        }
      ],
      "payable": false,
      "stateMutability": "view",
      "type": "function"
    },
    {
      "constant": true,
      "inputs": [],
      "name": "ICO_LEVEL_1",
      "outputs": [
        {
          "name": "",
          "type": "uint256"
        }
      ],
      "payable": false,
      "stateMutability": "view",
      "type": "function"
    },
    {
      "constant": true,
      "inputs": [],
      "name": "ICO_BASE_PRICE_IN_WEI",
      "outputs": [
        {
          "name": "",
          "type": "uint256"
        }
      ],
      "payable": false,
      "stateMutability": "view",
      "type": "function"
    },
    {
      "constant": true,
      "inputs": [],
      "name": "ICO_PERCENTAGE_1",
      "outputs": [
        {
          "name": "",
          "type": "uint256"
        }
      ],
      "payable": false,
      "stateMutability": "view",
      "type": "function"
    },
    {
      "constant": true,
      "inputs": [
        {
          "name": "",
          "type": "address"
        }
      ],
      "name": "whitelisted",
      "outputs": [
        {
          "name": "",
          "type": "bool"
        }
      ],
      "payable": false,
      "stateMutability": "view",
      "type": "function"
    },
    {
      "constant": true,
      "inputs": [],
      "name": "tokenCap",
      "outputs": [
        {
          "name": "",
          "type": "uint256"
        }
      ],
      "payable": false,
      "stateMutability": "view",
      "type": "function"
    },
    {
      "constant": true,
      "inputs": [],
      "name": "ICO_PERCENTAGE_4",
      "outputs": [
        {
          "name": "",
          "type": "uint256"
        }
      ],
      "payable": false,
      "stateMutability": "view",
      "type": "function"
    },
    {
      "constant": true,
      "inputs": [],
      "name": "ICO_LEVEL_2",
      "outputs": [
        {
          "name": "",
          "type": "uint256"
        }
      ],
      "payable": false,
      "stateMutability": "view",
      "type": "function"
    },
    {
      "constant": true,
      "inputs": [],
      "name": "PRESALE_TOKENCAP",
      "outputs": [
        {
          "name": "",
          "type": "uint256"
        }
      ],
      "payable": false,
      "stateMutability": "view",
      "type": "function"
    },
    {
      "constant": true,
      "inputs": [],
      "name": "PRIVATESALE_PERCENTAGE_3",
      "outputs": [
        {
          "name": "",
          "type": "uint256"
        }
      ],
      "payable": false,
      "stateMutability": "view",
      "type": "function"
    },
    {
      "constant": true,
      "inputs": [],
      "name": "PRESALE_LEVEL_1",
      "outputs": [
        {
          "name": "",
          "type": "uint256"
        }
      ],
      "payable": false,
      "stateMutability": "view",
      "type": "function"
    },
    {
      "constant": true,
      "inputs": [],
      "name": "PRIVATESALE_LEVEL_5",
      "outputs": [
        {
          "name": "",
          "type": "uint256"
        }
      ],
      "payable": false,
      "stateMutability": "view",
      "type": "function"
    },
    {
      "constant": true,
      "inputs": [],
      "name": "PRIVATESALE_PERCENTAGE_4",
      "outputs": [
        {
          "name": "",
          "type": "uint256"
        }
      ],
      "payable": false,
      "stateMutability": "view",
      "type": "function"
    },
    {
      "constant": true,
      "inputs": [],
      "name": "PRIVATESALE_TOKENCAP",
      "outputs": [
        {
          "name": "",
          "type": "uint256"
        }
      ],
      "payable": false,
      "stateMutability": "view",
      "type": "function"
    },
    {
      "constant": false,
      "inputs": [
        {
          "name": "newOwner",
          "type": "address"
        }
      ],
      "name": "transferOwnership",
      "outputs": [],
      "payable": false,
      "stateMutability": "nonpayable",
      "type": "function"
    },
    {
      "inputs": [
        {
          "name": "_tokenAddress",
          "type": "address"
        },
        {
          "name": "_startTime",
          "type": "uint256"
        },
        {
          "name": "_endTime",
          "type": "uint256"
        }
      ],
      "payable": false,
      "stateMutability": "nonpayable",
      "type": "constructor"
    },
    {
      "payable": true,
      "stateMutability": "payable",
      "type": "fallback"
    },
    {
      "anonymous": false,
      "inputs": [
        {
          "indexed": true,
          "name": "purchaser",
          "type": "address"
        },
        {
          "indexed": true,
          "name": "beneficiary",
          "type": "address"
        },
        {
          "indexed": false,
          "name": "value",
          "type": "uint256"
        },
        {
          "indexed": false,
          "name": "amount",
          "type": "uint256"
        }
      ],
      "name": "TokenPurchase",
      "type": "event"
    },
    {
      "anonymous": false,
      "inputs": [
        {
          "indexed": true,
          "name": "_cloneToken",
          "type": "address"
        }
      ],
      "name": "NewClonedToken",
      "type": "event"
    },
    {
      "anonymous": false,
      "inputs": [
        {
          "indexed": false,
          "name": "_from",
          "type": "address"
        },
        {
          "indexed": false,
          "name": "_to",
          "type": "address"
        },
        {
          "indexed": false,
          "name": "_amount",
          "type": "uint256"
        }
      ],
      "name": "OnTransfer",
      "type": "event"
    },
    {
      "anonymous": false,
      "inputs": [
        {
          "indexed": false,
          "name": "_owner",
          "type": "address"
        },
        {
          "indexed": false,
          "name": "_spender",
          "type": "address"
        },
        {
          "indexed": false,
          "name": "_amount",
          "type": "uint256"
        }
      ],
      "name": "OnApprove",
      "type": "event"
    },
    {
      "anonymous": false,
      "inputs": [
        {
          "indexed": false,
          "name": "_name",
          "type": "string"
        },
        {
          "indexed": false,
          "name": "_value",
          "type": "uint256"
        }
      ],
      "name": "LogInt",
      "type": "event"
    },
    {
      "anonymous": false,
      "inputs": [],
      "name": "Finalized",
      "type": "event"
    },
    {
      "anonymous": false,
      "inputs": [],
      "name": "Pause",
      "type": "event"
    },
    {
      "anonymous": false,
      "inputs": [],
      "name": "Unpause",
      "type": "event"
    },
    {
      "constant": false,
      "inputs": [
        {
          "name": "_beneficiary",
          "type": "address"
        }
      ],
      "name": "buyTokens",
      "outputs": [],
      "payable": true,
      "stateMutability": "payable",
      "type": "function"
    },
    {
      "constant": true,
      "inputs": [
        {
          "name": "_wei",
          "type": "uint256"
        }
      ],
      "name": "determineBonus",
      "outputs": [
        {
          "name": "",
          "type": "uint256"
        }
      ],
      "payable": false,
      "stateMutability": "view",
      "type": "function"
    },
    {
      "constant": false,
      "inputs": [
        {
          "name": "_sender",
          "type": "address"
        }
      ],
      "name": "whitelist",
      "outputs": [],
      "payable": false,
      "stateMutability": "nonpayable",
      "type": "function"
    },
    {
      "constant": true,
      "inputs": [],
      "name": "totalSupply",
      "outputs": [
        {
          "name": "",
          "type": "uint256"
        }
      ],
      "payable": false,
      "stateMutability": "view",
      "type": "function"
    },
    {
      "constant": true,
      "inputs": [
        {
          "name": "_owner",
          "type": "address"
        }
      ],
      "name": "balanceOf",
      "outputs": [
        {
          "name": "",
          "type": "uint256"
        }
      ],
      "payable": false,
      "stateMutability": "view",
      "type": "function"
    },
    {
      "constant": false,
      "inputs": [
        {
          "name": "_newController",
          "type": "address"
        }
      ],
      "name": "changeController",
      "outputs": [],
      "payable": false,
      "stateMutability": "nonpayable",
      "type": "function"
    },
    {
      "constant": false,
      "inputs": [],
      "name": "enableTransfers",
      "outputs": [],
      "payable": false,
      "stateMutability": "nonpayable",
      "type": "function"
    },
    {
      "constant": false,
      "inputs": [],
      "name": "lockTransfers",
      "outputs": [],
      "payable": false,
      "stateMutability": "nonpayable",
      "type": "function"
    },
    {
      "constant": false,
      "inputs": [],
      "name": "enableMasterTransfers",
      "outputs": [],
      "payable": false,
      "stateMutability": "nonpayable",
      "type": "function"
    },
    {
      "constant": false,
      "inputs": [],
      "name": "lockMasterTransfers",
      "outputs": [],
      "payable": false,
      "stateMutability": "nonpayable",
      "type": "function"
    },
    {
      "constant": false,
      "inputs": [],
      "name": "forceStart",
      "outputs": [],
      "payable": false,
      "stateMutability": "nonpayable",
      "type": "function"
    },
    {
      "constant": false,
      "inputs": [],
      "name": "allocateLedTokens",
      "outputs": [],
      "payable": false,
      "stateMutability": "nonpayable",
      "type": "function"
    },
    {
      "constant": false,
      "inputs": [],
      "name": "finalize",
      "outputs": [],
      "payable": false,
      "stateMutability": "nonpayable",
      "type": "function"
    },
    {
      "constant": true,
      "inputs": [],
      "name": "getInfo",
      "outputs": [
        {
          "name": "",
          "type": "uint256"
        },
        {
          "name": "",
          "type": "uint256"
        },
        {
          "name": "",
          "type": "string"
        },
        {
          "name": "",
          "type": "bool"
        },
        {
          "name": "",
          "type": "uint256"
        },
        {
          "name": "",
          "type": "uint256"
        },
        {
          "name": "",
          "type": "uint256"
        },
        {
          "name": "",
          "type": "bool"
        },
        {
          "name": "",
          "type": "uint256"
        },
        {
          "name": "",
          "type": "uint256"
        }
      ],
      "payable": false,
      "stateMutability": "view",
      "type": "function"
    },
    {
      "constant": true,
      "inputs": [],
      "name": "getInfoLevels",
      "outputs": [
        {
          "name": "",
          "type": "uint256"
        },
        {
          "name": "",
          "type": "uint256"
        },
        {
          "name": "",
          "type": "uint256"
        },
        {
          "name": "",
          "type": "uint256"
        },
        {
          "name": "",
          "type": "uint256"
        },
        {
          "name": "",
          "type": "uint256"
        },
        {
          "name": "",
          "type": "uint256"
        },
        {
          "name": "",
          "type": "uint256"
        },
        {
          "name": "",
          "type": "uint256"
        },
        {
          "name": "",
          "type": "uint256"
        }
      ],
      "payable": false,
      "stateMutability": "view",
      "type": "function"
    }
  ],
  "bytecode": "0x60806040526000805460a060020a60ff0219169055600c80546201000060b060020a031916759c0e9941a4c554f6e1aa1930268a7c992e3c8602000017905563015752a0600d556a129c8f71ad02e2a6800000600e5569032d26d0a62b72a8a000600f556010805460ff1916905534801561007957600080fd5b50604051606080611c5c83398101604090815281516020830151919092015160008054600160a060020a03191633600160a060020a0390811691909117909155831615156100c657600080fd5b600082116100d357600080fd5b8181116100df57600080fd5b60079190915560085560018054600160a060020a031916600160a060020a0392909216919091179055670de0b6b3a7640000600655611b39806101236000396000f30060806040526004361061038e5763ffffffff7c01000000000000000000000000000000000000000000000000000000006000350416622f9569811461039957806302c6f427146103c057806304df48ef146103d5578063118e09c8146103ea57806317a4a8a3146103ff57806317f6252f1461041457806318160ddd146104295780631a11415e1461043e5780631c9b612e146104535780631f2698ab1461047c578063217477f61461049157806324fad665146104a6578063260edaaa146104bb5780632aa6f98b146104d05780632bb70e54146105015780633197cbb614610516578063355274ea1461052b5780633cebb823146105405780633f19bfbf146105615780633f4ba83a14610576578063450785311461058b5780634bb278f3146105a057806353f4db01146105b557806356dcd2fa146103c05780635a9b0b89146105ca5780635c975abb1461069e5780635e48f58f1461049157806361ad487c146106b357806369b8f38d146106c85780636d8d151b146106dd5780636de9f32b146106f55780636e7e3b2b1461070a57806370a082311461071f578063733b679e146107405780637530b54d1461075557806378e979251461076a57806382b74b891461077f5780638456cb591461079457806384fe5029146107a957806387c5d1be146107be5780638da5cb5b146107d357806394c0f3e2146107e85780639745272a146107fd578063975c95da14610414578063978d6cff1461081257806397e1d68d146108275780639957b8da146106b357806399abd7881461083c5780639b19251a14610851578063a0f68eba14610414578063a28a0ac214610872578063a69ade7214610887578063aa487f49146106c8578063ac20e2a01461089c578063adefd501146108b1578063af35c6c7146108c6578063b0a0662a146108db578063b1fc0792146108f0578063b3f05b9714610905578063b5fe79db1461091a578063b77dfb59146103c0578063bb13245f1461097f578063c4b71cec14610994578063cb4de968146109a9578063ce72a696146109be578063d936547e146109d3578063dd54291b146109f4578063e08155dd146106b3578063e08d849714610a09578063e73c032b14610a1e578063e7a50a9d146107e8578063e9e55c7114610a33578063ec8ac4d814610a48578063edca1392146108f0578063ef7533cf14610a5c578063f0004ab414610a71578063f2fde38b14610a86578063ff85fba214610aa7575b61039733610abc565b005b3480156103a557600080fd5b506103ae610cef565b60408051918252519081900360200190f35b3480156103cc57600080fd5b506103ae610cf5565b3480156103e157600080fd5b506103ae610d02565b3480156103f657600080fd5b506103ae610d0f565b34801561040b57600080fd5b506103ae610d1b565b34801561042057600080fd5b506103ae610d27565b34801561043557600080fd5b506103ae610d2c565b34801561044a57600080fd5b506103ae610dbc565b34801561045f57600080fd5b50610468610dc7565b604080519115158252519081900360200190f35b34801561048857600080fd5b50610468610dd5565b34801561049d57600080fd5b506103ae610dde565b3480156104b257600080fd5b50610397610de3565b3480156104c757600080fd5b506103ae610e7e565b3480156104dc57600080fd5b506104e5610e84565b60408051600160a060020a039092168252519081900360200190f35b34801561050d57600080fd5b50610397610e93565b34801561052257600080fd5b506103ae610f13565b34801561053757600080fd5b506103ae610f19565b34801561054c57600080fd5b50610397600160a060020a0360043516610f1f565b34801561056d57600080fd5b50610397610fd0565b34801561058257600080fd5b506104686110e0565b34801561059757600080fd5b506103ae61115f565b3480156105ac57600080fd5b5061039761116c565b3480156105c157600080fd5b506103ae6113a5565b3480156105d657600080fd5b506105df6113ab565b604051808b81526020018a815260200180602001891515151581526020018881526020018781526020018681526020018515151515815260200184815260200183815260200182810382528a818151815260200191508051906020019080838360005b8381101561065a578181015183820152602001610642565b50505050905090810190601f1680156106875780820380516001836020036101000a031916815260200191505b509b50505050505050505050505060405180910390f35b3480156106aa57600080fd5b506104686114ef565b3480156106bf57600080fd5b506103ae6114ff565b3480156106d457600080fd5b506103ae611504565b3480156106e957600080fd5b506103ae600435611509565b34801561070157600080fd5b506103ae61158f565b34801561071657600080fd5b506103ae611595565b34801561072b57600080fd5b506103ae600160a060020a036004351661159b565b34801561074c57600080fd5b506103ae611638565b34801561076157600080fd5b506103ae611644565b34801561077657600080fd5b506103ae611650565b34801561078b57600080fd5b50610397611656565b3480156107a057600080fd5b506104686116e4565b3480156107b557600080fd5b506103ae611768565b3480156107ca57600080fd5b506103ae61176e565b3480156107df57600080fd5b506104e5611776565b3480156107f457600080fd5b506103ae611785565b34801561080957600080fd5b506103ae61178a565b34801561081e57600080fd5b506103ae61178f565b34801561083357600080fd5b506103ae611797565b34801561084857600080fd5b506103ae6117a2565b34801561085d57600080fd5b50610397600160a060020a03600435166117a9565b34801561087e57600080fd5b506103ae6117e8565b34801561089357600080fd5b506104e56117f4565b3480156108a857600080fd5b506103ae61180c565b3480156108bd57600080fd5b506104e5611814565b3480156108d257600080fd5b50610397611829565b3480156108e757600080fd5b506103ae6118b4565b3480156108fc57600080fd5b506103ae6118be565b34801561091157600080fd5b506104686118cb565b34801561092657600080fd5b5061092f6118d4565b604080519a8b5260208b0199909952898901979097526060890195909552608088019390935260a087019190915260c086015260e085015261010084015261012083015251908190036101400190f35b34801561098b57600080fd5b506103ae611919565b3480156109a057600080fd5b506103ae61191f565b3480156109b557600080fd5b506103ae61192b565b3480156109ca57600080fd5b506103ae611936565b3480156109df57600080fd5b50610468600160a060020a036004351661193b565b348015610a0057600080fd5b506103ae611950565b348015610a1557600080fd5b506103ae611956565b348015610a2a57600080fd5b506103ae611962565b348015610a3f57600080fd5b506103ae61196a565b610397600160a060020a0360043516610abc565b348015610a6857600080fd5b506103ae611976565b348015610a7d57600080fd5b506103ae61197b565b348015610a9257600080fd5b50610397600160a060020a0360043516611983565b348015610ab357600080fd5b506103976119d9565b60008060008060008060008060149054906101000a900460ff16151515610ae257600080fd5b600c5460ff1615610af257600080fd5b600160a060020a0388161515610b0757600080fd5b610b0f611a03565b1515610b1a57600080fd5b60025434975066025e546d73f1009650610b3a908863ffffffff611a4e16565b600255610b4687611509565b9450610b6d86610b616006548a611a6490919063ffffffff16565b9063ffffffff611a8816565b92506000851115610ba257610b8983606463ffffffff611a8816565b9150610b9b828663ffffffff611a6416565b9350610ba7565b600093505b610bb7838563ffffffff611a4e16565b600354909150610bcd908263ffffffff611a4e16565b6003819055600e5411610bdf57600080fd5b600554610bf390600163ffffffff611a4e16565b600555600154604080517f40c10f19000000000000000000000000000000000000000000000000000000008152600160a060020a038b8116600483015260248201859052915191909216916340c10f199160448083019260209291908290030181600087803b158015610c6557600080fd5b505af1158015610c79573d6000803e3d6000fd5b505050506040513d6020811015610c8f57600080fd5b505060408051888152602081018390528151600160a060020a03808c169333909116927f623b3804fa71d67900d064613da8f94b9617215ee90799290593e1745087ad18929081900390910190a3610ce5611a9f565b5050505050505050565b600a5481565b6801158e460913d0000081565b68017213080c1a6aaaaa81565b673782dace9d90000081565b67bb59a27953c6000081565b601981565b600154604080517f18160ddd0000000000000000000000000000000000000000000000000000000081529051600092600160a060020a0316916318160ddd91600480830192602092919082900301818787803b158015610d8b57600080fd5b505af1158015610d9f573d6000803e3d6000fd5b505050506040513d6020811015610db557600080fd5b5051905090565b66012f2a36b9f88081565b600c54610100900460ff1681565b60105460ff1681565b600f81565b60005433600160a060020a03908116911614610dfe57600080fd5b60018054604080517faec318f1000000000000000000000000000000000000000000000000000000008152600481019390935251600160a060020a039091169163aec318f191602480830192600092919082900301818387803b158015610e6457600080fd5b505af1158015610e78573d6000803e3d6000fd5b50505050565b60095481565b600154600160a060020a031681565b60005433600160a060020a03908116911614610eae57600080fd5b600154604080517faec318f10000000000000000000000000000000000000000000000000000000081526000600482018190529151600160a060020a039093169263aec318f19260248084019391929182900301818387803b158015610e6457600080fd5b60085481565b600e5481565b60005433600160a060020a03908116911614610f3a57600080fd5b610f4381611ae0565b1515610f4e57600080fd5b600154604080517f6d16fa41000000000000000000000000000000000000000000000000000000008152600160a060020a03848116600483015291519190921691636d16fa4191602480830192600092919082900301818387803b158015610fb557600080fd5b505af1158015610fc9573d6000803e3d6000fd5b5050505050565b60005433600160a060020a03908116911614610feb57600080fd5b600c5460ff1615610ffb57600080fd5b600c54610100900460ff161561101057600080fd5b600654611028906302160ec09063ffffffff611a6416565b600a819055600154600c54604080517f40c10f19000000000000000000000000000000000000000000000000000000008152600160a060020a0362010000909304831660048201526024810194909452519116916340c10f199160448083019260209291908290030181600087803b1580156110a357600080fd5b505af11580156110b7573d6000803e3d6000fd5b505050506040513d60208110156110cd57600080fd5b5050600c805461ff001916610100179055565b6000805433600160a060020a039081169116146110fc57600080fd5b60005460a060020a900460ff16151561111457600080fd5b6000805474ff0000000000000000000000000000000000000000191681556040517f7805862f689e2f13df9f062ff482ad3ad112aca9e0847911ed832e158c525b339190a150600190565b68015af1d78b58c4000081565b60005433600160a060020a0390811691161461118757600080fd5b60005460a060020a900460ff16151561119f57600080fd5b600c54610100900460ff1615156111b557600080fd5b600354600e54036009819055600154600c54604080517f40c10f19000000000000000000000000000000000000000000000000000000008152600160a060020a0362010000909304831660048201526024810194909452519116916340c10f199160448083019260209291908290030181600087803b15801561123757600080fd5b505af115801561124b573d6000803e3d6000fd5b505050506040513d602081101561126157600080fd5b5050600154604080517f7d64bcb40000000000000000000000000000000000000000000000000000000081529051600160a060020a0390921691637d64bcb4916004808201926020929091908290030181600087803b1580156112c357600080fd5b505af11580156112d7573d6000803e3d6000fd5b505050506040513d60208110156112ed57600080fd5b505060018054604080517ff41e60c5000000000000000000000000000000000000000000000000000000008152600481019390935251600160a060020a039091169163f41e60c591602480830192600092919082900301818387803b15801561135557600080fd5b505af1158015611369573d6000803e3d6000fd5b50506040517f6823b073d48d6e3a7d385eeb601452d680e74bb46afe3255a7d778f3a9b17681925060009150a1600c805460ff19166001179055565b60025481565b600080606060008060008060008060008060606000601292506040805190810160405280600381526020017f4c454400000000000000000000000000000000000000000000000000000000008152509150600160009054906101000a9004600160a060020a0316600160a060020a031663bef97c876040518163ffffffff167c0100000000000000000000000000000000000000000000000000000000028152600401602060405180830381600087803b15801561146857600080fd5b505af115801561147c573d6000803e3d6000fd5b505050506040513d602081101561149257600080fd5b810190808051906020019092919050505090506305f5e100838383600554600254600e54601060009054906101000a900460ff166007546008549c509c509c509c509c509c509c509c509c509c5050505090919293949596979899565b60005460a060020a900460ff1681565b601481565b600a81565b6000675c84c203069aaaaa8211156115865767b90984060d35555582111561157e576801158e460913d000008211156115765768017213080c1a6aaaaa82111561156e576801ce97ca0f210555558211156115665750601961158a565b50601461158a565b50600f61158a565b50600a61158a565b50600561158a565b5060005b919050565b60035481565b60055481565b600154604080517f70a08231000000000000000000000000000000000000000000000000000000008152600160a060020a038481166004830152915160009392909216916370a082319160248082019260209290919082900301818787803b15801561160657600080fd5b505af115801561161a573d6000803e3d6000fd5b505050506040513d602081101561163057600080fd5b505192915050565b678ac7230489e8000081565b67d02ab486cedc000081565b60075481565b60005433600160a060020a0390811691161461167157600080fd5b600854421061167f57600080fd5b600154604080517ff41e60c50000000000000000000000000000000000000000000000000000000081526000600482018190529151600160a060020a039093169263f41e60c59260248084019391929182900301818387803b158015610e6457600080fd5b6000805433600160a060020a0390811691161461170057600080fd5b60005460a060020a900460ff161561171757600080fd5b6000805474ff0000000000000000000000000000000000000000191660a060020a1781556040517f6985a02210a168e66602d3235cb6db0e70f92b3ba4d376a33c0f3d9434bff6259190a150600190565b600f5481565b6302160ec081565b600054600160a060020a031681565b602381565b606481565b63015752a081565b6601c6bf5263400081565b620f424081565b60005433600160a060020a039081169116146117c457600080fd5b600160a060020a03166000908152600b60205260409020805460ff19166001179055565b6773a5f283c841555581565b739c0e9941a4c554f6e1aa1930268a7c992e3c860281565b6305f5e10081565b600c54620100009004600160a060020a031681565b60085442101561184e5760005433600160a060020a0390811691161461184e57600080fd5b60018054604080517ff41e60c5000000000000000000000000000000000000000000000000000000008152600481019390935251600160a060020a039091169163f41e60c591602480830192600092919082900301818387803b158015610e6457600080fd5b6597951b10b10081565b6801ce97ca0f2105555581565b600c5460ff1681565b674563918244f40000678ac7230489e8000067d02ab486cedc00006801158e460913d0000068015af1d78b58c40000600a600f60146019602390919293949596979899565b60065481565b675c84c203069aaaaa81565b66025e546d73f10081565b600581565b600b6020526000908152604090205460ff1681565b600d5481565b67b90984060d35555581565b63011e1a3081565b674563918244f4000081565b603281565b63015b233081565b60005433600160a060020a0390811691161461199e57600080fd5b600160a060020a038116156119d6576000805473ffffffffffffffffffffffffffffffffffffffff1916600160a060020a0383161790555b50565b60005433600160a060020a039081169116146119f457600080fd5b6010805460ff19166001179055565b600080600080600042935060075484101580611a21575060105460ff165b9250600854841115915034600014159050808015611a3c5750825b8015611a455750815b94505050505090565b600082820183811015611a5d57fe5b9392505050565b6000828202831580611a805750828482811515611a7d57fe5b04145b1515611a5d57fe5b6000808284811515611a9657fe5b04949350505050565b600c54604051600160a060020a036201000090920491909116903480156108fc02916000818181858888f193505050501580156119d6573d6000803e3d6000fd5b600080600160a060020a0383161515611afc5760009150611b07565b823b90506000811191505b509190505600a165627a7a7230582063348c9da6b969990e4d850de30dc25c4395609eb6cccc6dd20616585dd1f1360029",
  "source": "pragma solidity ^0.4.13;\n\nimport './SafeMath.sol';\nimport './Pausable.sol';\nimport './LedTokenInterface.sol';\nimport './TokenInfo.sol';\n/**\n * @title Tokensale\n * Tokensale allows investors to make token purchases and assigns them tokens based\n\n * on a token per ETH rate. Funds collected are forwarded to a wallet as they arrive.\n */\ncontract TokenSale is Pausable, TokenInfo {\n\n  using SafeMath for uint256;\n\n  LedTokenInterface public ledToken;\n  uint256 public totalWeiRaised;\n  uint256 public tokensMinted;\n  uint256 public totalSupply;\n  uint256 public contributors;\n  uint256 public decimalsMultiplier;\n  uint256 public startTime;\n  uint256 public endTime;\n  uint256 public surplusTokens;\n  uint256 public allocatedTokens;\n\n  mapping (address => bool) public whitelisted;\n\n  bool public finalized;\n\n  bool public ledTokensAllocated;\n  address public ledMultiSig = LED_MULTISIG;\n\n  uint256 public tokenCap = ICO_TOKENCAP;\n  uint256 public cap = tokenCap * (1 ether);\n  uint256 public weiCap = tokenCap * ICO_BASE_PRICE_IN_WEI;\n\n  bool public started = false;\n\n  event TokenPurchase(address indexed purchaser, address indexed beneficiary, uint256 value, uint256 amount);\n  event NewClonedToken(address indexed _cloneToken);\n  event OnTransfer(address _from, address _to, uint _amount);\n  event OnApprove(address _owner, address _spender, uint _amount);\n  event LogInt(string _name, uint256 _value);\n  event Finalized();\n\n  function TokenSale(address _tokenAddress, uint256 _startTime, uint256 _endTime) public {\n    require(_tokenAddress != 0x0);\n    require(_startTime > 0);\n    require(_endTime > _startTime);\n\n    startTime = _startTime;\n    endTime = _endTime;\n    ledToken = LedTokenInterface(_tokenAddress);\n\n    decimalsMultiplier = (1 ether);\n  }\n\n\n  /**\n   * High level token purchase function\n   */\n  function() public payable {\n    buyTokens(msg.sender);\n  }\n\n  /**\n   * Low level token purchase function\n   * @param _beneficiary will receive the tokens.\n   */\n  function buyTokens(address _beneficiary) public payable whenNotPaused whenNotFinalized {\n    require(_beneficiary != 0x0);\n    require(validPurchase());\n    // require(isWhitelisted(_beneficiary));\n\n    uint256 weiAmount = msg.value;\n    uint256 priceInWei = ICO_BASE_PRICE_IN_WEI;\n    totalWeiRaised = totalWeiRaised.add(weiAmount);\n\n    uint256 bonusPercentage = determineBonus(weiAmount);\n    uint256 bonusTokens;\n\n    uint256 initialTokens = weiAmount.mul(decimalsMultiplier).div(priceInWei);\n    if(bonusPercentage>0){\n      uint256 initialDivided = initialTokens.div(100);\n      bonusTokens = initialDivided.mul(bonusPercentage);\n    } else {\n      bonusTokens = 0;\n    }\n    uint256 tokens = initialTokens.add(bonusTokens);\n    tokensMinted = tokensMinted.add(tokens);\n    require(tokensMinted < cap);\n\n    contributors = contributors.add(1);\n\n    ledToken.mint(_beneficiary, tokens);\n    TokenPurchase(msg.sender, _beneficiary, weiAmount, tokens);\n    forwardFunds();\n  }\n\n  function determineBonus(uint256 _wei) constant public returns (uint256) {\n    if(_wei > ICO_LEVEL_1) {\n      if(_wei > ICO_LEVEL_2) {\n        if(_wei > ICO_LEVEL_3) {\n          if(_wei > ICO_LEVEL_4) {\n            if(_wei > ICO_LEVEL_5) {\n              return ICO_PERCENTAGE_5;\n            } else {\n              return ICO_PERCENTAGE_4;\n            }\n          } else {\n            return ICO_PERCENTAGE_3;\n          }\n        } else {\n          return ICO_PERCENTAGE_2;\n        }\n      } else {\n        return ICO_PERCENTAGE_1;\n      }\n    } else {\n      return 0;\n    }\n  }\n\n  function isWhitelisted(address _sender) internal constant returns(bool) {\n    return whitelisted[_sender];\n  }\n\n  function whitelist(address _sender) public onlyOwner {\n    whitelisted[_sender] = true;\n  }\n\n\n  /**\n  * Forwards funds to the tokensale wallet\n  */\n  function forwardFunds() internal {\n    ledMultiSig.transfer(msg.value);\n  }\n\n\n  /**\n  * Validates the purchase (period, minimum amount, within cap)\n  * @return {bool} valid\n  */\n  function validPurchase() internal constant returns (bool) {\n    uint256 current = now;\n    bool presaleStarted = (current >= startTime || started);\n    bool presaleNotEnded = current <= endTime;\n    bool nonZeroPurchase = msg.value != 0;\n    return nonZeroPurchase && presaleStarted && presaleNotEnded;\n  }\n\n  /**\n  * Returns the total Led token supply\n  * @return totalSupply {uint256} Led Token Total Supply\n  */\n  function totalSupply() public constant returns (uint256) {\n    return ledToken.totalSupply();\n  }\n\n  /**\n  * Returns token holder Led Token balance\n  * @param _owner {address} Token holder address\n  * @return balance {uint256} Corresponding token holder balance\n  */\n  function balanceOf(address _owner) public constant returns (uint256) {\n    return ledToken.balanceOf(_owner);\n  }\n\n  /**\n  * Change the Led Token controller\n  * @param _newController {address} New Led Token controller\n  */\n  function changeController(address _newController) public onlyOwner {\n    require(isContract(_newController));\n    ledToken.transferControl(_newController);\n  }\n\n\n  function enableTransfers() public {\n    if (now < endTime) {\n      require(msg.sender == owner);\n    }\n    ledToken.enableTransfers(true);\n  }\n\n  function lockTransfers() public onlyOwner {\n    require(now < endTime);\n    ledToken.enableTransfers(false);\n  }\n\n  function enableMasterTransfers() public onlyOwner {\n    ledToken.enableMasterTransfers(true);\n  }\n\n  function lockMasterTransfers() public onlyOwner {\n    ledToken.enableMasterTransfers(false);\n  }\n\n  function forceStart() public onlyOwner {\n    started = true;\n  }\n\n  function allocateLedTokens() public onlyOwner whenNotFinalized {\n    require(!ledTokensAllocated);\n    allocatedTokens = LEDTEAM_TOKENS.mul(decimalsMultiplier);\n    ledToken.mint(ledMultiSig, allocatedTokens);\n    ledTokensAllocated = true;\n  }\n\n  function finalize() public onlyOwner {\n    require(paused);\n    require(ledTokensAllocated);\n\n    surplusTokens = cap - tokensMinted;\n    ledToken.mint(ledMultiSig, surplusTokens);\n\n    ledToken.finishMinting();\n    ledToken.enableTransfers(true);\n    Finalized();\n\n    finalized = true;\n  }\n\n  function getInfo() public constant returns(uint256, uint256, string, bool,  uint256, uint256, uint256, \n  bool, uint256, uint256){\n    uint256 decimals = 18;\n    string memory symbol = \"LED\";\n    bool transfersEnabled = ledToken.transfersEnabled();\n    return (\n      TOTAL_TOKENCAP, // Tokencap with the decimal point in place. should be 100.000.000\n      decimals, // Decimals\n      symbol,\n      transfersEnabled,\n      contributors,\n      totalWeiRaised,\n      cap, // Tokencap for the ICO without the decimal point in place. Will be a huge number.\n      started,\n      startTime, // Start time and end time in Unix timestamp format with a length of 10 numbers.\n      endTime\n    );\n  }\n  \n  function getInfoLevels() public constant returns(uint256, uint256, uint256, uint256, uint256, uint256, \n  uint256, uint256, uint256, uint256){\n    return (\n      PRESALE_LEVEL_1, // Amount of ether needed per bonus level\n      PRESALE_LEVEL_2,\n      PRESALE_LEVEL_3,\n      PRESALE_LEVEL_4,\n      PRESALE_LEVEL_5,\n      PRESALE_PERCENTAGE_1, // Bonus percentage per bonus level\n      PRESALE_PERCENTAGE_2,\n      PRESALE_PERCENTAGE_3,\n      PRESALE_PERCENTAGE_4,\n      PRESALE_PERCENTAGE_5\n    );\n  }\n\n\n  function isContract(address _addr) constant internal returns(bool) {\n    uint size;\n    if (_addr == 0)\n      return false;\n    assembly {\n        size := extcodesize(_addr)\n    }\n    return size>0;\n  }\n\n  modifier whenNotFinalized() {\n    require(!finalized);\n    _;\n  }\n\n}",
  "sourcePath": "/Users/julesdesmit/Desktop/workspace/terawatt/tokensale_contracts/contracts/TokenSale.sol",
  "compiler": {
    "name": "solc",
    "version": "0.4.23+commit.124ca40d.Emscripten.clang"
  },
  "schemaVersion": "2.0.0",
  "updatedAt": "2018-05-27T17:15:36.632Z"
}