{
  "contractName": "TokenInfo",
  "abi": [
    {
      "constant": true,
      "inputs": [],
      "name": "PRESALE_LEVEL_4",
      "outputs": [
        {
          "name": "",
          "type": "uint256"
        }
      ],
      "payable": false,
      "stateMutability": "view",
      "type": "function"
    },
    {
      "constant": true,
      "inputs": [],
      "name": "ICO_LEVEL_4",
      "outputs": [
        {
          "name": "",
          "type": "uint256"
        }
      ],
      "payable": false,
      "stateMutability": "view",
      "type": "function"
    },
    {
      "constant": true,
      "inputs": [],
      "name": "PRIVATESALE_LEVEL_1",
      "outputs": [
        {
          "name": "",
          "type": "uint256"
        }
      ],
      "payable": false,
      "stateMutability": "view",
      "type": "function"
    },
    {
      "constant": true,
      "inputs": [],
      "name": "PRIVATESALE_LEVEL_3",
      "outputs": [
        {
          "name": "",
          "type": "uint256"
        }
      ],
      "payable": false,
      "stateMutability": "view",
      "type": "function"
    },
    {
      "constant": true,
      "inputs": [],
      "name": "PRESALE_PERCENTAGE_4",
      "outputs": [
        {
          "name": "",
          "type": "uint256"
        }
      ],
      "payable": false,
      "stateMutability": "view",
      "type": "function"
    },
    {
      "constant": true,
      "inputs": [],
      "name": "PRIVATESALE_BASE_PRICE_IN_WEI",
      "outputs": [
        {
          "name": "",
          "type": "uint256"
        }
      ],
      "payable": false,
      "stateMutability": "view",
      "type": "function"
    },
    {
      "constant": true,
      "inputs": [],
      "name": "ICO_PERCENTAGE_3",
      "outputs": [
        {
          "name": "",
          "type": "uint256"
        }
      ],
      "payable": false,
      "stateMutability": "view",
      "type": "function"
    },
    {
      "constant": true,
      "inputs": [],
      "name": "PRESALE_LEVEL_5",
      "outputs": [
        {
          "name": "",
          "type": "uint256"
        }
      ],
      "payable": false,
      "stateMutability": "view",
      "type": "function"
    },
    {
      "constant": true,
      "inputs": [],
      "name": "ICO_LEVEL_3",
      "outputs": [
        {
          "name": "",
          "type": "uint256"
        }
      ],
      "payable": false,
      "stateMutability": "view",
      "type": "function"
    },
    {
      "constant": true,
      "inputs": [],
      "name": "PRESALE_PERCENTAGE_2",
      "outputs": [
        {
          "name": "",
          "type": "uint256"
        }
      ],
      "payable": false,
      "stateMutability": "view",
      "type": "function"
    },
    {
      "constant": true,
      "inputs": [],
      "name": "PRESALE_PERCENTAGE_3",
      "outputs": [
        {
          "name": "",
          "type": "uint256"
        }
      ],
      "payable": false,
      "stateMutability": "view",
      "type": "function"
    },
    {
      "constant": true,
      "inputs": [],
      "name": "ICO_PERCENTAGE_2",
      "outputs": [
        {
          "name": "",
          "type": "uint256"
        }
      ],
      "payable": false,
      "stateMutability": "view",
      "type": "function"
    },
    {
      "constant": true,
      "inputs": [],
      "name": "PRESALE_LEVEL_2",
      "outputs": [
        {
          "name": "",
          "type": "uint256"
        }
      ],
      "payable": false,
      "stateMutability": "view",
      "type": "function"
    },
    {
      "constant": true,
      "inputs": [],
      "name": "PRESALE_LEVEL_3",
      "outputs": [
        {
          "name": "",
          "type": "uint256"
        }
      ],
      "payable": false,
      "stateMutability": "view",
      "type": "function"
    },
    {
      "constant": true,
      "inputs": [],
      "name": "LEDTEAM_TOKENS",
      "outputs": [
        {
          "name": "",
          "type": "uint256"
        }
      ],
      "payable": false,
      "stateMutability": "view",
      "type": "function"
    },
    {
      "constant": true,
      "inputs": [],
      "name": "PRESALE_PERCENTAGE_5",
      "outputs": [
        {
          "name": "",
          "type": "uint256"
        }
      ],
      "payable": false,
      "stateMutability": "view",
      "type": "function"
    },
    {
      "constant": true,
      "inputs": [],
      "name": "PRIVATESALE_PERCENTAGE_5",
      "outputs": [
        {
          "name": "",
          "type": "uint256"
        }
      ],
      "payable": false,
      "stateMutability": "view",
      "type": "function"
    },
    {
      "constant": true,
      "inputs": [],
      "name": "ICO_PERCENTAGE_5",
      "outputs": [
        {
          "name": "",
          "type": "uint256"
        }
      ],
      "payable": false,
      "stateMutability": "view",
      "type": "function"
    },
    {
      "constant": true,
      "inputs": [],
      "name": "ICO_TOKENCAP",
      "outputs": [
        {
          "name": "",
          "type": "uint256"
        }
      ],
      "payable": false,
      "stateMutability": "view",
      "type": "function"
    },
    {
      "constant": true,
      "inputs": [],
      "name": "PRESALE_BASE_PRICE_IN_WEI",
      "outputs": [
        {
          "name": "",
          "type": "uint256"
        }
      ],
      "payable": false,
      "stateMutability": "view",
      "type": "function"
    },
    {
      "constant": true,
      "inputs": [],
      "name": "PRIVATESALE_PERCENTAGE_1",
      "outputs": [
        {
          "name": "",
          "type": "uint256"
        }
      ],
      "payable": false,
      "stateMutability": "view",
      "type": "function"
    },
    {
      "constant": true,
      "inputs": [],
      "name": "FIRSTSALE_TOKENCAP",
      "outputs": [
        {
          "name": "",
          "type": "uint256"
        }
      ],
      "payable": false,
      "stateMutability": "view",
      "type": "function"
    },
    {
      "constant": true,
      "inputs": [],
      "name": "PRIVATESALE_PERCENTAGE_2",
      "outputs": [
        {
          "name": "",
          "type": "uint256"
        }
      ],
      "payable": false,
      "stateMutability": "view",
      "type": "function"
    },
    {
      "constant": true,
      "inputs": [],
      "name": "PRIVATESALE_LEVEL_2",
      "outputs": [
        {
          "name": "",
          "type": "uint256"
        }
      ],
      "payable": false,
      "stateMutability": "view",
      "type": "function"
    },
    {
      "constant": true,
      "inputs": [],
      "name": "LED_MULTISIG",
      "outputs": [
        {
          "name": "",
          "type": "address"
        }
      ],
      "payable": false,
      "stateMutability": "view",
      "type": "function"
    },
    {
      "constant": true,
      "inputs": [],
      "name": "PRESALE_PERCENTAGE_1",
      "outputs": [
        {
          "name": "",
          "type": "uint256"
        }
      ],
      "payable": false,
      "stateMutability": "view",
      "type": "function"
    },
    {
      "constant": true,
      "inputs": [],
      "name": "TOTAL_TOKENCAP",
      "outputs": [
        {
          "name": "",
          "type": "uint256"
        }
      ],
      "payable": false,
      "stateMutability": "view",
      "type": "function"
    },
    {
      "constant": true,
      "inputs": [],
      "name": "FIRSTSALE_BASE_PRICE_IN_WEI",
      "outputs": [
        {
          "name": "",
          "type": "uint256"
        }
      ],
      "payable": false,
      "stateMutability": "view",
      "type": "function"
    },
    {
      "constant": true,
      "inputs": [],
      "name": "ICO_LEVEL_5",
      "outputs": [
        {
          "name": "",
          "type": "uint256"
        }
      ],
      "payable": false,
      "stateMutability": "view",
      "type": "function"
    },
    {
      "constant": true,
      "inputs": [],
      "name": "PRIVATESALE_LEVEL_4",
      "outputs": [
        {
          "name": "",
          "type": "uint256"
        }
      ],
      "payable": false,
      "stateMutability": "view",
      "type": "function"
    },
    {
      "constant": true,
      "inputs": [],
      "name": "ICO_LEVEL_1",
      "outputs": [
        {
          "name": "",
          "type": "uint256"
        }
      ],
      "payable": false,
      "stateMutability": "view",
      "type": "function"
    },
    {
      "constant": true,
      "inputs": [],
      "name": "ICO_BASE_PRICE_IN_WEI",
      "outputs": [
        {
          "name": "",
          "type": "uint256"
        }
      ],
      "payable": false,
      "stateMutability": "view",
      "type": "function"
    },
    {
      "constant": true,
      "inputs": [],
      "name": "ICO_PERCENTAGE_1",
      "outputs": [
        {
          "name": "",
          "type": "uint256"
        }
      ],
      "payable": false,
      "stateMutability": "view",
      "type": "function"
    },
    {
      "constant": true,
      "inputs": [],
      "name": "ICO_PERCENTAGE_4",
      "outputs": [
        {
          "name": "",
          "type": "uint256"
        }
      ],
      "payable": false,
      "stateMutability": "view",
      "type": "function"
    },
    {
      "constant": true,
      "inputs": [],
      "name": "ICO_LEVEL_2",
      "outputs": [
        {
          "name": "",
          "type": "uint256"
        }
      ],
      "payable": false,
      "stateMutability": "view",
      "type": "function"
    },
    {
      "constant": true,
      "inputs": [],
      "name": "PRESALE_TOKENCAP",
      "outputs": [
        {
          "name": "",
          "type": "uint256"
        }
      ],
      "payable": false,
      "stateMutability": "view",
      "type": "function"
    },
    {
      "constant": true,
      "inputs": [],
      "name": "PRIVATESALE_PERCENTAGE_3",
      "outputs": [
        {
          "name": "",
          "type": "uint256"
        }
      ],
      "payable": false,
      "stateMutability": "view",
      "type": "function"
    },
    {
      "constant": true,
      "inputs": [],
      "name": "PRESALE_LEVEL_1",
      "outputs": [
        {
          "name": "",
          "type": "uint256"
        }
      ],
      "payable": false,
      "stateMutability": "view",
      "type": "function"
    },
    {
      "constant": true,
      "inputs": [],
      "name": "PRIVATESALE_LEVEL_5",
      "outputs": [
        {
          "name": "",
          "type": "uint256"
        }
      ],
      "payable": false,
      "stateMutability": "view",
      "type": "function"
    },
    {
      "constant": true,
      "inputs": [],
      "name": "PRIVATESALE_PERCENTAGE_4",
      "outputs": [
        {
          "name": "",
          "type": "uint256"
        }
      ],
      "payable": false,
      "stateMutability": "view",
      "type": "function"
    },
    {
      "constant": true,
      "inputs": [],
      "name": "PRIVATESALE_TOKENCAP",
      "outputs": [
        {
          "name": "",
          "type": "uint256"
        }
      ],
      "payable": false,
      "stateMutability": "view",
      "type": "function"
    }
  ],
  "bytecode": "0x608060405234801561001057600080fd5b5061061a806100206000396000f3006080604052600436106101f85763ffffffff7c010000000000000000000000000000000000000000000000000000000060003504166302c6f42781146101fd57806304df48ef14610224578063118e09c81461023957806317a4a8a31461024e57806317f6252f146102635780631a11415e14610278578063217477f61461028d57806345078531146102a257806356dcd2fa146101fd5780635e48f58f1461028d57806361ad487c146102b757806369b8f38d146102cc578063733b679e146102e15780637530b54d146102f657806387c5d1be1461030b57806394c0f3e2146103205780639745272a14610335578063975c95da14610263578063978d6cff1461034a57806397e1d68d1461035f5780639957b8da146102b757806399abd78814610374578063a0f68eba14610263578063a28a0ac214610389578063a69ade721461039e578063aa487f49146102cc578063ac20e2a0146103dc578063b0a0662a146103f1578063b1fc079214610406578063b77dfb59146101fd578063c4b71cec1461041b578063cb4de96814610430578063ce72a69614610445578063e08155dd146102b7578063e08d84971461045a578063e73c032b1461046f578063e7a50a9d14610320578063e9e55c7114610484578063edca139214610406578063ef7533cf14610499578063f0004ab4146104ae575b600080fd5b34801561020957600080fd5b506102126104c3565b60408051918252519081900360200190f35b34801561023057600080fd5b506102126104cf565b34801561024557600080fd5b506102126104db565b34801561025a57600080fd5b506102126104e7565b34801561026f57600080fd5b506102126104f3565b34801561028457600080fd5b506102126104f8565b34801561029957600080fd5b50610212610503565b3480156102ae57600080fd5b50610212610508565b3480156102c357600080fd5b50610212610514565b3480156102d857600080fd5b50610212610519565b3480156102ed57600080fd5b5061021261051e565b34801561030257600080fd5b5061021261052a565b34801561031757600080fd5b50610212610536565b34801561032c57600080fd5b5061021261053e565b34801561034157600080fd5b50610212610543565b34801561035657600080fd5b50610212610548565b34801561036b57600080fd5b50610212610550565b34801561038057600080fd5b5061021261055b565b34801561039557600080fd5b50610212610562565b3480156103aa57600080fd5b506103b361056e565b6040805173ffffffffffffffffffffffffffffffffffffffff9092168252519081900360200190f35b3480156103e857600080fd5b50610212610586565b3480156103fd57600080fd5b5061021261058e565b34801561041257600080fd5b50610212610598565b34801561042757600080fd5b506102126105a5565b34801561043c57600080fd5b506102126105b1565b34801561045157600080fd5b506102126105bc565b34801561046657600080fd5b506102126105c1565b34801561047b57600080fd5b506102126105cd565b34801561049057600080fd5b506102126105d5565b3480156104a557600080fd5b506102126105e1565b3480156104ba57600080fd5b506102126105e6565b67a688906bd8b0000081565b67de0b6b3a7640000081565b67214e8348c4f0000081565b677068fb1598aa000081565b601981565b66012f2a36b9f88081565b600f81565b67d02ab486cedc000081565b601481565b600a81565b6753444835ec58000081565b677ce66c50e284000081565b6302160ec081565b602381565b606481565b63015752a081565b6601c6bf5263400081565b620f424081565b674563918244f4000081565b739c0e9941a4c554f6e1aa1930268a7c992e3c860281565b6305f5e10081565b6597951b10b10081565b6801158e460913d0000081565b673782dace9d90000081565b66025e546d73f10081565b600581565b676f05b59d3b20000081565b63011e1a3081565b6729a2241af62c000081565b603281565b63015b2330815600a165627a7a72305820b188db9311203250a8baf5e60eb062599c2bd03391bc679d1e7fc72bc5b699d80029",
  "source": "pragma solidity ^0.4.13;\n\ncontract TokenInfo {\n    // Base prices in wei, going off from an Ether value of $600\n    uint256 public constant PRIVATESALE_BASE_PRICE_IN_WEI = 333333330000000;\n    uint256 public constant PRESALE_BASE_PRICE_IN_WEI = 500000000000000;\n    uint256 public constant ICO_BASE_PRICE_IN_WEI = 666666660000000;\n    uint256 public constant FIRSTSALE_BASE_PRICE_IN_WEI = 166666660000000;\n\n    // Bonus percentages for each respective sale level\n    uint256 public constant PRIVATESALE_PERCENTAGE_1 = 20;\n    uint256 public constant PRIVATESALE_PERCENTAGE_2 = 25;\n    uint256 public constant PRIVATESALE_PERCENTAGE_3 = 35;\n    uint256 public constant PRIVATESALE_PERCENTAGE_4 = 50;\n    uint256 public constant PRIVATESALE_PERCENTAGE_5 = 100;\n\n    uint256 public constant PRESALE_PERCENTAGE_1 = 10;\n    uint256 public constant PRESALE_PERCENTAGE_2 = 15;\n    uint256 public constant PRESALE_PERCENTAGE_3 = 20;\n    uint256 public constant PRESALE_PERCENTAGE_4 = 25;\n    uint256 public constant PRESALE_PERCENTAGE_5 = 35;\n\n    uint256 public constant ICO_PERCENTAGE_1 = 5;\n    uint256 public constant ICO_PERCENTAGE_2 = 10;\n    uint256 public constant ICO_PERCENTAGE_3 = 15;\n    uint256 public constant ICO_PERCENTAGE_4 = 20;\n    uint256 public constant ICO_PERCENTAGE_5 = 25;\n\n    // Bonus levels in wei for each respective level\n    uint256 public constant PRIVATESALE_LEVEL_1 = 2400000000000000000;\n    uint256 public constant PRIVATESALE_LEVEL_2 = 5000000000000000000;\n    uint256 public constant PRIVATESALE_LEVEL_3 = 8100000000000000000;\n    uint256 public constant PRIVATESALE_LEVEL_4 = 12000000000000000000;\n    uint256 public constant PRIVATESALE_LEVEL_5 = 20000000000000000000;\n\n    uint256 public constant PRESALE_LEVEL_1 = 3000000000000000000;\n    uint256 public constant PRESALE_LEVEL_2 = 6000000000000000000;\n    uint256 public constant PRESALE_LEVEL_3 = 9000000000000000000;\n    uint256 public constant PRESALE_LEVEL_4 = 12000000000000000000;\n    uint256 public constant PRESALE_LEVEL_5 = 15000000000000000000;\n\n    uint256 public constant ICO_LEVEL_1 = 4000000000000000000;\n    uint256 public constant ICO_LEVEL_2 = 8000000000000000000;\n    uint256 public constant ICO_LEVEL_3 = 12000000000000000000;\n    uint256 public constant ICO_LEVEL_4 = 16000000000000000000;\n    uint256 public constant ICO_LEVEL_5 = 20000000000000000000;\n\n    // Caps for the respective sales, the amount of tokens allocated to the team and the total cap\n    uint256 public constant PRIVATESALE_TOKENCAP = 22750000;\n    uint256 public constant PRESALE_TOKENCAP = 18750000;\n    uint256 public constant ICO_TOKENCAP = 22500000;\n    uint256 public constant FIRSTSALE_TOKENCAP = 1000000;\n    uint256 public constant LEDTEAM_TOKENS = 35000000;\n    uint256 public constant TOTAL_TOKENCAP = 100000000;\n\n    address public constant LED_MULTISIG = 0x9c0e9941a4c554f6e1aa1930268a7c992e3c8602;\n}",
  "sourcePath": "/Users/julesdesmit/Desktop/workspace/terawatt/tokensale_contracts/contracts/TokenInfo.sol",
  "compiler": {
    "name": "solc",
    "version": "0.4.23+commit.124ca40d.Emscripten.clang"
  },
  "schemaVersion": "2.0.0",
  "updatedAt": "2018-05-25T15:25:48.425Z"
}