{
  "contractName": "TokenInfo",
  "abi": [
    {
      "constant": true,
      "inputs": [],
      "name": "PRESALE_LEVEL_4",
      "outputs": [
        {
          "name": "",
          "type": "uint256"
        }
      ],
      "payable": false,
      "stateMutability": "view",
      "type": "function"
    },
    {
      "constant": true,
      "inputs": [],
      "name": "ICO_LEVEL_4",
      "outputs": [
        {
          "name": "",
          "type": "uint256"
        }
      ],
      "payable": false,
      "stateMutability": "view",
      "type": "function"
    },
    {
      "constant": true,
      "inputs": [],
      "name": "PRIVATESALE_LEVEL_1",
      "outputs": [
        {
          "name": "",
          "type": "uint256"
        }
      ],
      "payable": false,
      "stateMutability": "view",
      "type": "function"
    },
    {
      "constant": true,
      "inputs": [],
      "name": "PRIVATESALE_LEVEL_3",
      "outputs": [
        {
          "name": "",
          "type": "uint256"
        }
      ],
      "payable": false,
      "stateMutability": "view",
      "type": "function"
    },
    {
      "constant": true,
      "inputs": [],
      "name": "PRESALE_PERCENTAGE_4",
      "outputs": [
        {
          "name": "",
          "type": "uint256"
        }
      ],
      "payable": false,
      "stateMutability": "view",
      "type": "function"
    },
    {
      "constant": true,
      "inputs": [],
      "name": "PRIVATESALE_BASE_PRICE_IN_WEI",
      "outputs": [
        {
          "name": "",
          "type": "uint256"
        }
      ],
      "payable": false,
      "stateMutability": "view",
      "type": "function"
    },
    {
      "constant": true,
      "inputs": [],
      "name": "ICO_PERCENTAGE_3",
      "outputs": [
        {
          "name": "",
          "type": "uint256"
        }
      ],
      "payable": false,
      "stateMutability": "view",
      "type": "function"
    },
    {
      "constant": true,
      "inputs": [],
      "name": "PRESALE_LEVEL_5",
      "outputs": [
        {
          "name": "",
          "type": "uint256"
        }
      ],
      "payable": false,
      "stateMutability": "view",
      "type": "function"
    },
    {
      "constant": true,
      "inputs": [],
      "name": "ICO_LEVEL_3",
      "outputs": [
        {
          "name": "",
          "type": "uint256"
        }
      ],
      "payable": false,
      "stateMutability": "view",
      "type": "function"
    },
    {
      "constant": true,
      "inputs": [],
      "name": "PRESALE_PERCENTAGE_2",
      "outputs": [
        {
          "name": "",
          "type": "uint256"
        }
      ],
      "payable": false,
      "stateMutability": "view",
      "type": "function"
    },
    {
      "constant": true,
      "inputs": [],
      "name": "PRESALE_PERCENTAGE_3",
      "outputs": [
        {
          "name": "",
          "type": "uint256"
        }
      ],
      "payable": false,
      "stateMutability": "view",
      "type": "function"
    },
    {
      "constant": true,
      "inputs": [],
      "name": "ICO_PERCENTAGE_2",
      "outputs": [
        {
          "name": "",
          "type": "uint256"
        }
      ],
      "payable": false,
      "stateMutability": "view",
      "type": "function"
    },
    {
      "constant": true,
      "inputs": [],
      "name": "MAX_PURCHASE",
      "outputs": [
        {
          "name": "",
          "type": "uint256"
        }
      ],
      "payable": false,
      "stateMutability": "view",
      "type": "function"
    },
    {
      "constant": true,
      "inputs": [],
      "name": "PRESALE_LEVEL_2",
      "outputs": [
        {
          "name": "",
          "type": "uint256"
        }
      ],
      "payable": false,
      "stateMutability": "view",
      "type": "function"
    },
    {
      "constant": true,
      "inputs": [],
      "name": "PRESALE_LEVEL_3",
      "outputs": [
        {
          "name": "",
          "type": "uint256"
        }
      ],
      "payable": false,
      "stateMutability": "view",
      "type": "function"
    },
    {
      "constant": true,
      "inputs": [],
      "name": "LEDTEAM_TOKENS",
      "outputs": [
        {
          "name": "",
          "type": "uint256"
        }
      ],
      "payable": false,
      "stateMutability": "view",
      "type": "function"
    },
    {
      "constant": true,
      "inputs": [],
      "name": "PRESALE_PERCENTAGE_5",
      "outputs": [
        {
          "name": "",
          "type": "uint256"
        }
      ],
      "payable": false,
      "stateMutability": "view",
      "type": "function"
    },
    {
      "constant": true,
      "inputs": [],
      "name": "PRIVATESALE_PERCENTAGE_5",
      "outputs": [
        {
          "name": "",
          "type": "uint256"
        }
      ],
      "payable": false,
      "stateMutability": "view",
      "type": "function"
    },
    {
      "constant": true,
      "inputs": [],
      "name": "ICO_PERCENTAGE_5",
      "outputs": [
        {
          "name": "",
          "type": "uint256"
        }
      ],
      "payable": false,
      "stateMutability": "view",
      "type": "function"
    },
    {
      "constant": true,
      "inputs": [],
      "name": "ICO_TOKENCAP",
      "outputs": [
        {
          "name": "",
          "type": "uint256"
        }
      ],
      "payable": false,
      "stateMutability": "view",
      "type": "function"
    },
    {
      "constant": true,
      "inputs": [],
      "name": "PRESALE_BASE_PRICE_IN_WEI",
      "outputs": [
        {
          "name": "",
          "type": "uint256"
        }
      ],
      "payable": false,
      "stateMutability": "view",
      "type": "function"
    },
    {
      "constant": true,
      "inputs": [],
      "name": "PRIVATESALE_PERCENTAGE_1",
      "outputs": [
        {
          "name": "",
          "type": "uint256"
        }
      ],
      "payable": false,
      "stateMutability": "view",
      "type": "function"
    },
    {
      "constant": true,
      "inputs": [],
      "name": "FIRSTSALE_TOKENCAP",
      "outputs": [
        {
          "name": "",
          "type": "uint256"
        }
      ],
      "payable": false,
      "stateMutability": "view",
      "type": "function"
    },
    {
      "constant": true,
      "inputs": [],
      "name": "PRIVATESALE_PERCENTAGE_2",
      "outputs": [
        {
          "name": "",
          "type": "uint256"
        }
      ],
      "payable": false,
      "stateMutability": "view",
      "type": "function"
    },
    {
      "constant": true,
      "inputs": [],
      "name": "PRIVATESALE_LEVEL_2",
      "outputs": [
        {
          "name": "",
          "type": "uint256"
        }
      ],
      "payable": false,
      "stateMutability": "view",
      "type": "function"
    },
    {
      "constant": true,
      "inputs": [],
      "name": "LED_MULTISIG",
      "outputs": [
        {
          "name": "",
          "type": "address"
        }
      ],
      "payable": false,
      "stateMutability": "view",
      "type": "function"
    },
    {
      "constant": true,
      "inputs": [],
      "name": "PRESALE_PERCENTAGE_1",
      "outputs": [
        {
          "name": "",
          "type": "uint256"
        }
      ],
      "payable": false,
      "stateMutability": "view",
      "type": "function"
    },
    {
      "constant": true,
      "inputs": [],
      "name": "TOTAL_TOKENCAP",
      "outputs": [
        {
          "name": "",
          "type": "uint256"
        }
      ],
      "payable": false,
      "stateMutability": "view",
      "type": "function"
    },
    {
      "constant": true,
      "inputs": [],
      "name": "FIRSTSALE_BASE_PRICE_IN_WEI",
      "outputs": [
        {
          "name": "",
          "type": "uint256"
        }
      ],
      "payable": false,
      "stateMutability": "view",
      "type": "function"
    },
    {
      "constant": true,
      "inputs": [],
      "name": "ICO_LEVEL_5",
      "outputs": [
        {
          "name": "",
          "type": "uint256"
        }
      ],
      "payable": false,
      "stateMutability": "view",
      "type": "function"
    },
    {
      "constant": true,
      "inputs": [],
      "name": "PRIVATESALE_LEVEL_4",
      "outputs": [
        {
          "name": "",
          "type": "uint256"
        }
      ],
      "payable": false,
      "stateMutability": "view",
      "type": "function"
    },
    {
      "constant": true,
      "inputs": [],
      "name": "ICO_LEVEL_1",
      "outputs": [
        {
          "name": "",
          "type": "uint256"
        }
      ],
      "payable": false,
      "stateMutability": "view",
      "type": "function"
    },
    {
      "constant": true,
      "inputs": [],
      "name": "ICO_BASE_PRICE_IN_WEI",
      "outputs": [
        {
          "name": "",
          "type": "uint256"
        }
      ],
      "payable": false,
      "stateMutability": "view",
      "type": "function"
    },
    {
      "constant": true,
      "inputs": [],
      "name": "ICO_PERCENTAGE_1",
      "outputs": [
        {
          "name": "",
          "type": "uint256"
        }
      ],
      "payable": false,
      "stateMutability": "view",
      "type": "function"
    },
    {
      "constant": true,
      "inputs": [],
      "name": "MIN_PURCHASE",
      "outputs": [
        {
          "name": "",
          "type": "uint256"
        }
      ],
      "payable": false,
      "stateMutability": "view",
      "type": "function"
    },
    {
      "constant": true,
      "inputs": [],
      "name": "ICO_PERCENTAGE_4",
      "outputs": [
        {
          "name": "",
          "type": "uint256"
        }
      ],
      "payable": false,
      "stateMutability": "view",
      "type": "function"
    },
    {
      "constant": true,
      "inputs": [],
      "name": "ICO_LEVEL_2",
      "outputs": [
        {
          "name": "",
          "type": "uint256"
        }
      ],
      "payable": false,
      "stateMutability": "view",
      "type": "function"
    },
    {
      "constant": true,
      "inputs": [],
      "name": "PRESALE_TOKENCAP",
      "outputs": [
        {
          "name": "",
          "type": "uint256"
        }
      ],
      "payable": false,
      "stateMutability": "view",
      "type": "function"
    },
    {
      "constant": true,
      "inputs": [],
      "name": "PRIVATESALE_PERCENTAGE_3",
      "outputs": [
        {
          "name": "",
          "type": "uint256"
        }
      ],
      "payable": false,
      "stateMutability": "view",
      "type": "function"
    },
    {
      "constant": true,
      "inputs": [],
      "name": "PRESALE_LEVEL_1",
      "outputs": [
        {
          "name": "",
          "type": "uint256"
        }
      ],
      "payable": false,
      "stateMutability": "view",
      "type": "function"
    },
    {
      "constant": true,
      "inputs": [],
      "name": "PRIVATESALE_LEVEL_5",
      "outputs": [
        {
          "name": "",
          "type": "uint256"
        }
      ],
      "payable": false,
      "stateMutability": "view",
      "type": "function"
    },
    {
      "constant": true,
      "inputs": [],
      "name": "PRIVATESALE_PERCENTAGE_4",
      "outputs": [
        {
          "name": "",
          "type": "uint256"
        }
      ],
      "payable": false,
      "stateMutability": "view",
      "type": "function"
    },
    {
      "constant": true,
      "inputs": [],
      "name": "PRIVATESALE_TOKENCAP",
      "outputs": [
        {
          "name": "",
          "type": "uint256"
        }
      ],
      "payable": false,
      "stateMutability": "view",
      "type": "function"
    }
  ],
  "bytecode": "0x608060405234801561001057600080fd5b50610654806100206000396000f30060806040526004361061020e5763ffffffff7c010000000000000000000000000000000000000000000000000000000060003504166302c6f427811461021357806304df48ef1461023a578063118e09c81461024f57806317a4a8a31461026457806317f6252f146102795780631a11415e1461028e578063217477f6146102a357806345078531146102b857806356dcd2fa146102135780635e48f58f146102a357806361ad487c146102cd57806369b8f38d146102e25780637146bd08146102f7578063733b679e1461030c5780637530b54d1461032157806387c5d1be1461033657806394c0f3e21461034b5780639745272a14610360578063975c95da14610279578063978d6cff1461037557806397e1d68d1461038a5780639957b8da146102cd57806399abd7881461039f578063a0f68eba14610279578063a28a0ac2146103b4578063a69ade72146103c9578063aa487f49146102e2578063ac20e2a014610407578063b0a0662a1461041c578063b1fc0792146102f7578063b77dfb5914610213578063c4b71cec14610431578063cb4de96814610446578063ce72a6961461045b578063d439390c14610470578063e08155dd146102cd578063e08d849714610485578063e73c032b1461049a578063e7a50a9d1461034b578063e9e55c71146104af578063edca1392146102f7578063ef7533cf146104c4578063f0004ab4146104d9575b600080fd5b34801561021f57600080fd5b506102286104ee565b60408051918252519081900360200190f35b34801561024657600080fd5b506102286104fb565b34801561025b57600080fd5b50610228610508565b34801561027057600080fd5b50610228610514565b34801561028557600080fd5b50610228610520565b34801561029a57600080fd5b50610228610525565b3480156102af57600080fd5b50610228610530565b3480156102c457600080fd5b50610228610535565b3480156102d957600080fd5b50610228610542565b3480156102ee57600080fd5b50610228610547565b34801561030357600080fd5b5061022861054c565b34801561031857600080fd5b50610228610559565b34801561032d57600080fd5b50610228610565565b34801561034257600080fd5b50610228610571565b34801561035757600080fd5b50610228610579565b34801561036c57600080fd5b5061022861057e565b34801561038157600080fd5b50610228610583565b34801561039657600080fd5b5061022861058b565b3480156103ab57600080fd5b50610228610596565b3480156103c057600080fd5b5061022861059d565b3480156103d557600080fd5b506103de6105a9565b6040805173ffffffffffffffffffffffffffffffffffffffff9092168252519081900360200190f35b34801561041357600080fd5b506102286105c1565b34801561042857600080fd5b506102286105c9565b34801561043d57600080fd5b506102286105d3565b34801561045257600080fd5b506102286105df565b34801561046757600080fd5b506102286105ea565b34801561047c57600080fd5b506102286105ef565b34801561049157600080fd5b506102286105fb565b3480156104a657600080fd5b50610228610607565b3480156104bb57600080fd5b5061022861060f565b3480156104d057600080fd5b5061022861061b565b3480156104e557600080fd5b50610228610620565b6801158e460913d0000081565b68017213080c1a6aaaaa81565b673782dace9d90000081565b67bb59a27953c6000081565b601981565b66012f2a36b9f88081565b600f81565b68015af1d78b58c4000081565b601481565b600a81565b6801ce97ca0f2105555581565b678ac7230489e8000081565b67d02ab486cedc000081565b6302160ec081565b602381565b606481565b63015752a081565b6601c6bf5263400081565b621e848081565b6773a5f283c841555581565b73ade96deda9ec81af99f8472b882708d85dc1651481565b6305f5e10081565b6597951b10b10081565b675c84c203069aaaaa81565b66025e546d73f10081565b600581565b6717213080c1a6aaaa81565b67b90984060d35555581565b63011e1a3081565b674563918244f4000081565b603281565b63014be0f0815600a165627a7a7230582041c921fa847eb505d196372f6ed2054cf891cc7f29b13a79a4220adcc64c57560029",
  "source": "pragma solidity ^0.4.24;\n\ncontract TokenInfo {\n    // Base prices in wei, going off from an Ether value of $600\n    uint256 public constant PRIVATESALE_BASE_PRICE_IN_WEI = 333333330000000;\n    uint256 public constant PRESALE_BASE_PRICE_IN_WEI = 500000000000000;\n    uint256 public constant ICO_BASE_PRICE_IN_WEI = 666666660000000;\n    uint256 public constant FIRSTSALE_BASE_PRICE_IN_WEI = 166666660000000;\n\n    // First sale minimum and maximum contribution, going off from an Ether value of $600\n    uint256 public constant MIN_PURCHASE = 1666666666666666666;\n    uint256 public constant MAX_PURCHASE = 33333333333333333333;\n\n    // Bonus percentages for each respective sale level\n    uint256 public constant PRIVATESALE_PERCENTAGE_1 = 20;\n    uint256 public constant PRIVATESALE_PERCENTAGE_2 = 25;\n    uint256 public constant PRIVATESALE_PERCENTAGE_3 = 35;\n    uint256 public constant PRIVATESALE_PERCENTAGE_4 = 50;\n    uint256 public constant PRIVATESALE_PERCENTAGE_5 = 100;\n\n    uint256 public constant PRESALE_PERCENTAGE_1 = 10;\n    uint256 public constant PRESALE_PERCENTAGE_2 = 15;\n    uint256 public constant PRESALE_PERCENTAGE_3 = 20;\n    uint256 public constant PRESALE_PERCENTAGE_4 = 25;\n    uint256 public constant PRESALE_PERCENTAGE_5 = 35;\n\n    uint256 public constant ICO_PERCENTAGE_1 = 5;\n    uint256 public constant ICO_PERCENTAGE_2 = 10;\n    uint256 public constant ICO_PERCENTAGE_3 = 15;\n    uint256 public constant ICO_PERCENTAGE_4 = 20;\n    uint256 public constant ICO_PERCENTAGE_5 = 25;\n\n    // Bonus levels in wei for each respective level\n    uint256 public constant PRIVATESALE_LEVEL_1 = 4000000000000000000;\n    uint256 public constant PRIVATESALE_LEVEL_2 = 8333333333333333333;\n    uint256 public constant PRIVATESALE_LEVEL_3 = 13500000000000000000;\n    uint256 public constant PRIVATESALE_LEVEL_4 = 20000000000000000000;\n    uint256 public constant PRIVATESALE_LEVEL_5 = 33333333333333333333;\n\n    uint256 public constant PRESALE_LEVEL_1 = 5000000000000000000;\n    uint256 public constant PRESALE_LEVEL_2 = 10000000000000000000;\n    uint256 public constant PRESALE_LEVEL_3 = 15000000000000000000;\n    uint256 public constant PRESALE_LEVEL_4 = 20000000000000000000;\n    uint256 public constant PRESALE_LEVEL_5 = 25000000000000000000;\n\n    uint256 public constant ICO_LEVEL_1 = 6666666666666666666;\n    uint256 public constant ICO_LEVEL_2 = 13333333333333333333;\n    uint256 public constant ICO_LEVEL_3 = 20000000000000000000;\n    uint256 public constant ICO_LEVEL_4 = 26666666666666666666;\n    uint256 public constant ICO_LEVEL_5 = 33333333333333333333;\n\n    // Caps for the respective sales, the amount of tokens allocated to the team and the total cap\n    uint256 public constant PRIVATESALE_TOKENCAP = 21750000;\n    uint256 public constant PRESALE_TOKENCAP = 18750000;\n    uint256 public constant ICO_TOKENCAP = 22500000;\n    uint256 public constant FIRSTSALE_TOKENCAP = 2000000;\n    uint256 public constant LEDTEAM_TOKENS = 35000000;\n    uint256 public constant TOTAL_TOKENCAP = 100000000;\n\n    address public constant LED_MULTISIG = 0xADe96dEDa9EC81aF99F8472b882708d85dc16514;\n}",
  "sourcePath": "/Users/jeromeraymond/tokensale_contracts/contracts/TokenInfo.sol",
  "compiler": {
    "name": "solc",
    "version": "0.4.24+commit.e67f0147.Emscripten.clang"
  },
  "schemaVersion": "2.0.0",
  "updatedAt": "2018-06-14T13:47:14.191Z"
}