{
  "contractName": "TokenSale",
  "abi": [
    {
      "constant": true,
      "inputs": [],
      "name": "allocatedTokens",
      "outputs": [
        {
          "name": "",
          "type": "uint256"
        }
      ],
      "payable": false,
      "stateMutability": "view",
      "type": "function"
    },
    {
      "constant": true,
      "inputs": [],
      "name": "PRESALE_LEVEL_4",
      "outputs": [
        {
          "name": "",
          "type": "uint256"
        }
      ],
      "payable": false,
      "stateMutability": "view",
      "type": "function"
    },
    {
      "constant": true,
      "inputs": [],
      "name": "ICO_LEVEL_4",
      "outputs": [
        {
          "name": "",
          "type": "uint256"
        }
      ],
      "payable": false,
      "stateMutability": "view",
      "type": "function"
    },
    {
      "constant": true,
      "inputs": [],
      "name": "PRIVATESALE_LEVEL_1",
      "outputs": [
        {
          "name": "",
          "type": "uint256"
        }
      ],
      "payable": false,
      "stateMutability": "view",
      "type": "function"
    },
    {
      "constant": true,
      "inputs": [],
      "name": "PRIVATESALE_LEVEL_3",
      "outputs": [
        {
          "name": "",
          "type": "uint256"
        }
      ],
      "payable": false,
      "stateMutability": "view",
      "type": "function"
    },
    {
      "constant": true,
      "inputs": [],
      "name": "PRESALE_PERCENTAGE_4",
      "outputs": [
        {
          "name": "",
          "type": "uint256"
        }
      ],
      "payable": false,
      "stateMutability": "view",
      "type": "function"
    },
    {
      "constant": true,
      "inputs": [],
      "name": "PRIVATESALE_BASE_PRICE_IN_WEI",
      "outputs": [
        {
          "name": "",
          "type": "uint256"
        }
      ],
      "payable": false,
      "stateMutability": "view",
      "type": "function"
    },
    {
      "constant": true,
      "inputs": [],
      "name": "ledTokensAllocated",
      "outputs": [
        {
          "name": "",
          "type": "bool"
        }
      ],
      "payable": false,
      "stateMutability": "view",
      "type": "function"
    },
    {
      "constant": true,
      "inputs": [],
      "name": "started",
      "outputs": [
        {
          "name": "",
          "type": "bool"
        }
      ],
      "payable": false,
      "stateMutability": "view",
      "type": "function"
    },
    {
      "constant": true,
      "inputs": [],
      "name": "ICO_PERCENTAGE_3",
      "outputs": [
        {
          "name": "",
          "type": "uint256"
        }
      ],
      "payable": false,
      "stateMutability": "view",
      "type": "function"
    },
    {
      "constant": true,
      "inputs": [],
      "name": "surplusTokens",
      "outputs": [
        {
          "name": "",
          "type": "uint256"
        }
      ],
      "payable": false,
      "stateMutability": "view",
      "type": "function"
    },
    {
      "constant": true,
      "inputs": [],
      "name": "ledToken",
      "outputs": [
        {
          "name": "",
          "type": "address"
        }
      ],
      "payable": false,
      "stateMutability": "view",
      "type": "function"
    },
    {
      "constant": true,
      "inputs": [],
      "name": "endTime",
      "outputs": [
        {
          "name": "",
          "type": "uint256"
        }
      ],
      "payable": false,
      "stateMutability": "view",
      "type": "function"
    },
    {
      "constant": true,
      "inputs": [],
      "name": "cap",
      "outputs": [
        {
          "name": "",
          "type": "uint256"
        }
      ],
      "payable": false,
      "stateMutability": "view",
      "type": "function"
    },
    {
      "constant": false,
      "inputs": [],
      "name": "unpause",
      "outputs": [
        {
          "name": "",
          "type": "bool"
        }
      ],
      "payable": false,
      "stateMutability": "nonpayable",
      "type": "function"
    },
    {
      "constant": true,
      "inputs": [],
      "name": "PRESALE_LEVEL_5",
      "outputs": [
        {
          "name": "",
          "type": "uint256"
        }
      ],
      "payable": false,
      "stateMutability": "view",
      "type": "function"
    },
    {
      "constant": true,
      "inputs": [],
      "name": "totalWeiRaised",
      "outputs": [
        {
          "name": "",
          "type": "uint256"
        }
      ],
      "payable": false,
      "stateMutability": "view",
      "type": "function"
    },
    {
      "constant": true,
      "inputs": [],
      "name": "ICO_LEVEL_3",
      "outputs": [
        {
          "name": "",
          "type": "uint256"
        }
      ],
      "payable": false,
      "stateMutability": "view",
      "type": "function"
    },
    {
      "constant": true,
      "inputs": [],
      "name": "paused",
      "outputs": [
        {
          "name": "",
          "type": "bool"
        }
      ],
      "payable": false,
      "stateMutability": "view",
      "type": "function"
    },
    {
      "constant": true,
      "inputs": [],
      "name": "PRESALE_PERCENTAGE_2",
      "outputs": [
        {
          "name": "",
          "type": "uint256"
        }
      ],
      "payable": false,
      "stateMutability": "view",
      "type": "function"
    },
    {
      "constant": true,
      "inputs": [],
      "name": "PRESALE_PERCENTAGE_3",
      "outputs": [
        {
          "name": "",
          "type": "uint256"
        }
      ],
      "payable": false,
      "stateMutability": "view",
      "type": "function"
    },
    {
      "constant": true,
      "inputs": [],
      "name": "ICO_PERCENTAGE_2",
      "outputs": [
        {
          "name": "",
          "type": "uint256"
        }
      ],
      "payable": false,
      "stateMutability": "view",
      "type": "function"
    },
    {
      "constant": true,
      "inputs": [],
      "name": "tokensMinted",
      "outputs": [
        {
          "name": "",
          "type": "uint256"
        }
      ],
      "payable": false,
      "stateMutability": "view",
      "type": "function"
    },
    {
      "constant": true,
      "inputs": [],
      "name": "contributors",
      "outputs": [
        {
          "name": "",
          "type": "uint256"
        }
      ],
      "payable": false,
      "stateMutability": "view",
      "type": "function"
    },
    {
      "constant": true,
      "inputs": [],
      "name": "PRESALE_LEVEL_2",
      "outputs": [
        {
          "name": "",
          "type": "uint256"
        }
      ],
      "payable": false,
      "stateMutability": "view",
      "type": "function"
    },
    {
      "constant": true,
      "inputs": [],
      "name": "PRESALE_LEVEL_3",
      "outputs": [
        {
          "name": "",
          "type": "uint256"
        }
      ],
      "payable": false,
      "stateMutability": "view",
      "type": "function"
    },
    {
      "constant": true,
      "inputs": [],
      "name": "startTime",
      "outputs": [
        {
          "name": "",
          "type": "uint256"
        }
      ],
      "payable": false,
      "stateMutability": "view",
      "type": "function"
    },
    {
      "constant": false,
      "inputs": [],
      "name": "pause",
      "outputs": [
        {
          "name": "",
          "type": "bool"
        }
      ],
      "payable": false,
      "stateMutability": "nonpayable",
      "type": "function"
    },
    {
      "constant": true,
      "inputs": [],
      "name": "weiCap",
      "outputs": [
        {
          "name": "",
          "type": "uint256"
        }
      ],
      "payable": false,
      "stateMutability": "view",
      "type": "function"
    },
    {
      "constant": true,
      "inputs": [],
      "name": "LEDTEAM_TOKENS",
      "outputs": [
        {
          "name": "",
          "type": "uint256"
        }
      ],
      "payable": false,
      "stateMutability": "view",
      "type": "function"
    },
    {
      "constant": true,
      "inputs": [],
      "name": "owner",
      "outputs": [
        {
          "name": "",
          "type": "address"
        }
      ],
      "payable": false,
      "stateMutability": "view",
      "type": "function"
    },
    {
      "constant": true,
      "inputs": [],
      "name": "PRESALE_PERCENTAGE_5",
      "outputs": [
        {
          "name": "",
          "type": "uint256"
        }
      ],
      "payable": false,
      "stateMutability": "view",
      "type": "function"
    },
    {
      "constant": true,
      "inputs": [],
      "name": "PRIVATESALE_PERCENTAGE_5",
      "outputs": [
        {
          "name": "",
          "type": "uint256"
        }
      ],
      "payable": false,
      "stateMutability": "view",
      "type": "function"
    },
    {
      "constant": true,
      "inputs": [],
      "name": "ICO_PERCENTAGE_5",
      "outputs": [
        {
          "name": "",
          "type": "uint256"
        }
      ],
      "payable": false,
      "stateMutability": "view",
      "type": "function"
    },
    {
      "constant": true,
      "inputs": [],
      "name": "ICO_TOKENCAP",
      "outputs": [
        {
          "name": "",
          "type": "uint256"
        }
      ],
      "payable": false,
      "stateMutability": "view",
      "type": "function"
    },
    {
      "constant": true,
      "inputs": [],
      "name": "PRESALE_BASE_PRICE_IN_WEI",
      "outputs": [
        {
          "name": "",
          "type": "uint256"
        }
      ],
      "payable": false,
      "stateMutability": "view",
      "type": "function"
    },
    {
      "constant": true,
      "inputs": [],
      "name": "PRIVATESALE_PERCENTAGE_1",
      "outputs": [
        {
          "name": "",
          "type": "uint256"
        }
      ],
      "payable": false,
      "stateMutability": "view",
      "type": "function"
    },
    {
      "constant": true,
      "inputs": [],
      "name": "PRIVATESALE_PERCENTAGE_2",
      "outputs": [
        {
          "name": "",
          "type": "uint256"
        }
      ],
      "payable": false,
      "stateMutability": "view",
      "type": "function"
    },
    {
      "constant": true,
      "inputs": [],
      "name": "PRIVATESALE_LEVEL_2",
      "outputs": [
        {
          "name": "",
          "type": "uint256"
        }
      ],
      "payable": false,
      "stateMutability": "view",
      "type": "function"
    },
    {
      "constant": true,
      "inputs": [],
      "name": "LED_MULTISIG",
      "outputs": [
        {
          "name": "",
          "type": "address"
        }
      ],
      "payable": false,
      "stateMutability": "view",
      "type": "function"
    },
    {
      "constant": true,
      "inputs": [],
      "name": "PRESALE_PERCENTAGE_1",
      "outputs": [
        {
          "name": "",
          "type": "uint256"
        }
      ],
      "payable": false,
      "stateMutability": "view",
      "type": "function"
    },
    {
      "constant": true,
      "inputs": [],
      "name": "TOTAL_TOKENCAP",
      "outputs": [
        {
          "name": "",
          "type": "uint256"
        }
      ],
      "payable": false,
      "stateMutability": "view",
      "type": "function"
    },
    {
      "constant": true,
      "inputs": [],
      "name": "ledMultiSig",
      "outputs": [
        {
          "name": "",
          "type": "address"
        }
      ],
      "payable": false,
      "stateMutability": "view",
      "type": "function"
    },
    {
      "constant": true,
      "inputs": [],
      "name": "ICO_LEVEL_5",
      "outputs": [
        {
          "name": "",
          "type": "uint256"
        }
      ],
      "payable": false,
      "stateMutability": "view",
      "type": "function"
    },
    {
      "constant": true,
      "inputs": [],
      "name": "finalized",
      "outputs": [
        {
          "name": "",
          "type": "bool"
        }
      ],
      "payable": false,
      "stateMutability": "view",
      "type": "function"
    },
    {
      "constant": true,
      "inputs": [],
      "name": "PRIVATESALE_LEVEL_4",
      "outputs": [
        {
          "name": "",
          "type": "uint256"
        }
      ],
      "payable": false,
      "stateMutability": "view",
      "type": "function"
    },
    {
      "constant": true,
      "inputs": [],
      "name": "decimalsMultiplier",
      "outputs": [
        {
          "name": "",
          "type": "uint256"
        }
      ],
      "payable": false,
      "stateMutability": "view",
      "type": "function"
    },
    {
      "constant": true,
      "inputs": [],
      "name": "ICO_LEVEL_1",
      "outputs": [
        {
          "name": "",
          "type": "uint256"
        }
      ],
      "payable": false,
      "stateMutability": "view",
      "type": "function"
    },
    {
      "constant": true,
      "inputs": [],
      "name": "ICO_BASE_PRICE_IN_WEI",
      "outputs": [
        {
          "name": "",
          "type": "uint256"
        }
      ],
      "payable": false,
      "stateMutability": "view",
      "type": "function"
    },
    {
      "constant": true,
      "inputs": [],
      "name": "ICO_PERCENTAGE_1",
      "outputs": [
        {
          "name": "",
          "type": "uint256"
        }
      ],
      "payable": false,
      "stateMutability": "view",
      "type": "function"
    },
    {
      "constant": true,
      "inputs": [
        {
          "name": "",
          "type": "address"
        }
      ],
      "name": "whitelisted",
      "outputs": [
        {
          "name": "",
          "type": "bool"
        }
      ],
      "payable": false,
      "stateMutability": "view",
      "type": "function"
    },
    {
      "constant": true,
      "inputs": [],
      "name": "tokenCap",
      "outputs": [
        {
          "name": "",
          "type": "uint256"
        }
      ],
      "payable": false,
      "stateMutability": "view",
      "type": "function"
    },
    {
      "constant": true,
      "inputs": [],
      "name": "ICO_PERCENTAGE_4",
      "outputs": [
        {
          "name": "",
          "type": "uint256"
        }
      ],
      "payable": false,
      "stateMutability": "view",
      "type": "function"
    },
    {
      "constant": true,
      "inputs": [],
      "name": "ICO_LEVEL_2",
      "outputs": [
        {
          "name": "",
          "type": "uint256"
        }
      ],
      "payable": false,
      "stateMutability": "view",
      "type": "function"
    },
    {
      "constant": true,
      "inputs": [],
      "name": "PRESALE_TOKENCAP",
      "outputs": [
        {
          "name": "",
          "type": "uint256"
        }
      ],
      "payable": false,
      "stateMutability": "view",
      "type": "function"
    },
    {
      "constant": true,
      "inputs": [],
      "name": "PRIVATESALE_PERCENTAGE_3",
      "outputs": [
        {
          "name": "",
          "type": "uint256"
        }
      ],
      "payable": false,
      "stateMutability": "view",
      "type": "function"
    },
    {
      "constant": true,
      "inputs": [],
      "name": "PRESALE_LEVEL_1",
      "outputs": [
        {
          "name": "",
          "type": "uint256"
        }
      ],
      "payable": false,
      "stateMutability": "view",
      "type": "function"
    },
    {
      "constant": true,
      "inputs": [],
      "name": "PRIVATESALE_LEVEL_5",
      "outputs": [
        {
          "name": "",
          "type": "uint256"
        }
      ],
      "payable": false,
      "stateMutability": "view",
      "type": "function"
    },
    {
      "constant": true,
      "inputs": [],
      "name": "PRIVATESALE_PERCENTAGE_4",
      "outputs": [
        {
          "name": "",
          "type": "uint256"
        }
      ],
      "payable": false,
      "stateMutability": "view",
      "type": "function"
    },
    {
      "constant": true,
      "inputs": [],
      "name": "PRIVATESALE_TOKENCAP",
      "outputs": [
        {
          "name": "",
          "type": "uint256"
        }
      ],
      "payable": false,
      "stateMutability": "view",
      "type": "function"
    },
    {
      "constant": false,
      "inputs": [
        {
          "name": "newOwner",
          "type": "address"
        }
      ],
      "name": "transferOwnership",
      "outputs": [],
      "payable": false,
      "stateMutability": "nonpayable",
      "type": "function"
    },
    {
      "inputs": [
        {
          "name": "_tokenAddress",
          "type": "address"
        },
        {
          "name": "_startTime",
          "type": "uint256"
        },
        {
          "name": "_endTime",
          "type": "uint256"
        }
      ],
      "payable": false,
      "stateMutability": "nonpayable",
      "type": "constructor"
    },
    {
      "payable": true,
      "stateMutability": "payable",
      "type": "fallback"
    },
    {
      "anonymous": false,
      "inputs": [
        {
          "indexed": true,
          "name": "purchaser",
          "type": "address"
        },
        {
          "indexed": true,
          "name": "beneficiary",
          "type": "address"
        },
        {
          "indexed": false,
          "name": "value",
          "type": "uint256"
        },
        {
          "indexed": false,
          "name": "amount",
          "type": "uint256"
        }
      ],
      "name": "TokenPurchase",
      "type": "event"
    },
    {
      "anonymous": false,
      "inputs": [
        {
          "indexed": true,
          "name": "_cloneToken",
          "type": "address"
        }
      ],
      "name": "NewClonedToken",
      "type": "event"
    },
    {
      "anonymous": false,
      "inputs": [
        {
          "indexed": false,
          "name": "_from",
          "type": "address"
        },
        {
          "indexed": false,
          "name": "_to",
          "type": "address"
        },
        {
          "indexed": false,
          "name": "_amount",
          "type": "uint256"
        }
      ],
      "name": "OnTransfer",
      "type": "event"
    },
    {
      "anonymous": false,
      "inputs": [
        {
          "indexed": false,
          "name": "_owner",
          "type": "address"
        },
        {
          "indexed": false,
          "name": "_spender",
          "type": "address"
        },
        {
          "indexed": false,
          "name": "_amount",
          "type": "uint256"
        }
      ],
      "name": "OnApprove",
      "type": "event"
    },
    {
      "anonymous": false,
      "inputs": [
        {
          "indexed": false,
          "name": "_name",
          "type": "string"
        },
        {
          "indexed": false,
          "name": "_value",
          "type": "uint256"
        }
      ],
      "name": "LogInt",
      "type": "event"
    },
    {
      "anonymous": false,
      "inputs": [],
      "name": "Finalized",
      "type": "event"
    },
    {
      "anonymous": false,
      "inputs": [],
      "name": "Pause",
      "type": "event"
    },
    {
      "anonymous": false,
      "inputs": [],
      "name": "Unpause",
      "type": "event"
    },
    {
      "constant": false,
      "inputs": [
        {
          "name": "_beneficiary",
          "type": "address"
        }
      ],
      "name": "buyTokens",
      "outputs": [],
      "payable": true,
      "stateMutability": "payable",
      "type": "function"
    },
    {
      "constant": true,
      "inputs": [
        {
          "name": "_wei",
          "type": "uint256"
        }
      ],
      "name": "determineBonus",
      "outputs": [
        {
          "name": "",
          "type": "uint256"
        }
      ],
      "payable": false,
      "stateMutability": "view",
      "type": "function"
    },
    {
      "constant": false,
      "inputs": [
        {
          "name": "_sender",
          "type": "address"
        }
      ],
      "name": "whitelist",
      "outputs": [],
      "payable": false,
      "stateMutability": "nonpayable",
      "type": "function"
    },
    {
      "constant": true,
      "inputs": [],
      "name": "totalSupply",
      "outputs": [
        {
          "name": "",
          "type": "uint256"
        }
      ],
      "payable": false,
      "stateMutability": "view",
      "type": "function"
    },
    {
      "constant": true,
      "inputs": [
        {
          "name": "_owner",
          "type": "address"
        }
      ],
      "name": "balanceOf",
      "outputs": [
        {
          "name": "",
          "type": "uint256"
        }
      ],
      "payable": false,
      "stateMutability": "view",
      "type": "function"
    },
    {
      "constant": false,
      "inputs": [
        {
          "name": "_newController",
          "type": "address"
        }
      ],
      "name": "changeController",
      "outputs": [],
      "payable": false,
      "stateMutability": "nonpayable",
      "type": "function"
    },
    {
      "constant": false,
      "inputs": [],
      "name": "enableTransfers",
      "outputs": [],
      "payable": false,
      "stateMutability": "nonpayable",
      "type": "function"
    },
    {
      "constant": false,
      "inputs": [],
      "name": "lockTransfers",
      "outputs": [],
      "payable": false,
      "stateMutability": "nonpayable",
      "type": "function"
    },
    {
      "constant": false,
      "inputs": [],
      "name": "enableMasterTransfers",
      "outputs": [],
      "payable": false,
      "stateMutability": "nonpayable",
      "type": "function"
    },
    {
      "constant": false,
      "inputs": [],
      "name": "lockMasterTransfers",
      "outputs": [],
      "payable": false,
      "stateMutability": "nonpayable",
      "type": "function"
    },
    {
      "constant": false,
      "inputs": [],
      "name": "forceStart",
      "outputs": [],
      "payable": false,
      "stateMutability": "nonpayable",
      "type": "function"
    },
    {
      "constant": false,
      "inputs": [],
      "name": "allocateLedTokens",
      "outputs": [],
      "payable": false,
      "stateMutability": "nonpayable",
      "type": "function"
    },
    {
      "constant": false,
      "inputs": [],
      "name": "finalize",
      "outputs": [],
      "payable": false,
      "stateMutability": "nonpayable",
      "type": "function"
    },
    {
      "constant": true,
      "inputs": [],
      "name": "getInfo",
      "outputs": [
        {
          "name": "",
          "type": "uint256"
        },
        {
          "name": "",
          "type": "uint256"
        },
        {
          "name": "",
          "type": "string"
        },
        {
          "name": "",
          "type": "bool"
        },
        {
          "name": "",
          "type": "uint256"
        },
        {
          "name": "",
          "type": "uint256"
        },
        {
          "name": "",
          "type": "uint256"
        },
        {
          "name": "",
          "type": "bool"
        },
        {
          "name": "",
          "type": "uint256"
        },
        {
          "name": "",
          "type": "uint256"
        }
      ],
      "payable": false,
      "stateMutability": "view",
      "type": "function"
    },
    {
      "constant": true,
      "inputs": [],
      "name": "getInfoLevels",
      "outputs": [
        {
          "name": "",
          "type": "uint256"
        },
        {
          "name": "",
          "type": "uint256"
        },
        {
          "name": "",
          "type": "uint256"
        },
        {
          "name": "",
          "type": "uint256"
        },
        {
          "name": "",
          "type": "uint256"
        },
        {
          "name": "",
          "type": "uint256"
        },
        {
          "name": "",
          "type": "uint256"
        },
        {
          "name": "",
          "type": "uint256"
        },
        {
          "name": "",
          "type": "uint256"
        },
        {
          "name": "",
          "type": "uint256"
        }
      ],
      "payable": false,
      "stateMutability": "view",
      "type": "function"
    }
  ],
  "bytecode": "0x608060405260008060146101000a81548160ff021916908315150217905550739c0e9941a4c554f6e1aa1930268a7c992e3c8602600c60026101000a81548173ffffffffffffffffffffffffffffffffffffffff021916908373ffffffffffffffffffffffffffffffffffffffff16021790555063015752a0600d55670de0b6b3a7640000600d5402600e55660217c4de912621600d5402600f556000601060006101000a81548160ff0219169083151502179055503480156100c157600080fd5b5060405160608062002d72833981018060405281019080805190602001909291908051906020019092919080519060200190929190505050336000806101000a81548173ffffffffffffffffffffffffffffffffffffffff021916908373ffffffffffffffffffffffffffffffffffffffff16021790555060008373ffffffffffffffffffffffffffffffffffffffff161415151561015f57600080fd5b60008211151561016e57600080fd5b818111151561017c57600080fd5b816007819055508060088190555082600160006101000a81548173ffffffffffffffffffffffffffffffffffffffff021916908373ffffffffffffffffffffffffffffffffffffffff160217905550670de0b6b3a7640000600681905550505050612b8580620001ed6000396000f300608060405260043610610379576000357c0100000000000000000000000000000000000000000000000000000000900463ffffffff1680622f95691461038457806302c6f427146103af57806304df48ef146103da578063118e09c81461040557806317a4a8a31461043057806317f6252f1461045b57806318160ddd146104865780631a11415e146104b15780631c9b612e146104dc5780631f2698ab1461050b578063217477f61461053a57806324fad66514610565578063260edaaa1461057c5780632aa6f98b146105a75780632bb70e54146105fe5780633197cbb614610615578063355274ea146106405780633cebb8231461066b5780633f19bfbf146106ae5780633f4ba83a146106c557806345078531146106f45780634bb278f31461071f57806353f4db011461073657806356dcd2fa146107615780635a9b0b891461078c5780635c975abb146108635780635e48f58f1461089257806361ad487c146108bd57806369b8f38d146108e85780636d8d151b146109135780636de9f32b146109545780636e7e3b2b1461097f57806370a08231146109aa578063733b679e14610a015780637530b54d14610a2c57806378e9792514610a5757806382b74b8914610a825780638456cb5914610a9957806384fe502914610ac857806387c5d1be14610af35780638da5cb5b14610b1e57806394c0f3e214610b755780639745272a14610ba0578063975c95da14610bcb578063978d6cff14610bf657806397e1d68d14610c215780639957b8da14610c4c5780639b19251a14610c77578063a0f68eba14610cba578063a28a0ac214610ce5578063a69ade7214610d10578063aa487f4914610d67578063ac20e2a014610d92578063adefd50114610dbd578063af35c6c714610e14578063b1fc079214610e2b578063b3f05b9714610e56578063b5fe79db14610e85578063b77dfb5914610eef578063bb13245f14610f1a578063c4b71cec14610f45578063cb4de96814610f70578063ce72a69614610f9b578063d936547e14610fc6578063dd54291b14611021578063e08155dd1461104c578063e08d849714611077578063e73c032b146110a2578063e7a50a9d146110cd578063e9e55c71146110f8578063ec8ac4d814611123578063edca139214611159578063ef7533cf14611184578063f0004ab4146111af578063f2fde38b146111da578063ff85fba21461121d575b61038233611234565b005b34801561039057600080fd5b50610399611527565b6040518082815260200191505060405180910390f35b3480156103bb57600080fd5b506103c461152d565b6040518082815260200191505060405180910390f35b3480156103e657600080fd5b506103ef611539565b6040518082815260200191505060405180910390f35b34801561041157600080fd5b5061041a611545565b6040518082815260200191505060405180910390f35b34801561043c57600080fd5b50610445611551565b6040518082815260200191505060405180910390f35b34801561046757600080fd5b5061047061155d565b6040518082815260200191505060405180910390f35b34801561049257600080fd5b5061049b611562565b6040518082815260200191505060405180910390f35b3480156104bd57600080fd5b506104c661162a565b6040518082815260200191505060405180910390f35b3480156104e857600080fd5b506104f1611635565b604051808215151515815260200191505060405180910390f35b34801561051757600080fd5b50610520611648565b604051808215151515815260200191505060405180910390f35b34801561054657600080fd5b5061054f61165b565b6040518082815260200191505060405180910390f35b34801561057157600080fd5b5061057a611660565b005b34801561058857600080fd5b5061059161176b565b6040518082815260200191505060405180910390f35b3480156105b357600080fd5b506105bc611771565b604051808273ffffffffffffffffffffffffffffffffffffffff1673ffffffffffffffffffffffffffffffffffffffff16815260200191505060405180910390f35b34801561060a57600080fd5b50610613611797565b005b34801561062157600080fd5b5061062a6118a2565b6040518082815260200191505060405180910390f35b34801561064c57600080fd5b506106556118a8565b6040518082815260200191505060405180910390f35b34801561067757600080fd5b506106ac600480360381019080803573ffffffffffffffffffffffffffffffffffffffff1690602001909291905050506118ae565b005b3480156106ba57600080fd5b506106c361199a565b005b3480156106d157600080fd5b506106da611cc0565b604051808215151515815260200191505060405180910390f35b34801561070057600080fd5b50610709611d85565b6040518082815260200191505060405180910390f35b34801561072b57600080fd5b50610734611d91565b005b34801561074257600080fd5b5061074b611fdb565b6040518082815260200191505060405180910390f35b34801561076d57600080fd5b50610776611fe1565b6040518082815260200191505060405180910390f35b34801561079857600080fd5b506107a1611fed565b604051808b81526020018a815260200180602001891515151581526020018881526020018781526020018681526020018515151515815260200184815260200183815260200182810382528a818151815260200191508051906020019080838360005b8381101561081f578082015181840152602081019050610804565b50505050905090810190601f16801561084c5780820380516001836020036101000a031916815260200191505b509b50505050505050505050505060405180910390f35b34801561086f57600080fd5b5061087861214b565b604051808215151515815260200191505060405180910390f35b34801561089e57600080fd5b506108a761215e565b6040518082815260200191505060405180910390f35b3480156108c957600080fd5b506108d2612163565b6040518082815260200191505060405180910390f35b3480156108f457600080fd5b506108fd612168565b6040518082815260200191505060405180910390f35b34801561091f57600080fd5b5061093e6004803603810190808035906020019092919050505061216d565b6040518082815260200191505060405180910390f35b34801561096057600080fd5b506109696121f7565b6040518082815260200191505060405180910390f35b34801561098b57600080fd5b506109946121fd565b6040518082815260200191505060405180910390f35b3480156109b657600080fd5b506109eb600480360381019080803573ffffffffffffffffffffffffffffffffffffffff169060200190929190505050612203565b6040518082815260200191505060405180910390f35b348015610a0d57600080fd5b50610a16612304565b6040518082815260200191505060405180910390f35b348015610a3857600080fd5b50610a41612310565b6040518082815260200191505060405180910390f35b348015610a6357600080fd5b50610a6c61231c565b6040518082815260200191505060405180910390f35b348015610a8e57600080fd5b50610a97612322565b005b348015610aa557600080fd5b50610aae61243d565b604051808215151515815260200191505060405180910390f35b348015610ad457600080fd5b50610add612504565b6040518082815260200191505060405180910390f35b348015610aff57600080fd5b50610b0861250a565b6040518082815260200191505060405180910390f35b348015610b2a57600080fd5b50610b33612512565b604051808273ffffffffffffffffffffffffffffffffffffffff1673ffffffffffffffffffffffffffffffffffffffff16815260200191505060405180910390f35b348015610b8157600080fd5b50610b8a612537565b6040518082815260200191505060405180910390f35b348015610bac57600080fd5b50610bb561253c565b6040518082815260200191505060405180910390f35b348015610bd757600080fd5b50610be0612541565b6040518082815260200191505060405180910390f35b348015610c0257600080fd5b50610c0b612546565b6040518082815260200191505060405180910390f35b348015610c2d57600080fd5b50610c3661254e565b6040518082815260200191505060405180910390f35b348015610c5857600080fd5b50610c61612559565b6040518082815260200191505060405180910390f35b348015610c8357600080fd5b50610cb8600480360381019080803573ffffffffffffffffffffffffffffffffffffffff16906020019092919050505061255e565b005b348015610cc657600080fd5b50610ccf612614565b6040518082815260200191505060405180910390f35b348015610cf157600080fd5b50610cfa612619565b6040518082815260200191505060405180910390f35b348015610d1c57600080fd5b50610d25612625565b604051808273ffffffffffffffffffffffffffffffffffffffff1673ffffffffffffffffffffffffffffffffffffffff16815260200191505060405180910390f35b348015610d7357600080fd5b50610d7c61263d565b6040518082815260200191505060405180910390f35b348015610d9e57600080fd5b50610da7612642565b6040518082815260200191505060405180910390f35b348015610dc957600080fd5b50610dd261264a565b604051808273ffffffffffffffffffffffffffffffffffffffff1673ffffffffffffffffffffffffffffffffffffffff16815260200191505060405180910390f35b348015610e2057600080fd5b50610e29612670565b005b348015610e3757600080fd5b50610e40612786565b6040518082815260200191505060405180910390f35b348015610e6257600080fd5b50610e6b612793565b604051808215151515815260200191505060405180910390f35b348015610e9157600080fd5b50610e9a6127a6565b604051808b81526020018a81526020018981526020018881526020018781526020018681526020018581526020018481526020018381526020018281526020019a505050505050505050505060405180910390f35b348015610efb57600080fd5b50610f0461280c565b6040518082815260200191505060405180910390f35b348015610f2657600080fd5b50610f2f612818565b6040518082815260200191505060405180910390f35b348015610f5157600080fd5b50610f5a61281e565b6040518082815260200191505060405180910390f35b348015610f7c57600080fd5b50610f8561282a565b6040518082815260200191505060405180910390f35b348015610fa757600080fd5b50610fb0612835565b6040518082815260200191505060405180910390f35b348015610fd257600080fd5b50611007600480360381019080803573ffffffffffffffffffffffffffffffffffffffff16906020019092919050505061283a565b604051808215151515815260200191505060405180910390f35b34801561102d57600080fd5b5061103661285a565b6040518082815260200191505060405180910390f35b34801561105857600080fd5b50611061612860565b6040518082815260200191505060405180910390f35b34801561108357600080fd5b5061108c612865565b6040518082815260200191505060405180910390f35b3480156110ae57600080fd5b506110b7612871565b6040518082815260200191505060405180910390f35b3480156110d957600080fd5b506110e2612879565b6040518082815260200191505060405180910390f35b34801561110457600080fd5b5061110d61287e565b6040518082815260200191505060405180910390f35b611157600480360381019080803573ffffffffffffffffffffffffffffffffffffffff169060200190929190505050611234565b005b34801561116557600080fd5b5061116e61288a565b6040518082815260200191505060405180910390f35b34801561119057600080fd5b50611199612897565b6040518082815260200191505060405180910390f35b3480156111bb57600080fd5b506111c461289c565b6040518082815260200191505060405180910390f35b3480156111e657600080fd5b5061121b600480360381019080803573ffffffffffffffffffffffffffffffffffffffff1690602001909291905050506128a4565b005b34801561122957600080fd5b50611232612979565b005b60008060008060008060008060149054906101000a900460ff1615151561125a57600080fd5b600c60009054906101000a900460ff1615151561127657600080fd5b60008873ffffffffffffffffffffffffffffffffffffffff161415151561129c57600080fd5b6112a46129f1565b15156112af57600080fd5b349650660217c4de91262195506112d187600254612a4690919063ffffffff16565b6002819055506112e08761216d565b9450611309866112fb6006548a612a6490919063ffffffff16565b612a9790919063ffffffff16565b9250600085111561134457611328606484612a9790919063ffffffff16565b915061133d8583612a6490919063ffffffff16565b9350611349565b600093505b61135c8484612a4690919063ffffffff16565b905061137381600354612a4690919063ffffffff16565b600381905550600e5460035410151561138b57600080fd5b6113a16001600554612a4690919063ffffffff16565b600581905550600160009054906101000a900473ffffffffffffffffffffffffffffffffffffffff1673ffffffffffffffffffffffffffffffffffffffff166340c10f1989836040518363ffffffff167c0100000000000000000000000000000000000000000000000000000000028152600401808373ffffffffffffffffffffffffffffffffffffffff1673ffffffffffffffffffffffffffffffffffffffff16815260200182815260200192505050602060405180830381600087803b15801561146c57600080fd5b505af1158015611480573d6000803e3d6000fd5b505050506040513d602081101561149657600080fd5b8101908080519060200190929190505050508773ffffffffffffffffffffffffffffffffffffffff163373ffffffffffffffffffffffffffffffffffffffff167f623b3804fa71d67900d064613da8f94b9617215ee90799290593e1745087ad188984604051808381526020018281526020019250505060405180910390a361151d612ab2565b5050505050505050565b600a5481565b67a688906bd8b0000081565b67de0b6b3a7640000081565b67214e8348c4f0000081565b677068fb1598aa000081565b601981565b6000600160009054906101000a900473ffffffffffffffffffffffffffffffffffffffff1673ffffffffffffffffffffffffffffffffffffffff166318160ddd6040518163ffffffff167c0100000000000000000000000000000000000000000000000000000000028152600401602060405180830381600087803b1580156115ea57600080fd5b505af11580156115fe573d6000803e3d6000fd5b505050506040513d602081101561161457600080fd5b8101908080519060200190929190505050905090565b66010be26f48931181565b600c60019054906101000a900460ff1681565b601060009054906101000a900460ff1681565b600f81565b6000809054906101000a900473ffffffffffffffffffffffffffffffffffffffff1673ffffffffffffffffffffffffffffffffffffffff163373ffffffffffffffffffffffffffffffffffffffff161415156116bb57600080fd5b600160009054906101000a900473ffffffffffffffffffffffffffffffffffffffff1673ffffffffffffffffffffffffffffffffffffffff1663aec318f160016040518263ffffffff167c01000000000000000000000000000000000000000000000000000000000281526004018082151515158152602001915050600060405180830381600087803b15801561175157600080fd5b505af1158015611765573d6000803e3d6000fd5b50505050565b60095481565b600160009054906101000a900473ffffffffffffffffffffffffffffffffffffffff1681565b6000809054906101000a900473ffffffffffffffffffffffffffffffffffffffff1673ffffffffffffffffffffffffffffffffffffffff163373ffffffffffffffffffffffffffffffffffffffff161415156117f257600080fd5b600160009054906101000a900473ffffffffffffffffffffffffffffffffffffffff1673ffffffffffffffffffffffffffffffffffffffff1663aec318f160006040518263ffffffff167c01000000000000000000000000000000000000000000000000000000000281526004018082151515158152602001915050600060405180830381600087803b15801561188857600080fd5b505af115801561189c573d6000803e3d6000fd5b50505050565b60085481565b600e5481565b6118b781612b1d565b15156118c257600080fd5b600160009054906101000a900473ffffffffffffffffffffffffffffffffffffffff1673ffffffffffffffffffffffffffffffffffffffff16636d16fa41826040518263ffffffff167c0100000000000000000000000000000000000000000000000000000000028152600401808273ffffffffffffffffffffffffffffffffffffffff1673ffffffffffffffffffffffffffffffffffffffff168152602001915050600060405180830381600087803b15801561197f57600080fd5b505af1158015611993573d6000803e3d6000fd5b5050505050565b6000809054906101000a900473ffffffffffffffffffffffffffffffffffffffff1673ffffffffffffffffffffffffffffffffffffffff163373ffffffffffffffffffffffffffffffffffffffff161415156119f557600080fd5b600c60009054906101000a900460ff16151515611a1157600080fd5b600c60019054906101000a900460ff16151515611a2d57600080fd5b611a466006546302160ec0612a6490919063ffffffff16565b600a81905550600160009054906101000a900473ffffffffffffffffffffffffffffffffffffffff1673ffffffffffffffffffffffffffffffffffffffff166340c10f19600c60029054906101000a900473ffffffffffffffffffffffffffffffffffffffff16600a546040518363ffffffff167c0100000000000000000000000000000000000000000000000000000000028152600401808373ffffffffffffffffffffffffffffffffffffffff1673ffffffffffffffffffffffffffffffffffffffff16815260200182815260200192505050602060405180830381600087803b158015611b3557600080fd5b505af1158015611b49573d6000803e3d6000fd5b505050506040513d6020811015611b5f57600080fd5b810190808051906020019092919050505050600354600e5403600981905550600160009054906101000a900473ffffffffffffffffffffffffffffffffffffffff1673ffffffffffffffffffffffffffffffffffffffff166340c10f19600c60029054906101000a900473ffffffffffffffffffffffffffffffffffffffff166009546040518363ffffffff167c0100000000000000000000000000000000000000000000000000000000028152600401808373ffffffffffffffffffffffffffffffffffffffff1673ffffffffffffffffffffffffffffffffffffffff16815260200182815260200192505050602060405180830381600087803b158015611c6757600080fd5b505af1158015611c7b573d6000803e3d6000fd5b505050506040513d6020811015611c9157600080fd5b8101908080519060200190929190505050506001600c60016101000a81548160ff021916908315150217905550565b60008060009054906101000a900473ffffffffffffffffffffffffffffffffffffffff1673ffffffffffffffffffffffffffffffffffffffff163373ffffffffffffffffffffffffffffffffffffffff16141515611d1d57600080fd5b600060149054906101000a900460ff161515611d3857600080fd5b60008060146101000a81548160ff0219169083151502179055507f7805862f689e2f13df9f062ff482ad3ad112aca9e0847911ed832e158c525b3360405160405180910390a16001905090565b67d02ab486cedc000081565b6000809054906101000a900473ffffffffffffffffffffffffffffffffffffffff1673ffffffffffffffffffffffffffffffffffffffff163373ffffffffffffffffffffffffffffffffffffffff16141515611dec57600080fd5b600060149054906101000a900460ff161515611e0757600080fd5b600c60019054906101000a900460ff161515611e2257600080fd5b600160009054906101000a900473ffffffffffffffffffffffffffffffffffffffff1673ffffffffffffffffffffffffffffffffffffffff16637d64bcb46040518163ffffffff167c0100000000000000000000000000000000000000000000000000000000028152600401602060405180830381600087803b158015611ea857600080fd5b505af1158015611ebc573d6000803e3d6000fd5b505050506040513d6020811015611ed257600080fd5b810190808051906020019092919050505050600160009054906101000a900473ffffffffffffffffffffffffffffffffffffffff1673ffffffffffffffffffffffffffffffffffffffff1663f41e60c560016040518263ffffffff167c01000000000000000000000000000000000000000000000000000000000281526004018082151515158152602001915050600060405180830381600087803b158015611f7a57600080fd5b505af1158015611f8e573d6000803e3d6000fd5b505050507f6823b073d48d6e3a7d385eeb601452d680e74bb46afe3255a7d778f3a9b1768160405160405180910390a16001600c60006101000a81548160ff021916908315150217905550565b60025481565b67a688906bd8b0000081565b600080606060008060008060008060008060606000601292506040805190810160405280600381526020017f4c454400000000000000000000000000000000000000000000000000000000008152509150600160009054906101000a900473ffffffffffffffffffffffffffffffffffffffff1673ffffffffffffffffffffffffffffffffffffffff1663bef97c876040518163ffffffff167c0100000000000000000000000000000000000000000000000000000000028152600401602060405180830381600087803b1580156120c457600080fd5b505af11580156120d8573d6000803e3d6000fd5b505050506040513d60208110156120ee57600080fd5b810190808051906020019092919050505090506305f5e100838383600554600254600e54601060009054906101000a900460ff166007546008549c509c509c509c509c509c509c509c509c509c5050505090919293949596979899565b600060149054906101000a900460ff1681565b600f81565b601481565b600a81565b6000673782dace9d9000008211156121ed57676f05b59d3b2000008211156121e45767a688906bd8b000008211156121db5767de0b6b3a764000008211156121d2576801158e460913d000008211156121c957601990506121f2565b601490506121f2565b600f90506121f2565b600a90506121f2565b600590506121f2565b600090505b919050565b60035481565b60055481565b6000600160009054906101000a900473ffffffffffffffffffffffffffffffffffffffff1673ffffffffffffffffffffffffffffffffffffffff166370a08231836040518263ffffffff167c0100000000000000000000000000000000000000000000000000000000028152600401808273ffffffffffffffffffffffffffffffffffffffff1673ffffffffffffffffffffffffffffffffffffffff168152602001915050602060405180830381600087803b1580156122c257600080fd5b505af11580156122d6573d6000803e3d6000fd5b505050506040513d60208110156122ec57600080fd5b81019080805190602001909291905050509050919050565b6753444835ec58000081565b677ce66c50e284000081565b60075481565b6000809054906101000a900473ffffffffffffffffffffffffffffffffffffffff1673ffffffffffffffffffffffffffffffffffffffff163373ffffffffffffffffffffffffffffffffffffffff1614151561237d57600080fd5b6008544210151561238d57600080fd5b600160009054906101000a900473ffffffffffffffffffffffffffffffffffffffff1673ffffffffffffffffffffffffffffffffffffffff1663f41e60c560006040518263ffffffff167c01000000000000000000000000000000000000000000000000000000000281526004018082151515158152602001915050600060405180830381600087803b15801561242357600080fd5b505af1158015612437573d6000803e3d6000fd5b50505050565b60008060009054906101000a900473ffffffffffffffffffffffffffffffffffffffff1673ffffffffffffffffffffffffffffffffffffffff163373ffffffffffffffffffffffffffffffffffffffff1614151561249a57600080fd5b600060149054906101000a900460ff161515156124b657600080fd5b6001600060146101000a81548160ff0219169083151502179055507f6985a02210a168e66602d3235cb6db0e70f92b3ba4d376a33c0f3d9434bff62560405160405180910390a16001905090565b600f5481565b6302160ec081565b6000809054906101000a900473ffffffffffffffffffffffffffffffffffffffff1681565b602381565b606481565b601981565b63015752a081565b660191d3a6ecdc9981565b601481565b6000809054906101000a900473ffffffffffffffffffffffffffffffffffffffff1673ffffffffffffffffffffffffffffffffffffffff163373ffffffffffffffffffffffffffffffffffffffff161415156125b957600080fd5b6001600b60008373ffffffffffffffffffffffffffffffffffffffff1673ffffffffffffffffffffffffffffffffffffffff16815260200190815260200160002060006101000a81548160ff02191690831515021790555050565b601981565b674563918244f4000081565b739c0e9941a4c554f6e1aa1930268a7c992e3c860281565b600a81565b6305f5e10081565b600c60029054906101000a900473ffffffffffffffffffffffffffffffffffffffff1681565b6008544210156126d6576000809054906101000a900473ffffffffffffffffffffffffffffffffffffffff1673ffffffffffffffffffffffffffffffffffffffff163373ffffffffffffffffffffffffffffffffffffffff161415156126d557600080fd5b5b600160009054906101000a900473ffffffffffffffffffffffffffffffffffffffff1673ffffffffffffffffffffffffffffffffffffffff1663f41e60c560016040518263ffffffff167c01000000000000000000000000000000000000000000000000000000000281526004018082151515158152602001915050600060405180830381600087803b15801561276c57600080fd5b505af1158015612780573d6000803e3d6000fd5b50505050565b6801158e460913d0000081565b600c60009054906101000a900460ff1681565b6000806000806000806000806000806729a2241af62c00006753444835ec580000677ce66c50e284000067a688906bd8b0000067d02ab486cedc0000600a600f601460196023995099509950995099509950995099509950995090919293949596979899565b67a688906bd8b0000081565b60065481565b673782dace9d90000081565b660217c4de91262181565b600581565b600b6020528060005260406000206000915054906101000a900460ff1681565b600d5481565b601481565b676f05b59d3b20000081565b63011e1a3081565b602381565b6729a2241af62c000081565b6801158e460913d0000081565b603281565b63016a657081565b6000809054906101000a900473ffffffffffffffffffffffffffffffffffffffff1673ffffffffffffffffffffffffffffffffffffffff163373ffffffffffffffffffffffffffffffffffffffff161415156128ff57600080fd5b600073ffffffffffffffffffffffffffffffffffffffff168173ffffffffffffffffffffffffffffffffffffffff1614151561297657806000806101000a81548173ffffffffffffffffffffffffffffffffffffffff021916908373ffffffffffffffffffffffffffffffffffffffff1602179055505b50565b6000809054906101000a900473ffffffffffffffffffffffffffffffffffffffff1673ffffffffffffffffffffffffffffffffffffffff163373ffffffffffffffffffffffffffffffffffffffff161415156129d457600080fd5b6001601060006101000a81548160ff021916908315150217905550565b600080600080600042935060075484101580612a195750601060009054906101000a900460ff165b9250600854841115915060003414159050808015612a345750825b8015612a3d5750815b94505050505090565b6000808284019050838110151515612a5a57fe5b8091505092915050565b60008082840290506000841480612a855750828482811515612a8257fe5b04145b1515612a8d57fe5b8091505092915050565b6000808284811515612aa557fe5b0490508091505092915050565b600c60029054906101000a900473ffffffffffffffffffffffffffffffffffffffff1673ffffffffffffffffffffffffffffffffffffffff166108fc349081150290604051600060405180830381858888f19350505050158015612b1a573d6000803e3d6000fd5b50565b60008060008373ffffffffffffffffffffffffffffffffffffffff161415612b485760009150612b53565b823b90506000811191505b509190505600a165627a7a7230582080df4e30342550f380f92d4f53f1897ef3cd0b4d297acec7bd390d32cba03ff60029",
  "source": "pragma solidity ^0.4.13;\n\nimport './SafeMath.sol';\nimport './Pausable.sol';\nimport './LedTokenInterface.sol';\nimport './TokenInfo.sol';\n/**\n * @title Tokensale\n * Tokensale allows investors to make token purchases and assigns them tokens based\n\n * on a token per ETH rate. Funds collected are forwarded to a wallet as they arrive.\n */\ncontract TokenSale is Pausable, TokenInfo {\n\n  using SafeMath for uint256;\n\n  LedTokenInterface public ledToken;\n  uint256 public totalWeiRaised;\n  uint256 public tokensMinted;\n  uint256 public totalSupply;\n  uint256 public contributors;\n  uint256 public decimalsMultiplier;\n  uint256 public startTime;\n  uint256 public endTime;\n  uint256 public surplusTokens;\n  uint256 public allocatedTokens;\n\n  mapping (address => bool) public whitelisted;\n\n  bool public finalized;\n\n  bool public ledTokensAllocated;\n  address public ledMultiSig = LED_MULTISIG;\n\n  uint256 public tokenCap = ICO_TOKENCAP;\n  uint256 public cap = tokenCap * (1 ether);\n  uint256 public weiCap = tokenCap * ICO_BASE_PRICE_IN_WEI;\n\n  bool public started = false;\n\n  event TokenPurchase(address indexed purchaser, address indexed beneficiary, uint256 value, uint256 amount);\n  event NewClonedToken(address indexed _cloneToken);\n  event OnTransfer(address _from, address _to, uint _amount);\n  event OnApprove(address _owner, address _spender, uint _amount);\n  event LogInt(string _name, uint256 _value);\n  event Finalized();\n\n  function TokenSale(address _tokenAddress, uint256 _startTime, uint256 _endTime) public {\n    require(_tokenAddress != 0x0);\n    require(_startTime > 0);\n    require(_endTime > _startTime);\n\n    startTime = _startTime;\n    endTime = _endTime;\n    ledToken = LedTokenInterface(_tokenAddress);\n\n    decimalsMultiplier = (1 ether);\n  }\n\n\n  /**\n   * High level token purchase function\n   */\n  function() public payable {\n    buyTokens(msg.sender);\n  }\n\n  /**\n   * Low level token purchase function\n   * @param _beneficiary will receive the tokens.\n   */\n  function buyTokens(address _beneficiary) public payable whenNotPaused whenNotFinalized {\n    require(_beneficiary != 0x0);\n    require(validPurchase());\n    // require(isWhitelisted(_beneficiary));\n\n    uint256 weiAmount = msg.value;\n    uint256 priceInWei = ICO_BASE_PRICE_IN_WEI;\n    totalWeiRaised = totalWeiRaised.add(weiAmount);\n\n    uint256 bonusPercentage = determineBonus(weiAmount);\n    uint256 bonusTokens;\n\n    uint256 initialTokens = weiAmount.mul(decimalsMultiplier).div(priceInWei);\n    if(bonusPercentage>0){\n      uint256 initialDivided = initialTokens.div(100);\n      bonusTokens = initialDivided.mul(bonusPercentage);\n    } else {\n      bonusTokens = 0;\n    }\n    uint256 tokens = initialTokens.add(bonusTokens);\n    tokensMinted = tokensMinted.add(tokens);\n    require(tokensMinted < cap);\n\n    contributors = contributors.add(1);\n\n    ledToken.mint(_beneficiary, tokens);\n    TokenPurchase(msg.sender, _beneficiary, weiAmount, tokens);\n    forwardFunds();\n  }\n\n  function determineBonus(uint256 _wei) constant public returns (uint256) {\n    if(_wei > ICO_LEVEL_1) {\n      if(_wei > ICO_LEVEL_2) {\n        if(_wei > ICO_LEVEL_3) {\n          if(_wei > ICO_LEVEL_4) {\n            if(_wei > ICO_LEVEL_5) {\n              return ICO_PERCENTAGE_5;\n            } else {\n              return ICO_PERCENTAGE_4;\n            }\n          } else {\n            return ICO_PERCENTAGE_3;\n          }\n        } else {\n          return ICO_PERCENTAGE_2;\n        }\n      } else {\n        return ICO_PERCENTAGE_1;\n      }\n    } else {\n      return 0;\n    }\n  }\n\n  function isWhitelisted(address _sender) internal constant returns(bool) {\n    return whitelisted[_sender];\n  }\n\n  function whitelist(address _sender) public onlyOwner {\n    whitelisted[_sender] = true;\n  }\n\n\n  /**\n  * Forwards funds to the tokensale wallet\n  */\n  function forwardFunds() internal {\n    ledMultiSig.transfer(msg.value);\n  }\n\n\n  /**\n  * Validates the purchase (period, minimum amount, within cap)\n  * @return {bool} valid\n  */\n  function validPurchase() internal constant returns (bool) {\n    uint256 current = now;\n    bool presaleStarted = (current >= startTime || started);\n    bool presaleNotEnded = current <= endTime;\n    bool nonZeroPurchase = msg.value != 0;\n    return nonZeroPurchase && presaleStarted && presaleNotEnded;\n  }\n\n  /**\n  * Returns the total Led token supply\n  * @return totalSupply {uint256} Led Token Total Supply\n  */\n  function totalSupply() public constant returns (uint256) {\n    return ledToken.totalSupply();\n  }\n\n  /**\n  * Returns token holder Led Token balance\n  * @param _owner {address} Token holder address\n  * @return balance {uint256} Corresponding token holder balance\n  */\n  function balanceOf(address _owner) public constant returns (uint256) {\n    return ledToken.balanceOf(_owner);\n  }\n\n  /**\n  * Change the Led Token controller\n  * @param _newController {address} New Led Token controller\n  */\n  function changeController(address _newController) public {\n    require(isContract(_newController));\n    ledToken.transferControl(_newController);\n  }\n\n\n  function enableTransfers() public {\n    if (now < endTime) {\n      require(msg.sender == owner);\n    }\n    ledToken.enableTransfers(true);\n  }\n\n  function lockTransfers() public onlyOwner {\n    require(now < endTime);\n    ledToken.enableTransfers(false);\n  }\n\n  function enableMasterTransfers() public onlyOwner {\n    ledToken.enableMasterTransfers(true);\n  }\n\n  function lockMasterTransfers() public onlyOwner {\n    ledToken.enableMasterTransfers(false);\n  }\n\n  function forceStart() public onlyOwner {\n    started = true;\n  }\n\n  function allocateLedTokens() public onlyOwner whenNotFinalized {\n    require(!ledTokensAllocated);\n    allocatedTokens = LEDTEAM_TOKENS.mul(decimalsMultiplier);\n    ledToken.mint(ledMultiSig, allocatedTokens);\n    surplusTokens = cap - tokensMinted;\n    ledToken.mint(ledMultiSig, surplusTokens);\n    ledTokensAllocated = true;\n  }\n\n  function finalize() public onlyOwner {\n    require(paused);\n    require(ledTokensAllocated);\n\n    ledToken.finishMinting();\n    ledToken.enableTransfers(true);\n    Finalized();\n\n    finalized = true;\n  }\n\n  function getInfo() public constant returns(uint256, uint256, string, bool,  uint256, uint256, uint256, \n  bool, uint256, uint256){\n    uint256 decimals = 18;\n    string memory symbol = \"LED\";\n    bool transfersEnabled = ledToken.transfersEnabled();\n    return (\n      TOTAL_TOKENCAP, // Tokencap with the decimal point in place. should be 100.000.000\n      decimals, // Decimals\n      symbol,\n      transfersEnabled,\n      contributors,\n      totalWeiRaised,\n      cap, // Tokencap for the ICO without the decimal point in place. Will be a huge number.\n      started,\n      startTime, // Start time and end time in Unix timestamp format with a length of 10 numbers.\n      endTime\n    );\n  }\n  \n  function getInfoLevels() public constant returns(uint256, uint256, uint256, uint256, uint256, uint256, \n  uint256, uint256, uint256, uint256){\n    return (\n      PRESALE_LEVEL_1, // Amount of ether needed per bonus level\n      PRESALE_LEVEL_2,\n      PRESALE_LEVEL_3,\n      PRESALE_LEVEL_4,\n      PRESALE_LEVEL_5,\n      PRESALE_PERCENTAGE_1, // Bonus percentage per bonus level\n      PRESALE_PERCENTAGE_2,\n      PRESALE_PERCENTAGE_3,\n      PRESALE_PERCENTAGE_4,\n      PRESALE_PERCENTAGE_5\n    );\n  }\n\n\n  function isContract(address _addr) constant internal returns(bool) {\n    uint size;\n    if (_addr == 0)\n      return false;\n    assembly {\n        size := extcodesize(_addr)\n    }\n    return size>0;\n  }\n\n  modifier whenNotFinalized() {\n    require(!finalized);\n    _;\n  }\n\n}",
  "sourcePath": "/Users/julesdesmit/Desktop/workspace/terawatt/tokensale_contracts/contracts/TokenSale.sol",
  "compiler": {
    "name": "solc",
    "version": "0.4.23+commit.124ca40d.Emscripten.clang"
  },
  "schemaVersion": "2.0.0",
  "updatedAt": "2018-05-24T13:51:51.882Z"
}