{
  "contractName": "TokenInfo",
  "abi": [
    {
      "constant": true,
      "inputs": [],
      "name": "PRESALE_LEVEL_4",
      "outputs": [
        {
          "name": "",
          "type": "uint256"
        }
      ],
      "payable": false,
      "stateMutability": "view",
      "type": "function"
    },
    {
      "constant": true,
      "inputs": [],
      "name": "ICO_LEVEL_4",
      "outputs": [
        {
          "name": "",
          "type": "uint256"
        }
      ],
      "payable": false,
      "stateMutability": "view",
      "type": "function"
    },
    {
      "constant": true,
      "inputs": [],
      "name": "PRIVATESALE_LEVEL_1",
      "outputs": [
        {
          "name": "",
          "type": "uint256"
        }
      ],
      "payable": false,
      "stateMutability": "view",
      "type": "function"
    },
    {
      "constant": true,
      "inputs": [],
      "name": "PRIVATESALE_LEVEL_3",
      "outputs": [
        {
          "name": "",
          "type": "uint256"
        }
      ],
      "payable": false,
      "stateMutability": "view",
      "type": "function"
    },
    {
      "constant": true,
      "inputs": [],
      "name": "PRESALE_PERCENTAGE_4",
      "outputs": [
        {
          "name": "",
          "type": "uint256"
        }
      ],
      "payable": false,
      "stateMutability": "view",
      "type": "function"
    },
    {
      "constant": true,
      "inputs": [],
      "name": "PRIVATESALE_BASE_PRICE_IN_WEI",
      "outputs": [
        {
          "name": "",
          "type": "uint256"
        }
      ],
      "payable": false,
      "stateMutability": "view",
      "type": "function"
    },
    {
      "constant": true,
      "inputs": [],
      "name": "ICO_PERCENTAGE_3",
      "outputs": [
        {
          "name": "",
          "type": "uint256"
        }
      ],
      "payable": false,
      "stateMutability": "view",
      "type": "function"
    },
    {
      "constant": true,
      "inputs": [],
      "name": "PRESALE_LEVEL_5",
      "outputs": [
        {
          "name": "",
          "type": "uint256"
        }
      ],
      "payable": false,
      "stateMutability": "view",
      "type": "function"
    },
    {
      "constant": true,
      "inputs": [],
      "name": "ICO_LEVEL_3",
      "outputs": [
        {
          "name": "",
          "type": "uint256"
        }
      ],
      "payable": false,
      "stateMutability": "view",
      "type": "function"
    },
    {
      "constant": true,
      "inputs": [],
      "name": "PRESALE_PERCENTAGE_2",
      "outputs": [
        {
          "name": "",
          "type": "uint256"
        }
      ],
      "payable": false,
      "stateMutability": "view",
      "type": "function"
    },
    {
      "constant": true,
      "inputs": [],
      "name": "PRESALE_PERCENTAGE_3",
      "outputs": [
        {
          "name": "",
          "type": "uint256"
        }
      ],
      "payable": false,
      "stateMutability": "view",
      "type": "function"
    },
    {
      "constant": true,
      "inputs": [],
      "name": "ICO_PERCENTAGE_2",
      "outputs": [
        {
          "name": "",
          "type": "uint256"
        }
      ],
      "payable": false,
      "stateMutability": "view",
      "type": "function"
    },
    {
      "constant": true,
      "inputs": [],
      "name": "PRESALE_LEVEL_2",
      "outputs": [
        {
          "name": "",
          "type": "uint256"
        }
      ],
      "payable": false,
      "stateMutability": "view",
      "type": "function"
    },
    {
      "constant": true,
      "inputs": [],
      "name": "PRESALE_LEVEL_3",
      "outputs": [
        {
          "name": "",
          "type": "uint256"
        }
      ],
      "payable": false,
      "stateMutability": "view",
      "type": "function"
    },
    {
      "constant": true,
      "inputs": [],
      "name": "LEDTEAM_TOKENS",
      "outputs": [
        {
          "name": "",
          "type": "uint256"
        }
      ],
      "payable": false,
      "stateMutability": "view",
      "type": "function"
    },
    {
      "constant": true,
      "inputs": [],
      "name": "PRESALE_PERCENTAGE_5",
      "outputs": [
        {
          "name": "",
          "type": "uint256"
        }
      ],
      "payable": false,
      "stateMutability": "view",
      "type": "function"
    },
    {
      "constant": true,
      "inputs": [],
      "name": "PRIVATESALE_PERCENTAGE_5",
      "outputs": [
        {
          "name": "",
          "type": "uint256"
        }
      ],
      "payable": false,
      "stateMutability": "view",
      "type": "function"
    },
    {
      "constant": true,
      "inputs": [],
      "name": "ICO_PERCENTAGE_5",
      "outputs": [
        {
          "name": "",
          "type": "uint256"
        }
      ],
      "payable": false,
      "stateMutability": "view",
      "type": "function"
    },
    {
      "constant": true,
      "inputs": [],
      "name": "ICO_TOKENCAP",
      "outputs": [
        {
          "name": "",
          "type": "uint256"
        }
      ],
      "payable": false,
      "stateMutability": "view",
      "type": "function"
    },
    {
      "constant": true,
      "inputs": [],
      "name": "PRESALE_BASE_PRICE_IN_WEI",
      "outputs": [
        {
          "name": "",
          "type": "uint256"
        }
      ],
      "payable": false,
      "stateMutability": "view",
      "type": "function"
    },
    {
      "constant": true,
      "inputs": [],
      "name": "PRIVATESALE_PERCENTAGE_1",
      "outputs": [
        {
          "name": "",
          "type": "uint256"
        }
      ],
      "payable": false,
      "stateMutability": "view",
      "type": "function"
    },
    {
      "constant": true,
      "inputs": [],
      "name": "PRIVATESALE_PERCENTAGE_2",
      "outputs": [
        {
          "name": "",
          "type": "uint256"
        }
      ],
      "payable": false,
      "stateMutability": "view",
      "type": "function"
    },
    {
      "constant": true,
      "inputs": [],
      "name": "PRIVATESALE_LEVEL_2",
      "outputs": [
        {
          "name": "",
          "type": "uint256"
        }
      ],
      "payable": false,
      "stateMutability": "view",
      "type": "function"
    },
    {
      "constant": true,
      "inputs": [],
      "name": "LED_MULTISIG",
      "outputs": [
        {
          "name": "",
          "type": "address"
        }
      ],
      "payable": false,
      "stateMutability": "view",
      "type": "function"
    },
    {
      "constant": true,
      "inputs": [],
      "name": "PRESALE_PERCENTAGE_1",
      "outputs": [
        {
          "name": "",
          "type": "uint256"
        }
      ],
      "payable": false,
      "stateMutability": "view",
      "type": "function"
    },
    {
      "constant": true,
      "inputs": [],
      "name": "TOTAL_TOKENCAP",
      "outputs": [
        {
          "name": "",
          "type": "uint256"
        }
      ],
      "payable": false,
      "stateMutability": "view",
      "type": "function"
    },
    {
      "constant": true,
      "inputs": [],
      "name": "ICO_LEVEL_5",
      "outputs": [
        {
          "name": "",
          "type": "uint256"
        }
      ],
      "payable": false,
      "stateMutability": "view",
      "type": "function"
    },
    {
      "constant": true,
      "inputs": [],
      "name": "PRIVATESALE_LEVEL_4",
      "outputs": [
        {
          "name": "",
          "type": "uint256"
        }
      ],
      "payable": false,
      "stateMutability": "view",
      "type": "function"
    },
    {
      "constant": true,
      "inputs": [],
      "name": "ICO_LEVEL_1",
      "outputs": [
        {
          "name": "",
          "type": "uint256"
        }
      ],
      "payable": false,
      "stateMutability": "view",
      "type": "function"
    },
    {
      "constant": true,
      "inputs": [],
      "name": "ICO_BASE_PRICE_IN_WEI",
      "outputs": [
        {
          "name": "",
          "type": "uint256"
        }
      ],
      "payable": false,
      "stateMutability": "view",
      "type": "function"
    },
    {
      "constant": true,
      "inputs": [],
      "name": "ICO_PERCENTAGE_1",
      "outputs": [
        {
          "name": "",
          "type": "uint256"
        }
      ],
      "payable": false,
      "stateMutability": "view",
      "type": "function"
    },
    {
      "constant": true,
      "inputs": [],
      "name": "ICO_PERCENTAGE_4",
      "outputs": [
        {
          "name": "",
          "type": "uint256"
        }
      ],
      "payable": false,
      "stateMutability": "view",
      "type": "function"
    },
    {
      "constant": true,
      "inputs": [],
      "name": "ICO_LEVEL_2",
      "outputs": [
        {
          "name": "",
          "type": "uint256"
        }
      ],
      "payable": false,
      "stateMutability": "view",
      "type": "function"
    },
    {
      "constant": true,
      "inputs": [],
      "name": "PRESALE_TOKENCAP",
      "outputs": [
        {
          "name": "",
          "type": "uint256"
        }
      ],
      "payable": false,
      "stateMutability": "view",
      "type": "function"
    },
    {
      "constant": true,
      "inputs": [],
      "name": "PRIVATESALE_PERCENTAGE_3",
      "outputs": [
        {
          "name": "",
          "type": "uint256"
        }
      ],
      "payable": false,
      "stateMutability": "view",
      "type": "function"
    },
    {
      "constant": true,
      "inputs": [],
      "name": "PRESALE_LEVEL_1",
      "outputs": [
        {
          "name": "",
          "type": "uint256"
        }
      ],
      "payable": false,
      "stateMutability": "view",
      "type": "function"
    },
    {
      "constant": true,
      "inputs": [],
      "name": "PRIVATESALE_LEVEL_5",
      "outputs": [
        {
          "name": "",
          "type": "uint256"
        }
      ],
      "payable": false,
      "stateMutability": "view",
      "type": "function"
    },
    {
      "constant": true,
      "inputs": [],
      "name": "PRIVATESALE_PERCENTAGE_4",
      "outputs": [
        {
          "name": "",
          "type": "uint256"
        }
      ],
      "payable": false,
      "stateMutability": "view",
      "type": "function"
    },
    {
      "constant": true,
      "inputs": [],
      "name": "PRIVATESALE_TOKENCAP",
      "outputs": [
        {
          "name": "",
          "type": "uint256"
        }
      ],
      "payable": false,
      "stateMutability": "view",
      "type": "function"
    }
  ],
  "bytecode": "0x608060405234801561001057600080fd5b50610a2f806100206000396000f3006080604052600436106101e3576000357c0100000000000000000000000000000000000000000000000000000000900463ffffffff16806302c6f427146101e857806304df48ef14610213578063118e09c81461023e57806317a4a8a31461026957806317f6252f146102945780631a11415e146102bf578063217477f6146102ea578063450785311461031557806356dcd2fa146103405780635e48f58f1461036b57806361ad487c1461039657806369b8f38d146103c1578063733b679e146103ec5780637530b54d1461041757806387c5d1be1461044257806394c0f3e21461046d5780639745272a14610498578063975c95da146104c3578063978d6cff146104ee57806397e1d68d146105195780639957b8da14610544578063a0f68eba1461056f578063a28a0ac21461059a578063a69ade72146105c5578063aa487f491461061c578063ac20e2a014610647578063b1fc079214610672578063b77dfb591461069d578063c4b71cec146106c8578063cb4de968146106f3578063ce72a6961461071e578063e08155dd14610749578063e08d849714610774578063e73c032b1461079f578063e7a50a9d146107ca578063e9e55c71146107f5578063edca139214610820578063ef7533cf1461084b578063f0004ab414610876575b600080fd5b3480156101f457600080fd5b506101fd6108a1565b6040518082815260200191505060405180910390f35b34801561021f57600080fd5b506102286108ad565b6040518082815260200191505060405180910390f35b34801561024a57600080fd5b506102536108b9565b6040518082815260200191505060405180910390f35b34801561027557600080fd5b5061027e6108c5565b6040518082815260200191505060405180910390f35b3480156102a057600080fd5b506102a96108d1565b6040518082815260200191505060405180910390f35b3480156102cb57600080fd5b506102d46108d6565b6040518082815260200191505060405180910390f35b3480156102f657600080fd5b506102ff6108e1565b6040518082815260200191505060405180910390f35b34801561032157600080fd5b5061032a6108e6565b6040518082815260200191505060405180910390f35b34801561034c57600080fd5b506103556108f2565b6040518082815260200191505060405180910390f35b34801561037757600080fd5b506103806108fe565b6040518082815260200191505060405180910390f35b3480156103a257600080fd5b506103ab610903565b6040518082815260200191505060405180910390f35b3480156103cd57600080fd5b506103d6610908565b6040518082815260200191505060405180910390f35b3480156103f857600080fd5b5061040161090d565b6040518082815260200191505060405180910390f35b34801561042357600080fd5b5061042c610919565b6040518082815260200191505060405180910390f35b34801561044e57600080fd5b50610457610925565b6040518082815260200191505060405180910390f35b34801561047957600080fd5b5061048261092d565b6040518082815260200191505060405180910390f35b3480156104a457600080fd5b506104ad610932565b6040518082815260200191505060405180910390f35b3480156104cf57600080fd5b506104d8610937565b6040518082815260200191505060405180910390f35b3480156104fa57600080fd5b5061050361093c565b6040518082815260200191505060405180910390f35b34801561052557600080fd5b5061052e610944565b6040518082815260200191505060405180910390f35b34801561055057600080fd5b5061055961094f565b6040518082815260200191505060405180910390f35b34801561057b57600080fd5b50610584610954565b6040518082815260200191505060405180910390f35b3480156105a657600080fd5b506105af610959565b6040518082815260200191505060405180910390f35b3480156105d157600080fd5b506105da610965565b604051808273ffffffffffffffffffffffffffffffffffffffff1673ffffffffffffffffffffffffffffffffffffffff16815260200191505060405180910390f35b34801561062857600080fd5b5061063161097d565b6040518082815260200191505060405180910390f35b34801561065357600080fd5b5061065c610982565b6040518082815260200191505060405180910390f35b34801561067e57600080fd5b5061068761098a565b6040518082815260200191505060405180910390f35b3480156106a957600080fd5b506106b2610997565b6040518082815260200191505060405180910390f35b3480156106d457600080fd5b506106dd6109a3565b6040518082815260200191505060405180910390f35b3480156106ff57600080fd5b506107086109af565b6040518082815260200191505060405180910390f35b34801561072a57600080fd5b506107336109ba565b6040518082815260200191505060405180910390f35b34801561075557600080fd5b5061075e6109bf565b6040518082815260200191505060405180910390f35b34801561078057600080fd5b506107896109c4565b6040518082815260200191505060405180910390f35b3480156107ab57600080fd5b506107b46109d0565b6040518082815260200191505060405180910390f35b3480156107d657600080fd5b506107df6109d8565b6040518082815260200191505060405180910390f35b34801561080157600080fd5b5061080a6109dd565b6040518082815260200191505060405180910390f35b34801561082c57600080fd5b506108356109e9565b6040518082815260200191505060405180910390f35b34801561085757600080fd5b506108606109f6565b6040518082815260200191505060405180910390f35b34801561088257600080fd5b5061088b6109fb565b6040518082815260200191505060405180910390f35b67a688906bd8b0000081565b67de0b6b3a7640000081565b67214e8348c4f0000081565b677068fb1598aa000081565b601981565b66010be26f48931181565b600f81565b67d02ab486cedc000081565b67a688906bd8b0000081565b600f81565b601481565b600a81565b6753444835ec58000081565b677ce66c50e284000081565b6302160ec081565b602381565b606481565b601981565b63015752a081565b660191d3a6ecdc9981565b601481565b601981565b674563918244f4000081565b739c0e9941a4c554f6e1aa1930268a7c992e3c860281565b600a81565b6305f5e10081565b6801158e460913d0000081565b67a688906bd8b0000081565b673782dace9d90000081565b660217c4de91262181565b600581565b601481565b676f05b59d3b20000081565b63011e1a3081565b602381565b6729a2241af62c000081565b6801158e460913d0000081565b603281565b63016a6570815600a165627a7a72305820091704bc164c7ef238630c805d817cb6e869569bcbb5663bdabce6300b81a7210029",
  "source": "pragma solidity ^0.4.13;\n\ncontract TokenInfo {\n    // Base prices in wei, going off from an Ether value of $678.77\n    uint256 public constant PRIVATESALE_BASE_PRICE_IN_WEI = 294542134252305;\n    uint256 public constant PRESALE_BASE_PRICE_IN_WEI = 441813201378457;\n    uint256 public constant ICO_BASE_PRICE_IN_WEI = 589084268504609;\n\n    // Bonus percentages for each respective sale level\n    uint256 public constant PRIVATESALE_PERCENTAGE_1 = 20;\n    uint256 public constant PRIVATESALE_PERCENTAGE_2 = 25;\n    uint256 public constant PRIVATESALE_PERCENTAGE_3 = 35;\n    uint256 public constant PRIVATESALE_PERCENTAGE_4 = 50;\n    uint256 public constant PRIVATESALE_PERCENTAGE_5 = 100;\n\n    uint256 public constant PRESALE_PERCENTAGE_1 = 10;\n    uint256 public constant PRESALE_PERCENTAGE_2 = 15;\n    uint256 public constant PRESALE_PERCENTAGE_3 = 20;\n    uint256 public constant PRESALE_PERCENTAGE_4 = 25;\n    uint256 public constant PRESALE_PERCENTAGE_5 = 35;\n\n    uint256 public constant ICO_PERCENTAGE_1 = 5;\n    uint256 public constant ICO_PERCENTAGE_2 = 10;\n    uint256 public constant ICO_PERCENTAGE_3 = 15;\n    uint256 public constant ICO_PERCENTAGE_4 = 20;\n    uint256 public constant ICO_PERCENTAGE_5 = 25;\n\n    // Bonus levels in wei for each respective level\n    uint256 public constant PRIVATESALE_LEVEL_1 = 2400000000000000000;\n    uint256 public constant PRIVATESALE_LEVEL_2 = 5000000000000000000;\n    uint256 public constant PRIVATESALE_LEVEL_3 = 8100000000000000000;\n    uint256 public constant PRIVATESALE_LEVEL_4 = 12000000000000000000;\n    uint256 public constant PRIVATESALE_LEVEL_5 = 20000000000000000000;\n\n    uint256 public constant PRESALE_LEVEL_1 = 3000000000000000000;\n    uint256 public constant PRESALE_LEVEL_2 = 6000000000000000000;\n    uint256 public constant PRESALE_LEVEL_3 = 9000000000000000000;\n    uint256 public constant PRESALE_LEVEL_4 = 12000000000000000000;\n    uint256 public constant PRESALE_LEVEL_5 = 15000000000000000000;\n\n    uint256 public constant ICO_LEVEL_1 = 4000000000000000000;\n    uint256 public constant ICO_LEVEL_2 = 8000000000000000000;\n    uint256 public constant ICO_LEVEL_3 = 12000000000000000000;\n    uint256 public constant ICO_LEVEL_4 = 16000000000000000000;\n    uint256 public constant ICO_LEVEL_5 = 20000000000000000000;\n\n    // Caps for the respective sales, the amount of tokens allocated to the team and the total cap\n    uint256 public constant PRIVATESALE_TOKENCAP = 23750000;\n    uint256 public constant PRESALE_TOKENCAP = 18750000;\n    uint256 public constant ICO_TOKENCAP = 22500000;\n    uint256 public constant LEDTEAM_TOKENS = 35000000;\n    uint256 public constant TOTAL_TOKENCAP = 100000000;\n\n    address public constant LED_MULTISIG = 0x9c0e9941a4c554f6e1aa1930268a7c992e3c8602;\n}",
  "sourcePath": "/Users/julesdesmit/Desktop/workspace/terawatt/tokensale_contracts/contracts/TokenInfo.sol",
  "compiler": {
    "name": "solc",
    "version": "0.4.23+commit.124ca40d.Emscripten.clang"
  },
  "schemaVersion": "2.0.0",
  "updatedAt": "2018-05-24T13:51:51.881Z"
}