{
  "contractName": "TokenSale",
  "abi": [
    {
      "constant": true,
      "inputs": [],
      "name": "allocatedTokens",
      "outputs": [
        {
          "name": "",
          "type": "uint256"
        }
      ],
      "payable": false,
      "stateMutability": "view",
      "type": "function"
    },
    {
      "constant": true,
      "inputs": [],
      "name": "PRESALE_LEVEL_4",
      "outputs": [
        {
          "name": "",
          "type": "uint256"
        }
      ],
      "payable": false,
      "stateMutability": "view",
      "type": "function"
    },
    {
      "constant": true,
      "inputs": [],
      "name": "ICO_LEVEL_4",
      "outputs": [
        {
          "name": "",
          "type": "uint256"
        }
      ],
      "payable": false,
      "stateMutability": "view",
      "type": "function"
    },
    {
      "constant": true,
      "inputs": [],
      "name": "PRIVATESALE_LEVEL_1",
      "outputs": [
        {
          "name": "",
          "type": "uint256"
        }
      ],
      "payable": false,
      "stateMutability": "view",
      "type": "function"
    },
    {
      "constant": true,
      "inputs": [],
      "name": "PRIVATESALE_LEVEL_3",
      "outputs": [
        {
          "name": "",
          "type": "uint256"
        }
      ],
      "payable": false,
      "stateMutability": "view",
      "type": "function"
    },
    {
      "constant": true,
      "inputs": [],
      "name": "PRESALE_PERCENTAGE_4",
      "outputs": [
        {
          "name": "",
          "type": "uint256"
        }
      ],
      "payable": false,
      "stateMutability": "view",
      "type": "function"
    },
    {
      "constant": true,
      "inputs": [],
      "name": "PRIVATESALE_BASE_PRICE_IN_WEI",
      "outputs": [
        {
          "name": "",
          "type": "uint256"
        }
      ],
      "payable": false,
      "stateMutability": "view",
      "type": "function"
    },
    {
      "constant": true,
      "inputs": [],
      "name": "ledTokensAllocated",
      "outputs": [
        {
          "name": "",
          "type": "bool"
        }
      ],
      "payable": false,
      "stateMutability": "view",
      "type": "function"
    },
    {
      "constant": true,
      "inputs": [],
      "name": "started",
      "outputs": [
        {
          "name": "",
          "type": "bool"
        }
      ],
      "payable": false,
      "stateMutability": "view",
      "type": "function"
    },
    {
      "constant": true,
      "inputs": [],
      "name": "ICO_PERCENTAGE_3",
      "outputs": [
        {
          "name": "",
          "type": "uint256"
        }
      ],
      "payable": false,
      "stateMutability": "view",
      "type": "function"
    },
    {
      "constant": true,
      "inputs": [],
      "name": "surplusTokens",
      "outputs": [
        {
          "name": "",
          "type": "uint256"
        }
      ],
      "payable": false,
      "stateMutability": "view",
      "type": "function"
    },
    {
      "constant": true,
      "inputs": [],
      "name": "ledToken",
      "outputs": [
        {
          "name": "",
          "type": "address"
        }
      ],
      "payable": false,
      "stateMutability": "view",
      "type": "function"
    },
    {
      "constant": true,
      "inputs": [],
      "name": "endTime",
      "outputs": [
        {
          "name": "",
          "type": "uint256"
        }
      ],
      "payable": false,
      "stateMutability": "view",
      "type": "function"
    },
    {
      "constant": true,
      "inputs": [],
      "name": "cap",
      "outputs": [
        {
          "name": "",
          "type": "uint256"
        }
      ],
      "payable": false,
      "stateMutability": "view",
      "type": "function"
    },
    {
      "constant": false,
      "inputs": [],
      "name": "unpause",
      "outputs": [
        {
          "name": "",
          "type": "bool"
        }
      ],
      "payable": false,
      "stateMutability": "nonpayable",
      "type": "function"
    },
    {
      "constant": true,
      "inputs": [],
      "name": "PRESALE_LEVEL_5",
      "outputs": [
        {
          "name": "",
          "type": "uint256"
        }
      ],
      "payable": false,
      "stateMutability": "view",
      "type": "function"
    },
    {
      "constant": true,
      "inputs": [],
      "name": "totalWeiRaised",
      "outputs": [
        {
          "name": "",
          "type": "uint256"
        }
      ],
      "payable": false,
      "stateMutability": "view",
      "type": "function"
    },
    {
      "constant": true,
      "inputs": [],
      "name": "ICO_LEVEL_3",
      "outputs": [
        {
          "name": "",
          "type": "uint256"
        }
      ],
      "payable": false,
      "stateMutability": "view",
      "type": "function"
    },
    {
      "constant": true,
      "inputs": [],
      "name": "paused",
      "outputs": [
        {
          "name": "",
          "type": "bool"
        }
      ],
      "payable": false,
      "stateMutability": "view",
      "type": "function"
    },
    {
      "constant": true,
      "inputs": [],
      "name": "PRESALE_PERCENTAGE_2",
      "outputs": [
        {
          "name": "",
          "type": "uint256"
        }
      ],
      "payable": false,
      "stateMutability": "view",
      "type": "function"
    },
    {
      "constant": true,
      "inputs": [],
      "name": "PRESALE_PERCENTAGE_3",
      "outputs": [
        {
          "name": "",
          "type": "uint256"
        }
      ],
      "payable": false,
      "stateMutability": "view",
      "type": "function"
    },
    {
      "constant": true,
      "inputs": [],
      "name": "ICO_PERCENTAGE_2",
      "outputs": [
        {
          "name": "",
          "type": "uint256"
        }
      ],
      "payable": false,
      "stateMutability": "view",
      "type": "function"
    },
    {
      "constant": true,
      "inputs": [],
      "name": "tokensMinted",
      "outputs": [
        {
          "name": "",
          "type": "uint256"
        }
      ],
      "payable": false,
      "stateMutability": "view",
      "type": "function"
    },
    {
      "constant": true,
      "inputs": [],
      "name": "contributors",
      "outputs": [
        {
          "name": "",
          "type": "uint256"
        }
      ],
      "payable": false,
      "stateMutability": "view",
      "type": "function"
    },
    {
      "constant": true,
      "inputs": [],
      "name": "PRESALE_LEVEL_2",
      "outputs": [
        {
          "name": "",
          "type": "uint256"
        }
      ],
      "payable": false,
      "stateMutability": "view",
      "type": "function"
    },
    {
      "constant": true,
      "inputs": [],
      "name": "PRESALE_LEVEL_3",
      "outputs": [
        {
          "name": "",
          "type": "uint256"
        }
      ],
      "payable": false,
      "stateMutability": "view",
      "type": "function"
    },
    {
      "constant": true,
      "inputs": [],
      "name": "startTime",
      "outputs": [
        {
          "name": "",
          "type": "uint256"
        }
      ],
      "payable": false,
      "stateMutability": "view",
      "type": "function"
    },
    {
      "constant": false,
      "inputs": [],
      "name": "pause",
      "outputs": [
        {
          "name": "",
          "type": "bool"
        }
      ],
      "payable": false,
      "stateMutability": "nonpayable",
      "type": "function"
    },
    {
      "constant": true,
      "inputs": [],
      "name": "weiCap",
      "outputs": [
        {
          "name": "",
          "type": "uint256"
        }
      ],
      "payable": false,
      "stateMutability": "view",
      "type": "function"
    },
    {
      "constant": true,
      "inputs": [],
      "name": "LEDTEAM_TOKENS",
      "outputs": [
        {
          "name": "",
          "type": "uint256"
        }
      ],
      "payable": false,
      "stateMutability": "view",
      "type": "function"
    },
    {
      "constant": true,
      "inputs": [],
      "name": "owner",
      "outputs": [
        {
          "name": "",
          "type": "address"
        }
      ],
      "payable": false,
      "stateMutability": "view",
      "type": "function"
    },
    {
      "constant": true,
      "inputs": [],
      "name": "PRESALE_PERCENTAGE_5",
      "outputs": [
        {
          "name": "",
          "type": "uint256"
        }
      ],
      "payable": false,
      "stateMutability": "view",
      "type": "function"
    },
    {
      "constant": true,
      "inputs": [],
      "name": "PRIVATESALE_PERCENTAGE_5",
      "outputs": [
        {
          "name": "",
          "type": "uint256"
        }
      ],
      "payable": false,
      "stateMutability": "view",
      "type": "function"
    },
    {
      "constant": true,
      "inputs": [],
      "name": "ICO_PERCENTAGE_5",
      "outputs": [
        {
          "name": "",
          "type": "uint256"
        }
      ],
      "payable": false,
      "stateMutability": "view",
      "type": "function"
    },
    {
      "constant": true,
      "inputs": [],
      "name": "ICO_TOKENCAP",
      "outputs": [
        {
          "name": "",
          "type": "uint256"
        }
      ],
      "payable": false,
      "stateMutability": "view",
      "type": "function"
    },
    {
      "constant": true,
      "inputs": [],
      "name": "PRESALE_BASE_PRICE_IN_WEI",
      "outputs": [
        {
          "name": "",
          "type": "uint256"
        }
      ],
      "payable": false,
      "stateMutability": "view",
      "type": "function"
    },
    {
      "constant": true,
      "inputs": [],
      "name": "PRIVATESALE_PERCENTAGE_1",
      "outputs": [
        {
          "name": "",
          "type": "uint256"
        }
      ],
      "payable": false,
      "stateMutability": "view",
      "type": "function"
    },
    {
      "constant": true,
      "inputs": [],
      "name": "FIRSTSALE_TOKENCAP",
      "outputs": [
        {
          "name": "",
          "type": "uint256"
        }
      ],
      "payable": false,
      "stateMutability": "view",
      "type": "function"
    },
    {
      "constant": true,
      "inputs": [],
      "name": "PRIVATESALE_PERCENTAGE_2",
      "outputs": [
        {
          "name": "",
          "type": "uint256"
        }
      ],
      "payable": false,
      "stateMutability": "view",
      "type": "function"
    },
    {
      "constant": true,
      "inputs": [],
      "name": "PRIVATESALE_LEVEL_2",
      "outputs": [
        {
          "name": "",
          "type": "uint256"
        }
      ],
      "payable": false,
      "stateMutability": "view",
      "type": "function"
    },
    {
      "constant": true,
      "inputs": [],
      "name": "LED_MULTISIG",
      "outputs": [
        {
          "name": "",
          "type": "address"
        }
      ],
      "payable": false,
      "stateMutability": "view",
      "type": "function"
    },
    {
      "constant": true,
      "inputs": [],
      "name": "PRESALE_PERCENTAGE_1",
      "outputs": [
        {
          "name": "",
          "type": "uint256"
        }
      ],
      "payable": false,
      "stateMutability": "view",
      "type": "function"
    },
    {
      "constant": true,
      "inputs": [],
      "name": "TOTAL_TOKENCAP",
      "outputs": [
        {
          "name": "",
          "type": "uint256"
        }
      ],
      "payable": false,
      "stateMutability": "view",
      "type": "function"
    },
    {
      "constant": true,
      "inputs": [],
      "name": "ledMultiSig",
      "outputs": [
        {
          "name": "",
          "type": "address"
        }
      ],
      "payable": false,
      "stateMutability": "view",
      "type": "function"
    },
    {
      "constant": true,
      "inputs": [],
      "name": "FIRSTSALE_BASE_PRICE_IN_WEI",
      "outputs": [
        {
          "name": "",
          "type": "uint256"
        }
      ],
      "payable": false,
      "stateMutability": "view",
      "type": "function"
    },
    {
      "constant": true,
      "inputs": [],
      "name": "ICO_LEVEL_5",
      "outputs": [
        {
          "name": "",
          "type": "uint256"
        }
      ],
      "payable": false,
      "stateMutability": "view",
      "type": "function"
    },
    {
      "constant": true,
      "inputs": [],
      "name": "finalized",
      "outputs": [
        {
          "name": "",
          "type": "bool"
        }
      ],
      "payable": false,
      "stateMutability": "view",
      "type": "function"
    },
    {
      "constant": true,
      "inputs": [],
      "name": "PRIVATESALE_LEVEL_4",
      "outputs": [
        {
          "name": "",
          "type": "uint256"
        }
      ],
      "payable": false,
      "stateMutability": "view",
      "type": "function"
    },
    {
      "constant": true,
      "inputs": [],
      "name": "decimalsMultiplier",
      "outputs": [
        {
          "name": "",
          "type": "uint256"
        }
      ],
      "payable": false,
      "stateMutability": "view",
      "type": "function"
    },
    {
      "constant": true,
      "inputs": [],
      "name": "ICO_LEVEL_1",
      "outputs": [
        {
          "name": "",
          "type": "uint256"
        }
      ],
      "payable": false,
      "stateMutability": "view",
      "type": "function"
    },
    {
      "constant": true,
      "inputs": [],
      "name": "ICO_BASE_PRICE_IN_WEI",
      "outputs": [
        {
          "name": "",
          "type": "uint256"
        }
      ],
      "payable": false,
      "stateMutability": "view",
      "type": "function"
    },
    {
      "constant": true,
      "inputs": [],
      "name": "ICO_PERCENTAGE_1",
      "outputs": [
        {
          "name": "",
          "type": "uint256"
        }
      ],
      "payable": false,
      "stateMutability": "view",
      "type": "function"
    },
    {
      "constant": true,
      "inputs": [
        {
          "name": "",
          "type": "address"
        }
      ],
      "name": "whitelisted",
      "outputs": [
        {
          "name": "",
          "type": "bool"
        }
      ],
      "payable": false,
      "stateMutability": "view",
      "type": "function"
    },
    {
      "constant": true,
      "inputs": [],
      "name": "tokenCap",
      "outputs": [
        {
          "name": "",
          "type": "uint256"
        }
      ],
      "payable": false,
      "stateMutability": "view",
      "type": "function"
    },
    {
      "constant": true,
      "inputs": [],
      "name": "ICO_PERCENTAGE_4",
      "outputs": [
        {
          "name": "",
          "type": "uint256"
        }
      ],
      "payable": false,
      "stateMutability": "view",
      "type": "function"
    },
    {
      "constant": true,
      "inputs": [],
      "name": "ICO_LEVEL_2",
      "outputs": [
        {
          "name": "",
          "type": "uint256"
        }
      ],
      "payable": false,
      "stateMutability": "view",
      "type": "function"
    },
    {
      "constant": true,
      "inputs": [],
      "name": "PRESALE_TOKENCAP",
      "outputs": [
        {
          "name": "",
          "type": "uint256"
        }
      ],
      "payable": false,
      "stateMutability": "view",
      "type": "function"
    },
    {
      "constant": true,
      "inputs": [],
      "name": "PRIVATESALE_PERCENTAGE_3",
      "outputs": [
        {
          "name": "",
          "type": "uint256"
        }
      ],
      "payable": false,
      "stateMutability": "view",
      "type": "function"
    },
    {
      "constant": true,
      "inputs": [],
      "name": "PRESALE_LEVEL_1",
      "outputs": [
        {
          "name": "",
          "type": "uint256"
        }
      ],
      "payable": false,
      "stateMutability": "view",
      "type": "function"
    },
    {
      "constant": true,
      "inputs": [],
      "name": "PRIVATESALE_LEVEL_5",
      "outputs": [
        {
          "name": "",
          "type": "uint256"
        }
      ],
      "payable": false,
      "stateMutability": "view",
      "type": "function"
    },
    {
      "constant": true,
      "inputs": [],
      "name": "PRIVATESALE_PERCENTAGE_4",
      "outputs": [
        {
          "name": "",
          "type": "uint256"
        }
      ],
      "payable": false,
      "stateMutability": "view",
      "type": "function"
    },
    {
      "constant": true,
      "inputs": [],
      "name": "PRIVATESALE_TOKENCAP",
      "outputs": [
        {
          "name": "",
          "type": "uint256"
        }
      ],
      "payable": false,
      "stateMutability": "view",
      "type": "function"
    },
    {
      "constant": false,
      "inputs": [
        {
          "name": "newOwner",
          "type": "address"
        }
      ],
      "name": "transferOwnership",
      "outputs": [],
      "payable": false,
      "stateMutability": "nonpayable",
      "type": "function"
    },
    {
      "inputs": [
        {
          "name": "_tokenAddress",
          "type": "address"
        },
        {
          "name": "_startTime",
          "type": "uint256"
        },
        {
          "name": "_endTime",
          "type": "uint256"
        }
      ],
      "payable": false,
      "stateMutability": "nonpayable",
      "type": "constructor"
    },
    {
      "payable": true,
      "stateMutability": "payable",
      "type": "fallback"
    },
    {
      "anonymous": false,
      "inputs": [
        {
          "indexed": true,
          "name": "purchaser",
          "type": "address"
        },
        {
          "indexed": true,
          "name": "beneficiary",
          "type": "address"
        },
        {
          "indexed": false,
          "name": "value",
          "type": "uint256"
        },
        {
          "indexed": false,
          "name": "amount",
          "type": "uint256"
        }
      ],
      "name": "TokenPurchase",
      "type": "event"
    },
    {
      "anonymous": false,
      "inputs": [
        {
          "indexed": true,
          "name": "_cloneToken",
          "type": "address"
        }
      ],
      "name": "NewClonedToken",
      "type": "event"
    },
    {
      "anonymous": false,
      "inputs": [
        {
          "indexed": false,
          "name": "_from",
          "type": "address"
        },
        {
          "indexed": false,
          "name": "_to",
          "type": "address"
        },
        {
          "indexed": false,
          "name": "_amount",
          "type": "uint256"
        }
      ],
      "name": "OnTransfer",
      "type": "event"
    },
    {
      "anonymous": false,
      "inputs": [
        {
          "indexed": false,
          "name": "_owner",
          "type": "address"
        },
        {
          "indexed": false,
          "name": "_spender",
          "type": "address"
        },
        {
          "indexed": false,
          "name": "_amount",
          "type": "uint256"
        }
      ],
      "name": "OnApprove",
      "type": "event"
    },
    {
      "anonymous": false,
      "inputs": [
        {
          "indexed": false,
          "name": "_name",
          "type": "string"
        },
        {
          "indexed": false,
          "name": "_value",
          "type": "uint256"
        }
      ],
      "name": "LogInt",
      "type": "event"
    },
    {
      "anonymous": false,
      "inputs": [],
      "name": "Finalized",
      "type": "event"
    },
    {
      "anonymous": false,
      "inputs": [],
      "name": "Pause",
      "type": "event"
    },
    {
      "anonymous": false,
      "inputs": [],
      "name": "Unpause",
      "type": "event"
    },
    {
      "constant": false,
      "inputs": [
        {
          "name": "_beneficiary",
          "type": "address"
        }
      ],
      "name": "buyTokens",
      "outputs": [],
      "payable": true,
      "stateMutability": "payable",
      "type": "function"
    },
    {
      "constant": true,
      "inputs": [
        {
          "name": "_wei",
          "type": "uint256"
        }
      ],
      "name": "determineBonus",
      "outputs": [
        {
          "name": "",
          "type": "uint256"
        }
      ],
      "payable": false,
      "stateMutability": "view",
      "type": "function"
    },
    {
      "constant": false,
      "inputs": [
        {
          "name": "_sender",
          "type": "address"
        }
      ],
      "name": "whitelist",
      "outputs": [],
      "payable": false,
      "stateMutability": "nonpayable",
      "type": "function"
    },
    {
      "constant": true,
      "inputs": [],
      "name": "totalSupply",
      "outputs": [
        {
          "name": "",
          "type": "uint256"
        }
      ],
      "payable": false,
      "stateMutability": "view",
      "type": "function"
    },
    {
      "constant": true,
      "inputs": [
        {
          "name": "_owner",
          "type": "address"
        }
      ],
      "name": "balanceOf",
      "outputs": [
        {
          "name": "",
          "type": "uint256"
        }
      ],
      "payable": false,
      "stateMutability": "view",
      "type": "function"
    },
    {
      "constant": false,
      "inputs": [
        {
          "name": "_newController",
          "type": "address"
        }
      ],
      "name": "changeController",
      "outputs": [],
      "payable": false,
      "stateMutability": "nonpayable",
      "type": "function"
    },
    {
      "constant": false,
      "inputs": [],
      "name": "enableTransfers",
      "outputs": [],
      "payable": false,
      "stateMutability": "nonpayable",
      "type": "function"
    },
    {
      "constant": false,
      "inputs": [],
      "name": "lockTransfers",
      "outputs": [],
      "payable": false,
      "stateMutability": "nonpayable",
      "type": "function"
    },
    {
      "constant": false,
      "inputs": [],
      "name": "enableMasterTransfers",
      "outputs": [],
      "payable": false,
      "stateMutability": "nonpayable",
      "type": "function"
    },
    {
      "constant": false,
      "inputs": [],
      "name": "lockMasterTransfers",
      "outputs": [],
      "payable": false,
      "stateMutability": "nonpayable",
      "type": "function"
    },
    {
      "constant": false,
      "inputs": [],
      "name": "forceStart",
      "outputs": [],
      "payable": false,
      "stateMutability": "nonpayable",
      "type": "function"
    },
    {
      "constant": false,
      "inputs": [],
      "name": "allocateLedTokens",
      "outputs": [],
      "payable": false,
      "stateMutability": "nonpayable",
      "type": "function"
    },
    {
      "constant": false,
      "inputs": [],
      "name": "finalize",
      "outputs": [],
      "payable": false,
      "stateMutability": "nonpayable",
      "type": "function"
    },
    {
      "constant": true,
      "inputs": [],
      "name": "getInfo",
      "outputs": [
        {
          "name": "",
          "type": "uint256"
        },
        {
          "name": "",
          "type": "uint256"
        },
        {
          "name": "",
          "type": "string"
        },
        {
          "name": "",
          "type": "bool"
        },
        {
          "name": "",
          "type": "uint256"
        },
        {
          "name": "",
          "type": "uint256"
        },
        {
          "name": "",
          "type": "uint256"
        },
        {
          "name": "",
          "type": "bool"
        },
        {
          "name": "",
          "type": "uint256"
        },
        {
          "name": "",
          "type": "uint256"
        }
      ],
      "payable": false,
      "stateMutability": "view",
      "type": "function"
    },
    {
      "constant": true,
      "inputs": [],
      "name": "getInfoLevels",
      "outputs": [
        {
          "name": "",
          "type": "uint256"
        },
        {
          "name": "",
          "type": "uint256"
        },
        {
          "name": "",
          "type": "uint256"
        },
        {
          "name": "",
          "type": "uint256"
        },
        {
          "name": "",
          "type": "uint256"
        },
        {
          "name": "",
          "type": "uint256"
        },
        {
          "name": "",
          "type": "uint256"
        },
        {
          "name": "",
          "type": "uint256"
        },
        {
          "name": "",
          "type": "uint256"
        },
        {
          "name": "",
          "type": "uint256"
        }
      ],
      "payable": false,
      "stateMutability": "view",
      "type": "function"
    }
  ],
  "bytecode": "0x60806040526000805460a060020a60ff0219169055600c80546201000060b060020a031916759c0e9941a4c554f6e1aa1930268a7c992e3c8602000017905563015752a0600d556a129c8f71ad02e2a6800000600e5569032d26d0a62b72a8a000600f556010805460ff1916905534801561007957600080fd5b50604051606080611c1683398101604090815281516020830151919092015160008054600160a060020a03191633600160a060020a0390811691909117909155831615156100c657600080fd5b600082116100d357600080fd5b8181116100df57600080fd5b60079190915560085560018054600160a060020a031916600160a060020a0392909216919091179055670de0b6b3a7640000600655611af3806101236000396000f3006080604052600436106103755763ffffffff60e060020a6000350416622f9569811461038057806302c6f427146103a757806304df48ef146103bc578063118e09c8146103d157806317a4a8a3146103e657806317f6252f146103fb57806318160ddd146104105780631a11415e146104255780631c9b612e1461043a5780631f2698ab14610463578063217477f61461047857806324fad6651461048d578063260edaaa146104a25780632aa6f98b146104b75780632bb70e54146104e85780633197cbb6146104fd578063355274ea146105125780633cebb823146105275780633f19bfbf146105485780633f4ba83a1461055d57806345078531146105725780634bb278f31461058757806353f4db011461059c57806356dcd2fa146103a75780635a9b0b89146105b15780635c975abb146106855780635e48f58f1461047857806361ad487c1461069a57806369b8f38d146106af5780636d8d151b146106c45780636de9f32b146106dc5780636e7e3b2b146106f157806370a0823114610706578063733b679e146107275780637530b54d1461073c57806378e979251461075157806382b74b89146107665780638456cb591461077b57806384fe50291461079057806387c5d1be146107a55780638da5cb5b146107ba57806394c0f3e2146107cf5780639745272a146107e4578063975c95da146103fb578063978d6cff146107f957806397e1d68d1461080e5780639957b8da1461069a57806399abd788146108235780639b19251a14610838578063a0f68eba146103fb578063a28a0ac214610859578063a69ade721461086e578063aa487f49146106af578063ac20e2a014610883578063adefd50114610898578063af35c6c7146108ad578063b0a0662a146108c2578063b1fc0792146108d7578063b3f05b97146108ec578063b5fe79db14610901578063b77dfb59146103a7578063bb13245f14610966578063c4b71cec1461097b578063cb4de96814610990578063ce72a696146109a5578063d936547e146109ba578063dd54291b146109db578063e08155dd1461069a578063e08d8497146109f0578063e73c032b14610a05578063e7a50a9d146107cf578063e9e55c7114610a1a578063ec8ac4d814610a2f578063edca1392146108d7578063ef7533cf14610a43578063f0004ab414610a58578063f2fde38b14610a6d578063ff85fba214610a8e575b61037e33610aa3565b005b34801561038c57600080fd5b50610395610cd6565b60408051918252519081900360200190f35b3480156103b357600080fd5b50610395610cdc565b3480156103c857600080fd5b50610395610ce8565b3480156103dd57600080fd5b50610395610cf4565b3480156103f257600080fd5b50610395610d00565b34801561040757600080fd5b50610395610d0c565b34801561041c57600080fd5b50610395610d11565b34801561043157600080fd5b50610395610da1565b34801561044657600080fd5b5061044f610dac565b604080519115158252519081900360200190f35b34801561046f57600080fd5b5061044f610dba565b34801561048457600080fd5b50610395610dc3565b34801561049957600080fd5b5061037e610dc8565b3480156104ae57600080fd5b50610395610e63565b3480156104c357600080fd5b506104cc610e69565b60408051600160a060020a039092168252519081900360200190f35b3480156104f457600080fd5b5061037e610e78565b34801561050957600080fd5b50610395610ef8565b34801561051e57600080fd5b50610395610efe565b34801561053357600080fd5b5061037e600160a060020a0360043516610f04565b34801561055457600080fd5b5061037e610fb5565b34801561056957600080fd5b5061044f611173565b34801561057e57600080fd5b506103956111f2565b34801561059357600080fd5b5061037e6111fe565b3480156105a857600080fd5b5061039561137c565b3480156105bd57600080fd5b506105c6611382565b604051808b81526020018a815260200180602001891515151581526020018881526020018781526020018681526020018515151515815260200184815260200183815260200182810382528a818151815260200191508051906020019080838360005b83811015610641578181015183820152602001610629565b50505050905090810190601f16801561066e5780820380516001836020036101000a031916815260200191505b509b50505050505050505050505060405180910390f35b34801561069157600080fd5b5061044f6114ad565b3480156106a657600080fd5b506103956114bd565b3480156106bb57600080fd5b506103956114c2565b3480156106d057600080fd5b506103956004356114c7565b3480156106e857600080fd5b5061039561154b565b3480156106fd57600080fd5b50610395611551565b34801561071257600080fd5b50610395600160a060020a0360043516611557565b34801561073357600080fd5b506103956115f4565b34801561074857600080fd5b50610395611600565b34801561075d57600080fd5b5061039561160c565b34801561077257600080fd5b5061037e611612565b34801561078757600080fd5b5061044f6116a0565b34801561079c57600080fd5b50610395611724565b3480156107b157600080fd5b5061039561172a565b3480156107c657600080fd5b506104cc611732565b3480156107db57600080fd5b50610395611741565b3480156107f057600080fd5b50610395611746565b34801561080557600080fd5b5061039561174b565b34801561081a57600080fd5b50610395611753565b34801561082f57600080fd5b5061039561175e565b34801561084457600080fd5b5061037e600160a060020a0360043516611765565b34801561086557600080fd5b506103956117a4565b34801561087a57600080fd5b506104cc6117b0565b34801561088f57600080fd5b506103956117c8565b3480156108a457600080fd5b506104cc6117d0565b3480156108b957600080fd5b5061037e6117e5565b3480156108ce57600080fd5b50610395611870565b3480156108e357600080fd5b5061039561187a565b3480156108f857600080fd5b5061044f611887565b34801561090d57600080fd5b50610916611890565b604080519a8b5260208b0199909952898901979097526060890195909552608088019390935260a087019190915260c086015260e085015261010084015261012083015251908190036101400190f35b34801561097257600080fd5b506103956118d3565b34801561098757600080fd5b506103956118d9565b34801561099c57600080fd5b506103956118e5565b3480156109b157600080fd5b506103956118f0565b3480156109c657600080fd5b5061044f600160a060020a03600435166118f5565b3480156109e757600080fd5b5061039561190a565b3480156109fc57600080fd5b50610395611910565b348015610a1157600080fd5b5061039561191c565b348015610a2657600080fd5b50610395611924565b61037e600160a060020a0360043516610aa3565b348015610a4f57600080fd5b50610395611930565b348015610a6457600080fd5b50610395611935565b348015610a7957600080fd5b5061037e600160a060020a036004351661193d565b348015610a9a57600080fd5b5061037e611993565b60008060008060008060008060149054906101000a900460ff16151515610ac957600080fd5b600c5460ff1615610ad957600080fd5b600160a060020a0388161515610aee57600080fd5b610af66119bd565b1515610b0157600080fd5b60025434975066025e546d73f1009650610b21908863ffffffff611a0816565b600255610b2d876114c7565b9450610b5486610b486006548a611a1e90919063ffffffff16565b9063ffffffff611a4216565b92506000851115610b8957610b7083606463ffffffff611a4216565b9150610b82828663ffffffff611a1e16565b9350610b8e565b600093505b610b9e838563ffffffff611a0816565b600354909150610bb4908263ffffffff611a0816565b6003819055600e5411610bc657600080fd5b600554610bda90600163ffffffff611a0816565b600555600154604080517f40c10f19000000000000000000000000000000000000000000000000000000008152600160a060020a038b8116600483015260248201859052915191909216916340c10f199160448083019260209291908290030181600087803b158015610c4c57600080fd5b505af1158015610c60573d6000803e3d6000fd5b505050506040513d6020811015610c7657600080fd5b505060408051888152602081018390528151600160a060020a03808c169333909116927f623b3804fa71d67900d064613da8f94b9617215ee90799290593e1745087ad18929081900390910190a3610ccc611a59565b5050505050505050565b600a5481565b67a688906bd8b0000081565b67de0b6b3a7640000081565b67214e8348c4f0000081565b677068fb1598aa000081565b601981565b600154604080517f18160ddd0000000000000000000000000000000000000000000000000000000081529051600092600160a060020a0316916318160ddd91600480830192602092919082900301818787803b158015610d7057600080fd5b505af1158015610d84573d6000803e3d6000fd5b505050506040513d6020811015610d9a57600080fd5b5051905090565b66012f2a36b9f88081565b600c54610100900460ff1681565b60105460ff1681565b600f81565b60005433600160a060020a03908116911614610de357600080fd5b60018054604080517faec318f1000000000000000000000000000000000000000000000000000000008152600481019390935251600160a060020a039091169163aec318f191602480830192600092919082900301818387803b158015610e4957600080fd5b505af1158015610e5d573d6000803e3d6000fd5b50505050565b60095481565b600154600160a060020a031681565b60005433600160a060020a03908116911614610e9357600080fd5b600154604080517faec318f10000000000000000000000000000000000000000000000000000000081526000600482018190529151600160a060020a039093169263aec318f19260248084019391929182900301818387803b158015610e4957600080fd5b60085481565b600e5481565b60005433600160a060020a03908116911614610f1f57600080fd5b610f2881611a9a565b1515610f3357600080fd5b600154604080517f6d16fa41000000000000000000000000000000000000000000000000000000008152600160a060020a03848116600483015291519190921691636d16fa4191602480830192600092919082900301818387803b158015610f9a57600080fd5b505af1158015610fae573d6000803e3d6000fd5b5050505050565b60005433600160a060020a03908116911614610fd057600080fd5b600c5460ff1615610fe057600080fd5b600c54610100900460ff1615610ff557600080fd5b60065461100d906302160ec09063ffffffff611a1e16565b600a819055600154600c54604080517f40c10f19000000000000000000000000000000000000000000000000000000008152600160a060020a0362010000909304831660048201526024810194909452519116916340c10f199160448083019260209291908290030181600087803b15801561108857600080fd5b505af115801561109c573d6000803e3d6000fd5b505050506040513d60208110156110b257600080fd5b5050600354600e54036009819055600154600c54604080517f40c10f19000000000000000000000000000000000000000000000000000000008152600160a060020a0362010000909304831660048201526024810194909452519116916340c10f199160448083019260209291908290030181600087803b15801561113657600080fd5b505af115801561114a573d6000803e3d6000fd5b505050506040513d602081101561116057600080fd5b5050600c805461ff001916610100179055565b6000805433600160a060020a0390811691161461118f57600080fd5b60005460a060020a900460ff1615156111a757600080fd5b6000805474ff0000000000000000000000000000000000000000191681556040517f7805862f689e2f13df9f062ff482ad3ad112aca9e0847911ed832e158c525b339190a150600190565b67d02ab486cedc000081565b60005433600160a060020a0390811691161461121957600080fd5b60005460a060020a900460ff16151561123157600080fd5b600c54610100900460ff16151561124757600080fd5b600160009054906101000a9004600160a060020a0316600160a060020a0316637d64bcb46040518163ffffffff1660e060020a028152600401602060405180830381600087803b15801561129a57600080fd5b505af11580156112ae573d6000803e3d6000fd5b505050506040513d60208110156112c457600080fd5b505060018054604080517ff41e60c5000000000000000000000000000000000000000000000000000000008152600481019390935251600160a060020a039091169163f41e60c591602480830192600092919082900301818387803b15801561132c57600080fd5b505af1158015611340573d6000803e3d6000fd5b50506040517f6823b073d48d6e3a7d385eeb601452d680e74bb46afe3255a7d778f3a9b17681925060009150a1600c805460ff19166001179055565b60025481565b600080606060008060008060008060008060606000601292506040805190810160405280600381526020017f4c454400000000000000000000000000000000000000000000000000000000008152509150600160009054906101000a9004600160a060020a0316600160a060020a031663bef97c876040518163ffffffff1660e060020a028152600401602060405180830381600087803b15801561142657600080fd5b505af115801561143a573d6000803e3d6000fd5b505050506040513d602081101561145057600080fd5b810190808051906020019092919050505090506305f5e100838383600554600254600e54601060009054906101000a900460ff166007546008549c509c509c509c509c509c509c509c509c509c5050505090919293949596979899565b60005460a060020a900460ff1681565b601481565b600a81565b6000673782dace9d90000082111561154257676f05b59d3b20000082111561153a5767a688906bd8b000008211156115325767de0b6b3a7640000082111561152a576801158e460913d0000082111561152257506019611546565b506014611546565b50600f611546565b50600a611546565b506005611546565b5060005b919050565b60035481565b60055481565b600154604080517f70a08231000000000000000000000000000000000000000000000000000000008152600160a060020a038481166004830152915160009392909216916370a082319160248082019260209290919082900301818787803b1580156115c257600080fd5b505af11580156115d6573d6000803e3d6000fd5b505050506040513d60208110156115ec57600080fd5b505192915050565b6753444835ec58000081565b677ce66c50e284000081565b60075481565b60005433600160a060020a0390811691161461162d57600080fd5b600854421061163b57600080fd5b600154604080517ff41e60c50000000000000000000000000000000000000000000000000000000081526000600482018190529151600160a060020a039093169263f41e60c59260248084019391929182900301818387803b158015610e4957600080fd5b6000805433600160a060020a039081169116146116bc57600080fd5b60005460a060020a900460ff16156116d357600080fd5b6000805474ff0000000000000000000000000000000000000000191660a060020a1781556040517f6985a02210a168e66602d3235cb6db0e70f92b3ba4d376a33c0f3d9434bff6259190a150600190565b600f5481565b6302160ec081565b600054600160a060020a031681565b602381565b606481565b63015752a081565b6601c6bf5263400081565b620f424081565b60005433600160a060020a0390811691161461178057600080fd5b600160a060020a03166000908152600b60205260409020805460ff19166001179055565b674563918244f4000081565b739c0e9941a4c554f6e1aa1930268a7c992e3c860281565b6305f5e10081565b600c54620100009004600160a060020a031681565b60085442101561180a5760005433600160a060020a0390811691161461180a57600080fd5b60018054604080517ff41e60c5000000000000000000000000000000000000000000000000000000008152600481019390935251600160a060020a039091169163f41e60c591602480830192600092919082900301818387803b158015610e4957600080fd5b6597951b10b10081565b6801158e460913d0000081565b600c5460ff1681565b6729a2241af62c00006753444835ec580000677ce66c50e284000067a688906bd8b0000067d02ab486cedc0000600a600f60146019602390919293949596979899565b60065481565b673782dace9d90000081565b66025e546d73f10081565b600581565b600b6020526000908152604090205460ff1681565b600d5481565b676f05b59d3b20000081565b63011e1a3081565b6729a2241af62c000081565b603281565b63015b233081565b60005433600160a060020a0390811691161461195857600080fd5b600160a060020a03811615611990576000805473ffffffffffffffffffffffffffffffffffffffff1916600160a060020a0383161790555b50565b60005433600160a060020a039081169116146119ae57600080fd5b6010805460ff19166001179055565b6000806000806000429350600754841015806119db575060105460ff165b92506008548411159150346000141590508080156119f65750825b80156119ff5750815b94505050505090565b600082820183811015611a1757fe5b9392505050565b6000828202831580611a3a5750828482811515611a3757fe5b04145b1515611a1757fe5b6000808284811515611a5057fe5b04949350505050565b600c54604051600160a060020a036201000090920491909116903480156108fc02916000818181858888f19350505050158015611990573d6000803e3d6000fd5b600080600160a060020a0383161515611ab65760009150611ac1565b823b90506000811191505b509190505600a165627a7a723058204d687767a9c60f0f8cc9462f10ed4627a0c906fe04bffd4dfbf2391ca33cfb2a0029",
  "source": "pragma solidity ^0.4.13;\n\nimport './SafeMath.sol';\nimport './Pausable.sol';\nimport './LedTokenInterface.sol';\nimport './TokenInfo.sol';\n/**\n * @title Tokensale\n * Tokensale allows investors to make token purchases and assigns them tokens based\n\n * on a token per ETH rate. Funds collected are forwarded to a wallet as they arrive.\n */\ncontract TokenSale is Pausable, TokenInfo {\n\n  using SafeMath for uint256;\n\n  LedTokenInterface public ledToken;\n  uint256 public totalWeiRaised;\n  uint256 public tokensMinted;\n  uint256 public totalSupply;\n  uint256 public contributors;\n  uint256 public decimalsMultiplier;\n  uint256 public startTime;\n  uint256 public endTime;\n  uint256 public surplusTokens;\n  uint256 public allocatedTokens;\n\n  mapping (address => bool) public whitelisted;\n\n  bool public finalized;\n\n  bool public ledTokensAllocated;\n  address public ledMultiSig = LED_MULTISIG;\n\n  uint256 public tokenCap = ICO_TOKENCAP;\n  uint256 public cap = tokenCap * (1 ether);\n  uint256 public weiCap = tokenCap * ICO_BASE_PRICE_IN_WEI;\n\n  bool public started = false;\n\n  event TokenPurchase(address indexed purchaser, address indexed beneficiary, uint256 value, uint256 amount);\n  event NewClonedToken(address indexed _cloneToken);\n  event OnTransfer(address _from, address _to, uint _amount);\n  event OnApprove(address _owner, address _spender, uint _amount);\n  event LogInt(string _name, uint256 _value);\n  event Finalized();\n\n  function TokenSale(address _tokenAddress, uint256 _startTime, uint256 _endTime) public {\n    require(_tokenAddress != 0x0);\n    require(_startTime > 0);\n    require(_endTime > _startTime);\n\n    startTime = _startTime;\n    endTime = _endTime;\n    ledToken = LedTokenInterface(_tokenAddress);\n\n    decimalsMultiplier = (1 ether);\n  }\n\n\n  /**\n   * High level token purchase function\n   */\n  function() public payable {\n    buyTokens(msg.sender);\n  }\n\n  /**\n   * Low level token purchase function\n   * @param _beneficiary will receive the tokens.\n   */\n  function buyTokens(address _beneficiary) public payable whenNotPaused whenNotFinalized {\n    require(_beneficiary != 0x0);\n    require(validPurchase());\n    // require(isWhitelisted(_beneficiary));\n\n    uint256 weiAmount = msg.value;\n    uint256 priceInWei = ICO_BASE_PRICE_IN_WEI;\n    totalWeiRaised = totalWeiRaised.add(weiAmount);\n\n    uint256 bonusPercentage = determineBonus(weiAmount);\n    uint256 bonusTokens;\n\n    uint256 initialTokens = weiAmount.mul(decimalsMultiplier).div(priceInWei);\n    if(bonusPercentage>0){\n      uint256 initialDivided = initialTokens.div(100);\n      bonusTokens = initialDivided.mul(bonusPercentage);\n    } else {\n      bonusTokens = 0;\n    }\n    uint256 tokens = initialTokens.add(bonusTokens);\n    tokensMinted = tokensMinted.add(tokens);\n    require(tokensMinted < cap);\n\n    contributors = contributors.add(1);\n\n    ledToken.mint(_beneficiary, tokens);\n    TokenPurchase(msg.sender, _beneficiary, weiAmount, tokens);\n    forwardFunds();\n  }\n\n  function determineBonus(uint256 _wei) constant public returns (uint256) {\n    if(_wei > ICO_LEVEL_1) {\n      if(_wei > ICO_LEVEL_2) {\n        if(_wei > ICO_LEVEL_3) {\n          if(_wei > ICO_LEVEL_4) {\n            if(_wei > ICO_LEVEL_5) {\n              return ICO_PERCENTAGE_5;\n            } else {\n              return ICO_PERCENTAGE_4;\n            }\n          } else {\n            return ICO_PERCENTAGE_3;\n          }\n        } else {\n          return ICO_PERCENTAGE_2;\n        }\n      } else {\n        return ICO_PERCENTAGE_1;\n      }\n    } else {\n      return 0;\n    }\n  }\n\n  function isWhitelisted(address _sender) internal constant returns(bool) {\n    return whitelisted[_sender];\n  }\n\n  function whitelist(address _sender) public onlyOwner {\n    whitelisted[_sender] = true;\n  }\n\n\n  /**\n  * Forwards funds to the tokensale wallet\n  */\n  function forwardFunds() internal {\n    ledMultiSig.transfer(msg.value);\n  }\n\n\n  /**\n  * Validates the purchase (period, minimum amount, within cap)\n  * @return {bool} valid\n  */\n  function validPurchase() internal constant returns (bool) {\n    uint256 current = now;\n    bool presaleStarted = (current >= startTime || started);\n    bool presaleNotEnded = current <= endTime;\n    bool nonZeroPurchase = msg.value != 0;\n    return nonZeroPurchase && presaleStarted && presaleNotEnded;\n  }\n\n  /**\n  * Returns the total Led token supply\n  * @return totalSupply {uint256} Led Token Total Supply\n  */\n  function totalSupply() public constant returns (uint256) {\n    return ledToken.totalSupply();\n  }\n\n  /**\n  * Returns token holder Led Token balance\n  * @param _owner {address} Token holder address\n  * @return balance {uint256} Corresponding token holder balance\n  */\n  function balanceOf(address _owner) public constant returns (uint256) {\n    return ledToken.balanceOf(_owner);\n  }\n\n  /**\n  * Change the Led Token controller\n  * @param _newController {address} New Led Token controller\n  */\n  function changeController(address _newController) public onlyOwner {\n    require(isContract(_newController));\n    ledToken.transferControl(_newController);\n  }\n\n\n  function enableTransfers() public {\n    if (now < endTime) {\n      require(msg.sender == owner);\n    }\n    ledToken.enableTransfers(true);\n  }\n\n  function lockTransfers() public onlyOwner {\n    require(now < endTime);\n    ledToken.enableTransfers(false);\n  }\n\n  function enableMasterTransfers() public onlyOwner {\n    ledToken.enableMasterTransfers(true);\n  }\n\n  function lockMasterTransfers() public onlyOwner {\n    ledToken.enableMasterTransfers(false);\n  }\n\n  function forceStart() public onlyOwner {\n    started = true;\n  }\n\n  function allocateLedTokens() public onlyOwner whenNotFinalized {\n    require(!ledTokensAllocated);\n    allocatedTokens = LEDTEAM_TOKENS.mul(decimalsMultiplier);\n    ledToken.mint(ledMultiSig, allocatedTokens);\n    surplusTokens = cap - tokensMinted;\n    ledToken.mint(ledMultiSig, surplusTokens);\n    ledTokensAllocated = true;\n  }\n\n  function finalize() public onlyOwner {\n    require(paused);\n    require(ledTokensAllocated);\n\n    ledToken.finishMinting();\n    ledToken.enableTransfers(true);\n    Finalized();\n\n    finalized = true;\n  }\n\n  function getInfo() public constant returns(uint256, uint256, string, bool,  uint256, uint256, uint256, \n  bool, uint256, uint256){\n    uint256 decimals = 18;\n    string memory symbol = \"LED\";\n    bool transfersEnabled = ledToken.transfersEnabled();\n    return (\n      TOTAL_TOKENCAP, // Tokencap with the decimal point in place. should be 100.000.000\n      decimals, // Decimals\n      symbol,\n      transfersEnabled,\n      contributors,\n      totalWeiRaised,\n      cap, // Tokencap for the ICO without the decimal point in place. Will be a huge number.\n      started,\n      startTime, // Start time and end time in Unix timestamp format with a length of 10 numbers.\n      endTime\n    );\n  }\n  \n  function getInfoLevels() public constant returns(uint256, uint256, uint256, uint256, uint256, uint256, \n  uint256, uint256, uint256, uint256){\n    return (\n      PRESALE_LEVEL_1, // Amount of ether needed per bonus level\n      PRESALE_LEVEL_2,\n      PRESALE_LEVEL_3,\n      PRESALE_LEVEL_4,\n      PRESALE_LEVEL_5,\n      PRESALE_PERCENTAGE_1, // Bonus percentage per bonus level\n      PRESALE_PERCENTAGE_2,\n      PRESALE_PERCENTAGE_3,\n      PRESALE_PERCENTAGE_4,\n      PRESALE_PERCENTAGE_5\n    );\n  }\n\n\n  function isContract(address _addr) constant internal returns(bool) {\n    uint size;\n    if (_addr == 0)\n      return false;\n    assembly {\n        size := extcodesize(_addr)\n    }\n    return size>0;\n  }\n\n  modifier whenNotFinalized() {\n    require(!finalized);\n    _;\n  }\n\n}",
  "sourcePath": "/Users/julesdesmit/Desktop/workspace/terawatt/tokensale_contracts/contracts/TokenSale.sol",
  "compiler": {
    "name": "solc",
    "version": "0.4.23+commit.124ca40d.Emscripten.clang"
  },
  "schemaVersion": "2.0.0",
  "updatedAt": "2018-05-25T15:25:48.427Z"
}