{
  "contractName": "TokenSale",
  "abi": [
    {
      "constant": true,
      "inputs": [],
      "name": "allocatedTokens",
      "outputs": [
        {
          "name": "",
          "type": "uint256"
        }
      ],
      "payable": false,
      "stateMutability": "view",
      "type": "function"
    },
    {
      "constant": true,
      "inputs": [],
      "name": "BASE_PRICE_IN_WEI",
      "outputs": [
        {
          "name": "",
          "type": "uint256"
        }
      ],
      "payable": false,
      "stateMutability": "view",
      "type": "function"
    },
    {
      "constant": true,
      "inputs": [],
      "name": "ledTokensAllocated",
      "outputs": [
        {
          "name": "",
          "type": "bool"
        }
      ],
      "payable": false,
      "stateMutability": "view",
      "type": "function"
    },
    {
      "constant": true,
      "inputs": [],
      "name": "started",
      "outputs": [
        {
          "name": "",
          "type": "bool"
        }
      ],
      "payable": false,
      "stateMutability": "view",
      "type": "function"
    },
    {
      "constant": true,
      "inputs": [],
      "name": "ledToken",
      "outputs": [
        {
          "name": "",
          "type": "address"
        }
      ],
      "payable": false,
      "stateMutability": "view",
      "type": "function"
    },
    {
      "constant": true,
      "inputs": [],
      "name": "firstDiscountPrice",
      "outputs": [
        {
          "name": "",
          "type": "uint256"
        }
      ],
      "payable": false,
      "stateMutability": "view",
      "type": "function"
    },
    {
      "constant": true,
      "inputs": [],
      "name": "endTime",
      "outputs": [
        {
          "name": "",
          "type": "uint256"
        }
      ],
      "payable": false,
      "stateMutability": "view",
      "type": "function"
    },
    {
      "constant": true,
      "inputs": [],
      "name": "cap",
      "outputs": [
        {
          "name": "",
          "type": "uint256"
        }
      ],
      "payable": false,
      "stateMutability": "view",
      "type": "function"
    },
    {
      "constant": false,
      "inputs": [],
      "name": "unpause",
      "outputs": [
        {
          "name": "",
          "type": "bool"
        }
      ],
      "payable": false,
      "stateMutability": "nonpayable",
      "type": "function"
    },
    {
      "constant": true,
      "inputs": [],
      "name": "secondDiscountPrice",
      "outputs": [
        {
          "name": "",
          "type": "uint256"
        }
      ],
      "payable": false,
      "stateMutability": "view",
      "type": "function"
    },
    {
      "constant": true,
      "inputs": [],
      "name": "firstDiscountCap",
      "outputs": [
        {
          "name": "",
          "type": "uint256"
        }
      ],
      "payable": false,
      "stateMutability": "view",
      "type": "function"
    },
    {
      "constant": true,
      "inputs": [],
      "name": "thirdDiscountPrice",
      "outputs": [
        {
          "name": "",
          "type": "uint256"
        }
      ],
      "payable": false,
      "stateMutability": "view",
      "type": "function"
    },
    {
      "constant": true,
      "inputs": [],
      "name": "totalWeiRaised",
      "outputs": [
        {
          "name": "",
          "type": "uint256"
        }
      ],
      "payable": false,
      "stateMutability": "view",
      "type": "function"
    },
    {
      "constant": true,
      "inputs": [],
      "name": "paused",
      "outputs": [
        {
          "name": "",
          "type": "bool"
        }
      ],
      "payable": false,
      "stateMutability": "view",
      "type": "function"
    },
    {
      "constant": true,
      "inputs": [],
      "name": "tokensMinted",
      "outputs": [
        {
          "name": "",
          "type": "uint256"
        }
      ],
      "payable": false,
      "stateMutability": "view",
      "type": "function"
    },
    {
      "constant": true,
      "inputs": [],
      "name": "contributors",
      "outputs": [
        {
          "name": "",
          "type": "uint256"
        }
      ],
      "payable": false,
      "stateMutability": "view",
      "type": "function"
    },
    {
      "constant": true,
      "inputs": [],
      "name": "TOTAL_PRESALE_TOKENS",
      "outputs": [
        {
          "name": "",
          "type": "uint256"
        }
      ],
      "payable": false,
      "stateMutability": "view",
      "type": "function"
    },
    {
      "constant": true,
      "inputs": [],
      "name": "startTime",
      "outputs": [
        {
          "name": "",
          "type": "uint256"
        }
      ],
      "payable": false,
      "stateMutability": "view",
      "type": "function"
    },
    {
      "constant": false,
      "inputs": [],
      "name": "pause",
      "outputs": [
        {
          "name": "",
          "type": "bool"
        }
      ],
      "payable": false,
      "stateMutability": "nonpayable",
      "type": "function"
    },
    {
      "constant": true,
      "inputs": [],
      "name": "weiCap",
      "outputs": [
        {
          "name": "",
          "type": "uint256"
        }
      ],
      "payable": false,
      "stateMutability": "view",
      "type": "function"
    },
    {
      "constant": true,
      "inputs": [],
      "name": "TOKENS_ALLOCATED_TO_LED",
      "outputs": [
        {
          "name": "",
          "type": "uint256"
        }
      ],
      "payable": false,
      "stateMutability": "view",
      "type": "function"
    },
    {
      "constant": true,
      "inputs": [],
      "name": "owner",
      "outputs": [
        {
          "name": "",
          "type": "address"
        }
      ],
      "payable": false,
      "stateMutability": "view",
      "type": "function"
    },
    {
      "constant": true,
      "inputs": [],
      "name": "ledMultiSig",
      "outputs": [
        {
          "name": "",
          "type": "address"
        }
      ],
      "payable": false,
      "stateMutability": "view",
      "type": "function"
    },
    {
      "constant": true,
      "inputs": [],
      "name": "thirdDiscountCap",
      "outputs": [
        {
          "name": "",
          "type": "uint256"
        }
      ],
      "payable": false,
      "stateMutability": "view",
      "type": "function"
    },
    {
      "constant": true,
      "inputs": [],
      "name": "finalized",
      "outputs": [
        {
          "name": "",
          "type": "bool"
        }
      ],
      "payable": false,
      "stateMutability": "view",
      "type": "function"
    },
    {
      "constant": true,
      "inputs": [],
      "name": "decimalsMultiplier",
      "outputs": [
        {
          "name": "",
          "type": "uint256"
        }
      ],
      "payable": false,
      "stateMutability": "view",
      "type": "function"
    },
    {
      "constant": true,
      "inputs": [],
      "name": "remainingTokens",
      "outputs": [
        {
          "name": "",
          "type": "uint256"
        }
      ],
      "payable": false,
      "stateMutability": "view",
      "type": "function"
    },
    {
      "constant": true,
      "inputs": [],
      "name": "tokenCap",
      "outputs": [
        {
          "name": "",
          "type": "uint256"
        }
      ],
      "payable": false,
      "stateMutability": "view",
      "type": "function"
    },
    {
      "constant": true,
      "inputs": [],
      "name": "secondDiscountCap",
      "outputs": [
        {
          "name": "",
          "type": "uint256"
        }
      ],
      "payable": false,
      "stateMutability": "view",
      "type": "function"
    },
    {
      "constant": false,
      "inputs": [
        {
          "name": "newOwner",
          "type": "address"
        }
      ],
      "name": "transferOwnership",
      "outputs": [],
      "payable": false,
      "stateMutability": "nonpayable",
      "type": "function"
    },
    {
      "constant": true,
      "inputs": [],
      "name": "PUBLIC_TOKENS",
      "outputs": [
        {
          "name": "",
          "type": "uint256"
        }
      ],
      "payable": false,
      "stateMutability": "view",
      "type": "function"
    },
    {
      "inputs": [
        {
          "name": "_tokenAddress",
          "type": "address"
        },
        {
          "name": "_startTime",
          "type": "uint256"
        },
        {
          "name": "_endTime",
          "type": "uint256"
        }
      ],
      "payable": false,
      "stateMutability": "nonpayable",
      "type": "constructor"
    },
    {
      "payable": true,
      "stateMutability": "payable",
      "type": "fallback"
    },
    {
      "anonymous": false,
      "inputs": [
        {
          "indexed": true,
          "name": "purchaser",
          "type": "address"
        },
        {
          "indexed": true,
          "name": "beneficiary",
          "type": "address"
        },
        {
          "indexed": false,
          "name": "value",
          "type": "uint256"
        },
        {
          "indexed": false,
          "name": "amount",
          "type": "uint256"
        }
      ],
      "name": "TokenPurchase",
      "type": "event"
    },
    {
      "anonymous": false,
      "inputs": [
        {
          "indexed": true,
          "name": "_cloneToken",
          "type": "address"
        }
      ],
      "name": "NewClonedToken",
      "type": "event"
    },
    {
      "anonymous": false,
      "inputs": [
        {
          "indexed": false,
          "name": "_from",
          "type": "address"
        },
        {
          "indexed": false,
          "name": "_to",
          "type": "address"
        },
        {
          "indexed": false,
          "name": "_amount",
          "type": "uint256"
        }
      ],
      "name": "OnTransfer",
      "type": "event"
    },
    {
      "anonymous": false,
      "inputs": [
        {
          "indexed": false,
          "name": "_owner",
          "type": "address"
        },
        {
          "indexed": false,
          "name": "_spender",
          "type": "address"
        },
        {
          "indexed": false,
          "name": "_amount",
          "type": "uint256"
        }
      ],
      "name": "OnApprove",
      "type": "event"
    },
    {
      "anonymous": false,
      "inputs": [
        {
          "indexed": false,
          "name": "_name",
          "type": "string"
        },
        {
          "indexed": false,
          "name": "_value",
          "type": "uint256"
        }
      ],
      "name": "LogInt",
      "type": "event"
    },
    {
      "anonymous": false,
      "inputs": [],
      "name": "Finalized",
      "type": "event"
    },
    {
      "anonymous": false,
      "inputs": [],
      "name": "Pause",
      "type": "event"
    },
    {
      "anonymous": false,
      "inputs": [],
      "name": "Unpause",
      "type": "event"
    },
    {
      "constant": false,
      "inputs": [
        {
          "name": "_beneficiary",
          "type": "address"
        }
      ],
      "name": "buyTokens",
      "outputs": [],
      "payable": true,
      "stateMutability": "payable",
      "type": "function"
    },
    {
      "constant": true,
      "inputs": [],
      "name": "getPriceInWei",
      "outputs": [
        {
          "name": "",
          "type": "uint256"
        }
      ],
      "payable": false,
      "stateMutability": "view",
      "type": "function"
    },
    {
      "constant": true,
      "inputs": [],
      "name": "totalSupply",
      "outputs": [
        {
          "name": "",
          "type": "uint256"
        }
      ],
      "payable": false,
      "stateMutability": "view",
      "type": "function"
    },
    {
      "constant": true,
      "inputs": [
        {
          "name": "_owner",
          "type": "address"
        }
      ],
      "name": "balanceOf",
      "outputs": [
        {
          "name": "",
          "type": "uint256"
        }
      ],
      "payable": false,
      "stateMutability": "view",
      "type": "function"
    },
    {
      "constant": false,
      "inputs": [
        {
          "name": "_newController",
          "type": "address"
        }
      ],
      "name": "changeController",
      "outputs": [],
      "payable": false,
      "stateMutability": "nonpayable",
      "type": "function"
    },
    {
      "constant": false,
      "inputs": [],
      "name": "enableTransfers",
      "outputs": [],
      "payable": false,
      "stateMutability": "nonpayable",
      "type": "function"
    },
    {
      "constant": false,
      "inputs": [],
      "name": "lockTransfers",
      "outputs": [],
      "payable": false,
      "stateMutability": "nonpayable",
      "type": "function"
    },
    {
      "constant": false,
      "inputs": [],
      "name": "enableMasterTransfers",
      "outputs": [],
      "payable": false,
      "stateMutability": "nonpayable",
      "type": "function"
    },
    {
      "constant": false,
      "inputs": [],
      "name": "lockMasterTransfers",
      "outputs": [],
      "payable": false,
      "stateMutability": "nonpayable",
      "type": "function"
    },
    {
      "constant": false,
      "inputs": [],
      "name": "forceStart",
      "outputs": [],
      "payable": false,
      "stateMutability": "nonpayable",
      "type": "function"
    },
    {
      "constant": false,
      "inputs": [],
      "name": "allocateLedTokens",
      "outputs": [],
      "payable": false,
      "stateMutability": "nonpayable",
      "type": "function"
    },
    {
      "constant": false,
      "inputs": [],
      "name": "finalize",
      "outputs": [],
      "payable": false,
      "stateMutability": "nonpayable",
      "type": "function"
    }
  ],
  "bytecode": "0x608060405260008060146101000a81548160ff021916908315150217905550739c0e9941a4c554f6e1aa1930268a7c992e3c8602600b60026101000a81548173ffffffffffffffffffffffffffffffffffffffff021916908373ffffffffffffffffffffffffffffffffffffffff1602179055506803860e639d8064000068056bc75e2d6310000003600c55670de0b6b3a7640000600c54811515620000a157fe5b04600d55657f544a44c000600d5402600e5560646055657f544a44c00002811515620000c957fe5b04600f556064605a657f544a44c00002811515620000e357fe5b046010556064605f657f544a44c00002811515620000fd57fe5b0460115560646005600e54028115156200011357fe5b046012556064600a600e54028115156200012957fe5b0460135560646014600e54028115156200013f57fe5b046014556000601560006101000a81548160ff0219169083151502179055503480156200016b57600080fd5b5060405160608062002029833981018060405281019080805190602001909291908051906020019092919080519060200190929190505050336000806101000a81548173ffffffffffffffffffffffffffffffffffffffff021916908373ffffffffffffffffffffffffffffffffffffffff16021790555060008373ffffffffffffffffffffffffffffffffffffffff16141515156200020a57600080fd5b6000821115156200021a57600080fd5b81811115156200022957600080fd5b816007819055508060088190555082600160006101000a81548173ffffffffffffffffffffffffffffffffffffffff021916908373ffffffffffffffffffffffffffffffffffffffff160217905550670de0b6b3a7640000600681905550505050611d8f806200029a6000396000f30060806040526004361061020e576000357c0100000000000000000000000000000000000000000000000000000000900463ffffffff1680622f95691461021957806309ad9dd31461024457806318160ddd1461026f5780631c9b612e1461029a5780631f2698ab146102c957806324fad665146102f85780632aa6f98b1461030f5780632bb70e54146103665780632ffc7b7e1461037d5780633197cbb6146103a8578063355274ea146103d35780633cebb823146103fe5780633f19bfbf146104415780633f4ba83a1461045857806345c531f3146104875780634b1dd591146104b25780634bb278f3146104dd5780634cf76cca146104f457806353f4db011461051f5780635c975abb1461054a5780636de9f32b146105795780636e7e3b2b146105a457806370a08231146105cf578063763fd2ab1461062657806378e979251461065157806382b74b891461067c5780638456cb591461069357806384fe5029146106c257806388475822146106ed5780638da5cb5b14610718578063adefd5011461076f578063af35c6c7146107c6578063b019ffd2146107dd578063b3f05b9714610808578063bb13245f14610837578063bf58390314610862578063dd54291b1461088d578063e2fa5fb1146108b8578063ec8ac4d8146108e3578063f2fde38b14610919578063f3a04af41461095c578063fc50465514610987578063ff85fba2146109b2575b610217336109c9565b005b34801561022557600080fd5b5061022e610c54565b6040518082815260200191505060405180910390f35b34801561025057600080fd5b50610259610c5a565b6040518082815260200191505060405180910390f35b34801561027b57600080fd5b50610284610c64565b6040518082815260200191505060405180910390f35b3480156102a657600080fd5b506102af610d2c565b604051808215151515815260200191505060405180910390f35b3480156102d557600080fd5b506102de610d3f565b604051808215151515815260200191505060405180910390f35b34801561030457600080fd5b5061030d610d52565b005b34801561031b57600080fd5b50610324610e5d565b604051808273ffffffffffffffffffffffffffffffffffffffff1673ffffffffffffffffffffffffffffffffffffffff16815260200191505060405180910390f35b34801561037257600080fd5b5061037b610e83565b005b34801561038957600080fd5b50610392610f8e565b6040518082815260200191505060405180910390f35b3480156103b457600080fd5b506103bd610f94565b6040518082815260200191505060405180910390f35b3480156103df57600080fd5b506103e8610f9a565b6040518082815260200191505060405180910390f35b34801561040a57600080fd5b5061043f600480360381019080803573ffffffffffffffffffffffffffffffffffffffff169060200190929190505050610fa0565b005b34801561044d57600080fd5b5061045661108c565b005b34801561046457600080fd5b5061046d611268565b604051808215151515815260200191505060405180910390f35b34801561049357600080fd5b5061049c61132d565b6040518082815260200191505060405180910390f35b3480156104be57600080fd5b506104c7611333565b6040518082815260200191505060405180910390f35b3480156104e957600080fd5b506104f2611339565b005b34801561050057600080fd5b50610509611583565b6040518082815260200191505060405180910390f35b34801561052b57600080fd5b50610534611589565b6040518082815260200191505060405180910390f35b34801561055657600080fd5b5061055f61158f565b604051808215151515815260200191505060405180910390f35b34801561058557600080fd5b5061058e6115a2565b6040518082815260200191505060405180910390f35b3480156105b057600080fd5b506105b96115a8565b6040518082815260200191505060405180910390f35b3480156105db57600080fd5b50610610600480360381019080803573ffffffffffffffffffffffffffffffffffffffff1690602001909291905050506115ae565b6040518082815260200191505060405180910390f35b34801561063257600080fd5b5061063b6116af565b6040518082815260200191505060405180910390f35b34801561065d57600080fd5b506106666116bc565b6040518082815260200191505060405180910390f35b34801561068857600080fd5b506106916116c2565b005b34801561069f57600080fd5b506106a86117dd565b604051808215151515815260200191505060405180910390f35b3480156106ce57600080fd5b506106d76118a4565b6040518082815260200191505060405180910390f35b3480156106f957600080fd5b506107026118aa565b6040518082815260200191505060405180910390f35b34801561072457600080fd5b5061072d6118b7565b604051808273ffffffffffffffffffffffffffffffffffffffff1673ffffffffffffffffffffffffffffffffffffffff16815260200191505060405180910390f35b34801561077b57600080fd5b506107846118dc565b604051808273ffffffffffffffffffffffffffffffffffffffff1673ffffffffffffffffffffffffffffffffffffffff16815260200191505060405180910390f35b3480156107d257600080fd5b506107db611902565b005b3480156107e957600080fd5b506107f2611a18565b6040518082815260200191505060405180910390f35b34801561081457600080fd5b5061081d611a1e565b604051808215151515815260200191505060405180910390f35b34801561084357600080fd5b5061084c611a31565b6040518082815260200191505060405180910390f35b34801561086e57600080fd5b50610877611a37565b6040518082815260200191505060405180910390f35b34801561089957600080fd5b506108a2611a3d565b6040518082815260200191505060405180910390f35b3480156108c457600080fd5b506108cd611a43565b6040518082815260200191505060405180910390f35b610917600480360381019080803573ffffffffffffffffffffffffffffffffffffffff1690602001909291905050506109c9565b005b34801561092557600080fd5b5061095a600480360381019080803573ffffffffffffffffffffffffffffffffffffffff169060200190929190505050611a49565b005b34801561096857600080fd5b50610971611b1e565b6040518082815260200191505060405180910390f35b34801561099357600080fd5b5061099c611b2b565b6040518082815260200191505060405180910390f35b3480156109be57600080fd5b506109c7611b83565b005b60008060008060149054906101000a900460ff161515156109e957600080fd5b600b60009054906101000a900460ff16151515610a0557600080fd5b60008473ffffffffffffffffffffffffffffffffffffffff1614151515610a2b57600080fd5b610a33611bfb565b1515610a3e57600080fd5b349250610a49611b2b565b9150610a6083600254611c5090919063ffffffff16565b600281905550610a8d82610a7f60065486611c6e90919063ffffffff16565b611ca190919063ffffffff16565b9050610aa481600354611c5090919063ffffffff16565b600381905550600c54600354101515610abc57600080fd5b610ad26001600554611c5090919063ffffffff16565b600581905550600160009054906101000a900473ffffffffffffffffffffffffffffffffffffffff1673ffffffffffffffffffffffffffffffffffffffff166340c10f1985836040518363ffffffff167c0100000000000000000000000000000000000000000000000000000000028152600401808373ffffffffffffffffffffffffffffffffffffffff1673ffffffffffffffffffffffffffffffffffffffff16815260200182815260200192505050602060405180830381600087803b158015610b9d57600080fd5b505af1158015610bb1573d6000803e3d6000fd5b505050506040513d6020811015610bc757600080fd5b8101908080519060200190929190505050508373ffffffffffffffffffffffffffffffffffffffff163373ffffffffffffffffffffffffffffffffffffffff167f623b3804fa71d67900d064613da8f94b9617215ee90799290593e1745087ad188584604051808381526020018281526020019250505060405180910390a3610c4e611cbc565b50505050565b600a5481565b657f544a44c00081565b6000600160009054906101000a900473ffffffffffffffffffffffffffffffffffffffff1673ffffffffffffffffffffffffffffffffffffffff166318160ddd6040518163ffffffff167c0100000000000000000000000000000000000000000000000000000000028152600401602060405180830381600087803b158015610cec57600080fd5b505af1158015610d00573d6000803e3d6000fd5b505050506040513d6020811015610d1657600080fd5b8101908080519060200190929190505050905090565b600b60019054906101000a900460ff1681565b601560009054906101000a900460ff1681565b6000809054906101000a900473ffffffffffffffffffffffffffffffffffffffff1673ffffffffffffffffffffffffffffffffffffffff163373ffffffffffffffffffffffffffffffffffffffff16141515610dad57600080fd5b600160009054906101000a900473ffffffffffffffffffffffffffffffffffffffff1673ffffffffffffffffffffffffffffffffffffffff1663aec318f160016040518263ffffffff167c01000000000000000000000000000000000000000000000000000000000281526004018082151515158152602001915050600060405180830381600087803b158015610e4357600080fd5b505af1158015610e57573d6000803e3d6000fd5b50505050565b600160009054906101000a900473ffffffffffffffffffffffffffffffffffffffff1681565b6000809054906101000a900473ffffffffffffffffffffffffffffffffffffffff1673ffffffffffffffffffffffffffffffffffffffff163373ffffffffffffffffffffffffffffffffffffffff16141515610ede57600080fd5b600160009054906101000a900473ffffffffffffffffffffffffffffffffffffffff1673ffffffffffffffffffffffffffffffffffffffff1663aec318f160006040518263ffffffff167c01000000000000000000000000000000000000000000000000000000000281526004018082151515158152602001915050600060405180830381600087803b158015610f7457600080fd5b505af1158015610f88573d6000803e3d6000fd5b50505050565b600f5481565b60085481565b600d5481565b610fa981611d27565b1515610fb457600080fd5b600160009054906101000a900473ffffffffffffffffffffffffffffffffffffffff1673ffffffffffffffffffffffffffffffffffffffff16636d16fa41826040518263ffffffff167c0100000000000000000000000000000000000000000000000000000000028152600401808273ffffffffffffffffffffffffffffffffffffffff1673ffffffffffffffffffffffffffffffffffffffff168152602001915050600060405180830381600087803b15801561107157600080fd5b505af1158015611085573d6000803e3d6000fd5b5050505050565b6000809054906101000a900473ffffffffffffffffffffffffffffffffffffffff1673ffffffffffffffffffffffffffffffffffffffff163373ffffffffffffffffffffffffffffffffffffffff161415156110e757600080fd5b600b60009054906101000a900460ff1615151561110357600080fd5b600b60019054906101000a900460ff1615151561111f57600080fd5b600160009054906101000a900473ffffffffffffffffffffffffffffffffffffffff1673ffffffffffffffffffffffffffffffffffffffff166340c10f19600b60029054906101000a900473ffffffffffffffffffffffffffffffffffffffff1668056bc75e2d631000006040518363ffffffff167c0100000000000000000000000000000000000000000000000000000000028152600401808373ffffffffffffffffffffffffffffffffffffffff1673ffffffffffffffffffffffffffffffffffffffff16815260200182815260200192505050602060405180830381600087803b15801561120f57600080fd5b505af1158015611223573d6000803e3d6000fd5b505050506040513d602081101561123957600080fd5b8101908080519060200190929190505050506001600b60016101000a81548160ff021916908315150217905550565b60008060009054906101000a900473ffffffffffffffffffffffffffffffffffffffff1673ffffffffffffffffffffffffffffffffffffffff163373ffffffffffffffffffffffffffffffffffffffff161415156112c557600080fd5b600060149054906101000a900460ff1615156112e057600080fd5b60008060146101000a81548160ff0219169083151502179055507f7805862f689e2f13df9f062ff482ad3ad112aca9e0847911ed832e158c525b3360405160405180910390a16001905090565b60105481565b60125481565b6000809054906101000a900473ffffffffffffffffffffffffffffffffffffffff1673ffffffffffffffffffffffffffffffffffffffff163373ffffffffffffffffffffffffffffffffffffffff1614151561139457600080fd5b600060149054906101000a900460ff1615156113af57600080fd5b600b60019054906101000a900460ff1615156113ca57600080fd5b600160009054906101000a900473ffffffffffffffffffffffffffffffffffffffff1673ffffffffffffffffffffffffffffffffffffffff16637d64bcb46040518163ffffffff167c0100000000000000000000000000000000000000000000000000000000028152600401602060405180830381600087803b15801561145057600080fd5b505af1158015611464573d6000803e3d6000fd5b505050506040513d602081101561147a57600080fd5b810190808051906020019092919050505050600160009054906101000a900473ffffffffffffffffffffffffffffffffffffffff1673ffffffffffffffffffffffffffffffffffffffff1663f41e60c560016040518263ffffffff167c01000000000000000000000000000000000000000000000000000000000281526004018082151515158152602001915050600060405180830381600087803b15801561152257600080fd5b505af1158015611536573d6000803e3d6000fd5b505050507f6823b073d48d6e3a7d385eeb601452d680e74bb46afe3255a7d778f3a9b1768160405160405180910390a16001600b60006101000a81548160ff021916908315150217905550565b60115481565b60025481565b600060149054906101000a900460ff1681565b60035481565b60055481565b6000600160009054906101000a900473ffffffffffffffffffffffffffffffffffffffff1673ffffffffffffffffffffffffffffffffffffffff166370a08231836040518263ffffffff167c0100000000000000000000000000000000000000000000000000000000028152600401808273ffffffffffffffffffffffffffffffffffffffff1673ffffffffffffffffffffffffffffffffffffffff168152602001915050602060405180830381600087803b15801561166d57600080fd5b505af1158015611681573d6000803e3d6000fd5b505050506040513d602081101561169757600080fd5b81019080805190602001909291905050509050919050565b6803860e639d8064000081565b60075481565b6000809054906101000a900473ffffffffffffffffffffffffffffffffffffffff1673ffffffffffffffffffffffffffffffffffffffff163373ffffffffffffffffffffffffffffffffffffffff1614151561171d57600080fd5b6008544210151561172d57600080fd5b600160009054906101000a900473ffffffffffffffffffffffffffffffffffffffff1673ffffffffffffffffffffffffffffffffffffffff1663f41e60c560006040518263ffffffff167c01000000000000000000000000000000000000000000000000000000000281526004018082151515158152602001915050600060405180830381600087803b1580156117c357600080fd5b505af11580156117d7573d6000803e3d6000fd5b50505050565b60008060009054906101000a900473ffffffffffffffffffffffffffffffffffffffff1673ffffffffffffffffffffffffffffffffffffffff163373ffffffffffffffffffffffffffffffffffffffff1614151561183a57600080fd5b600060149054906101000a900460ff1615151561185657600080fd5b6001600060146101000a81548160ff0219169083151502179055507f6985a02210a168e66602d3235cb6db0e70f92b3ba4d376a33c0f3d9434bff62560405160405180910390a16001905090565b600e5481565b68056bc75e2d6310000081565b6000809054906101000a900473ffffffffffffffffffffffffffffffffffffffff1681565b600b60029054906101000a900473ffffffffffffffffffffffffffffffffffffffff1681565b600854421015611968576000809054906101000a900473ffffffffffffffffffffffffffffffffffffffff1673ffffffffffffffffffffffffffffffffffffffff163373ffffffffffffffffffffffffffffffffffffffff1614151561196757600080fd5b5b600160009054906101000a900473ffffffffffffffffffffffffffffffffffffffff1673ffffffffffffffffffffffffffffffffffffffff1663f41e60c560016040518263ffffffff167c01000000000000000000000000000000000000000000000000000000000281526004018082151515158152602001915050600060405180830381600087803b1580156119fe57600080fd5b505af1158015611a12573d6000803e3d6000fd5b50505050565b60145481565b600b60009054906101000a900460ff1681565b60065481565b60095481565b600c5481565b60135481565b6000809054906101000a900473ffffffffffffffffffffffffffffffffffffffff1673ffffffffffffffffffffffffffffffffffffffff163373ffffffffffffffffffffffffffffffffffffffff16141515611aa457600080fd5b600073ffffffffffffffffffffffffffffffffffffffff168173ffffffffffffffffffffffffffffffffffffffff16141515611b1b57806000806101000a81548173ffffffffffffffffffffffffffffffffffffffff021916908373ffffffffffffffffffffffffffffffffffffffff1602179055505b50565b68056bc75e2d6310000081565b6000806012546002541015611b4457600f549050611b7c565b6013546002541015611b5a576010549050611b7b565b6014546002541015611b70576011549050611b7a565b657f544a44c00090505b5b5b8091505090565b6000809054906101000a900473ffffffffffffffffffffffffffffffffffffffff1673ffffffffffffffffffffffffffffffffffffffff163373ffffffffffffffffffffffffffffffffffffffff16141515611bde57600080fd5b6001601560006101000a81548160ff021916908315150217905550565b600080600080600042935060075484101580611c235750601560009054906101000a900460ff165b9250600854841115915060003414159050808015611c3e5750825b8015611c475750815b94505050505090565b6000808284019050838110151515611c6457fe5b8091505092915050565b60008082840290506000841480611c8f5750828482811515611c8c57fe5b04145b1515611c9757fe5b8091505092915050565b6000808284811515611caf57fe5b0490508091505092915050565b600b60029054906101000a900473ffffffffffffffffffffffffffffffffffffffff1673ffffffffffffffffffffffffffffffffffffffff166108fc349081150290604051600060405180830381858888f19350505050158015611d24573d6000803e3d6000fd5b50565b60008060008373ffffffffffffffffffffffffffffffffffffffff161415611d525760009150611d5d565b823b90506000811191505b509190505600a165627a7a72305820633a98533ff9833abcb7b98445b520ecb7900eae01cf3c90d3826ababea33e010029",
  "source": "pragma solidity ^0.4.13;\n\nimport './SafeMath.sol';\nimport './Pausable.sol';\nimport './LedTokenInterface.sol';\n/**\n * @title Tokensale\n * Tokensale allows investors to make token purchases and assigns them tokens based\n\n * on a token per ETH rate. Funds collected are forwarded to a wallet as they arrive.\n */\ncontract TokenSale is Pausable {\n\n  using SafeMath for uint256;\n\n  LedTokenInterface public ledToken;\n  uint256 public totalWeiRaised;\n  uint256 public tokensMinted;\n  uint256 public totalSupply;\n  uint256 public contributors;\n  uint256 public decimalsMultiplier;\n  uint256 public startTime;\n  uint256 public endTime;\n  uint256 public remainingTokens;\n  uint256 public allocatedTokens;\n\n  bool public finalized;\n\n  bool public ledTokensAllocated;\n  address public ledMultiSig = 0x9c0e9941a4c554f6e1aa1930268a7c992e3c8602;\n\n  uint256 public constant BASE_PRICE_IN_WEI = 140000000000000;//0.10 cents in wei\n  uint256 public constant PUBLIC_TOKENS = 100 * (10 ** 18);\n  uint256 public constant TOTAL_PRESALE_TOKENS = 65 * (10 ** 18);\n  uint256 public constant TOKENS_ALLOCATED_TO_LED = 100 * (10 ** 18);\n\n\n\n  uint256 public tokenCap = PUBLIC_TOKENS - TOTAL_PRESALE_TOKENS;\n  uint256 public cap = tokenCap / (10 ** 18);\n  uint256 public weiCap = cap * BASE_PRICE_IN_WEI;\n\n  uint256 public firstDiscountPrice = (BASE_PRICE_IN_WEI * 85) / 100;\n  uint256 public secondDiscountPrice = (BASE_PRICE_IN_WEI * 90) / 100;\n  uint256 public thirdDiscountPrice = (BASE_PRICE_IN_WEI * 95) / 100;\n\n  uint256 public firstDiscountCap = (weiCap * 5) / 100;\n  uint256 public secondDiscountCap = (weiCap * 10) / 100;\n  uint256 public thirdDiscountCap = (weiCap * 20) / 100;\n\n  bool public started = false;\n\n  event TokenPurchase(address indexed purchaser, address indexed beneficiary, uint256 value, uint256 amount);\n  event NewClonedToken(address indexed _cloneToken);\n  event OnTransfer(address _from, address _to, uint _amount);\n  event OnApprove(address _owner, address _spender, uint _amount);\n  event LogInt(string _name, uint256 _value);\n  event Finalized();\n\n  function TokenSale(address _tokenAddress, uint256 _startTime, uint256 _endTime) public {\n    require(_tokenAddress != 0x0);\n    require(_startTime > 0);\n    require(_endTime > _startTime);\n\n    startTime = _startTime;\n    endTime = _endTime;\n    ledToken = LedTokenInterface(_tokenAddress);\n\n    decimalsMultiplier = (10 ** 18);\n  }\n\n\n  /**\n   * High level token purchase function\n   */\n  function() public payable {\n    buyTokens(msg.sender);\n  }\n\n  /**\n   * Low level token purchase function\n   * @param _beneficiary will receive the tokens.\n   */\n  function buyTokens(address _beneficiary) public payable whenNotPaused whenNotFinalized {\n    require(_beneficiary != 0x0);\n    require(validPurchase());\n\n    uint256 weiAmount = msg.value;\n    uint256 priceInWei = getPriceInWei();\n    totalWeiRaised = totalWeiRaised.add(weiAmount);\n\n    uint256 tokens = weiAmount.mul(decimalsMultiplier).div(priceInWei);\n    tokensMinted = tokensMinted.add(tokens);\n    require(tokensMinted < tokenCap);\n\n    contributors = contributors.add(1);\n\n    ledToken.mint(_beneficiary, tokens);\n    TokenPurchase(msg.sender, _beneficiary, weiAmount, tokens);\n    forwardFunds();\n  }\n\n\n  /**\n   * Get the price in wei for current premium\n   * @return price {uint256}\n   */\n  function getPriceInWei() constant public returns (uint256) {\n\n    uint256 price;\n\n    if (totalWeiRaised < firstDiscountCap) {\n      price = firstDiscountPrice;\n    } else if (totalWeiRaised < secondDiscountCap) {\n      price = secondDiscountPrice;\n    } else if (totalWeiRaised < thirdDiscountCap) {\n      price = thirdDiscountPrice;\n    } else {\n      price = BASE_PRICE_IN_WEI;\n    }\n\n    return price;\n  }\n\n  /**\n  * Forwards funds to the tokensale wallet\n  */\n  function forwardFunds() internal {\n    ledMultiSig.transfer(msg.value);\n  }\n\n\n  /**\n  * Validates the purchase (period, minimum amount, within cap)\n  * @return {bool} valid\n  */\n  function validPurchase() internal constant returns (bool) {\n    uint256 current = now;\n    bool presaleStarted = (current >= startTime || started);\n    bool presaleNotEnded = current <= endTime;\n    bool nonZeroPurchase = msg.value != 0;\n    return nonZeroPurchase && presaleStarted && presaleNotEnded;\n  }\n\n  /**\n  * Returns the total Led token supply\n  * @return totalSupply {uint256} Led Token Total Supply\n  */\n  function totalSupply() public constant returns (uint256) {\n    return ledToken.totalSupply();\n  }\n\n  /**\n  * Returns token holder Led Token balance\n  * @param _owner {address} Token holder address\n  * @return balance {uint256} Corresponding token holder balance\n  */\n  function balanceOf(address _owner) public constant returns (uint256) {\n    return ledToken.balanceOf(_owner);\n  }\n\n  /**\n  * Change the Led Token controller\n  * @param _newController {address} New Led Token controller\n  */\n  function changeController(address _newController) public {\n    require(isContract(_newController));\n    ledToken.transferControl(_newController);\n  }\n\n\n  function enableTransfers() public {\n    if (now < endTime) {\n      require(msg.sender == owner);\n    }\n    ledToken.enableTransfers(true);\n  }\n\n  function lockTransfers() public onlyOwner {\n    require(now < endTime);\n    ledToken.enableTransfers(false);\n  }\n\n  function enableMasterTransfers() public onlyOwner {\n    ledToken.enableMasterTransfers(true);\n  }\n\n  function lockMasterTransfers() public onlyOwner {\n    ledToken.enableMasterTransfers(false);\n  }\n\n  function forceStart() public onlyOwner {\n    started = true;\n  }\n\n  function allocateLedTokens() public onlyOwner whenNotFinalized {\n    require(!ledTokensAllocated);\n    ledToken.mint(ledMultiSig, TOKENS_ALLOCATED_TO_LED);\n    ledTokensAllocated = true;\n  }\n\n  function finalize() public onlyOwner {\n    require(paused);\n    require(ledTokensAllocated);\n\n    ledToken.finishMinting();\n    ledToken.enableTransfers(true);\n    Finalized();\n\n    finalized = true;\n  }\n\n\n  function isContract(address _addr) constant internal returns(bool) {\n    uint size;\n    if (_addr == 0)\n      return false;\n    assembly {\n        size := extcodesize(_addr)\n    }\n    return size>0;\n  }\n\n  modifier whenNotFinalized() {\n    require(!finalized);\n    _;\n  }\n\n}",
  "sourcePath": "/Users/jeromeraymond/ProofTokenSale/contracts/TokenSale.sol",
  "compiler": {
    "name": "solc",
    "version": "0.4.23+commit.124ca40d.Emscripten.clang"
  },
  "schemaVersion": "2.0.0",
  "updatedAt": "2018-05-09T05:32:59.013Z"
}